:020000040800F2
:1000000098680024A503000889AD0008D98300087A
:1000100061AC0008010E000841D10008000000009A
:10002000000000000000000000000000E5020008E1
:100030002D200008000000004103000879B50008E9
:10004000C3030008C3030008C3030008C303000878
:10005000C3030008C3030008C3030008C303000868
:10006000C3030008C3030008C3030008551B0008AE
:10007000611B00086D1B0008C3030008C3030008D0
:10008000C3030008C3030008C3030008712200086B
:10009000D9220008C3030008C3030008C3030008F3
:1000A000C3030008C3030008C3030008C303000818
:1000B00011B70008C3030008C3030008C303000806
:1000C000C3030008C3030008C3030008C3030008F8
:1000D000F1B1000871CB0008C3030008C303000896
:1000E000C3030008C303000800000000C3030008A6
:1000F000C3030008C3030008C3030008C3030008C8
:10010000C3030008C3030008C3030008C3030008B7
:10011000C303000831BB0008C3030008C303000881
:10012000791B0008851B0008C3030008C3030008EF
:10013000C3030008C3030008C3030008C303000887
:1001400000000000000000000000000000000000AF
:10015000C3030008911B0008C3030008C303000881
:10016000C3030008C3030008C3030008C303000857
:10017000C3030008C3030008C30300080000000015
:10018000C3030008C30300083DBB0008C303000805
:10019000C3030008C3030008C3030008C303000827
:1001A000C3030008C3030008C303000800000000E5
:1001B000C3030008C3030008C3030008C303000807
:1001C000C3030008C3030008000000000000000093
:1001D0000000000000000000C30300080000000051
:1001E000000000000000000000000000000000000F
:1001F0000000000000000000C3030008C303000863
:10020000C3030008C303000800000000C303000884
:10021000C3030008C3030008C3030008C3030008A6
:10022000C303000800000000C30300080000000032
:10023000C3030008C303000800000000C303000854
:10024000C3030008C3030008C3030008C303000876
:10025000C3030008C3030008C3030008C303000866
:10026000C3030008C3030008C3030008C303000856
:10027000C3030008C3030008C30300080000000014
:10028000C3030008C3030008C3030008C303000836
:1002900000000000C3030008C303000800000000C2
:1002A00000000000C3030008C3030008C3030008E4
:1002B000C3030008C3030008C30300084923000860
:1002C000C3030008C3030008C3030008DFF810D00D
:1002D00000F0E2FA004800475D080108AFF3008033
:1002E000986800242C4B19680868B0E8F04F80F338
:1002F0000988BFF36F8F4FF0000080F311887047BB
:100300000000000008480068006880F308884FF08B
:10031000000080F3148862B661B6BFF34F8FBFF35D
:100320006F8F00DF00BF00BF08ED00E0DFF80C00BA
:10033000016841F470010160704700BF88ED00E082
:10034000EFF30980BFF36F8F134B1A681EF0100F85
:1003500008BF20ED108A20E9F04F106009B44FF07B
:10036000500080F31188BFF34F8FBFF36F8F11F0F0
:100370003FF84FF0000080F3118809BC1968086845
:10038000B0E8F04F1EF0100F08BFB0EC108A80F3F9
:100390000988BFF36F8F704730000024EFF30580AA
:1003A00070470000074880470748804707480047D4
:1003B000FEE7FEE7FEE7FEE7FEE7FEE7FEE7FEE715
:1003C000FEE7FEE7F521000839B60008CD02000877
:1003D0002DE9F05F0546002092469B46884606467A
:1003E000814640241BE0284641464746224600F00D
:1003F0008BF853465A46C01A914110D311461846FD
:10040000224600F016F82D1A67EB01084F462246E7
:100410000120002100F00DF817EB00094E41201ECD
:10042000A4F10104DFDC484631462A464346BDE8D4
:10043000F09F202A04DB203A00FA02F100207047E6
:100440009140C2F1200320FA03F319439040704712
:10045000202A06DBCB17203A41FA02F043EAE07388
:1004600006E041FA02F3D040C2F120029140084375
:100470001946704740EA01039B0703D009E008C909
:10048000121F08C0042AFAD203E011F8013B00F859
:10049000013B521EF9D27047D2B201E000F8012BA5
:1004A000491EFBD270470022F6E710B513460A46F4
:1004B00004461946FFF7F0FF204610BD421C10F815
:1004C000011B0029FBD1801A7047034611F8012B4C
:1004D00000F8012B002AF9D11846704730B50B46B9
:1004E000014600202022012409E021FA02F59D4264
:1004F00005D303FA02F5491B04FA02F52844151E38
:10050000A2F10102F1DC30BD202A04DB203A21FAFD
:1005100002F00021704721FA02F3D040C2F120021C
:1005200091400843194670472DE9FE4F804681EA05
:100530000300C00F0C46009021F0004123F000455D
:10054000B8EB0200A94105D24046214690461C4620
:100550000B46024623F00040104347D0270DC7F357
:100560000A00C3F30A510290401A019040286BDA46
:10057000C3F3130040F4801B0098924620B100237F
:10058000D2EB030A63EB0B0B01985946C0F1400212
:100590005046FFF74EFF06460D4650465946019A13
:1005A000FFF756FF10EB08006141002487EA115263
:1005B00084EAE7731A4340D0009A62B3019A012A91
:1005C0004FEA075215DC001B61EB02014FF00042BD
:1005D00002EA0752CDE90042001C41F58011324683
:1005E0002B4600F07AF903B0BDE8F08F4046214673
:1005F000F9E7001B61EB0201001C41F580130018B4
:100600005B412018A2F5001747EB030140EAD570C3
:10061000B6196D4111E06D084FEA360645EAC0751E
:100620004FEA0752001B61EB0201001C41F58011EB
:1006300049084FEA30000019514132462B4603B0B9
:10064000BDE8F04F00F03AB90098012240000023C5
:10065000D0EB020263EBE073009821464FEAE074AE
:10066000B8EB000061EB0401E9E783F000435BE7CE
:1006700081F0004158E72DE9FE4F81EA030404F0C0
:10068000004421F0004100944FF0000B23F00043A0
:1006900050EA01045ED052EA03045BD0C3F30A546B
:1006A000C1F30A552C44A4F2F3340194A0FB025484
:1006B000C1F3130141F48011C3F3130343F4801316
:1006C00001FB024400FB034E840A970A44EA81546A
:1006D00047EA8357A4FB076802958D0A05FB078547
:1006E0004FEA932C04FB0C542705029D4FEA065851
:1006F00047EA1637B5EB08056EEB070C870E920E2E
:1007000047EA811742EA8312A7FB0201B6EB0B010D
:1007100064EB00042B0D43EA0C335E1844EB1C50D1
:10072000DA465146E7FB0201C5F313044FEA0B33E7
:1007300043EA14534FEA0432019C43EA0603A4F14E
:100740000C040294009CCDE900B400F0C6F803B09C
:10075000BDE8F08F00200146F9E72DE9F04D81EA70
:10076000030404F0004B21F0004514464FF0000A4A
:1007700023F0004150EA050220D054EA01021DD0C6
:10078000C5F30A570246C5F31303C1F31300C1F3BF
:100790000A5640F4801543F48013A7EB0608101B9B
:1007A000D64608F2FD3873EB050002D308F10108C4
:1007B00001E092185B41B8F1000F03DA0020014616
:1007C000BDE8F08D00204FF48011064684460EE00F
:1007D000171B73EB050705D3121B63EB05030643D9
:1007E0004CEA010C49084FEA300092185B4150EA8C
:1007F0000107EDD152EA030012D082EA040083EA35
:100800000501084305D0101BAB4106D2012200238D
:1008100006E000224FF0004302E06FF001025310A7
:100820001AEB06004CEB085110EB0A0041EB0B01F0
:10083000BDE8F04D00F042B8C1F30A52C1F3130114
:1008400040F2FF3341F480119A4202DA002001465F
:10085000704740F233439A42A2F2334202DC5242E2
:10086000FFF752BEFFF7E5BD30B5041E71F100047D
:1008700004DB4FF00044404264EB0101141E73F1AD
:10088000000405DB1C464FF00043524263EB0403B7
:10089000994208BF904230BD064C074D06E0E06823
:1008A00040F0010394E8070098471034AC42F6D3B7
:1008B000FFF710FD382801085828010810B5141E4C
:1008C00073F1000408DA401C41F1000192185B4109
:1008D0001A4301D120F0010010BD2DE9F04D9246E0
:1008E0009B4611B1B1FA81F202E0B0FA80F22032F7
:1008F0009046FFF79EFD04460F4640EA0A0041EA93
:100900000B0153465A46084313D0114653EA0100DF
:1009100019D0C8F140025046FFF7F6FD05460E46D5
:10092000504659464246FFF784FD084305D0012052
:1009300004E020463946BDE8F08D0020054346EA34
:10094000E0762C4337430A986305E40AA0EB0800DD
:100950000022FD0A44EA47540A3002D5002001462D
:10096000E9E7010510196941DDE908450019694108
:10097000BDE8F04DA2E770B58C1810F8015B15F0DA
:10098000070301D110F8013B2A1106D110F8012B01
:1009900003E010F8016B01F8016B5B1EF9D12B0726
:1009A00005D40023521E0DD401F8013BFAE710F8DC
:1009B000013BCB1A921C03E013F8015B01F8015BC9
:1009C000521EF9D5A142D8D3002070BD1E489FED1C
:1009D0001D1A80ED111A80ED231A80ED351A80ED75
:1009E000471A1A49B0EE000AF8EE000A0978012900
:1009F00003D180ED120AC0ED240A154A1278012AAB
:100A000003D1C0ED360A80ED480A022903D1C0EDBA
:100A1000120AC0ED240A022A03D180ED360A80EDC5
:100A2000480A032903D1C0ED120A80ED240A032AE3
:100A300003D180ED360AC0ED480A80ED591A80EDE9
:100A40006B1A704700000000F8000024DE09002443
:100A5000DF09002401220248114604F093BA000085
:100A60000008025800220248012104F08BBA00005D
:100A7000000802587047000001220248082104F0D3
:100A800081BA00000008025800220248082104F040
:100A900079BA000000080258704730B504464FF498
:100AA0007A7502E0284600F004F8641EA4B2F9D278
:100AB00030BD70B500214FF0E0256B69C0EB001030
:100AC0004401AA69A8699042FCD003D2A2EB0002BB
:100AD000114403E0A3EB0006324411440246A14254
:100AE000F0D370BD10B5FFF7C5FFFFF7D5FF0FF0CE
:100AF0004DFB04460FF0D0FB204310BD2DE9FC4117
:100B000004460D461646002000900190FFF7AAFF0C
:100B1000922000F0BFF806226946122000F09CF8EF
:100B2000FFF798FF9DF801009DF80010000200B249
:100B30000843484F00EE100AD7ED000AB8EEC00A8D
:100B400020EE200A85ED000A9DF803009DF80210B2
:100B5000000200B2084300EE100AF8EEC00A97ED5A
:100B6000000A60EE800AC5ED010A9DF805009DF8B7
:100B70000410000200B2084300EE900AF8EEE00A0A
:100B800020EE800A85ED020AFFF77EFF0822694603
:100B9000002000F061F8FFF76FFF9DF800000F28BC
:100BA00030D19DF803009DF80210000200B2084306
:100BB00000EE100AD7ED010AB8EEC00A20EE200AB6
:100BC00084ED000A9DF805009DF80410000200B2B3
:100BD000084300EE100AF8EEC00A97ED010A60EE35
:100BE000800AC4ED010A9DF807009DF80610000276
:100BF00000B2084300EE900AF8EEE00A20EE800A08
:100C000084ED020AFFF72EFFA22000F043F8022233
:100C10006946222000F020F8FFF71CFF9DF8000035
:100C20009DF80110C00040EA5110B0F5806F02DB62
:100C3000A0F5006000B200EE100AB4EE001AF8EE63
:100C4000C00AB3EE070A00EE810A86ED000ABDE88D
:100C5000FC810000A80A002470B50D46144640F03F
:100C6000800000F017F806E0552000F013F805F8B2
:100C7000010B641EE4B2002CF6D170BD10B50C4619
:100C800040F0800000F006F8552000F003F82070D6
:100C900010BD000001B582B04FF47A7001230090BE
:100CA00001AA034802A906F0F5F89DF804000EBD5C
:100CB000B40F002410B50C46FFF7ECFF2046BDE84A
:100CC0001040FFF7E7BF000070B52DED028B444CDC
:100CD00094EDC00AD4EDDE0A30EE200ADFED410AC1
:100CE00020EE200AF6EE000A20EE200A3E4D68684B
:100CF00080ED000A686894ED980A80ED010AD4F846
:100D0000AC089FED3A8A00EE100AD5F80001B8EE63
:100D1000400A20EE080A80ED010A284608F070FD1E
:100D2000D5F8E80090ED002A84ED972A90ED010AAD
:100D300084ED990A94ED920AB7EEC00AB0EEC01B9A
:100D40009FED2B0BB4EEC01BF1EE10FA0ED2D4F8CF
:100D5000AC0800EE100AB8EE400A62EE000A94ED0C
:100D6000950A00EE880A84ED950A03E09FED220AB9
:100D700084ED950A00219FED210AC1EB011094ED4D
:100D8000A01A04EBC00201EB4100D2EDAB0A04EB68
:100D9000C00070EE600A70EEC10AC0EDE80AD2ED44
:100DA000AC0A94EDA11AF1EE600A70EEC10AC0ED32
:100DB000E90AD4ED950AC0EDEA0AD4ED970AC0ED30
:100DC000EB0AD4EDA00AC0EDEC0AD4EDA10AC0ED07
:100DD000ED0A491CC9B20229CFD3BDEC028B70BD0C
:100DE000F8000024EC51B83D2C5500246F12833AD2
:100DF00000000040E17A843F00000000DB0FC93FA3
:100E0000FEE700004A780978DFED060A42EA012190
:100E100009B200EE101AB8EEC00A80EE201A80ED7A
:100E2000001A704700007A4410B504462DED108B6F
:100E3000B0EE40EAB0EE60FA82B0B7EECF0AB0EEA4
:100E400040AB0CF095FF9FED8F8B20EE080BF7EE7B
:100E5000C0CBB7EECE0AB0EE409B0CF089FF20EE7F
:100E6000080BF7EEC0EBB0EE4A0B0CF081FE20EE63
:100E7000080BB7EEC0BBB0EE490B0CF079FE20EECC
:100E8000080BF7EEC0BB7CEEEEAA3BEE6BAA2AEE97
:100E90000A0A0AEEAA0AB7EEC00A0DF08BF8B7EEFE
:100EA000C00BF6EE000A2AEE20CA2AEEA0AADFED59
:100EB000770AB0EE601A00EE001A71EE60AA2CEE0E
:100EC0000C0A0AEE0A0A0AEEEA0AB7EEC00A0DF0A8
:100ED00071F8B7EECA1A30EE010B3CEE2A1AB7EEE3
:100EE000C11A0CF005FCB0EE001B20EE010BB7EEB2
:100EF000C0CBB7EECC0AB0EE40AB0CF039FE3BEE07
:100F0000CB1AB5EE00BBB7EEC1DA00EE0BDBB0EEEC
:100F10004A0B0CF02DFFB0EE401B3EEEEC0AB7EE94
:100F2000C00A01EE0B0BB0EE4D1B0CF0E1FBF7EE2F
:100F3000C0CBB0EE490B0CF01BFE20EE08DBB0EE90
:100F40004A0B0CF015FE00EE0BDBB7EECDDBB0EE7E
:100F5000490B0CF00DFF20EE089BB0EE4A0B0CF095
:100F600007FF00EE0B9BB7EEC99B2DEE0D0A09EEB5
:100F7000090AB7EEC00A0DF01DF8B7EEC01B8DEDE3
:100F8000011AB7EECD1AB7EEC90A0CF0B1FBF7EEB5
:100F9000C0EB3EEEEC0AB7EEC0AAB0EE4A0B0CF086
:100FA000E7FE20EE089B3EEE4C0AB7EEC0BAB0EE6C
:100FB0004B0B0CF0DDFE29EE00DB3CEECC0AB7EE6D
:100FC000C09AB0EE490B0CF0D3FE8DEE001BF7EE8D
:100FD000C1FB3EEECC0AB7EEC0DAB0EE4D0B0CF022
:100FE000C7FE20EE08EB3CEECF0AB7EEC0CAB0EE6B
:100FF0004C0B0CF0BDFE2EEE00EBB0EE490B0CF0EE
:10100000B7FE8EEE001BB7EEC1EBB0EE4A0B0CF054
:10101000AFFD20EE08ABB0EE4B0B0CF0A9FE2AEEB4
:1010200000BBB0EE490B0CF0A3FE9DED011AB7EE2C
:10103000C1AA20EE0A0B8BEE001BB7EEC1BBB0EECF
:101040004D0B0CF095FD20EE088BB0EE4C0B0CF028
:101050008FFE28EE008BB0EE490B0CF089FE20EEDF
:101060000A0B88EE001BB7EEC10BC4ED00FA84ED4D
:1010700001EA84ED02BA84ED030A02B0BDEC108BE4
:1010800010BD0000000000A047E1CA3F0000803D05
:1010900090ED000AD1ED000A524B20EE200A83EDBC
:1010A0002C0A90ED010AD1ED010A20EE200A83ED11
:1010B0002D0A90ED020AD1ED020A20EE200A83EDFE
:1010C0002E0A90ED030AD1ED030A20EE200A83EDEB
:1010D0002F0A90ED040A83ED300A90ED050AD1ED58
:1010E000050A20EE200A83ED310A90ED060AD1EDC3
:1010F000000A20EE200A83ED320A90ED070AD1EDB6
:10110000010A20EE200A83ED330A90ED080AD1EDA2
:10111000020A20EE200A83ED340A90ED090AD1ED8F
:10112000030A20EE200A83ED350A90ED0A0AD1ED7C
:10113000040A20EE200A83ED360A90ED0B0AD1ED69
:10114000050A20EE200A83ED370A90ED000AD1ED62
:10115000000A91ED011A20EE200AD0ED010A00EEFE
:10116000810AD0ED020A91ED021A00EE810AD0ED5B
:10117000030A91ED031A00EE810AD0ED040A91ED05
:10118000041A00EE810AD0ED050A91ED051A00EE71
:10119000810A82ED000A90ED060AD1ED000A91ED78
:1011A000011A20EE200AD0ED070A00EE810AD0EDE8
:1011B000080A91ED021A00EE810AD0ED090A91EDBC
:1011C000031A00EE810AD0ED0A0A91ED041A00EE2E
:1011D000810AD0ED0B0A91ED051A00EE810A82ED2D
:1011E000010A7047F808002490ED001AD0ED022A99
:1011F00090ED012AD0ED031A21EE001A02EEA01A9A
:1012000022EE000A01EEA00A81ED001A81ED010A2A
:1012100070470000F0B4DDE904560C4C44F8100CA3
:1012200044F80C1C170A277662761A0AA276E3762F
:101230002A0A22776577320AA277E67704F1180244
:10124000F0BC89B208230FF0BBB80000100B0024DB
:101250000A48007A0A280ED2DFE800F00D0D0705D3
:10126000090D0D0D0D0B00F0EFBB00F0EDBB00F014
:10127000D3BBFFF7ABBB00F037BC0000F800002485
:1012800010B51D4C94F83800002808D094F8800060
:1012900028B194F8C80010B194F81001C0B91648EC
:1012A0000C3000F0DDFE01200FF028FB1248543016
:1012B00000F0D6FE01200FF021FB0F489C3000F01B
:1012C000CFFE01200FF01AFB0B48E43000F0C8FEFF
:1012D000207A03280CD1607A032809D007484FF4FC
:1012E000C671FFF7E0F8002084F8200384F8980323
:1012F000207A607210BD0000F80000244C03002426
:101300002DE9F04F2DED048BAFB00FF04DF9CA4D24
:1013100028600024671E012305F10C001A46B7EE71
:10132000000ACDE900741946804609F011FD012339
:1013300005F154001A4602218146B7EE000ACDE9B4
:10134000007409F005FD012605F19C0033460321D8
:101350003246B7EE000ACDE90064824609F0F8FC97
:10136000012305F1E4001A4604218346B7EE000A82
:10137000CDE9006409F0ECFC9FEDB08A0023022265
:101380000121B0EE480ACDE9007405F5967009F028
:10139000DFFC022200231146B0EE480ACDE90064CA
:1013A00005F5BA7009F0D4FC404600F059FE012062
:1013B0000FF0A4FA484600F053FE01200FF09EFA09
:1013C000504600F04DFE01200FF098FA584600F00C
:1013D00047FE9B4804700221417003218170C47054
:1013E0004FF4C67105F51570FFF75DF8982105F506
:1013F000DE70FFF758F885F8204385F898432E7281
:101400002CAB904C94E8070007C30021F6EE000ACD
:10141000B2EE040A2CAA05F5846009F071FDD4E946
:10142000041229ABE06807C30021F7EE000AB1EE11
:10143000000A29AA05F2647009F062FDD4E90712D6
:1014400026ABA06907C3DFED808A0021B2EE040A53
:10145000F0EE680A26AA05F5F66009F051FDD4E918
:101460000A1223AB606A07C30021F0EE680AB2EEED
:10147000040A23AA05F2FC7009F042FDD4E90D121A
:1014800020AB206B07C3F0EE680A9FED709A002135
:1014900020AAB0EE490A05F5976009F031FD9FEDED
:1014A0006C8A05F5806585ED328A0021F0EE680AC8
:1014B000B0EE490A20AA05F5827009F021FD85EDFC
:1014C000458AD4E910121DABE06B07C3F0EE680A41
:1014D0009FED600A00211DAA05F5207009F010FD9E
:1014E000D4E91302A16CCDE91B021A91F0EE680A4F
:1014F0009FED590A00211AAA05F16C0009F000FDC0
:10150000D4E9161217AB606D07C30021F0EE680A2C
:10151000B1EE040A17AA05F5F47009F0F1FC9FED8D
:101520004F8A05F58960B0EE480A08F0ABFCB0EED2
:10153000480A05F58A6008F0A5FCB0EE680A05F5D2
:101540008B6008F09FFCB0EE680A05F58C6008F02F
:1015500099FCB0EE680A05F58D6008F093FCB0EEDA
:10156000680A05F58E6008F08DFC9FED3D8A05F553
:101570008F60B0EE480A08F085FCB0EE480A05F529
:10158000906008F07FFCB0EE680A05F5916008F005
:1015900079FCDFED348A05F59260B0EE680A08F058
:1015A00071FCB0EE680A05F5936008F06BFCB0EED4
:1015B000480A05F5946008F065FC214802230022E2
:1015C00019460C3007F03AFED4E91A03D4E9181290
:1015D000CDE91503CDE9131270340FCC0FAC0FC455
:1015E00018480BAD803090E81E001EC500F11001B8
:1015F00007AD1EC91EC5D0E9092303AC016AC06A44
:101600000EC4069013AA18493CCA88683CC007AAB1
:1016100008683CCA3CC00FAAC8693CCA3CC00BAAB7
:10162000086A3CCA3CC0486903A91EC91EC02FB045
:10163000BDEC048BBDE8F08FF80000243C3C7C41FD
:1016400020550024D41801080000000000007A434F
:10165000CDCC4C3E00008743000070429A99193F60
:101660006666663FCDCC4C3F2456002410B50FF083
:10167000C9FF0F4CD4F8A818401AC4F8AC080FF0F2
:10168000C1FFC4F8A808D4F81C04401CC4F81C040A
:101690000BF0DEFC0BF072FA0BF09CFB0BF0F6FC8F
:1016A000FFF712FB0BF08CFBBDE810400BF020BBEA
:1016B000F800002470B52DED048B86B000210026C3
:1016C00000259FED8A8AB0EE489A894C2068B0F9CF
:1016D000022002F11403292B00D31146B0F9042093
:1016E00002F11403292B00D31646B0F9080000F1CB
:1016F0001402292A00D30546002003900490059087
:1017000000900190029000EE101AB8EEC00ADFEDD2
:10171000798AF1EE020A20EE280A20EE200A7648A5
:10172000B0EE042BB7EEC00A017A01EE101AB8EE43
:10173000411B01EE020BB7EEC00B407A01EE100A1E
:10174000B8EE411BB7EEC00A9FED6C2B01EE420BC9
:10175000B7EEC00B6B4808F081FB6A48A038D0EDAB
:10176000299ACDED039A704200EE100AB8EEC00A35
:1017700060EE280AB2EE0E0A20EE802AB7EEC20A08
:10178000B0EEC00B9FED601BB4EEC10BF1EE10FA92
:1017900010DCD4EDF70A9FED5E0A0EF03FF9F0EE93
:1017A000400A94EDF70A70EE200A5A4809F0EEFA62
:1017B000B1EE402A4E4EB7EE000A403ED6ED0B0A7F
:1017C00030EE601A96ED0A0A21EE000A02EE200AB7
:1017D00086ED0A0A8DED050A207A032857D00928DC
:1017E0005CD084ED928A84ED938A84ED948A002102
:1017F00001EB410004EBC00080ED828A80ED838A1A
:1018000080ED848A94ED920A80ED850A80ED868AC7
:1018100080ED878A491CC9B20229E9D3207A9FED5D
:101820003E0A9FED3E1ADFED3E0A03283DD009280F
:101830003BD086ED0C0AC6ED020A96ED020A0EF0C8
:10184000A3FE86ED020A9FED371ADFED370A96ED0B
:101850000C0A0EF099FE86ED0C0AD6ED020AC4EDD4
:101860008E0AC4ED8F0A84ED900A84ED910A29EE68
:10187000280ADFED2E0A9FED2E1A20EE200A0EF028
:1018800083FE84ED7E0A06B0BDEC048B70BDC4ED12
:10189000929A84ED938A84ED940AA8E784ED928A63
:1018A00084ED938A84ED948AA1E786ED0C0A00EE1C
:1018B000105A9FED202AB8EEC00A60EE281A96ED65
:1018C000020A01EEC20A86ED020A94F91804012800
:1018D00006D0022807D00328AFD1C6ED020AACE734
:1018E000C6ED020AA9E786ED021AA6E7000000008D
:1018F000F80000240C98C63AD25400243333333312
:101900003333F33F98090024000000E04D62503F5C
:1019100014572FC0E0060024DB0FC93F3333B33E1A
:10192000295C0F3EDB0FE93FDB0FA93F9A9999BE77
:101930009A99993E6F12833A10B509F00BFDBDE8F4
:10194000104009F0C1BD000070B52A4C0125206887
:101950008189022902D14289022A02D0032902D0B8
:1019600004E025721DE04289022A03D003220129E6
:1019700003D005E00221217213E04389022B02D03B
:10198000012902D004E022720BE04389012B02D02E
:10199000022902D004E0227203E0418903290BD01E
:1019A00025720023B0F9060010F5257F07D084F8D2
:1019B000203384F8983370BD09212172F1E70021AA
:1019C000C1EB011004EBC00090F8202332B1D0F835
:1019D0001C63322E02D980F8203306E02AB9D0F8F1
:1019E0001823322A01D980F82053491CC9B2022990
:1019F000E6D370BDF800002405480068016841F096
:101A00001001016003494FF4C872014806F0EABBB7
:101A1000641400247E5700240948B8EE000A80EDC3
:101A2000120AF0EE000AC0ED240AC0ED360A80ED7D
:101A3000480A9FED040A80ED590A80ED6B0A704751
:101A4000F8000024000000002DE9F04108F060F9E2
:101A500008F05EF8234E96EDFA0AB1EE400A86EDE4
:101A6000110A96EDFB0AB1EE400A86ED230A06F54F
:101A7000806797ED010A86ED350A97ED020A86ED3B
:101A8000470A0024307A02281DD004EBC400B3EECC
:101A9000041A06EBC005FBEE040A95ED110A0EF0E0
:101AA00073FD85ED110A641CE4B2042CEAD396EDB3
:101AB000FE0AB1EE400A86ED590A97ED050A86ED59
:101AC0006B0ABDE8F08104EBC400B3EE0E1A06EB1E
:101AD000C005FBEE0E0A95ED110A0EF055FD85EDE1
:101AE000110AE0E7F800002410B52DED028B184C28
:101AF0009FED168A84ED118A84ED238A84ED358A60
:101B000084ED478A84ED128A84ED248A84ED368A36
:101B100084ED488A84ED5A8A84ED6C8A94ED500AEB
:101B2000F0EE480A04F2CC6009F030F984ED5C0A6A
:101B300094ED620AF0EE480A04F5E36009F026F934
:101B400084ED6E0ABDEC028B10BD000000000000A9
:101B5000F8000024014801F089BC00003C1000247A
:101B6000014801F083BC00007C160024014801F00C
:101B70007DBC0000B4100024014801F077BC0000D7
:101B8000F4160024014801F071BC00008C150024FB
:101B9000014801F06BBC00000416002410B52C4A6B
:101BA000016891423AD02A4A1832914236D0284AE6
:101BB0003032914232D0264A483291422ED0244AC5
:101BC000603291422AD0224A7832914226D0204A6D
:101BD0009032914222D01E4AA83291421ED01D4A14
:101BE00091421BD01B4A1832914217D0194A303209
:101BF000914213D0174A483291420FD0154A6032B1
:101C000091420BD0134A7832914207D0114A903258
:101C1000914203D00F4AA832914214D1CAB2103A6D
:101C20001823B2FBF3F20C4C02F00703E35CC3652C
:101C3000032A04D96FF30901091D816506E06FF3DA
:101C40000901816502E021F0FF018165806D10BD11
:101C500010000240100402403818010810B5016855
:101C60000123224CCAB2A1421BD0204C1434A14201
:101C700017D01E4C2834A14213D01C4C3C34A14236
:101C80000FD01A4C5034A1420BD0184C6434A142EE
:101C900007D0164C7834A14203D0144C8C34A142A6
:101CA0000FD1083A1421B2FBF1F1114A02EB810283
:101CB00002660F4A8032426601F01F018B40836644
:101CC00010BD103A1824B2FBF4F20A4C2144A829A2
:101CD00000D80832084901EB8201016606498031CB
:101CE000416602F01F018B40836610BD0854025804
:101CF00000580258F0FBFDBF000802400279521E56
:101D0000072A31D8194B016899421BD0174B14335D
:101D1000994217D0154B2833994213D0134B3C33BB
:101D200099420FD0114B503399420BD00F4B643373
:101D3000994207D00D4B7833994203D00B4B8C332B
:101D4000994207D10A4901EB8201C1660849403135
:101D5000016706E0074901EB8201C1660549403190
:101D60000167012191404167704700000854025803
:101D70000059025800090240014610B500208B6945
:101D80004FF0C0748A6A002B0ED0B3F5005F1AD0F2
:101D900062B3012A2AD0022A28D0032A03D1C96AB1
:101DA000C90100D5012010BD1AB1012A06D0022AAE
:101DB000F9D1C96AC901F6D5012010BDC96AA1428D
:101DC000FBD1012010BD52B1012A0AD0022A06D04F
:101DD000032AF7D1C96AA142F4D1012010BD012024
:101DE00010BDC96AC901FBD5012010BD012010BD7D
:101DF0002DE9F04F856D8A4E894FDFF824C2A83651
:101E0000DFF81C82DFF818920CF1180CDFF810A232
:101E100008F13008DFF808B209F1480904680AF14E
:101E2000600A0BF1780BBC426DD064456BD0444521
:101E300069D04C4567D0544565D05C4563D0DFF828
:101E4000E0E10EF1900E74455DD0B4425BD0DFF856
:101E5000D4E1744557D0DFF8CCE10EF1180E74458B
:101E600051D0DFF8C0E10EF1300E74454BD0DFF8F1
:101E7000B4E10EF1480E744545D0DFF8A8E10EF14B
:101E8000600E74453FD0DFF89CE10EF1780E74458A
:101E900039D0DFF890E10EF1900E744533D0DFF8C1
:101EA00084E10EF1A80E74452DD0DFF87CE1744575
:101EB00029D0DFF874E10EF1140E744523D0DFF859
:101EC00068E10EF1280E74451DD0DFF85CE10EF1DB
:101ED0003C0E744517D0DFF850E10EF1500E7445FA
:101EE00011D0DFF844E10EF1640E74450BD0DFF839
:101EF00038E10EF1780E744505D0DFF82CE10EF1D3
:101F00008C0E744509D1D0E919E4CEF80440C46EB2
:101F10001CB1D0E91CE4CEF804400468BC422ED0C9
:101F200064452CD044452AD04C4528D0544526D071
:101F30005C4524D03A4F9037BC4220D0B4421ED0EA
:101F4000384EB4421BD0374E1836B44217D0354EF7
:101F50003036B44213D0334E4836B4420FD0314EEF
:101F60006036B4420BD02F4E7836B44207D02D4E97
:101F70009036B44203D02B4EA836B4421BD190F811
:101F80005C4004F01F063F24B440AC600468256840
:101F900025F480252560046863608368402B05D0A4
:101FA000036899600068C260BDE8F08F03689A60BA
:101FB0000068C160F8E71C4EB4421BD01A4E1436BC
:101FC000B44217D0184E2836B44213D0164E3C36C1
:101FD000B4420FD0144E5036B4420BD0124E643679
:101FE000B44207D0104E7836B44203D00E4E8C3631
:101FF000B442D9D190F85C4004F01F060124B440EB
:102000006C60046863608368402B04D00368996047
:102010000068C260C8E703689A600068C160C3E7EF
:10202000100002401004024008540258704710B5D6
:102030000446208820810A78487840EA02202080DF
:102040008A78C87840EA022060800A79487940EAB4
:102050000220A0808879A07102F09CFFE06010BD92
:1020600010B50446204600F0F9FA002805D0628930
:102070002178BDE8104000F0A3B810BD70B504464B
:102080000D46287800F00F00206028780009606075
:102090006978A87840EA0120A060E9782A790901E6
:1020A00041EA1211E1602A79697902F00F0241EAEE
:1020B000022121611021DFED170A9FED170A0FF0B1
:1020C00043F884ED070AE0680C21DFED140A9FED68
:1020D000140A0FF039F884ED080A20690C21DFEDAD
:1020E000110A9FED110A0FF02FF884ED090AA87963
:1020F00000EE100AB8EE400A84ED0C0AE87900EE12
:10210000100AB8EE400A84ED0D0A02F043FFA06306
:1021100070BD0000DA0F4941DA0F49C100003442B6
:10212000000034C200005842000058C210B50446F6
:10213000204600F093FA00280ED021789FED070A80
:1021400094ED0E2ABDE81040F0EE401AB0EE401AB1
:10215000F0EE400A08F086BD10BD0000000000004F
:1021600010B504462DED028BB0EE408A204600F0FB
:1021700075FA002810D02178D4ED0F0A9FED080AD7
:10218000F0EE481ABDEC028BB0EE402AB0EE401AD9
:10219000BDE8104008F066BDBDEC028B10BD00002C
:1021A0000000000010B50446204600F057FA002851
:1021B00005D062892178BDE8104009F0B3B810BDA0
:1021C0000A4B43F8100C0A4443F80C2CFF211976F3
:1021D00059769976D976197759779977FC21D977F5
:1021E00091B2024A082318320EF0EAB8100B00240C
:1021F00072B6FEE70548016841F00201016003483C
:10220000083801688904FCD5704700000C48025862
:1022100010B58AB000240294039402200490012097
:1022200005900694079402A9104802F0DAF808B164
:10223000FFF7DEFF02220D4800231146009402F052
:1022400014F908B1FFF7D4FF08480022012102F079
:102250004FF808B1FFF7CCFF044802F067FD0028F3
:1022600001D0FFF7C5FF0AB010BD0000D40D002457
:10227000014802F0EBB90000D40D002410B58AB07B
:10228000002402940394022004900590069407947D
:1022900002A9104802F0A5F808B1FFF7A9FF022231
:1022A0000C4800231146009402F0DFF808B1FFF754
:1022B0009FFF08480022102102F01AF808B1FFF72A
:1022C00097FF044802F032FD002801D0FFF790FF8D
:1022D0000AB010BD740E0024014802F0B7B9000026
:1022E000740E002410B58AB0002402940394049460
:1022F000012005908002069040F2FF70079011487F
:1023000002A902F06EF808B1FFF772FF02220D4831
:1023100000231146009402F0A8F808B1FFF768FF07
:1023200008480022012101F0E3FF08B1FFF760FF38
:10233000044802F0FBFC002801D0FFF759FF0AB067
:1023400010BD0000140F0024014802F07FB9000006
:10235000140F002430B5426B036853F8844F4FF6D6
:10236000FC718C4344EA82041C60036853F8844F78
:10237000058F24F47F0444EA05441C60836B1A44EF
:10238000036853F8884F8C4344EA82041C60036856
:1023900053F8884F858F24F4FE0444EA05441C60FA
:1023A000C36B02EB4302036853F8A04F8C4344EA2B
:1023B00082041C60036853F8A04FB0F8405024F426
:1023C000FE0444EA05441C60D0E9103403FB0422F7
:1023D000036853F8B04F8C4344EA82041C600368DE
:1023E00053F8B04FB0F8485024F4FE0444EA0544D2
:1023F0001C60D0E9123403FB0422036853F8AC4F8D
:102400008C4344EA82041C60D0E9143403FB0422A8
:10241000036853F8F04F8C4344EA82041C6003685D
:1024200053F8F04FB0F8585024F47C1444EA0544B3
:102430001C60836D02EB4303026852F8C04F8C436B
:1024400044EA83011160016851F8C02FB0F85C3094
:1024500022F47C1242EA03420A60016851F8C02F5C
:1024600090F8603022F07C5242EA03620A60416BCD
:10247000224A02EB8101C166826B01EB8202026794
:10248000C36B02EBC3024267D0E91034634302EB33
:1024900083028267D0E91234634302EB8302C2678E
:1024A000D0E91434634302EB8302C0F88020836DCB
:1024B00002EBC302C0F88420C46D836E5C4302EB60
:1024C0008402C0F88820046E5C4302EB8402C0F8EA
:1024D00090200B4B9A4208D99830416841F0200176
:1024E000416003210170012030BD002200E004C1E1
:1024F000D0F890308B42FAD8002030BD00AC0040BC
:10250000FCD30040F0B5D1E901650C692C430D689E
:10251000002E1AD045F080452C4391F82070D1E967
:10252000066535434E6946EA076635438E8945EAB6
:102530000645D0F88460806E584306EB80031C602B
:102540005D60083300200B4E0FE044EA8544E4E769
:102550001418155CE77845EA0765A77864783F04A6
:1025600047EA0424254320C3001DCC68345D84421F
:10257000EED8F0BD4018010870B504460D46DFEDF9
:102580001C0AB5F9020000EE100AB8EEC00A20EEEF
:10259000200A84ED050A28889FED171A400000EEF6
:1025A000100AF8EE400A9FED130A60EE800A10EE62
:1025B000810A84ED070AA87900EE100AB8EE400AF5
:1025C00084ED080AB5F9040000EE100AB8EEC00A5E
:1025D00084ED090A2888608502F0DCFCE968401A6D
:1025E0000A2802D90120207370BD0020207370BD1D
:1025F0005077D63DDB0F4940000000390C2901D24D
:10260000022801D0034870470248103800EB01103F
:1026100070470000685D002470B504460D4695EDD6
:10262000070A84ED070A95ED080A84ED050A95ED81
:10263000090A84ED060A95ED0C0A84ED080A28794A
:1026400084F82C0002F0A6FCA96B401A0A2802D9D3
:102650000120207370BD0020207370BD41780129D6
:1026600001D0002070478078012803D0022803D0D1
:10267000002070470148704701487047D40D00247E
:10268000740E002460EE000A20EE801AEB4A137AE2
:10269000022B7CD1DFEDEA1A61EE211A9FEDE92AC7
:1026A00040EE821A9FEDE82A40EE021A9FEDE72ADB
:1026B00071EE821AC0ED001ADFEDE51A61EE211A03
:1026C0009FEDE42A40EE821A9FEDE32A40EE021AC3
:1026D0009FEDE22A71EE821AC0ED011ADFEDE01AD9
:1026E00061EE211A9FEDDF2A40EE821A9FEDDE2A6D
:1026F00040EE021A9FEDDD2A71EE821AC0ED021A39
:10270000DFEDDB1A61EE211A9FEDDA2A40EE821A24
:102710009FEDD92A40EE021A9FEDD82A71EE821A57
:10272000C0ED031ADFEDD61A61EE211A9FEDD52A0E
:1027300040EE821A9FEDD42A40EE021A9FEDD32A72
:1027400071EE821AC0ED041ADFEDD11A61EE211A82
:102750009FEDD02A40EE821A9FEDCF2A40EE021A5A
:102760009FEDCE2A71EE821AC0ED051ADFEDCC1A6C
:1027700061EE211A9FEDCB2A40EE821A9FEDCA2A04
:1027800040EE021A9FEDC92A71EE821A00E05BE06A
:10279000C0ED061ADFEDC61A61EE211A9FEDC52ABB
:1027A00040EE821A9FEDC42A40EE021A9FEDC32A22
:1027B00071EE821AC0ED071ADFEDC11A61EE211A1F
:1027C0009FEDC02A40EE821A9FEDBF2A40EE021A0A
:1027D0009FEDBE2A71EE821AC0ED081ADFEDBC1A19
:1027E00061EE211A9FEDBB2A40EE821A9FEDBA2AB4
:1027F00040EE021A9FEDB92A71EE821AC0ED091A55
:10280000DFEDB71A61EE211A9FEDB62A40EE821A6B
:102810009FEDB52A40EE021A9FEDB42A71EE821A9E
:10282000C0ED0A1ADFEDB21A61EE211A9FEDB12A4E
:1028300040EE821A9FEDB02A40EE021A9FEDAF2AB9
:1028400071EE821AC0ED0B1A137A032B7ED1DFEDE5
:10285000AC1A61EE211A9FEDAB2A40EE821A9FED71
:10286000AA2A40EE021A9FEDA92A71EE821AC0ED43
:10287000001ADFEDA71A61EE211A9FEDA62A40EE9D
:10288000821A9FEDA52A40EE021A9FEDA42A71EE4E
:10289000821AC0ED011ADFEDA21A61EE211A9FED36
:1028A000A12A40EE821A9FEDA02A40EE021A9FED67
:1028B0009F2A71EE821AC0ED021ADFED9D1A61EEB9
:1028C000211A9FED9C2A40EE821A9FED9B2A40EE32
:1028D000021A9FED9A2A71EE821AC0ED031ADFEDFB
:1028E000981A61EE211A9FED972A40EE821A9FED09
:1028F000962A40EE021A9FED952A71EE821AC0EDDB
:10290000041ADFED931A61EE211A9FED922A40EE30
:10291000821A9FED912A40EE021A9FED902A71EEE5
:10292000821AC0ED051ADFED8E1A61EE211A9FEDB5
:102930008D2A40EE821A9FED8C2A40EE021A9FEDFE
:102940008B2A71EE821AC0ED061A00E059E0DFED25
:10295000881A61EE211A9FED872A40EE821A9FEDB8
:10296000862A40EE021A9FED852A71EE821AC0ED8A
:10297000071ADFED831A61EE211A9FED822A40EEDD
:10298000821A9FED812A40EE021A9FED802A71EE95
:10299000821AC0ED081ADFED7E1A61EE211A9FED52
:1029A0007D2A40EE821A9FED7C2A40EE021A9FEDAE
:1029B0007B2A71EE821AC0ED091ADFED791A61EEF9
:1029C000211A9FED782A40EE821A9FED772A40EE79
:1029D000021A9FED762A71EE821AC0ED0A1ADFED17
:1029E000741A21EE211ADFED731A00EEA11ADFED41
:1029F000720A00EE201A9FED710A31EE000A80ED96
:102A00000B0A002918D0117A022915D09FED6C0A03
:102A100080ED000A80ED010A80ED020A80ED030AD4
:102A200080ED040A80ED050A80ED080A80ED090AB0
:102A300080ED0A0A80ED0B0A70470000F8000024C0
:102A40004CD78BC21176FF42EA84B1C2E9480EBF6F
:102A500098DD01418716B3C0B1BF80C0787AA5BCAC
:102A6000D6C5EFC08273524107CEFBC04547923EA8
:102A7000DDB511C139C58741AF942CC176E09C3ECC
:102A8000D9EECE42072E8DC223DB0FC1F0968241D4
:102A900051DAB7405C8FEABF48BF75C0C6DC394029
:102AA000E74D55440D484FC421EF5D438E759E415F
:102AB0009C730B42664821C2EF385A41AED81F4082
:102AC00036BC58426D271BC24F40E3BF45D8D840A3
:102AD000535680422ED02CC28A1FBFC0B81E204140
:102AE000CC5DE143E02631C47FF3C643F2D2B2C1EC
:102AF000CBB09942AAA0E5C237DA7C425452B9C0A1
:102B0000F3DF5DC2C956DC429663A7C24DF312C023
:102B1000FAEDE140EF388DC008ACA2C0CCEE09BEA2
:102B20008D283D3F705FA740711BB7C04C3709BE71
:102B30001A515240A7798F401D5ADEC05F29CBBE83
:102B4000304ACE4281C494C2FA7E46C1CE88AC419E
:102B5000A8C6B9C0F31F15411361F5C0E25867401C
:102B60009BF95D44AC7D5CC44D745F43356F1D4281
:102B700070DF414297105AC28B6C734180B7C240DC
:102B80006AFE87421CBC55C2B84042BF09F91D41CC
:102B90005AE4284295D4AAC1F2B098C187167E4162
:102BA000EB6382436E6C1CC40B05E4433C4E4EC188
:102BB000BB67714221BFC8C277AD7842A4DFA0C015
:102BC0000000000010B504462DED0A8BB0EE408ADF
:102BD000B7EEE00AB0EE40AB0BF0CAF89FED479BB2
:102BE00020EE090BB7EEC0BBB7EEC80AB0EE408BC3
:102BF0000BF0BEF820EE090BF7EEC0BBB0EE4A0BAF
:102C00000AF0B6FF20EE090BB7EEC0ABB0EE480BF2
:102C10000AF0AEFF20EE090BB7EEC00B7BEE6BAAFD
:102C20003AEE40AA2AEE0A0A0AEEAA0AB7EEC00A4B
:102C30000BF0C0F9B7EEC00BF6EE000A2AEE20BA90
:102C40006AEEA0AA9FED2F1AF0EE410A40EE000AAC
:102C500030EEC1AA2BEE0B0A0AEEAA0A0AEE4A0AC5
:102C6000B7EEC00A0BF0A6F9B7EEEA1A30EE010B88
:102C70003BEE0A1AB7EEC11A0AF03AFDB0EE001B9D
:102C800020EE010BB7EEC0ABB0EE480B0AF070FFC0
:102C900020EE09BBB7EECA0AB0EE40AB0AF068FFFF
:102CA000B5EE00CB00EE0CBBB7EECBBBB0EE480BE5
:102CB0000BF05EF820EE098BB0EE4A0B0BF058F8E3
:102CC00000EE0C8BB7EEC88B2BEE0B0A08EE080A51
:102CD000B7EEC00A0BF06EF9F7EEC08BB7EECB1A69
:102CE000B7EEC80A0AF004FDB7EEC00BC4ED008AC7
:102CF00084ED010ABDEC0A8B10BD0000000000A0AD
:102D000047E1CA3F0000803DD0ED001A90ED032A54
:102D1000D0ED012A90ED023A21EE821A02EEC31A9A
:102D2000C2EE013AB1EE622AC2EE012AB1EE433A96
:102D300083EE012A81EE813A23EE801A02EE201AF8
:102D400022EE800A03EE200A81ED001A81ED010ACD
:102D500070470000024610B55078002810D00128B6
:102D60001AD19078012817D110780C49401EBDE87F
:102D70001040C0EB001001EB80011046FFF74CBC87
:102D80001078401EC1B29078FFF738FC014610461B
:102D9000BDE81040FFF7F0BB10BD0000685C0024E8
:102DA0000346104610B5002B01D0084C0AE04FF640
:102DB000FF7010BD13F8012B4240D2B234F812203C
:102DC00082EA1020491E4A1CF4D110BDA41B010840
:102DD00010B5054C03E010F8013B5340E25C491E7E
:102DE0004B1CF8D1104610BDA41A0108014890ED03
:102DF000690A704710590024014890ED680A70472D
:102E000010590024014890ED6A0A704710590024B7
:102E100090ED001AD0ED011A21EE001A01EEA01A71
:102E2000D0ED021A21EE800AD0ED031A01EEA00ABD
:102E300081ED001A81ED010A704700002DE9F84F7D
:102E4000044602F0A7F800905CB194F8350002281F
:102E500009D080206065002084F834000120BDE89E
:102E6000F88F0120FBE7D14ED04FD0491836DFF85C
:102E70003C833037DFF83493DFF830A308F148089B
:102E8000DFF828B309F1600920680AF1780A0BF12C
:102E9000900B88422ED0B0422CD0B8422AD0404568
:102EA00028D0484526D0504524D0584522D0BF4A86
:102EB000A83290421ED0BE4A90421BD0BC4A183263
:102EC000904217D0BA4A3032904213D0B84A4832B2
:102ED00090420FD0B64A603290420BD0B44A78325A
:102EE000904207D0B24A9032904203D0B04AA83202
:102EF00090420AD1026822F01E02026020684269F4
:102F000022F080024261256804E0026822F00E028D
:102F100002602568206888424DD0B0424BD0B8424C
:102F200049D0404547D0484545D0504543D0584505
:102F300041D09E4AA83290423DD09D4A90423AD01C
:102F40009B4A1832904236D0994A3032904232D061
:102F5000974A483290422ED0954A603290422AD009
:102F6000934A7832904226D0914A9032904222D0B1
:102F70008F4AA83290421ED08E4A90421BD08D4A72
:102F80001432904217D08B4A2832904213D0894A8B
:102F90003C3290420FD0874A503290420BD0854A43
:102FA0006432904207D0834A7832904203D0814AFB
:102FB0008C32904204D1206E026822F4807202604A
:102FC0007A49206888422ED0B0422CD0B8422AD00C
:102FD000404528D0484526D0504524D0584522D0D9
:102FE0007249A83188421ED0714988421BD070496D
:102FF0001831884217D06E493031884213D06C495D
:10300000483188420FD06A49603188420BD0684904
:103010007831884207D066499031884203D06449AC
:10302000A831884204D1016821F00101016013E058
:10303000016821F0010101600EE001F0ABFF009991
:10304000401A052808D920203434206203206070FB
:1030500000202070012002E72868C007EDD1534A04
:103060000121206890422ED0B0422CD0B8422AD004
:10307000404528D0484526D0504524D0584522D038
:103080004A4BA83398421ED0494B98421BD0484B1C
:103090001833984217D0464B3033984213D0444BE4
:1030A000483398420FD0424B603398420BD0404B8C
:1030B0007833984207D03E4B9033984203D03C4B34
:1030C000A833984208D1A06D94F85C3003F01F0536
:1030D0003F23AB40836007E0A06D94F85C3003F0C1
:1030E0001F0301FA03F34360206890424DD0B042C1
:1030F0004BD0B84249D0404547D0484545D05045CF
:1031000043D0584541D0294AA83290423DD0284A60
:1031100090423AD0264A1832904236D0244A303271
:10312000904232D0224A483290422ED0204A603219
:1031300090422AD01E4A7832904226D01C4A9032C1
:10314000904222D01A4AA83290421ED0194A904288
:103150001BD0184A1432904217D0164A2832904297
:1031600013D0144A3C3290420FD0124A503290424F
:103170000BD0104A6432904207D00E4A7832904207
:1031800003D00C4A8C3290420BD1D4E91920506004
:10319000E06E30B1026822F480720260D4E91C2033
:1031A0005060343461700020207058E610000240F6
:1031B00010040240085402582DE9F05F002808D09E
:1031C00090F83510022906D0802141650120BDE824
:1031D000F09F0120FBE7A14AA04BA04C18329F4D65
:1031E00030339E4E4834DFF874B26035DFF870C279
:1031F0007836DFF86C82DFF868920CF1300CDFF87B
:1032000060A208F16008016809F17809944F0AF199
:10321000900A594531D091422FD099422DD0A142E8
:103220002BD0A94229D0B14227D0DFF830E20EF1ED
:10323000900E714521D0DFF824E20EF1A80E714501
:103240001BD0DFF81CE2AEF1180E714515D0B94263
:1032500013D0DFF80CE20EF1180E71450DD0614568
:103260000BD0DFF8FCE10EF1480E714505D0414569
:1032700003D0494501D0514537D14FF0040E80F8B5
:1032800035E0594527D0914225D0994223D0A1421B
:1032900021D0A9421FD0B1421DD070489030814248
:1032A00019D06E48A830814215D06D481838814237
:1032B00011D0B9420FD06A48183081420BD0614515
:1032C00009D067484830814205D0414503D049457F
:1032D00001D0514504D1086820F001000860BAE02F
:1032E000086820F001000860B5E0D1F800E02EF099
:1032F0000E0EC1F800E00168DE46594531D091421A
:103300002FD099422DD0A1422BD0A94229D0B14231
:1033100027D0DFF848B10BF1900B594521D0DFF8E9
:103320003CB10BF1A80B59451BD0DFF834B1ABF120
:10333000180B594515D0B94213D0DFF824B10BF161
:10334000180B59450DD061450BD0DFF814B10BF1C6
:10335000480B594505D0414503D0494501D0514559
:1033600006D1D1F800B02BF0010BC1F800B005E098
:10337000D1F800B02BF0010BC1F800B001684FF09C
:10338000010B714546D0914244D0994242D0A142AE
:1033900040D0A9423ED0B1423CD0304A9032914216
:1033A00038D02E4AA832914234D02D4A183A914250
:1033B00030D0B9422ED02A4A183291422AD06145E3
:1033C00028D0274A4832914224D0414522D049454D
:1033D00020D051451ED0234A91421BD0214A14329D
:1033E000914217D01F4A2832914213D01D4A3C32D5
:1033F00091420FD01B4A503291420BD0194A64328D
:10340000914207D0174A7832914203D0154A8C3244
:10341000914218D1016E0A6822F480720A60816DAF
:1034200090F85C2002F01F020BFA02F24A60D0E929
:1034300019215160C16E31B10A6822F480720A60AC
:10344000D0E91C21516080F835B0002180F834109B
:10345000016D01B188470020B9E60000100002406C
:103460002804024008540258406D70472DE9FF5F60
:103470000446002001904FF41651FD480068B0FB4F
:10348000F1F00090A56D2E682968FA4FDFF8E4B3DB
:10349000DFF8E083DFF8DC930BF1180BDFF8D4A33F
:1034A00008F13008206809F148090AF1600AB842B9
:1034B0003BD05A46904238D0404536D0484534D06B
:1034C000504532D0EB4A783290422ED0E94A9032C1
:1034D00090422AD0E74AA832904226D0E64A90424B
:1034E00023D0E54A183290421FD0E34B3033984244
:1034F0001BD0E14B4833984217D0DFF87CC30CF166
:10350000600C604511D0DFF870C30CF1780C604599
:103510000BD0DFF864C30CF1900C604505D0DFF8E8
:1035200058E30EF1A80E70457ED194F85C10082384
:1035300001F01F0103FA01F232424BD0B84232D0FF
:10354000584530D040452ED048452CD050452AD043
:10355000C8497831884226D0C6499031884222D065
:10356000C449A83188421ED0C34988421BD0C249F1
:103570001831884217D0C0493031884213D0BE4933
:10358000483188420FD0BC49603188420BD0BA49DB
:103590007831884207D0B8499031884203D0B64983
:1035A000A831884203D1016801F0040102E00168FA
:1035B00001F0080171B1016821F00401016094F883
:1035C0005C0000F01F0003FA00F2AA60606D40F09A
:1035D0000100606594F85C00012100F01F0081404B
:1035E000314240D02068B84234D0584532D04045AE
:1035F00030D048452ED050452CD09E4A783290424B
:1036000028D09C4A9032904224D09A4AA8329042C4
:1036100020D0994A90421DD0974A1832904219D032
:10362000954A3032904200E0D2E113D0924A4832BB
:1036300090420FD0904A603290420BD08E4A78323E
:10364000904207D08C4A9032904203D08A4AA832E6
:1036500090427DD1406910F0800F04D0A960606D68
:1036600040F00200606594F85C00042100F01F0047
:10367000814031423ED02068B84232D0584530D0E7
:1036800040452ED048452CD050452AD0794A783232
:10369000904226D0774A9032904222D0754AA83282
:1036A00090421ED0744A90421BD0734A1832904206
:1036B00017D0714A3032904213D06F4A483290424C
:1036C0000FD06D4A603290420BD06B4A78329042F4
:1036D00007D0694A9032904203D0674AA83290429C
:1036E0004ED1006810F0020F04D0A960606D40F068
:1036F0000400606594F85C00102100F01F00814018
:10370000314260D02068B84234D0584532D040456C
:1037100030D048452ED050452CD0564A7832904271
:1037200028D0544A9032904224D0524AA832904233
:1037300020D0514A90421DD04F4A1832904219D0A1
:103740004D4A3032904215D04B4A4832904200E008
:1037500014E00FD0484A603290420BD0464A78328B
:10376000904207D0444A9032904203D0424AA83255
:10377000904207D1006800F0080006E0006872E798
:103780000068B7E7006800F0040058B1A96020683D
:10379000016849030CD50068000304D4216C09B109
:1037A000204688470FE0A16C69B1204688470AE0AF
:1037B0000168C90503D4016821F008010160216C8A
:1037C00009B12046884794F85C00202100F01F00D2
:1037D000814031427BD02068B84232D0584530D049
:1037E00040452ED048452CD050452AD0214A783229
:1037F000904226D01F4A9032904222D01D4AA832D1
:1038000090421ED01C4A90421BD01B4A1832904254
:1038100017D0194A3032904213D0174A483290429A
:103820000FD0154A603290420BD0134A7832904242
:1038300007D0114A9032904203D00F4AA8329042EA
:1038400003D1006800F0100002E0006800F0020000
:10385000E8B3A96094F83500042812D02068016804
:1038600049033DD50068000335D4616C79B305E0A8
:10387000280000241000024010040240204688471F
:103880003FE02068016821F016010160206841696D
:1038900021F080014161206C08B9A06C20B1206842
:1038A000016821F00801016094F85C0000F01F013C
:1038B0003F208840A860012084F83500002084F86B
:1038C0003400216D002974D004B0204600E018E0D7
:1038D000BDE8F05F0847E16B99B12046884710E0EA
:1038E0000168C90509D4016821F0100101600120B7
:1038F00084F83500002084F83400E16B09B12046DB
:103900008847606D002854D0606DC00758D00420EF
:1039100084F835002068B84231D058452FD0404552
:103920002DD048452BD0504529D0B749884226D0C4
:10393000B5491831884222D0B349303188421ED06F
:10394000B24988421BD0B1491831884217D0AF49DB
:103950003031884213D0AD49483188420FD0AB494D
:10396000603188420BD0A9497831884207D0A749F5
:103970009031884203D0A549A831884204D101681A
:1039800021F00101016003E0016821F00101016003
:1039900021680198009A401C0190904202D8086862
:1039A000C007F6D10868C00704D0032084F83500AA
:1039B00003E087E0012084F83500002084F834001B
:1039C000E16C00297ED004B02046BDE8F05F0847D6
:1039D0008F4EB0421BD08E4E1436B04217D08C4E54
:1039E0002836B04213D08A4E3C36B0420FD0884EB3
:1039F0005036B0420BD0864E6436B04207D0844E6B
:103A00007836B04203D0824E8C36B0425AD1066826
:103A10004FF0040E94F85CB00BF01F0B0EFA0BFE87
:103A20001EEA010FCDF80CE05ED05FEA467E5BD562
:103A300003986860300411D5F00307D4A16C002905
:103A400040D004B02046BDE8F05F0847216C002953
:103A500038D004B02046BDE8F05F0847B0063BD43C
:103A60002068B8422DD068496039884229D0404545
:103A700027D0484525D0504523D06349884220D0DF
:103A80006149183188421CD05F493031884218D0D2
:103A90005E49884215D0904213D05C49303188424B
:103AA0000FD098420DD059496031884209D057490A
:103AB0007831884205D0604503D05449A831884206
:103AC00006D100E07CE0016821F00801016003E01C
:103AD000016821F004010160216C002970D004B05C
:103AE0002046BDE8F05F08474FF0020E0EFA0BFECD
:103AF0001EEA010FCDF808E063D05FEA867E60D54C
:103B000002986860300411D5F00307D4616C002975
:103B100078D004B02046BDE8F05F0847E16B00298B
:103B200070D004B02046BDE8F05F0847B0063FD42F
:103B30002068B8422DD034496039884229D04045A8
:103B400027D0484525D0504523D02F49884220D042
:103B50002D49183188421CD02B493031884218D069
:103B60002A49884215D0904213D0284930318842E2
:103B70000FD098420DD025496031884209D02349A1
:103B80007831884205D0604503D02049A831884269
:103B900004D1016821F01401016003E0016821F003
:103BA0000A010160012084F83500002084F8340007
:103BB000E16B002926D004B02046BDE8F05F08473D
:103BC00020E0082202FA0BF20A421BD0310719D575
:103BD000016821F00E01016094F85C0000F01F0103
:103BE000012000FA01F16960606584F83500002069
:103BF00084F83400E16C002904D004B02046BDE80C
:103C0000F05F0847BDE8FF9F8800024010040240B3
:103C1000085402582DE9F05F044601F0BBF906464E
:103C2000002C7DD0F24F0222DFF8C4830025DFF89C
:103C3000C093DFF8BCA308F13008DFF8B4B309F192
:103C4000480920680AF1600A0BF1780BB84232D0BB
:103C5000E749183188422ED040452CD048452AD01B
:103C6000504528D0584526D0E1499031884222D08D
:103C7000DF49A83188421ED0DE4988421BD0DD4989
:103C80001831884217D0DB493031884213D0D949E6
:103C9000483188420FD0D749603188420BD0D5498E
:103CA0007831884207D0D3499031884203D0D14936
:103CB000A83188427ED184F8352084F83450B84247
:103CC00034D0CB491831884230D040452ED04845B9
:103CD0002CD050452AD0584528D0C549903188422B
:103CE00024D0C349A831884220D0C24988421DD07F
:103CF000C0491831884219D0BE493031884215D0A8
:103D0000BC494831884211D0BA49603188420DD04F
:103D1000B8497831884209D0B6499031884200E0EC
:103D200009E003D0B349A831884207D1016821F0E6
:103D30000101016013E00120BDE8F09F016821F05E
:103D4000010101600BE001F025F9801B052806D96F
:103D500020206065032084F835000120ECE720680E
:103D60000068C007EFD122681168A3480140D4E978
:103D700002031843D4E9043633431843A3691843B4
:103D8000E3691843236A18430843616A042903D18D
:103D9000D4E90B13194308436168A1F12903052BEA
:103DA0000DD9163B032B0AD9083B012B07D9083B39
:103DB000032B00E02AE002D97439032901D840F42A
:103DC000801010602068406920F00701606A40EAB6
:103DD000010604280DD1A06A0643E06A48B12046D6
:103DE000FDF7CAFF28B140206065012084F8350046
:103DF000A2E7206846612046FDF7D0FE94F85C10EB
:103E000001F01F023F219140816066E07B498842BA
:103E10001BD07A4B1433984217D0784B28339842F2
:103E200013D0764B3C3398420FD0744B50339842AA
:103E30000BD0724B6433984207D0704B7833984262
:103E400003D06E4B8C3398427ED1884211D06B499F
:103E5000143188420DD069492831884209D0674918
:103E60003C31884205D065495031884201D06349D0
:103E7000643184F8352084F83450026860490A407F
:103E8000A16840297ED080297DD00021E36841EAE5
:103E9000D301236941EAD301636941EAD301A369EC
:103EA00041EAD301E36941EAD301236A41EA1311EC
:103EB0001143016051492068494208441421B0FB74
:103EC000F1F08000E0652046FDF768FE94F85C1094
:103ED00001F01F020121914041602068B84256D094
:103EE00043491831884252D0404550D048454ED0C1
:103EF00050454CD058454AD03D499031884246D033
:103F00003B49A831884242D03A4988423FD039499A
:103F1000183188423BD037493031884237D0354953
:103F20004831884233D03349603188422FD03149FB
:103F3000783188422BD02F499031884227D02D49A3
:103F4000A831884223D000E02DE02C4988421ED0C1
:103F50002A49143188421AD028492831884216D07B
:103F600026493C31884212D02449503188420ED033
:103F70002249643188420AD020497831884206D0EB
:103F80001E4901E00AE00BE08C31884229D120462D
:103F9000FDF764FEA06880280CD00CE0102175E7C6
:103FA0004FF4804172E740206065032084F83500BB
:103FB0000120C1E66560216E20790860D4E91910FE
:103FC00048606068401E072808D82046FDF796FE26
:103FD000E06E0560D4E91C10486002E0E5662567E4
:103FE00065676565012084F835000020A4E60000BF
:103FF00010000240100402403F8010FE0854025896
:104000000F00FEFF2DE9F84F044600200090002C21
:1040100015D094F83400012813D0012084F834001E
:1040200094F835500020012D0DD04FF400616165EA
:1040300084F83400012000900098BDE8F88F01203A
:10404000FBE70220F9E7022584F835506065A54DAD
:10405000A44EA44F1835DFF88CC23036DFF88482C6
:104060004837DFF88092DFF87CA208F16008DFF8BB
:1040700074B209F1780920680AF1900A0BF1A80BD3
:1040800060453BD0A84239D0B04237D0B84235D095
:10409000404533D0484531D050452FD058452DD0DC
:1040A000DFF844C2604529D0DFF83CC20CF1180C9F
:1040B000604523D0DFF830C20CF1300C60451DD0D4
:1040C000DFF824C20CF1480C604517D0DFF818C2A5
:1040D0000CF1600C604511D0DFF80CC20CF1780CCB
:1040E00060450BD0DFF800C20CF1900C604505D0A4
:1040F000DFF8F4C10CF1A80C604506D1D0F800C07F
:104100002CF0010CC0F800C005E0D0F800C02CF085
:10411000010CC0F800C02046FDF76AFE7149206816
:1041200088422CD0A8422AD0B04228D0B84226D00B
:10413000404524D0484522D0504520D058451ED077
:10414000694A90421BD0684A1832904217D0664A9A
:104150003032904213D0644A483290420FD0624AC3
:10416000603290420BD0604A7832904207D05E4A6B
:104170009032904203D05C4AA83290420DD102683E
:1041800022F01E0242F016020260206C90B12068FC
:10419000026842F0080202600CE0026822F00E029F
:1041A00042F00A020260206C20B12068026842F0EE
:1041B00004020260206888424BD0A84249D0B04235
:1041C00047D0B84245D0404543D0484541D05045FE
:1041D0003FD058453DD0444A90423AD0424A1832E6
:1041E000904236D0404A3032904232D03E4A483235
:1041F00090422ED03C4A603290422AD03A4A7832DD
:10420000904226D0384A9032904222D0364AA83284
:1042100090421ED0354A90421BD0344A143290420C
:1042200017D0324A2832904213D0304A3C32904262
:104230000FD02E4A503290420BD02C4A643290421A
:1042400007D02A4A7832904203D0284A8C329042D2
:104250000DD1206E0268D20303D5026842F4807249
:104260000260E06E18B1026842F480720260206859
:1042700088422CD0A8422AD0B04228D0B84226D0BA
:10428000404524D0484522D0504520D058451ED026
:10429000154988421BD014491831884217D0124959
:1042A0003031884213D01049483188420FD00E492E
:1042B000603188420BD00C497831884207D00A49D6
:1042C0009031884203D00849A831884204D101685E
:1042D00041F001010160AFE6016841F001010160B8
:1042E000AAE60000100002401004024008540258E0
:1042F00010B590F89830012B08D0022B06D050F85A
:104300009C1F41F002010160012010BD03689C6DFB
:104310000C4204D1DC6D44F00104DC6505E09C6DC9
:1043200031EA04041CD00324DC658B0504D5036842
:1043300053F8E04F14431C604B0504D5036853F851
:10434000E44F14431C600068426D084B0B401A4355
:1043500042650748026842EA91710160002010BD81
:10436000DC6D44F00204DC65DFE70000FFFFCF3FB7
:1043700014A8004070B5044694F89800022806D0AE
:1043800054F89C0F40F008002060012070BD2068A8
:10439000D0F8C03013F07C5F0AD0D0F8C4309B0254
:1043A0000DD554F89C0F40F400702060012070BDC2
:1043B00054F89C0F40F020002060012070BDD0F820
:1043C000C400C0F3044520462B46FEF79BF8216845
:1043D0000120A840C1F8D000C4F89400002070BDAE
:1043E000704710B590F89820012A08D0022A06D00C
:1043F00050F89C1F41F002010160012010BDCA6805
:104400000B688BB1072A0B6943EA42732BD00C7AF5
:104410004A6942EA84724968006F00EBC100036098
:1044200042604FF0000010BD072A10D00C7A4FEA0E
:10443000C2624B6943EA84730C8A42EA044243EA4B
:1044400002034968C06E00EB81000360E9E70B8A54
:104450004FF060548A6942EA0343CA6944EA02227F
:1044600043EA0203EDE78A69D5E730B5039C90F88B
:104470009850012D06D050F89C1F41F004010160B6
:10448000012030BD0068090141EA820141EA43018F
:104490002143C0F88010002030BD704770470000F5
:1044A000F0B5002490F89850022D06D050F89C1FCB
:1044B00041F0080101600120F0BD40290BD04129E5
:1044C00036D0056D8D4260D850F89C1F41F0200118
:1044D00001600120F0BD0568D5F8A06016F4FE0F5C
:1044E00018D0D5F8A46076061BD0D5F8A460F601E4
:1044F00005D5D5F8A06016F0004F00D50124D5F8F9
:10450000A450C5F305252C44456C466F654306EB66
:1045100085063FE050F89C1F41F02001016001201A
:10452000F0BD50F89C1F41F4807101600120F0BD86
:104530000568D5F8B06016F4FE0F18D0D5F8B46051
:1045400076061BD0D5F8B460F60105D5D5F8B06075
:1045500016F0004F00D50124D5F8B450C5F3052559
:104560002C44C56C866F654306EB850612E050F857
:104570009C1F41F0200101600120F0BD50F89C1FFC
:1045800041F4807101600120F0BD456DC66F4D435F
:1045900006EB8506356805F0804555602DB3356816
:1045A00025F060451560356805F000559560356863
:1045B00005F000451561B588ADB2D5617568C5F3E4
:1045C0000345D560756805F480155561756805F477
:1045D000001595617568C5F306651562756808363E
:1045E000ED0F55620025174F09E03568C5F38A4580
:1045F0001560D8E716F805C003F805C06D1CD2F8A1
:104600000CC017F80CC0AC45F4D8402909D041299A
:104610000BD0012220290CD200688A40C0F89820D3
:104620000DE00068C0F8A84009E00068C0F8B84094
:1046300005E0006801F01F018A40C0F89C200020BE
:10464000F0BD000040180108704700002DE9FE4F42
:104650000446B64F38688007391D096800EA817042
:1046600002902068016D01F47041D0F854A00AEA6C
:10467000010A016D01F00F01D0F854B00BEA010BF3
:10468000016D01F0F001426D0A400192016D01F0EF
:104690007151D0F8548008EA0108016D01F0607191
:1046A000426D0A400092416D056D4FF00009CE4306
:1046B000F10509D4E943C90506D4B9150165C7F860
:1046C00000902046FFF7C0FF700510D4E843400576
:1046D0000DD42068D0F8DC20D0F8E41011404FF45D
:1046E00080620265C7F80090204600F03DFB02980A
:1046F00058B18F4902980840216808650298800FD8
:10470000386002992046FFF76BFEBAF1000F0BD01C
:10471000216887480AEA000008654FEA9A70386005
:104720005146204600F022FBBBF1000F0BD0216860
:104730007F480BEA000008654FEA9B7038605946D5
:10474000204600F0D3FA019858B179490198084001
:10475000216808650198800F38600199204600F0B3
:10476000DBFA30050BD4E843000508D421684FF488
:1047700000600865C7F80090204600F0F8FAB00520
:1047800010D4E84380050DD42068D0F8D820D0F8A4
:10479000E01011404FF400720265C7F80090204607
:1047A00000F0E3FA30030BD4E843000308D4216897
:1047B0004FF400200865C7F80090204600F094FAF6
:1047C000F0030BD4E843C00308D421684FF48030D1
:1047D0000865C7F80090204600F0C5FA70030BD4B6
:1047E000E843400308D421684FF480200865C7F8E7
:1047F0000090204600F0B6FAB0030ED4E8438003E0
:104800000BD421684FF400300865C7F80090D4F845
:104810009C0040F08000C4F89C00009858B14449C6
:1048200000980840216808650098800F386000995A
:104830002046FFF733FEB8F1000F0DD021683C4849
:1048400008EA000008654FEA98703860D4F89C00C8
:1048500040EA0800C4F89C003649206888425BD1D1
:1048600060688168890757D0016A01F00F02416AC8
:104870001140026A02F03002476A1740026A02F4ED
:10488000C072D0F8248008EA0208026A02F4FC42EE
:10489000456A1540026A02F4F022466A1640D0F8D2
:1048A0002490D0F820A019B10162204600F057FAF8
:1048B0002FB1606807623946204600F052FA6FEA6D
:1048C000090040060ED46FEA0A0040060AD4606868
:1048D000C16B090CC26B02F03F0240230362204609
:1048E00000F03EFAB8F1000F06D06068C0F82080F2
:1048F0004146204600F032FA35B160680562D4F8CE
:104900009C002843C4F89C0036B160680662D4F865
:104910009C003043C4F89C00D4F89C00002802D0CE
:104920002046FFF7BAFDBDE8FE8F000010A800404A
:10493000FFFFCF3F00A000402DE9F04393B00446B5
:104940004C2295496846FBF795FD6CB1934F206862
:10495000B84202D100F5807060604FF4407994F85D
:104960009800002620B108E0012013B0BDE8F083D4
:1049700084F89960204600F013F92068816921F0DD
:104980001001816100F006FB05464FF003080DE0C1
:1049900000F000FB401B0A2808D954F89C0F40F097
:1049A0000100206004F8048C0120DEE720688069A3
:1049B0000007EDD42068816941F00101816100F0B8
:1049C000E9FA05460DE000F0E5FA401B0A2808D98F
:1049D00054F89C0F40F00100206004F8048C012082
:1049E000C3E720688069C007EDD02068816941F085
:1049F00002018161207C012839D02068816941F061
:104A000040018161607C012837D02068816921F4F0
:104A100080418161A07C012835D02068816941F402
:104A20008051816120688169A26821F4407111433D
:104A300081612068816921F0A40181612068016998
:104A400021F010010161E068012822D030B3022872
:104A50002BD02068816941F0800181612068016963
:104A600041F010010161E068032818D022E02068BD
:104A7000816921F040018161C4E72068816941F4C6
:104A800080418161C6E72068816921F4805181619C
:104A9000C8E72068816941F0040181610AE020686B
:104AA000816941F02001816104E02068816941F061
:104AB00020018161207E401E4106E069401E41EADE
:104AC0000020216A491E0843A18A491E40EA01408C
:104AD0002168C861A06848450FD1E16AA06A491EF3
:104AE000401E40EA0121206B401E41EA0011A08CCB
:104AF000401E41EA00402168C860206E28B120684D
:104B000050F8C01F626E11430160D4E91701C8421A
:104B1000694609D0206850F8C82FA36E22F007021A
:104B200051F823301A430260206C48B1206850F8D5
:104B3000BC2F636C22F0070251F823301A43026045
:104B4000A06C50B1206850F8BC2FE36C22F07002CA
:104B500051F8233042EA03120260206D50B1206800
:104B600050F8BC2F636D22F4E06251F8231042EA42
:104B7000012101602068B84204D16068816821F099
:104B80000301816044F8946FA66001202071943C79
:104B90002046FDF7DFFBE8E65018010800A00040C2
:104BA0002DE9F04186B00446142101A8FBF77BFCF7
:104BB000474B002522680227464C4FF0090CDFF8CE
:104BC0000C8119680C3C434E4348491C424527D18F
:104BD0001960012907D1316841F480713160316871
:104BE00001F480710091216841F008012160216881
:104BF00001F00801009103210191029703950495AA
:104C0000CDF814C001A900F0B3F80022052113204B
:104C100000F064FA132000F053FA06B0BDE8F0810A
:104C2000DFF8B880424526D11960012907D13068E4
:104C300040F480703060306800F48070009020682C
:104C400040F002002060206800F002000090602028
:104C50000190029703950495CDF814C001A920484E
:104C600000F086F800220521142000F037FA142005
:104C700000F026FAD1E7DFF86CC06245CDD11960AB
:104C8000012907D1316841F480713160316801F444
:104C900080710091216841F008012160216801F0D4
:104CA000080100914FF4405101910297039504953A
:104CB0000521059101A900F05BF8002205219F2044
:104CC00000F00CFA9F2000F0FBF9A6E700A00040DE
:104CD00014000024EC440258000C025800A40040C8
:104CE0000004025800D400407047000010B504468C
:104CF000C8070BD00648844201D10BF0A5FB05483C
:104D0000844203D1BDE810400BF008BC10BD000088
:104D1000D40D0024140F0024C90604D5024988428A
:104D200001D10BF0CFBB7047740E002490F898109F
:104D3000012906D050F89C1F41F0040101600120B8
:104D40007047022180F8981001688A6922F00102F8
:104D50008A610021C0F89C1000207047704770479E
:104D6000704770477047704770477047704770478B
:104D70002DE9F84F0022784D03264FF001080F2748
:104D80004FF0B04CE1E008FA02F31C409A46002CC8
:104D90007ED00B7903F00303012B01D0022B1BD132
:104DA000D0F80890530006FA03FB29EA0B09D1F862
:104DB0000CB00BFA03FB4BEA090BC0F808B04368D0
:104DC00023EA0A0391F80490C9F3001909FA02F9D9
:104DD00049EA0309C0F804900B79DB439B070ED026
:104DE000D0F80C90530006FA03FA29EA0A09D1F820
:104DF00008A00AFA03FA4AEA090AC0F80CA00B79DB
:104E000003F00303022B14D1D30800EB8303D3F880
:104E100020A04FEA42794FEAD96907FA09FB2AEA4A
:104E20000B0AD1F810B00BFA09FB4BEA0A0BC3F8D6
:104E300020B0D0F80090530006FA03FA29EA0A09D4
:104E400091F804A00AF0030A0AFA03FA4AEA090AE6
:104E5000C0F800A04B6813F4403F75D03F4BD3F827
:104E6000009049F00209C3F800901B6803F00203A8
:104E7000009322F0030909F1B049D9F808B4930767
:104E80004FEA137A07FA0AF32BEA030B344B00E0DC
:104E90005AE0984201D1002328E0324B984201D1D8
:104EA000012323E0304B984201D102231EE02F4B17
:104EB000984201D1032319E02D4B984201D10423DC
:104EC00014E02C4B984201D105230FE02A4B984265
:104ED00001D106230AE0294B984201D1072305E0BE
:104EE000274B984201D1092300E00A2303FA0AF371
:104EF00043EA0B03C9F80834DCF80030A343D1F8C7
:104F000004905FEAC92900D52343CCF80030DCF8CF
:104F10000430A343D1F804905FEA892900D52343E4
:104F2000CCF804306B68A343D1F804905FEA893968
:104F300000D523436B602B68A343D1F804905FEA4C
:104F4000C93900D523432B60521C0C6834FA02F394
:104F50007FF419AFBDE8F88F80000058F444025880
:104F6000000002580004025800080258000C0258C1
:104F7000001002580014025800180258001C025871
:104F800000240258002A01D0816170470904816120
:104F90007047000001488068704700001C00002432
:104FA0000248816802781144816070471C00002427
:104FB00010B5032000F0B2F801F03CF90F490A687F
:104FC000C2F303230E4AD35C03F01F03D8400968E1
:104FD00001F00F01515C0B4A01F01F0120FA01F1B1
:104FE0001160094908600F2000F010F808B1012095
:104FF00010BD00F053F8002010BD00001844025806
:10500000C41801082C0000242800002410B58AB020
:105010000446102C30D2002221461C2000F05EF8FD
:105020001C2000F04DF8194804601948016841F04F
:1050300001010160006800F00100009001A902A8D0
:1050400001F082F80798C8B101F0D0F8400011498A
:10505000B0FBF1F1491E10484FF08042026040F26F
:10506000E732C260416000210161816002F056F9BF
:1050700038B101200AB010BD0120FBE701F0B6F8FD
:10508000E5E7054802F072F9F4E70000200000248B
:10509000E844025840420F006C17002482B00748D1
:1050A000016841F002010160006800F00200019017
:1050B00000220F21901E02B000F010B8F4440258F4
:1050C000002809DB012100F01F0291404009800007
:1050D00000F1E020C0F8001170470000F0B40D4668
:1050E0000D4B1B68C3F30223C3F10704042C00D942
:1050F0000424191D072901D2002300E0DB1E01262C
:1051000006FA04F1491E294099409E40761E164039
:105110003143F0BC08F0ABB80CED00E000F0070143
:10512000054A10684FF6FF03184040EA0120034982
:1051300008431060704700000CED00E00000FA0525
:1051400070B514490A68D243520708D5096801F0BE
:105150000701814201D0012070BD002070BD0A68A6
:1051600022F0070202430A60FFF714FF0446094DCC
:105170004FF47A76083D06E0FFF70CFF001BB042C3
:1051800001D9012070BD2868C0438004F4D40020F8
:1051900070BD00000C48025810B501F005F8054933
:1051A0000968054AC1F30211515C01F01F01C840B2
:1051B00010BD000020440258C418010810B5694908
:1051C0000A6802F003020968C1F30531654B1B1D33
:1051D0001B68C3F30013634C14342468C4F3CC0479
:1051E00014FB03F300EE103AB8EE400A002971D028
:1051F0009FED5D1A5B4BF7EE000A1033F2B39FEDA3
:105200005B2A012A7FD0022A7CD001EE901A19680D
:10521000F8EE611AC2EE212AC1F3080101EE901ADC
:10522000F8EE611A40EE011A31EEA00A22EE800A71
:105230001968C1F3462101EE101AB8EE411A31EE99
:10524000201AC0EE011ABCEEE11A80ED001A1968AE
:10525000C1F3064101EE101AB8EE411A31EE201AE0
:10526000C0EE011ABCEEE11A80ED011A1968C1F313
:10527000066101EE101AB8EE411A00E008E071EE86
:10528000200A80EE201ABCEEC10A80ED020A10BD91
:10529000344A283A1468A4061ED51268C2F3C10421
:1052A000334AE24001EE902AF8EE612A01EE901AAC
:1052B0001968F8EE611A82EEA12AC1F3080101EE25
:1052C000901AF8EE611A40EE011A31EEA00A22EEB1
:1052D000000AADE741E016E001EE901ADFED252A65
:1052E0001968F8EE611A82EEA12AC1F3080101EEF5
:1052F000901AF8EE611A40EE011A31EEA00A22EE81
:10530000000A95E713E001EE901A1968F8EE611AA9
:10531000C2EE212AC1F3080101EE901AF8EE611ADB
:1053200040EE011A31EEA00A22EE800A80E701EE7B
:10533000901ADFED112A1968F8EE611A82EEA12A9F
:10534000C1F3080101EE901AF8EE611A40EE011A5D
:1053500031EEA00A22EE000A6AE7002101604160F6
:10536000816010BD28440258000000390024744AAE
:105370000090D0030024744C001BB74B10B5694952
:105380000A6802F003020968C1F30551654B1B1D51
:105390001B68C3F30023634C1C342468C4F3CC049F
:1053A00014FB03F300EE103AB8EE400A002971D066
:1053B0009FED5D1A5B4BF7EE000A1833F2B39FEDD9
:1053C0005B2A012A7FD0022A7CD001EE901A19684C
:1053D000F8EE611AC2EE212AC1F3080101EE901A1B
:1053E000F8EE611A40EE011A31EEA00A22EE800AB0
:1053F0001968C1F3462101EE101AB8EE411A31EED8
:10540000201AC0EE011ABCEEE11A80ED001A1968EC
:10541000C1F3064101EE101AB8EE411A31EE201A1E
:10542000C0EE011ABCEEE11A80ED011A1968C1F351
:10543000066101EE101AB8EE411A00E008E071EEC4
:10544000200A80EE201ABCEEC10A80ED020A10BDCF
:10545000344A283A1468A4061ED51268C2F3C1045F
:10546000334AE24001EE902AF8EE612A01EE901AEA
:105470001968F8EE611A82EEA12AC1F3080101EE63
:10548000901AF8EE611A40EE011A31EEA00A22EEEF
:10549000000AADE741E016E001EE901ADFED252AA3
:1054A0001968F8EE611A82EEA12AC1F3080101EE33
:1054B000901AF8EE611A40EE011A31EEA00A22EEBF
:1054C000000A95E713E001EE901A1968F8EE611AE8
:1054D000C2EE212AC1F3080101EE901AF8EE611A1A
:1054E00040EE011A31EEA00A22EE800A80E701EEBA
:1054F000901ADFED112A1968F8EE611A82EEA12ADE
:10550000C1F3080101EE901AF8EE611A40EE011A9B
:1055100031EEA00A22EE000A6AE700210160416034
:10552000816010BD28440258000000390024744AEC
:105530000090D0030024744C001BB74B2DE9FC5F96
:10554000044600250026F94F2068DFF8E493C043A5
:10555000010104F10800019004F1280000900DD42D
:10556000606EB8B1B0F5801F19D0B0F5001F1CD027
:10557000B0F5401F00D00125EDB12E462088C04374
:10558000C00535D4A06D05282FD2DFE800F01D221C
:10559000282F2F00386840F400303860ECE701987D
:1055A000022105F001FD0546E6E70098022105F01D
:1055B0008DFD0546E0E7D9F80000616E20F440104B
:1055C0000843C9F80000D9E7386840F40030386073
:1055D0000CE00198002105F0E7FC054606E0009884
:1055E000002105F073FD054600E00125A5B12E461A
:1055F0002088DFF84083C04340051FD4D4F8A400BE
:10560000B0F5C00F18D010DC50B3B0F5001F2CD08F
:10561000B0F5800F0FD12EE0D9F80000A16D20F079
:1056200007000843C9F80000E2E7B0F5000F03D017
:10563000B0F5200F00D001251DB32E462088C043B1
:10564000000531D4D4F8A800B0F1407F2AD022DC84
:10565000F0B3B0F1807F4BD0B0F1007F21D14DE0AD
:10566000386840F400303860E6E70198002105F022
:105670009BFC0546E0E70098002105F027FD054664
:10568000DAE7D8F80000D4F8A41020F4600008434A
:10569000C8F80000D2E7B0F1806F03D0B0F1A06F7E
:1056A00000D0012585B32E462068C04380010AD46E
:1056B000E06C30B1102832D0202836D0302800D00D
:1056C00001258DB32E462088C043C00446D400E097
:1056D00009E0E06DB0F5005F5CD036DCA0B3B0F55A
:1056E000805F38D150E0386840F400303860D9E746
:1056F0000198002105F058FC0546D3E700980021E9
:1057000005F0E4FC0546CDE7FFE7D8F80000D4F843
:10571000A81020F0E0600843C8F80000C4E738682B
:1057200040F400303860CCE705E00198022105F034
:105730003BFC0546C5E77E48001F0168E26C21F08E
:10574000300111430160BEE719E0B0F5405F03D0BE
:10575000B0F5804F00D0012515B32E462088C043F8
:1057600080042FD4206EB0F5403F29D021DC38B31F
:10577000B0F5803F38D0B0F5003F20D13AE038682E
:1057800040F400303860E7E70198002105F00CFC98
:105790000546E1E70098002105F098FC0546DBE7A7
:1057A000D9F80000E16D20F4E0400843C9F800009A
:1057B000D4E7B0F5802F03D0B0F5A02F00D001259D
:1057C000F5B12E462088C04340042BD4D4F8AC0059
:1057D000B0F1405F24D01CDC10B3B0F1805F4FD03B
:1057E000B0F1005F1BD152E00198012105F0DCFB14
:1057F0000546E5E70098012105F068FC0546DFE76E
:10580000D9F80000216E20F4E0200843C9F8000018
:10581000D8E7B0F1804F03D0B0F1A04F00D0012500
:10582000A5B32E462088C04300040AD4E06E30B1F0
:10583000B0F1805F3DD0B0F1005F3FD00125B5B33E
:105840002E462068C043C0010AD4A06C30B10128A4
:1058500043D0022846D0032800D0012545B32E4668
:105860002068C04340025AD4DFF8CCB0DBF8000017
:1058700040F48070CBF80000FFF78CFB824648E0D4
:105880000198012105F090FB0546C9E705E0009865
:10589000012105F01BFC0546C2E7D8F80000D4F84A
:1058A000AC1020F0E0400843C8F80000BAE70BE075
:1058B0001EE0386840F400303860C0E701980121EC
:1058C00005F072FB0546BAE7D9F80000E16E20F05A
:1058D00040500843C9F80000B3E7386840F400308E
:1058E0003860BBE70198022105F05EFB0546B5E78D
:1058F0000F48001F0168A26C21F0030111430160F1
:10590000AEE7FFF747FBA0EB0A00642801D90325A7
:1059100003E0DBF80000C005F3D58DB12E462078FA
:10592000DFF818A0C043C00763D073E02C440258CE
:1059300050440258584402580048025854440258EF
:10594000DFF850B4DBF80000B4F8B01000F4407099
:1059500001F44071884211D0DBF8000020F440705F
:10596000DBF8001041F48031CBF80010DBF80010B8
:1059700021F48031CBF80010CBF80000D4F8B0004F
:10598000B0F5807F11D1FFF705FB824609E0FFF7F4
:1059900001FBA0EB0A0141F28830814201D90325C5
:1059A00003E0DBF800008007F1D50DB12E46B6E725
:1059B000D4F8B000C0F3012103290FD0F5486038B6
:1059C000016821F47C510160DBF80000B4F8B010EC
:1059D000C1F30B010843CBF80000A0E7ED496039A3
:1059E0000A68ED4B22F47C52184042EA101008601D
:1059F000EAE7A06F18280BD005DC48B1082815D0BD
:105A0000102804D118E0202802D0282800D0012531
:105A1000C5B12E462078C04380072BD4606F06287E
:105A200025D2DFE800F025181E2525250198012143
:105A300005F0BAFA0546EBE70098012105F046FBB0
:105A40000546E5E7DAF80000A16F20F038000843CA
:105A5000CAF80000DEE70198012105F0A5FA054625
:105A600006E00098012105F031FB054600E0012524
:105A70006DB12E462078C043400720D4D4F8900062
:105A8000062819D2DFE800F0190C12191919DAF8F2
:105A90000000616F20F007000843CAF80000E9E742
:105AA0000198012105F080FA054606E000980121E1
:105AB00005F00CFB054600E0012595B12E46207847
:105AC000C043800620D4D4F88C00B0F1405F19D0D8
:105AD00011DCB8B1B0F1805F28D0B0F1005F10D117
