:020000040800F2
:10000000A86C0024A503000819B30008898700081C
:10001000F1B10008E10D000805D60008000000005D
:10002000000000000000000000000000E5020008E1
:10003000F1230008000000004103000849BA00084D
:10004000C3030008C3030008C3030008C303000878
:10005000C3030008C3030008C3030008C303000868
:10006000C3030008C3030008C30300080D1F0008F2
:10007000191F0008251F0008311F0008C3030008CE
:10008000C3030008C3030008C3030008D525000804
:100090003D260008C3030008C3030008C30300088B
:1000A000C3030008C3030008C3030008C303000818
:1000B000E1BB0008C3030008C3030008C303000832
:1000C000C3030008C3030008C3030008C3030008F8
:1000D000E5B7000809D10008C3030008C3030008FE
:1000E000C3030008C303000800000000C3030008A6
:1000F000C3030008C3030008C3030008C3030008C8
:10010000C3030008C3030008C3030008C3030008B7
:10011000C3030008A1C00008C3030008C30300080C
:100120003D1F0008491F0008C3030008C30300085F
:10013000C3030008C3030008C3030008C303000887
:1001400000000000000000000000000000000000AF
:10015000C3030008551F0008C3030008C3030008B9
:10016000C3030008C3030008C3030008C303000857
:10017000C3030008C3030008C30300080000000015
:10018000C3030008C3030008ADC00008C303000890
:10019000C3030008C3030008C3030008C303000827
:1001A000C3030008C3030008C303000800000000E5
:1001B000C3030008C3030008C3030008C303000807
:1001C000C3030008C3030008000000000000000093
:1001D0000000000000000000C30300080000000051
:1001E000000000000000000000000000000000000F
:1001F0000000000000000000C3030008C303000863
:10020000C3030008C303000800000000C303000884
:10021000C3030008C3030008C3030008C3030008A6
:10022000C303000800000000C30300080000000032
:10023000C3030008C303000800000000C303000854
:10024000C3030008C3030008C3030008C303000876
:10025000C3030008C3030008C3030008C303000866
:10026000C3030008C3030008C3030008C303000856
:10027000C3030008C3030008C30300080000000014
:10028000C3030008C3030008C3030008C303000836
:1002900000000000C3030008C303000800000000C2
:1002A00000000000C3030008C3030008C3030008E4
:1002B000E5D00008C3030008C3030008AD2600080A
:1002C000C3030008C3030008C3030008DFF810D00D
:1002D00000F0E2FA00480047251C0108AFF3008057
:1002E000A86C00242C4B19680868B0E8F04F80F324
:1002F0000988BFF36F8F4FF0000080F311887047BB
:100300000000000008480068006880F308884FF08B
:10031000000080F3148862B661B6BFF34F8FBFF35D
:100320006F8F00DF00BF00BF08ED00E0DFF80C00BA
:10033000016841F470010160704700BF88ED00E082
:10034000EFF30980BFF36F8F134B1A681EF0100F85
:1003500008BF20ED108A20E9F04F106009B44FF07B
:10036000500080F31188BFF34F8FBFF36F8F12F0EF
:1003700017FA4FF0000080F3118809BC196808686B
:10038000B0E8F04F1EF0100F08BFB0EC108A80F3F9
:100390000988BFF36F8F704734000024EFF30580A6
:1003A00070470000074880470748804707480047D4
:1003B000FEE7FEE7FEE7FEE7FEE7FEE7FEE7FEE715
:1003C000FEE7FEE75925000809BB0008CD0200083A
:1003D0002DE9F05F0546002092469B46884606467A
:1003E000814640241BE0284641464746224600F00D
:1003F0008BF853465A46C01A914110D311461846FD
:10040000224600F016F82D1A67EB01084F462246E7
:100410000120002100F00DF817EB00094E41201ECD
:10042000A4F10104DFDC484631462A464346BDE8D4
:10043000F09F202A04DB203A00FA02F100207047E6
:100440009140C2F1200320FA03F319439040704712
:10045000202A06DBCB17203A41FA02F043EAE07388
:1004600006E041FA02F3D040C2F120029140084375
:100470001946704740EA01039B0703D009E008C909
:10048000121F08C0042AFAD203E011F8013B00F859
:10049000013B521EF9D27047D2B201E000F8012BA5
:1004A000491EFBD270470022F6E710B513460A46F4
:1004B00004461946FFF7F0FF204610BD421C10F815
:1004C000011B0029FBD1801A7047034611F8012B4C
:1004D00000F8012B002AF9D11846704730B50B46B9
:1004E000014600202022012409E021FA02F59D4264
:1004F00005D303FA02F5491B04FA02F52844151E38
:10050000A2F10102F1DC30BD202A04DB203A21FAFD
:1005100002F00021704721FA02F3D040C2F120021C
:1005200091400843194670472DE9FE4F804681EA05
:100530000300C00F0C46009021F0004123F000455D
:10054000B8EB0200A94105D24046214690461C4620
:100550000B46024623F00040104347D0270DC7F357
:100560000A00C3F30A510290401A019040286BDA46
:10057000C3F3130040F4801B0098924620B100237F
:10058000D2EB030A63EB0B0B01985946C0F1400212
:100590005046FFF74EFF06460D4650465946019A13
:1005A000FFF756FF10EB08006141002487EA115263
:1005B00084EAE7731A4340D0009A62B3019A012A91
:1005C0004FEA075215DC001B61EB02014FF00042BD
:1005D00002EA0752CDE90042001C41F58011324683
:1005E0002B4600F07AF903B0BDE8F08F4046214673
:1005F000F9E7001B61EB0201001C41F580130018B4
:100600005B412018A2F5001747EB030140EAD570C3
:10061000B6196D4111E06D084FEA360645EAC0751E
:100620004FEA0752001B61EB0201001C41F58011EB
:1006300049084FEA30000019514132462B4603B0B9
:10064000BDE8F04F00F03AB90098012240000023C5
:10065000D0EB020263EBE073009821464FEAE074AE
:10066000B8EB000061EB0401E9E783F000435BE7CE
:1006700081F0004158E72DE9FE4F81EA030404F0C0
:10068000004421F0004100944FF0000B23F00043A0
:1006900050EA01045ED052EA03045BD0C3F30A546B
:1006A000C1F30A552C44A4F2F3340194A0FB025484
:1006B000C1F3130141F48011C3F3130343F4801316
:1006C00001FB024400FB034E840A970A44EA81546A
:1006D00047EA8357A4FB076802958D0A05FB078547
:1006E0004FEA932C04FB0C542705029D4FEA065851
:1006F00047EA1637B5EB08056EEB070C870E920E2E
:1007000047EA811742EA8312A7FB0201B6EB0B010D
:1007100064EB00042B0D43EA0C335E1844EB1C50D1
:10072000DA465146E7FB0201C5F313044FEA0B33E7
:1007300043EA14534FEA0432019C43EA0603A4F14E
:100740000C040294009CCDE900B400F0C6F803B09C
:10075000BDE8F08F00200146F9E72DE9F04D81EA70
:10076000030404F0004B21F0004514464FF0000A4A
:1007700023F0004150EA050220D054EA01021DD0C6
:10078000C5F30A570246C5F31303C1F31300C1F3BF
:100790000A5640F4801543F48013A7EB0608101B9B
:1007A000D64608F2FD3873EB050002D308F10108C4
:1007B00001E092185B41B8F1000F03DA0020014616
:1007C000BDE8F08D00204FF48011064684460EE00F
:1007D000171B73EB050705D3121B63EB05030643D9
:1007E0004CEA010C49084FEA300092185B4150EA8C
:1007F0000107EDD152EA030012D082EA040083EA35
:100800000501084305D0101BAB4106D2012200238D
:1008100006E000224FF0004302E06FF001025310A7
:100820001AEB06004CEB085110EB0A0041EB0B01F0
:10083000BDE8F04D00F042B8C1F30A52C1F3130114
:1008400040F2FF3341F480119A4202DA002001465F
:10085000704740F233439A42A2F2334202DC5242E2
:10086000FFF752BEFFF7E5BD30B5041E71F100047D
:1008700004DB4FF00044404264EB0101141E73F1AD
:10088000000405DB1C464FF00043524263EB0403B7
:10089000994208BF904230BD064C074D06E0E06823
:1008A00040F0010394E8070098471034AC42F6D3B7
:1008B000FFF710FD143C0108343C010810B5141E6C
:1008C00073F1000408DA401C41F1000192185B4109
:1008D0001A4301D120F0010010BD2DE9F04D9246E0
:1008E0009B4611B1B1FA81F202E0B0FA80F22032F7
:1008F0009046FFF79EFD04460F4640EA0A0041EA93
:100900000B0153465A46084313D0114653EA0100DF
:1009100019D0C8F140025046FFF7F6FD05460E46D5
:10092000504659464246FFF784FD084305D0012052
:1009300004E020463946BDE8F08D0020054346EA34
:10094000E0762C4337430A986305E40AA0EB0800DD
:100950000022FD0A44EA47540A3002D5002001462D
:10096000E9E7010510196941DDE908450019694108
:10097000BDE8F04DA2E770B58C1810F8015B15F0DA
:10098000070301D110F8013B2A1106D110F8012B01
:1009900003E010F8016B01F8016B5B1EF9D12B0726
:1009A00005D40023521E0DD401F8013BFAE710F8DC
:1009B000013BCB1A921C03E013F8015B01F8015BC9
:1009C000521EF9D5A142D8D3002070BD01220248A1
:1009D000114604F01FBC0000000802580022024823
:1009E000012104F017BC0000000802587047000005
:1009F00001220248082104F00DBC00000008025842
:100A000000220248082104F005BC0000000802583A
:100A1000704730B504464FF47A7502E0284600F07E
:100A200004F8641EA4B2F9D230BD70B500214FF0B5
:100A3000E0256B69C0EB00104401AA69A8699042E7
:100A4000FCD003D2A2EB0002114403E0A3EB0006AA
:100A5000324411440246A142F0D370BD10B5FFF7F5
:100A6000C5FFFFF7D5FF10F073FC044610F0F6FC4D
:100A7000204310BD2DE9FC4104460D4616460020DA
:100A800000900190FFF7AAFF922000F0BFF8062225
:100A90006946122000F09CF8FFF798FF9DF80100CE
:100AA0009DF80010000200B20843484F00EE100A03
:100AB000D7ED000AB8EEC00A20EE200A85ED000A44
:100AC0009DF803009DF80210000200B2084300EEFA
:100AD000100AF8EEC00A97ED000A60EE800AC5ED34
:100AE000010A9DF805009DF80410000200B20843B9
:100AF00000EE900AF8EEE00A20EE800A85ED020A88
:100B0000FFF77EFF08226946002000F061F8FFF73A
:100B10006FFF9DF800000F2830D19DF803009DF86D
:100B20000210000200B2084300EE100AD7ED010ADD
:100B3000B8EEC00A20EE200A84ED000A9DF80500F8
:100B40009DF80410000200B2084300EE100AF8EE0F
:100B5000C00A97ED010A60EE800AC4ED010A9DF813
:100B600007009DF80610000200B2084300EE900A4C
:100B7000F8EEE00A20EE800A84ED020AFFF72EFF6D
:100B8000A22000F043F802226946222000F020F85B
:100B9000FFF71CFF9DF800009DF80110C00040EA1F
:100BA0005110B0F5806F02DBA0F5006000B200EEDE
:100BB000100AB4EE001AF8EEC00AB3EE070A00EE0F
:100BC000810A86ED000ABDE8FC810000E40A0024E9
:100BD00070B50D46144640F0800000F017F806E0AE
:100BE000552000F013F805F8010B641EE4B2002C48
:100BF000F6D170BD10B50C4640F0800000F006F84C
:100C0000552000F003F8207010BD000001B582B03F
:100C10004FF47A700123009001AA034802A906F05C
:100C200081FA9DF804000EBD2810002410B50C4672
:100C3000FFF7ECFF2046BDE81040FFF7E7BF0000DC
:100C400070B52DED048B5E4C94EDB30A10F0E0F816
:100C5000D4EDB00A94EDB41A60EE810A20EE208A39
:100C600094EDC20A9FED579A00EE098A94EDB30AFB
:100C700010F024FBD4EDB10A00EE808A94EDD10A85
:100C800010F0C6F8D4EDCE0A94EDD21A60EE810AC7
:100C900060EE208A94EDE00A40EE098A94EDD10AD4
:100CA00010F00CFBD4EDCF0A40EE808AF6EE000A7D
:100CB00038EE280A20EE208A84ED988A94ED9A0A6C
:100CC00004F66C0009F036FB3F4D686880ED008A41
:100CD00004F5006090ED1C0A686880ED010AD4F804
:100CE00078089FED3A8A00EE100AD5F80001B8EEB8
:100CF000400A20EE080A80ED010A284608F058FF55
:100D0000D5F8E80090ED002A84ED992A90ED010ACB
:100D100084ED9B0A94ED930A9FED2D1BB7EEC00A5C
:100D2000B0EEC00BB4EEC10BF1EE10FA0ED2D4F857
:100D3000780800EE100AB8EE400A62EE000A94ED60
:100D4000960A00EE880A84ED960A03E09FED220AD7
:100D500084ED960A00219FED210AC1EB011094ED6C
:100D6000A21A04EBC00201EB4100D2EDAD0A04EB84
:100D7000C00070EE600A70EEC10AC0EDEA0AD2ED62
:100D8000AE0A94EDA31AF1EE600A70EEC10AC0ED4E
:100D9000EB0AD4ED960AC0EDEC0AD4ED990AC0ED49
:100DA000ED0AD4EDA20AC0EDEE0AD4EDA30AC0ED1F
:100DB000EF0A491CC9B20229CFD3BDEC048B70BD28
:100DC000040100248FC2753D8C5600246F12833AB3
:100DD000000000E04D62503F00000000DB0FC93F03
:100DE000FEE700004A780978DFED060A42EA0121B1
:100DF00009B200EE101AB8EEC00A80EE201A80ED9B
:100E0000001A704700007A4410B504462DED108B8F
:100E1000B0EE40EAB0EE60FA82B0B7EECF0AB0EEC4
:100E200040AB0DF081FA9FED8F8B20EE080BF7EEB3
:100E3000C0CBB7EECE0AB0EE409B0DF075FA20EEB7
:100E4000080BF7EEC0EBB0EE4A0B0DF06DF920EE9B
:100E5000080BB7EEC0BBB0EE490B0DF065F920EE04
:100E6000080BF7EEC0BB7CEEEEAA3BEE6BAA2AEEB7
:100E70000A0A0AEEAA0AB7EEC00A0DF077FBB7EE2F
:100E8000C00BF6EE000A2AEE20CA2AEEA0AADFED79
:100E9000770AB0EE601A00EE001A71EE60AA2CEE2E
:100EA0000C0A0AEE0A0A0AEEEA0AB7EEC00A0DF0C8
:100EB0005DFBB7EECA1A30EE010B3CEE2A1AB7EE14
:100EC000C11A0CF0F1FEB0EE001B20EE010BB7EEE4
:100ED000C0CBB7EECC0AB0EE40AB0DF025F93BEE3F
:100EE000CB1AB5EE00BBB7EEC1DA00EE0BDBB0EE0D
:100EF0004A0B0DF019FAB0EE401B3EEEEC0AB7EECD
:100F0000C00A01EE0B0BB0EE4D1B0CF0CDFEF7EE60
:100F1000C0CBB0EE490B0DF007F920EE08DBB0EEC8
:100F20004A0B0DF001F900EE0BDBB7EECDDBB0EEB6
:100F3000490B0DF0F9F920EE089BB0EE4A0B0DF0CD
:100F4000F3F900EE0B9BB7EEC99B2DEE0D0A09EEEF
:100F5000090AB7EEC00A0DF009FBB7EEC01B8DED14
:100F6000011AB7EECD1AB7EEC90A0CF09DFEF7EEE6
:100F7000C0EB3EEEEC0AB7EEC0AAB0EE4A0B0DF0A5
:100F8000D3F920EE089B3EEE4C0AB7EEC0BAB0EEA5
:100F90004B0B0DF0C9F929EE00DB3CEECC0AB7EEA5
:100FA000C09AB0EE490B0DF0BFF98DEE001BF7EEC5
:100FB000C1FB3EEECC0AB7EEC0DAB0EE4D0B0DF041
:100FC000B3F920EE08EB3CEECF0AB7EEC0CAB0EEA4
:100FD0004C0B0DF0A9F92EEE00EBB0EE490B0DF025
:100FE000A3F98EEE001BB7EEC1EBB0EE4A0B0DF08D
:100FF0009BF820EE08ABB0EE4B0B0DF095F92AEE06
:1010000000BBB0EE490B0DF08FF99DED011AB7EE64
:10101000C1AA20EE0A0B8BEE001BB7EEC1BBB0EEEF
:101020004D0B0DF081F820EE088BB0EE4C0B0DF05F
:101030007BF928EE008BB0EE490B0DF075F920EE30
:101040000A0B88EE001BB7EEC10BC4ED00FA84ED6D
:1010500001EA84ED02BA84ED030A02B0BDEC108B04
:1010600010BD0000000000A047E1CA3F0000803D25
:1010700090ED000AD1ED000A524B20EE200A83EDDC
:101080001F0A90ED010AD1ED010A20EE200A83ED3E
:10109000200A90ED020AD1ED020A20EE200A83ED2B
:1010A000210A90ED030AD1ED030A20EE200A83ED18
:1010B000220A90ED040A83ED230A90ED050AD1ED92
:1010C000050A20EE200A83ED240A90ED060AD1EDF0
:1010D000000A20EE200A83ED250A90ED070AD1EDE3
:1010E000010A20EE200A83ED260A90ED080AD1EDD0
:1010F000020A20EE200A83ED270A90ED090AD1EDBD
:10110000030A20EE200A83ED280A90ED0A0AD1EDA9
:10111000040A20EE200A83ED290A90ED0B0AD1ED96
:10112000050A20EE200A83ED2A0A90ED000AD1ED8F
:10113000000A91ED011A20EE200AD0ED010A00EE1E
:10114000810AD0ED020A91ED021A00EE810AD0ED7B
:10115000030A91ED031A00EE810AD0ED040A91ED25
:10116000041A00EE810AD0ED050A91ED051A00EE91
:10117000810A82ED000A90ED060AD1ED000A91ED98
:10118000011A20EE200AD0ED070A00EE810AD0ED08
:10119000080A91ED021A00EE810AD0ED090A91EDDC
:1011A000031A00EE810AD0ED0A0A91ED041A00EE4E
:1011B000810AD0ED0B0A91ED051A00EE810A82ED4D
:1011C000010A70470409002490ED001AD0ED022AAC
:1011D00090ED012AD0ED031A21EE001A02EEA01ABA
:1011E00022EE000A01EEA00A81ED001A81ED010A4B
:1011F00070470000F0B4DDE904560C4C44F8100CC4
:1012000044F80C1C170A277662761A0AA276E3764F
:101210002A0A22776577320AA277E67704F1180264
:10122000F0BC89B2082310F0ADB900004C0B0024CB
:101230000548007A022805D0032801D000F04ABEF4
:1012400000F0F4BD00F0F2BD0401002410B5214C03
:1012500094F83800002808D094F8800028B194F859
:10126000C80010B194F81001C0B91A480C3001F050
:10127000D9F8012010F032FD1648543001F0D2F8B0
:10128000012010F02BFD13489C3001F0CBF8012019
:1012900010F024FD0F48E43001F0C4F8207A032850
:1012A00002D1617A032907D10B49897B21B9022830
:1012B0000CD1607A022809D008484FF4CA71FFF7B0
:1012C000F2F8002084F8280384F8A003207A6072E2
:1012D00010BD000004010024525600245C030024C9
:1012E0002DE9F04F2DED048BAFB010F0A9FAAF4D02
:1012F00028600024671E012305F10C001A46B7EE92
:10130000000ACDE900741946804609F0E9FF01237F
:1013100005F154001A4602218146B7EE000ACDE9D4
:10132000007409F0DDFF012605F19C00334603211E
:101330003246B7EE000ACDE90064824609F0D0FFDC
:10134000012305F1E4001A4604218346B7EE000AA2
:10135000CDE9006409F0C4FF9FED958A00230222C5
:101360000121B0EE480ACDE9007405F5967009F048
:10137000B7FF022200231146B0EE480ACDE900640F
:1013800005F5BA7009F0ACFF404601F04BF80120BA
:1013900010F0A4FC484601F045F8012010F09EFC36
:1013A000504601F03FF8012010F098FC584601F03B
:1013B00039F8804804700221417003218170C470A3
:1013C0004FF4CA7105F51670FFF76DF89C2105F50D
:1013D000DE70FFF768F885F8284385F8A0432E7281
:1013E0002CAB754C94E8070007C3DFED748A00212D
:1013F000B0EE000AF0EE680A2CAA05F22C400AF0C2
:1014000047F8D4E9041229ABE06807C30021F7EEDE
:10141000000AB1EE000A29AA05F5EE600AF038F8D4
:10142000D4E9071226ABA06907C30021F0EE680AD1
:10143000B2EE040A26AA05F2BC700AF029F8D4E933
:101440000A02616A2391CDE924020021F0EE680AC4
:10145000B2EE040A23AA05F608000AF019F8D4E946
:101460000D1220AB206B07C3F0EE680A9FED549A73
:10147000002120AAB0EE490A05F2C4400AF008F89B
:101480009FED508A05F5806585ED358A0021F0EEE7
:10149000680AB0EE490A20AA05F5887009F0F8FF3D
:1014A00085ED488AD4E910121DABE06B07C3F0EE5E
:1014B000680A9FED450A00211DAA05F5237009F071
:1014C000E7FFD4E913121AABA06C07C30021F0EEBA
:1014D000680A9FED3E0A1AAA05F1780009F0D8FFC4
:1014E000D4E9161217AB606D07C30021F0EE680A4D
:1014F000B2EE020A17AA05F5FA7009F0C9FF9FEDCE
:10150000348A05F25440B0EE480A08F027FFB0EEE6
:10151000480A05F25C4008F021FFB0EE480A05F2E7
:10152000644008F01BFFB0EE480A05F26C4008F07A
:1015300015FF2048022300221946183008F056F8FB
:1015400004F1600013AD0FC80FC570340FCC0FACA1
:101550000FC419480BAD803090E81E001EC500F185
:10156000100107AD1EC91EC5D0E9092303AC016AED
:10157000C06A0EC4069013AA16493CCA88683CC0CB
:1015800003AA08683CCA3CC00FAAC8693CCA3CC050
:101590000BAA086A3CCA3CC0486907A91EC91EC0FC
:1015A0002FB0BDEC048BBDE8F08F000004010024D7
:1015B0003C3C7C4174560024A02C01080000000033
:1015C0000000C843CDCC4C3E0000AF430000704249
:1015D0006666663F8457002410B511F0EBF90E4C97
:1015E000D4F87418401AC4F8780811F0E3F9C4F874
:1015F0007408D4F82804401CC4F828040BF084FFB5
:101600000BF088FD0BF042FE0BF09CFFFFF718FB80
:10161000BDE810400BF030BE040100242DE9F04776
:101620002DED068B4FF00009002500219FEDF88A73
:10163000F84C2068B0F9022002F11403292B00D3E2
:101640009146B0F9082002F11403292B00D3154666
:10165000B0F9002002F11403292B00D311464942AE
:1016600000EE101AB8EEC00A9FEDEB9A20EE09AA20
:101670000022DFF8A883EA4B98F81710012903D05D
:10168000B0F906609E4202D1012684F8E86394F81E
:10169000E8C3DFEDE49ADFEDE48ADE4EE34F483E37
:1016A000BCF1000F5ED001EB4101B0F906008900EA
:1016B00000EE101A9842F8EE400AB0EE480A70EEBA
:1016C000800A01D1012000E0002000EB40008000F2
:1016D00000EE100AB8EE400A70EE800ACD4996ED91
:1016E000060A4839CB4891ED071AF4EEC00AD0F843
:1016F0007808F1EE10FA11DD01EE900AF8EE611AA9
:1017000021EE811A01EE280A86ED060AB4EEE00AFF
:10171000F1EE10FA14DDC6ED060A11E010D201EE6A
:10172000900AF8EE611A21EE811A01EE680A86ED40
:10173000060AB4EEE00AF1EE10FA01D2C6ED060A8E
:1017400096ED060A87ED020AB7EEC00AB0EEC00BAE
:101750009FEDB71BB4EEC10BF1EE10FA3DD284F849
:10176000E8233AE0D4EDF90AB0EE690A0FF038FA4E
:101770009FEDB11ADFEDB10A10F052F8B0EE402A39
:10178000B7EEC20AB0EEC01B9FEDAD0BB4EEC01BAE
:10179000F1EE10FA1DDD94EDF90A70EE020AAA4886
:1017A00009F0BCFDB1EE400AB7EECA2AB2EE0F3B1B
:1017B000B8F90000B7EEC01A00EE100AB8EEC00B80
:1017C00002EE031B9FEDA12B00EE421BB7EEC10BF7
:1017D00001E0B0EE480A87ED020A94F8E80380B110
:1017E00086ED058A96ED040AD6ED071A994A7068C7
:1017F00090427DDADFED980A20EE200A61EEA01A11
:10180000A8E000EE109AF0EE040AB8EEC00A20EE4E
:10181000090A20EE200A87ED000AD4EDF90AB0EE9D
:10182000690A0FF0DDF9B7EEC00AB0EEC00B9FED0C
:101830008B1BB4EEC10BF1EE10FA41D298F81600F2
:10184000E8B997ED000A98F80810B7EEC01A00EE54
:10185000101AB8EE402B9FED830B02EE001BB7EE83
:10186000C11B98F8091002EE101AB8EE422BB7EE21
:10187000C11A02EE401BB7EEC10B87ED000A01282A
:1018800026D197ED000A98F80800B7EEC01A00EECE
:10189000100AB8EE402B9FED750B02EE001BB7EE61
:1018A000C11B98F8090002EE100AB8EE422BB7EE01
:1018B000C11A02EE401BB7EEC10B87ED000A07E02C
:1018C00098F8080010B998F8090008B187ED008A67
:1018D00097ED000AD6ED050AB4EEE00AF1EE10FA33
:1018E00018DDD4F8780801EE100AB8EE411A00E0CD
:1018F00027E0D6ED041A21EE211A41EE280AC6EDA2
:10190000050AB4EEE00AF1EE10FABFF46BAF86ED13
:10191000050A67E7FDD2D4F87808D6ED041A01EE7F
:10192000100AB8EE411A21EE211A41EE680AC6EDFE
:10193000050AB4EEE00AF1EE10FAEADD86ED050ADA
:1019400050E74C49884205DAF6EE000A20EE200AFC
:1019500061EEA01A97ED001AB0EEC12AD6ED050A85
:10196000F0EEE02AB4EEE22AF1EE10FA06D321EE10
:10197000202AB5EEC02AF1EE10FA01D2012100E0D2
:101980000021B1B130EE802AB4EEC21AF1EE10FAA5
:1019900002DD86ED052A71E030EEC00AB4EEC01A11
:1019A000F1EE10FA02D286ED050A67E086ED051A1F
:1019B00064E0904218DAF4EEC00AF1EE10FA04DDA9
:1019C00030EEC00A86ED050A58E0B1EE401AF4EE9A
:1019D000C10AF1EE10FA04D230EE800A86ED050A53
:1019E0004CE086ED058A49E030EE802AB4EEC21A5A
:1019F000F1EE10FA02DD86ED052A3FE030EEC00A76
:101A0000B4EEC01AF1EE10FA36D286ED050A35E0D2
:101A100000000000040100240C98C63A525600242D
:101A20006CFDFFFF6CF6D43F6F12833A80560024A2
:101A3000000000403333D33F7CD9A03F7CD9A0BF06
:101A400000000040E17AB43FF80600247B14AE4762
:101A5000E17A943F9A99993ECDCCCC3D000000A00C
:101A60009999C93F333333333333F33F333333330C
:101A70003333FB3FCDCC4C3F86ED051AD6ED060A3D
:101A800097ED020A30EEA11AB4EEC10AF1EE10FA97
:101A900002DD86ED061A0BE070EEE10AB4EEE00A14
:101AA000F1EE10FA02D2C6ED060A01E086ED060A52
:101AB000D6ED050A96ED060A87ED020A207A03287C
:101AC00033D084ED938A84ED948A84ED958A002145
:101AD00001EB410004EBC00080ED838A80ED848A35
:101AE00080ED858A94ED930A80ED860A80ED878AE1
:101AF00080ED888A491CC9B20229E9D3207A9FED7A
:101B00001D1ADFED1D0A032816D0C6ED030A96ED57
:101B1000030A0FF085FE86ED030A84ED8F0A84ED3B
:101B2000900ABDEC068BBDE8F087C4ED930A84ED06
:101B3000948A84ED950ACAE700EE105AB8EEC00AFE
:101B400060EE091A96ED030A01EEE80A86ED030A33
:101B500094F92404012806D0022807D00328D6D1FE
:101B6000C6ED030AD3E7C6ED030AD0E786ED031AF4
:101B7000CDE700003333B33E295C0F3E10B509F0CA
:101B8000CBFEBDE8104009F011BF000070B51F4B3F
:101B9000012518688189022902D14289022A02D0CE
:101BA000032902D004E01D7210E04289022A06D007
:101BB000174A927B012A02D0012903D005E00220B6
:101BC000187203E04089022810D01D720021002401
:101BD000C1EB011003EBC00090F828234AB1D0F804
:101BE0002463322E05D980F8284309E003201872B7
:101BF000ECE72AB9D0F82023322A01D980F82853FB
:101C0000491CC9B20229E3D370BD000004010024BD
:101C10005256002470B504462DED088BB0EE40AB53
:101C2000F0EE419AB0EE61BA6C4D2878002805D0EC
:101C300085ED022AC5ED032A0020287095ED020AE1
:101C40009FED671A60EE010A9FED660A42EE000AF8
:101C5000C5ED020AD5ED031A21EE811A02EE801AB3
:101C600085ED031A9FED600A6048B0F8570001EE59
:101C7000100AB8EE412AB5EEC00AF1EE10FA01D111
:101C80009FED5B0AF7EE00BAB0EE6B9A12EE100A07
:101C90005849884202DD9FED589A02E012EE100A80
:101CA000564960EE098AB0EE4A0A09F045FC85ED16
:101CB000040AD5ED030AB0EE690A09F03DFC85ED92
:101CC000050AD5ED040A30EE800A85ED060A3AEEE3
:101CD0002A0AD5ED020A09F02FFC85ED070A39EE34
:101CE0008B0AD5ED030A09F027FC85ED080AD5ED2E
:101CF000070A70EE800AC5ED090AB0EE6B8A9FED07
:101D0000401AF4EEE80AF1EE10FA1CD995ED060A35
:101D1000F4EEC00AF1EE10FA15D3B4EEE80AF1EED3
:101D200010FA02DBB0EE418A0DE078EEC01A30EE18
:101D3000C00A344910EE100A884202DD81EE808A22
:101D400001E0B0EE418A18EE100AB0F17E5F01DDCD
:101D5000B0EE6B8AB5EEC08AF1EE10FA01D2B0EEA9
:101D6000418A95ED010AB4EEC08AF1EE10FA02D272
:101D700084ED008A0DE0DFED240A30EE200AB4EE97
:101D8000C80AF1EE10FA02D284ED000A01E084EDF7
:101D9000008AD4ED000AB0EE4A0A00EEAA0AD5ED98
:101DA000020A09F0C9FB85ED0A0AD4ED000AB0EE7B
:101DB000690A00EE8B0AD5ED030A09F0BDFB85ED3B
:101DC0000B0AD5ED0A0A30EE800A85ED0C0A94ED77
:101DD000000A85ED010ABDEC088B70BDB80900242E
:101DE0009A99593F9A99193E0000B442C05700246D
:101DF00000001643000070426666A63F00002041C6
:101E00000000000017B7D1380AD7A33B0548006887
:101E1000016841F01001016003494FF4C8720148A4
:101E200006F0B8BBD8140024DE5800242DE9F04198
:101E300008F06AF908F050F8254E96EDFD0AB1EE6B
:101E4000400A86ED110A96EDFE0AB1EE400A86EDD3
:101E5000230A06F5806797ED040A86ED350A97EDAB
:101E6000050A86ED470A0024307A022802D00328AA
:101E70000FD01CE004EBC400B3EE0E1A06EBC00555
:101E8000FBEE0E0A95ED110A0FF0CAFC85ED110A62
:101E90000DE004EBC400B3EE091A06EBC005FBEE3F
:101EA000090A95ED110A0FF0BBFC85ED110A641CBF
:101EB000E4B2042CD8D397ED010AB1EE400A86EDC6
:101EC000590A97ED080A86ED6B0ABDE8F08100001B
:101ED000040100240C489FED0B0A80ED110A80EDEF
:101EE000230A80ED350A80ED470A80ED120A80ED65
:101EF000240A80ED360A80ED480A80ED5A0A80ED0A
:101F00006C0A70470000000004010024014801F041
:101F1000F5BB0000B0100024014801F0EFBB000049
:101F200084170024014801F0E9BB000028110024B7
:101F3000014801F0E3BB000074180024014801F0DF
:101F4000DDBB0000FC170024014801F0D7BB0000F6
:101F500094160024014801F0D1BB00000C170024A6
:101F600010B52C4A016891423AD02A4A183291425F
:101F700036D0284A3032914232D0264A48329142F5
:101F80002ED0244A603291422AD0224A783291429D
:101F900026D0204A9032914222D01E4AA832914245
:101FA0001ED01D4A91421BD01B4A1832914217D0B5
:101FB000194A3032914213D0174A483291420FD019
:101FC000154A603291420BD0134A7832914207D0C1
:101FD000114A9032914203D00F4AA832914214D153
:101FE000CAB2103A1823B2FBF3F20C4C02F007030A
:101FF000E35CC365032A04D96FF30901091D8165F8
:1020000006E06FF30901816502E021F0FF018165BF
:10201000806D10BD1000024010040240042C010825
:1020200010B501680123224CCAB2A1421BD0204C3A
:102030001434A14217D01E4C2834A14213D01C4C9A
:102040003C34A1420FD01A4C5034A1420BD0184C52
:102050006434A14207D0164C7834A14203D0144C0A
:102060008C34A1420FD1083A1421B2FBF1F1114A8C
:1020700002EB810202660F4A8032426601F01F01C4
:102080008B40836610BD103A1824B2FBF4F20A4C60
:102090002144A82900D80832084901EB82010166D1
:1020A00006498031416602F01F018B40836610BDF6
:1020B0000854025800580258F0FBFDBF00080240C7
:1020C0000279521E072A31D8194B016899421BD058
:1020D000174B1433994217D0154B2833994213D01C
:1020E000134B3C3399420FD0114B503399420BD0D4
:1020F0000F4B6433994207D00D4B7833994203D08C
:102100000B4B8C33994207D10A4901EB8201C1661E
:1021100008494031016706E0074901EB8201C166C9
:102120000549403101670121914041677047000036
:10213000085402580059025800090240014610B5DF
:1021400000208B694FF0C0748A6A002B0ED0B3F563
:10215000005F1AD062B3012A2AD0022A28D0032AAB
:1021600003D1C96AC90100D5012010BD1AB1012AE5
:1021700006D0022AF9D1C96AC901F6D5012010BDDD
:10218000C96AA142FBD1012010BD52B1012A0AD077
:10219000022A06D0032AF7D1C96AA142F4D101204C
:1021A00010BD012010BDC96AC901FBD5012010BDB9
:1021B000012010BD2DE9F04F856D8A4E894FDFF863
:1021C00024C2A836DFF81C82DFF818920CF1180C34
:1021D000DFF810A208F13008DFF808B209F1480969
:1021E00004680AF1600A0BF1780BBC426DD06445BB
:1021F0006BD0444569D04C4567D0544565D05C45AB
:1022000063D0DFF8E0E10EF1900E74455DD0B4428A
:102210005BD0DFF8D4E1744557D0DFF8CCE10EF1A4
:10222000180E744551D0DFF8C0E10EF1300E744540
:102230004BD0DFF8B4E10EF1480E744545D0DFF81D
:10224000A8E10EF1600E74453FD0DFF89CE10EF17D
:10225000780E744539D0DFF890E10EF1900E744598
:1022600033D0DFF884E10EF1A80E74452DD0DFF8ED
:102270007CE1744529D0DFF874E10EF1140E744549
:1022800023D0DFF868E10EF1280E74451DD0DFF889
:102290005CE10EF13C0E744517D0DFF850E10EF111
:1022A000500E744511D0DFF844E10EF1640E744510
:1022B0000BD0DFF838E10EF1780E744505D0DFF869
:1022C0002CE10EF18C0E744509D1D0E919E4CEF859
:1022D0000440C46E1CB1D0E91CE4CEF8044004688C
:1022E000BC422ED064452CD044452AD04C4528D041
:1022F000544526D05C4524D03A4F9037BC4220D07C
:10230000B4421ED0384EB4421BD0374E1836B442B9
:1023100017D0354E3036B44213D0334E4836B4421F
:102320000FD0314E6036B4420BD02F4E7836B442C7
:1023300007D02D4E9036B44203D02B4EA836B4426F
:102340001BD190F85C4004F01F063F24B440AC6001
:102350000468256825F48025256004686360836827
:10236000402B05D0036899600068C260BDE8F08F1B
:1023700003689A600068C160F8E71C4EB4421BD045
:102380001A4E1436B44217D0184E2836B44213D021
:10239000164E3C36B4420FD0144E5036B4420BD0D9
:1023A000124E6436B44207D0104E7836B44203D091
:1023B0000E4E8C36B442D9D190F85C4004F01F0622
:1023C0000124B4406C60046863608368402B04D0CF
:1023D000036899600068C260C8E703689A60006893
:1023E000C160C3E7100002401004024008540258C4
:1023F000704710B50446208820810A78487840EA62
:10240000022020808A78C87840EA022060800A7919
:10241000487940EA0220A0808879A07102F002FF8A
:10242000E06010BD10B50446204600F0C9FA00284F
:1024300005D062892178BDE8104000F073B810BD66
:1024400070B504460D46287800F00F00206028780B
:10245000000960606978A87840EA0120A060E97806
:102460002A79090141EA1211E1602A79697902F0B9
:102470000F0241EA022121611021DFED170A9FEDD1
:10248000170A10F03AF884ED070AE0680C21DFED36
:10249000140A9FED140A10F030F884ED080A206940
:1024A0000C21DFED110A9FED110A10F026F884EDE2
:1024B000090AA87900EE100AB8EE400A84ED0C0A69
:1024C000E87900EE100AB8EE400A84ED0D0A02F039
:1024D000A9FEA06370BD0000DA0F4941DA0F49C1BF
:1024E00000003442000034C200005842000058C2CC
:1024F00010B50446204600F063FA00280ED021787B
:102500009FED070A94ED0E2ABDE81040F0EE401A48
:10251000B0EE401AF0EE400A08F06CBE10BD0000AC
:10252000000000000A4B43F8100C0A4443F80C2C3E
:10253000FF21197659769976D9761977597799774F
:10254000FC21D97791B2024A082318320FF01AB849
:102550004C0B002472B6FEE70548016841F0020109
:1025600001600348083801688904FCD57047000001
:102570000C48025810B58AB000240294039402203B
:102580000490012005900694079402A9104802F0D7
:1025900070F808B1FFF7DEFF02220D480023114654
:1025A000009402F0AAF808B1FFF7D4FF084800220F
:1025B000012101F0E5FF08B1FFF7CCFF044802F06C
:1025C000FDFC002801D0FFF7C5FF0AB010BD0000D8
:1025D000480E0024014802F081B90000480E002492
:1025E00010B58AB000240294039402200490059050
:1025F0000694079402A9104802F03BF808B1FFF7CF
:10260000A9FF02220C4800231146009402F075F83D
:1026100008B1FFF79FFF08480022102101F0B0FF2A
:1026200008B1FFF797FF044802F0C8FC002801D06A
:10263000FFF790FF0AB010BDE80E0024014802F039
:102640004DB90000E80E002410B58AB000240294B1
:1026500003940494012005908002069040F2FF70DC
:102660000790114802A902F004F808B1FFF772FFC1
:1026700002220D4800231146009402F03EF808B1F2
:10268000FFF768FF08480022012101F079FF08B137
:10269000FFF760FF044802F091FC002801D0FFF72B
:1026A00059FF0AB010BD0000880F0024014802F055
:1026B00015B90000880F002430B5426B036853F849
:1026C000844F4FF6FC718C4344EA82041C6003681B
:1026D00053F8844F058F24F47F0444EA05441C60BA
:1026E000836B1A44036853F8884F8C4344EA82048E
:1026F0001C60036853F8884F858F24F4FE0444EA75
:1027000005441C60C36B02EB4302036853F8A04FFF
:102710008C4344EA82041C60036853F8A04FB0F86D
:10272000405024F4FE0444EA05441C60D0E910340F
:1027300003FB0422036853F8B04F8C4344EA82043D
:102740001C60036853F8B04FB0F8485024F4FE04FE
:1027500044EA05441C60D0E9123403FB04220368F8
:1027600053F8AC4F8C4344EA82041C60D0E9143423
:1027700003FB0422036853F8F04F8C4344EA8204BD
:102780001C60036853F8F04FB0F8585024F47C14E0
:1027900044EA05441C60836D02EB4303026852F86F
:1027A000C04F8C4344EA83011160016851F8C02F87
:1027B000B0F85C3022F47C1242EA03420A600168FD
:1027C00051F8C02F90F8603022F07C5242EA036248
:1027D0000A60416B224A02EB8101C166826B01EB08
:1027E00082020267C36B02EBC3024267D0E9103476
:1027F000634302EB83028267D0E91234634302EB46
:102800008302C267D0E91434634302EB8302C0F849
:102810008020836D02EBC302C0F88420C46D836EF8
:102820005C4302EB8402C0F88820046E5C4302EB38
:102830008402C0F890200B4B9A4208D99830416826
:1028400041F02001416003210170012030BD0022D0
:1028500000E004C1D0F890308B42FAD8002030BD9F
:1028600000AC0040FCD30040F0B5D1E901650C6933
:102870002C430D68002E1AD045F080452C4391F86A
:102880002070D1E9066535434E6946EA076635434F
:102890008E8945EA0645D0F88460806E584306EB81
:1028A00080031C605D60083300200B4E0FE044EA9B
:1028B0008544E4E71418155CE77845EA0765A778CE
:1028C00064783F0447EA0424254320C3001DCC68F4
:1028D000345D8442EED8F0BD0C2C010870B504467E
:1028E0000D46DFED1C0AB5F9020000EE100AB8EE45
:1028F000C00A20EE200A84ED050A28889FED171AE9
:10290000400000EE100AF8EE400A9FED130A60EE58
:10291000800A10EE810A84ED070AA87900EE100AF9
:10292000B8EE400A84ED080AB5F9040000EE100A7A
:10293000B8EEC00A84ED090A2888608502F072FCAE
:10294000E968401A0A2802D90120207370BD0020CE
:10295000207370BD5077D63DDB0F49400000003931
:102960000C2901D2022801D00348704702481038D0
:1029700000EB0110704700000060002470B50446B1
:102980000D4695ED070A84ED070A95ED080A84EDDA
:10299000050A95ED090A84ED060A95ED0C0A84ED09
:1029A000080A287984F82C0002F03CFCA96B401A34
:1029B0000A2802D90120207370BD0020207370BD49
:1029C0004178012901D0002070478078012803D088
:1029D000022803D000207047014870470148704723
:1029E000480E0024E80E002460EE000A20EE801A53
:1029F000C64B1A7A022A02D0032A7DD06AE1DFEDA3
:102A0000C41A61EE211A9FEDC32A40EE821A9FED8F
:102A1000C22A40EE021A9FEDC12A71EE821AC0ED61
:102A2000001ADFEDBF1A61EE211A9FEDBE2A40EEBB
:102A3000821A9FEDBD2A40EE021A9FEDBC2A71EE6C
:102A4000821AC0ED011ADFEDBA1A61EE211A9FED6C
:102A5000B92A40EE821A9FEDB82A40EE021A9FED85
:102A6000B72A71EE821AC0ED021ADFEDB51A61EED7
:102A7000211A9FEDB42A40EE821A9FEDB32A40EE50
:102A8000021A9FEDB22A71EE821AC0ED031ADFED31
:102A9000B01A61EE211A9FEDAF2A40EE821A9FED27
:102AA000AE2A40EE021A9FEDAD2A71EE821AC0EDF9
:102AB000041ADFEDAB1A61EE211A9FEDAA2A40EE4F
:102AC000821A9FEDA92A40EE021A9FEDA82A71EE04
:102AD000821AC0ED051ADFEDA61A61EE211A9FEDEC
:102AE000A52A40EE821A9FEDA42A40EE021A9FED1D
:102AF000A32A71EE821A00E014E0C0ED061ADFEDA1
:102B0000A01A21EE211ADFED9F1A00EEA11ADFEDC7
:102B10009E0A00EE201A9FED9D0A31EE000A80ED1C
:102B2000070AD7E0DFED9A1A61EE211A9FED992A84
:102B300040EE821A9FED982A40EE021A9FED972AE6
:102B400071EE821AC0ED001ADFED951A61EE211ABE
:102B50009FED942A40EE821A9FED932A40EE021ACE
:102B60009FED922A71EE821AC0ED011ADFED901AE4
:102B700061EE211A9FED8F2A40EE821A9FED8E2A78
:102B800040EE021A9FED8D2A71EE821AC0ED021AF4
:102B9000DFED8B1A61EE211A9FED8A2A40EE821A30
:102BA0009FED892A40EE021A9FED882A71EE821A63
:102BB000C0ED031ADFED861A61EE211A9FED852A1A
:102BC00040EE821A9FED842A40EE021A9FED832A7E
:102BD00071EE821AC0ED041ADFED811A61EE211A3E
:102BE0009FED802A40EE821A9FED7F2A40EE021A66
:102BF0009FED7E2A71EE821AC0ED051ADFED7C1A78
:102C000061EE211A9FED7B2A40EE821A9FED7A2A0F
:102C100040EE021A9FED792A71EE821AC0ED061A73
:102C2000DFED771A61EE211A9FED762A40EE821AC7
:102C30009FED752A40EE021A9FED742A71EE821AFA
:102C4000C0ED071ADFED721A61EE211A9FED712AAD
:102C500040EE821A9FED702A40EE021A9FED6F2A15
:102C600071EE821AC0ED081ADFED6D1A61EE211ABD
:102C70009FED6C2A40EE821A9FED6B2A40EE021AFD
:102C80009FED6A2A71EE821AC0ED091ADFED681A0B
:102C900061EE211A9FED672A40EE821A9FED662AA7
:102CA00040EE021A9FED652A71EE821AC0ED0A1AF3
:102CB000DFED631A21EE211ADFED621A00EEA11A90
:102CC000DFED610A00EE201A9FED600A31EE000A86
:102CD00080ED0B0A002918D0197A032915D19FED30
:102CE0005C0A80ED000A80ED010A80ED020A80EDA9
:102CF000030A80ED040A80ED050A80ED080A80EDE4
:102D0000090A80ED0A0A80ED0B0A704704010024CD
:102D1000778D46C3C2977043AFA5F5C28E06C2C079
:102D20006ABC943E1D5A143F341107C1F931A6BE46
:102D3000BE3095C111B6B741FE4325C1E414ADBF05
:102D4000B1BF42C15F878841265314C13E792CC070
:102D50009FFC8BC2C482FC421E56AFC2355EE3416B
:102D600010FAA7C1E403E7417FFB82C180489F407E
:102D700081E50D432D0396C2410204C246D412429E
:102D8000F2D253410E4F4AC1BADA2A4072F92740B3
:102D9000106976C26162114308CCE0C2D34D3E4057
:102DA000D2EFA14125F584C173D74EC0865A533E58
:102DB000C74B6CC1DDA40142DE93A8C1ACADA83FF6
:102DC000F93181C1C8980842F90FB4C18F539C3FB3
:102DD0001701C7438AD89CC3D34DCF41362BFB4143
:102DE000DDA49C41FA7E68C136ABAEBF917E6B40DC
:102DF000F7C0C74426D4B9C48F7BAC43B34C5D4203
:102E00003DEA01437DF01AC327607342ED9EFCBE8C
:102E100060959143141063C3A8B58B418104B441FC
:102E2000F47C37436628E5C29554C5C132F7EB41BF
:102E3000B788A0442E7213C58891B1441806D8C231
:102E4000762FC64250AD42C398AEF942E8D972C15E
:102E50000000000010B504462DED0A8BB0EE408A4C
:102E6000B7EEE00AB0EE40AB0BF05EFA9FED479B89
:102E700020EE090BB7EEC0BBB7EEC80AB0EE408B30
:102E80000BF052FA20EE090BF7EEC0BBB0EE4A0B86
:102E90000BF04AF920EE090BB7EEC0ABB0EE480BD1
:102EA0000BF042F920EE090BB7EEC00B7BEE6BAADC
:102EB0003AEE40AA2AEE0A0A0AEEAA0AB7EEC00AB9
:102EC0000BF054FBB7EEC00BF6EE000A2AEE20BA68
:102ED0006AEEA0AA9FED2F1AF0EE410A40EE000A1A
:102EE00030EEC1AA2BEE0B0A0AEEAA0A0AEE4A0A33
:102EF000B7EEC00A0BF03AFBB7EEEA1A30EE010B60
:102F00003BEE0A1AB7EEC11A0AF0CEFEB0EE001B75
:102F100020EE010BB7EEC0ABB0EE480B0BF004F99E
:102F200020EE09BBB7EECA0AB0EE40AB0BF0FCF8DE
:102F3000B5EE00CB00EE0CBBB7EECBBBB0EE480B52
:102F40000BF0F2F920EE098BB0EE4A0B0BF0ECF926
:102F500000EE0C8BB7EEC88B2BEE0B0A08EE080ABE
:102F6000B7EEC00A0BF002FBF7EEC08BB7EECB1A40
:102F7000B7EEC80A0AF098FEB7EEC00BC4ED008A9F
:102F800084ED010ABDEC0A8B10BD0000000000A01A
:102F900047E1CA3F0000803DD0ED001A90ED032AC2
:102FA000D0ED012A90ED023A21EE821A02EEC31A08
:102FB000C2EE013AB1EE622AC2EE012AB1EE433A04
:102FC00083EE012A81EE813A23EE801A02EE201A66
:102FD00022EE800A03EE200A81ED001A81ED010A3B
:102FE00070470000024610B55078002810D0012824
:102FF0001AD19078012817D110780C49401EBDE8ED
:103000001040C0EB001001EB80011046FFF7B6BC8A
:103010001078401EC1B29078FFF7A2FC014610461E
:10302000BDE81040FFF75ABC10BD0000005F00244F
:103030000346104610B5002B01D0084C0AE04FF6AD
:10304000FF7010BD13F8012B4240D2B234F81220A9
:1030500082EA1020491E4A1CF4D110BD702F0108CD
:1030600010B5054C03E010F8013B5340E25C491EEB
:103070004B1CF8D1104610BD702E0108014890ED90
:10308000690A7047A85B0024014890ED680A704700
:10309000A85B0024014890ED6A0A7047A85B0024F1
:1030A00090ED001AD0ED011A21EE001A01EEA01ADF
:1030B000D0ED021A21EE800AD0ED031A01EEA00A2B
:1030C00081ED001A81ED010A704700002DE9F84FEB
:1030D000044602F0A7F800905CB194F8350002288D
:1030E00009D080206065002084F834000120BDE80C
:1030F000F88F0120FBE7D14ED04FD0491836DFF8CA
:103100003C833037DFF83493DFF830A308F1480808
:10311000DFF828B309F1600920680AF1780A0BF199
:10312000900B88422ED0B0422CD0B8422AD04045D5
:1031300028D0484526D0504524D0584522D0BF4AF3
:10314000A83290421ED0BE4A90421BD0BC4A1832D0
:10315000904217D0BA4A3032904213D0B84A48321F
:1031600090420FD0B64A603290420BD0B44A7832C7
:10317000904207D0B24A9032904203D0B04AA8326F
:1031800090420AD1026822F01E0202602068426961
:1031900022F080024261256804E0026822F00E02FB
:1031A00002602568206888424DD0B0424BD0B842BA
:1031B00049D0404547D0484545D0504543D0584573
:1031C00041D09E4AA83290423DD09D4A90423AD08A
:1031D0009B4A1832904236D0994A3032904232D0CF
:1031E000974A483290422ED0954A603290422AD077
:1031F000934A7832904226D0914A9032904222D01F
:103200008F4AA83290421ED08E4A90421BD08D4ADF
:103210001432904217D08B4A2832904213D0894AF8
:103220003C3290420FD0874A503290420BD0854AB0
:103230006432904207D0834A7832904203D0814A68
:103240008C32904204D1206E026822F480720260B7
:103250007A49206888422ED0B0422CD0B8422AD079
:10326000404528D0484526D0504524D0584522D046
:103270007249A83188421ED0714988421BD07049DA
:103280001831884217D06E493031884213D06C49CA
:10329000483188420FD06A49603188420BD0684972
:1032A0007831884207D066499031884203D064491A
:1032B000A831884204D1016821F00101016013E0C6
:1032C000016821F0010101600EE001F0ABFF0099FF
:1032D000401A052808D92020343420620320607069
:1032E00000202070012002E72868C007EDD1534A72
:1032F0000121206890422ED0B0422CD0B8422AD072
:10330000404528D0484526D0504524D0584522D0A5
:103310004A4BA83398421ED0494B98421BD0484B89
:103320001833984217D0464B3033984213D0444B51
:10333000483398420FD0424B603398420BD0404BF9
:103340007833984207D03E4B9033984203D03C4BA1
:10335000A833984208D1A06D94F85C3003F01F05A3
:103360003F23AB40836007E0A06D94F85C3003F02E
:103370001F0301FA03F34360206890424DD0B0422E
:103380004BD0B84249D0404547D0484545D050453C
:1033900043D0584541D0294AA83290423DD0284ACE
:1033A00090423AD0264A1832904236D0244A3032DF
:1033B000904232D0224A483290422ED0204A603287
:1033C00090422AD01E4A7832904226D01C4A90322F
:1033D000904222D01A4AA83290421ED0194A9042F6
:1033E0001BD0184A1432904217D0164A2832904205
:1033F00013D0144A3C3290420FD0124A50329042BD
:103400000BD0104A6432904207D00E4A7832904274
:1034100003D00C4A8C3290420BD1D4E91920506071
:10342000E06E30B1026822F480720260D4E91C20A0
:103430005060343461700020207058E61000024063
:1034400010040240085402582DE9F05F002808D00B
:1034500090F83510022906D0802141650120BDE891
:10346000F09F0120FBE7A14AA04BA04C18329F4DD2
:1034700030339E4E4834DFF874B26035DFF870C2E6
:103480007836DFF86C82DFF868920CF1300CDFF8E8
:1034900060A208F16008016809F17809944F0AF107
:1034A000900A594531D091422FD099422DD0A14256
:1034B0002BD0A94229D0B14227D0DFF830E20EF15B
:1034C000900E714521D0DFF824E20EF1A80E71456F
:1034D0001BD0DFF81CE2AEF1180E714515D0B942D1
:1034E00013D0DFF80CE20EF1180E71450DD06145D6
:1034F0000BD0DFF8FCE10EF1480E714505D04145D7
:1035000003D0494501D0514537D14FF0040E80F822
:1035100035E0594527D0914225D0994223D0A14288
:1035200021D0A9421FD0B1421DD0704890308142B5
:1035300019D06E48A830814215D06D4818388142A4
:1035400011D0B9420FD06A48183081420BD0614582
:1035500009D067484830814205D0414503D04945EC
:1035600001D0514504D1086820F001000860BAE09C
:10357000086820F001000860B5E0D1F800E02EF006
:103580000E0EC1F800E00168DE46594531D0914287
:103590002FD099422DD0A1422BD0A94229D0B1429F
:1035A00027D0DFF848B10BF1900B594521D0DFF857
:1035B0003CB10BF1A80B59451BD0DFF834B1ABF18E
:1035C000180B594515D0B94213D0DFF824B10BF1CF
:1035D000180B59450DD061450BD0DFF814B10BF134
:1035E000480B594505D0414503D0494501D05145C7
:1035F00006D1D1F800B02BF0010BC1F800B005E006
:10360000D1F800B02BF0010BC1F800B001684FF009
:10361000010B714546D0914244D0994242D0A1421B
:1036200040D0A9423ED0B1423CD0304A9032914283
:1036300038D02E4AA832914234D02D4A183A9142BD
:1036400030D0B9422ED02A4A183291422AD0614550
:1036500028D0274A4832914224D0414522D04945BA
:1036600020D051451ED0234A91421BD0214A14320A
:10367000914217D01F4A2832914213D01D4A3C3242
:1036800091420FD01B4A503291420BD0194A6432FA
:10369000914207D0174A7832914203D0154A8C32B2
:1036A000914218D1016E0A6822F480720A60816D1D
:1036B00090F85C2002F01F020BFA02F24A60D0E997
:1036C00019215160C16E31B10A6822F480720A601A
:1036D000D0E91C21516080F835B0002180F8341009
:1036E000016D01B188470020B9E6000010000240DA
:1036F0002804024008540258406D70472DE9FF5FCE
:103700000446002001904FF41651FD480068B0FBBC
:10371000F1F00090A56D2E682968FA4FDFF8E4B348
:10372000DFF8E083DFF8DC930BF1180BDFF8D4A3AC
:1037300008F13008206809F148090AF1600AB84226
:103740003BD05A46904238D0404536D0484534D0D8
:10375000504532D0EB4A783290422ED0E94A90322E
:1037600090422AD0E74AA832904226D0E64A9042B8
:1037700023D0E54A183290421FD0E34B30339842B1
:103780001BD0E14B4833984217D0DFF87CC30CF1D3
:10379000600C604511D0DFF870C30CF1780C604507
:1037A0000BD0DFF864C30CF1900C604505D0DFF856
:1037B00058E30EF1A80E70457ED194F85C100823F2
:1037C00001F01F0103FA01F232424BD0B84232D06D
:1037D000584530D040452ED048452CD050452AD0B1
:1037E000C8497831884226D0C6499031884222D0D3
:1037F000C449A83188421ED0C34988421BD0C2495F
:103800001831884217D0C0493031884213D0BE49A0
:10381000483188420FD0BC49603188420BD0BA4948
:103820007831884207D0B8499031884203D0B649F0
:10383000A831884203D1016801F0040102E0016867
:1038400001F0080171B1016821F00401016094F8F0
:103850005C0000F01F0003FA00F2AA60606D40F007
:103860000100606594F85C00012100F01F008140B8
:10387000314240D02068B84234D0584532D040451B
:1038800030D048452ED050452CD09E4A78329042B8
:1038900028D09C4A9032904224D09A4AA832904232
:1038A00020D0994A90421DD0974A1832904219D0A0
:1038B000954A3032904200E0D2E113D0924A483229
:1038C00090420FD0904A603290420BD08E4A7832AC
:1038D000904207D08C4A9032904203D08A4AA83254
:1038E00090427DD1406910F0800F04D0A960606DD6
:1038F00040F00200606594F85C00042100F01F00B5
:10390000814031423ED02068B84232D0584530D054
:1039100040452ED048452CD050452AD0794A78329F
:10392000904226D0774A9032904222D0754AA832EF
:1039300090421ED0744A90421BD0734A1832904273
:1039400017D0714A3032904213D06F4A48329042B9
:103950000FD06D4A603290420BD06B4A7832904261
:1039600007D0694A9032904203D0674AA832904209
:103970004ED1006810F0020F04D0A960606D40F0D5
:103980000400606594F85C00102100F01F00814085
:10399000314260D02068B84234D0584532D04045DA
:1039A00030D048452ED050452CD0564A78329042DF
:1039B00028D0544A9032904224D0524AA8329042A1
:1039C00020D0514A90421DD04F4A1832904219D00F
:1039D0004D4A3032904215D04B4A4832904200E076
:1039E00014E00FD0484A603290420BD0464A7832F9
:1039F000904207D0444A9032904203D0424AA832C3
:103A0000904207D1006800F0080006E0006872E705
:103A10000068B7E7006800F0040058B1A9602068AA
:103A2000016849030CD50068000304D4216C09B176
:103A3000204688470FE0A16C69B1204688470AE01C
:103A40000168C90503D4016821F008010160216CF7
:103A500009B12046884794F85C00202100F01F003F
:103A6000814031427BD02068B84232D0584530D0B6
:103A700040452ED048452CD050452AD0214A783296
:103A8000904226D01F4A9032904222D01D4AA8323E
:103A900090421ED01C4A90421BD01B4A18329042C2
:103AA00017D0194A3032904213D0174A4832904208
:103AB0000FD0154A603290420BD0134A78329042B0
:103AC00007D0114A9032904203D00F4AA832904258
:103AD00003D1006800F0100002E0006800F002006E
:103AE000E8B3A96094F83500042812D02068016872
:103AF00049033DD50068000335D4616C79B305E016
:103B00002C00002410000240100402402046884788
:103B10003FE02068016821F01601016020684169DA
:103B200021F080014161206C08B9A06C20B12068AF
:103B3000016821F00801016094F85C0000F01F01A9
:103B40003F208840A860012084F83500002084F8D8
:103B50003400216D002974D004B0204600E018E044
:103B6000BDE8F05F0847E16B99B12046884710E057
:103B70000168C90509D4016821F010010160012024
:103B800084F83500002084F83400E16B09B1204648
:103B90008847606D002854D0606DC00758D004205D
:103BA00084F835002068B84231D058452FD04045C0
:103BB0002DD048452BD0504529D0B749884226D032
:103BC000B5491831884222D0B349303188421ED0DD
:103BD000B24988421BD0B1491831884217D0AF4949
:103BE0003031884213D0AD49483188420FD0AB49BB
:103BF000603188420BD0A9497831884207D0A74963
:103C00009031884203D0A549A831884204D1016887
:103C100021F00101016003E0016821F00101016070
:103C200021680198009A401C0190904202D80868CF
:103C3000C007F6D10868C00704D0032084F8350017
:103C400003E087E0012084F83500002084F8340088
:103C5000E16C00297ED004B02046BDE8F05F084743
:103C60008F4EB0421BD08E4E1436B04217D08C4EC1
:103C70002836B04213D08A4E3C36B0420FD0884E20
:103C80005036B0420BD0864E6436B04207D0844ED8
:103C90007836B04203D0824E8C36B0425AD1066894
:103CA0004FF0040E94F85CB00BF01F0B0EFA0BFEF5
:103CB0001EEA010FCDF80CE05ED05FEA467E5BD5D0
:103CC00003986860300411D5F00307D4A16C002973
:103CD00040D004B02046BDE8F05F0847216C0029C1
:103CE00038D004B02046BDE8F05F0847B0063BD4AA
:103CF0002068B8422DD068496039884229D04045B3
:103D000027D0484525D0504523D06349884220D04C
:103D10006149183188421CD05F493031884218D03F
:103D20005E49884215D0904213D05C4930318842B8
:103D30000FD098420DD059496031884209D0574977
:103D40007831884205D0604503D05449A831884273
:103D500006D100E07CE0016821F00801016003E089
:103D6000016821F004010160216C002970D004B0C9
:103D70002046BDE8F05F08474FF0020E0EFA0BFE3A
:103D80001EEA010FCDF808E063D05FEA867E60D5B9
:103D900002986860300411D5F00307D4616C0029E3
:103DA00078D004B02046BDE8F05F0847E16B0029F9
:103DB00070D004B02046BDE8F05F0847B0063FD49D
:103DC0002068B8422DD034496039884229D0404516
:103DD00027D0484525D0504523D02F49884220D0B0
:103DE0002D49183188421CD02B493031884218D0D7
:103DF0002A49884215D0904213D028493031884250
:103E00000FD098420DD025496031884209D023490E
:103E10007831884205D0604503D02049A8318842D6
:103E200004D1016821F01401016003E0016821F070
:103E30000A010160012084F83500002084F8340074
:103E4000E16B002926D004B02046BDE8F05F0847AA
:103E500020E0082202FA0BF20A421BD0310719D5E2
:103E6000016821F00E01016094F85C0000F01F0170
:103E7000012000FA01F16960606584F835000020D6
:103E800084F83400E16C002904D004B02046BDE879
:103E9000F05F0847BDE8FF9F880002401004024021
:103EA000085402582DE9F05F044601F0BBF90646BC
:103EB000002C7DD0F24F0222DFF8C4830025DFF80A
:103EC000C093DFF8BCA308F13008DFF8B4B309F100
:103ED000480920680AF1600A0BF1780BB84232D029
:103EE000E749183188422ED040452CD048452AD089
:103EF000504528D0584526D0E1499031884222D0FB
:103F0000DF49A83188421ED0DE4988421BD0DD49F6
:103F10001831884217D0DB493031884213D0D94953
:103F2000483188420FD0D749603188420BD0D549FB
:103F30007831884207D0D3499031884203D0D149A3
:103F4000A83188427ED184F8352084F83450B842B4
:103F500034D0CB491831884230D040452ED0484526
:103F60002CD050452AD0584528D0C5499031884298
:103F700024D0C349A831884220D0C24988421DD0EC
:103F8000C0491831884219D0BE493031884215D015
:103F9000BC494831884211D0BA49603188420DD0BD
:103FA000B8497831884209D0B6499031884200E05A
:103FB00009E003D0B349A831884207D1016821F054
:103FC0000101016013E00120BDE8F09F016821F0CC
:103FD000010101600BE001F025F9801B052806D9DD
:103FE00020206065032084F835000120ECE720687C
:103FF0000068C007EFD122681168A3480140D4E9E6
:1040000002031843D4E9043633431843A369184321
:10401000E3691843236A18430843616A042903D1FA
:10402000D4E90B13194308436168A1F12903052B57
:104030000DD9163B032B0AD9083B012B07D9083BA6
:10404000032B00E02AE002D97439032901D840F497
:10405000801010602068406920F00701606A40EA23
:10406000010604280DD1A06A0643E06A48B1204643
:10407000FEF764F828B140206065012084F835001F
:10408000A2E7206846612046FDF76AFF94F85C10BD
:1040900001F01F023F219140816066E07B49884228
:1040A0001BD07A4B1433984217D0784B2833984260
:1040B00013D0764B3C3398420FD0744B5033984218
:1040C0000BD0724B6433984207D0704B78339842D0
:1040D00003D06E4B8C3398427ED1884211D06B490D
:1040E000143188420DD069492831884209D0674986
:1040F0003C31884205D065495031884201D063493E
:10410000643184F8352084F83450026860490A40EC
:10411000A16840297ED080297DD00021E36841EA52
:10412000D301236941EAD301636941EAD301A36959
:1041300041EAD301E36941EAD301236A41EA131159
:104140001143016051492068494208441421B0FBE1
:10415000F1F08000E0652046FDF702FF94F85C1066
:1041600001F01F020121914041602068B84256D001
:1041700043491831884252D0404550D048454ED02E
:1041800050454CD058454AD03D499031884246D0A0
:104190003B49A831884242D03A4988423FD0394908
:1041A000183188423BD037493031884237D03549C1
:1041B0004831884233D03349603188422FD0314969
:1041C000783188422BD02F499031884227D02D4911
:1041D000A831884223D000E02DE02C4988421ED02F
:1041E0002A49143188421AD028492831884216D0E9
:1041F00026493C31884212D02449503188420ED0A1
:104200002249643188420AD020497831884206D058
:104210001E4901E00AE00BE08C31884229D120469A
:10422000FDF7FEFEA06880280CD00CE0102175E799
:104230004FF4804172E740206065032084F8350028
:104240000120C1E66560216E20790860D4E919106B
:1042500048606068401E072808D82046FDF730FFF8
:10426000E06E0560D4E91C10486002E0E566256751
:1042700065676565012084F835000020A4E600002C
:1042800010000240100402403F8010FE0854025803
:104290000F00FEFF2DE9F84F044600200090002C8F
:1042A00015D094F83400012813D0012084F834008C
:1042B00094F835500020012D0DD04FF40061616558
:1042C00084F83400012000900098BDE8F88F0120A8
:1042D000FBE70220F9E7022584F835506065A54D1B
:1042E000A44EA44F1835DFF88CC23036DFF8848234
:1042F0004837DFF88092DFF87CA208F16008DFF829
:1043000074B209F1780920680AF1900A0BF1A80B40
:1043100060453BD0A84239D0B04237D0B84235D002
:10432000404533D0484531D050452FD058452DD049
:10433000DFF844C2604529D0DFF83CC20CF1180C0C
:10434000604523D0DFF830C20CF1300C60451DD041
:10435000DFF824C20CF1480C604517D0DFF818C212
:104360000CF1600C604511D0DFF80CC20CF1780C38
:1043700060450BD0DFF800C20CF1900C604505D011
:10438000DFF8F4C10CF1A80C604506D1D0F800C0EC
:104390002CF0010CC0F800C005E0D0F800C02CF0F3
:1043A000010CC0F800C02046FDF704FF71492068E9
:1043B00088422CD0A8422AD0B04228D0B84226D079
:1043C000404524D0484522D0504520D058451ED0E5
:1043D000694A90421BD0684A1832904217D0664A08
:1043E0003032904213D0644A483290420FD0624A31
:1043F000603290420BD0604A7832904207D05E4AD9
:104400009032904203D05C4AA83290420DD10268AB
:1044100022F01E0242F016020260206C90B1206869
:10442000026842F0080202600CE0026822F00E020C
:1044300042F00A020260206C20B12068026842F05B
:1044400004020260206888424BD0A84249D0B042A2
:1044500047D0B84245D0404543D0484541D050456B
:104460003FD058453DD0444A90423AD0424A183253
:10447000904236D0404A3032904232D03E4A4832A2
:1044800090422ED03C4A603290422AD03A4A78324A
:10449000904226D0384A9032904222D0364AA832F2
:1044A00090421ED0354A90421BD0344A143290427A
:1044B00017D0324A2832904213D0304A3C329042D0
:1044C0000FD02E4A503290420BD02C4A6432904288
:1044D00007D02A4A7832904203D0284A8C32904240
:1044E0000DD1206E0268D20303D5026842F48072B7
:1044F0000260E06E18B1026842F4807202602068C7
:1045000088422CD0A8422AD0B04228D0B84226D027
:10451000404524D0484522D0504520D058451ED093
:10452000154988421BD014491831884217D01249C6
:104530003031884213D01049483188420FD00E499B
:10454000603188420BD00C497831884207D00A4943
:104550009031884203D00849A831884204D10168CB
:1045600041F001010160AFE6016841F00101016025
:10457000AAE600001000024010040240085402584D
:1045800010B590F89830012B08D0022B06D050F8C7
:104590009C1F41F002010160012010BD03689C6D69
:1045A0000C4204D1DC6D44F00104DC6505E09C6D37
:1045B00031EA04041CD00324DC658B0504D50368B0
:1045C00053F8E04F14431C604B0504D5036853F8BF
:1045D000E44F14431C600068426D084B0B401A43C3
:1045E00042650748026842EA91710160002010BDEF
:1045F000DC6D44F00204DC65DFE70000FFFFCF3F25
:1046000014A8004070B5044694F89800022806D01B
:1046100054F89C0F40F008002060012070BD206815
:10462000D0F8C03013F07C5F0AD0D0F8C4309B02C1
:104630000DD554F89C0F40F400702060012070BD2F
:1046400054F89C0F40F020002060012070BDD0F88D
:10465000C400C0F3044520462B46FEF705F9216847
:104660000120A840C1F8D000C4F89400002070BD1B
:10467000704710B590F89820012A08D0022A06D079
:1046800050F89C1F41F002010160012010BDCA6872
:104690000B688BB1072A0B6943EA42732BD00C7A63
:1046A0004A6942EA84724968006F00EBC100036006
:1046B00042604FF0000010BD072A10D00C7A4FEA7C
:1046C000C2624B6943EA84730C8A42EA044243EAB9
:1046D00002034968C06E00EB81000360E9E70B8AC2
:1046E0004FF060548A6942EA0343CA6944EA0222ED
:1046F00043EA0203EDE78A69D5E730B5039C90F8F9
:104700009850012D06D050F89C1F41F00401016023
:10471000012030BD0068090141EA820141EA4301FC
:104720002143C0F88010002030BD70477047000062
:10473000F0B5002490F89850022D06D050F89C1F38
:1047400041F0080101600120F0BD40290BD0412952
:1047500036D0056D8D4260D850F89C1F41F0200185
:1047600001600120F0BD0568D5F8A06016F4FE0FC9
:1047700018D0D5F8A46076061BD0D5F8A460F60151
:1047800005D5D5F8A06016F0004F00D50124D5F866
:10479000A450C5F305252C44456C466F654306EBD4
:1047A00085063FE050F89C1F41F020010160012088
:1047B000F0BD50F89C1F41F4807101600120F0BDF4
:1047C0000568D5F8B06016F4FE0F18D0D5F8B460BF
:1047D00076061BD0D5F8B460F60105D5D5F8B060E3
:1047E00016F0004F00D50124D5F8B450C5F30525C7
:1047F0002C44C56C866F654306EB850612E050F8C5
:104800009C1F41F0200101600120F0BD50F89C1F69
:1048100041F4807101600120F0BD456DC66F4D43CC
:1048200006EB8506356805F0804555602DB3356883
:1048300025F060451560356805F0005595603568D0
:1048400005F000451561B588ADB2D5617568C5F351
:104850000345D560756805F480155561756805F4E4
:10486000001595617568C5F30665156275680836AB
:10487000ED0F55620025174F09E03568C5F38A45ED
:104880001560D8E716F805C003F805C06D1CD2F80E
:104890000CC017F80CC0AC45F4D8402909D0412908
:1048A0000BD0012220290CD200688A40C0F8982041
:1048B0000DE00068C0F8A84009E00068C0F8B84002
:1048C00005E0006801F01F018A40C0F89C2000202C
:1048D000F0BD00000C2C0108704700002DE9FE4FD0
:1048E0000446B64F38688007391D096800EA8170B0
:1048F00002902068016D01F47041D0F854A00AEADA
:10490000010A016D01F00F01D0F854B00BEA010B60
:10491000016D01F0F001426D0A400192016D01F05C
:104920007151D0F8548008EA0108016D01F06071FE
:10493000426D0A400092416D056D4FF00009CE4373
:10494000F10509D4E943C90506D4B9150165C7F8CD
:1049500000902046FFF7C0FF700510D4E8434005E3
:104960000DD42068D0F8DC20D0F8E41011404FF4CA
:1049700080620265C7F80090204600F03DFB029877
:1049800058B18F4902980840216808650298800F45
:10499000386002992046FFF76BFEBAF1000F0BD08A
:1049A000216887480AEA000008654FEA9A70386073
:1049B0005146204600F022FBBBF1000F0BD02168CE
:1049C0007F480BEA000008654FEA9B703860594643
:1049D000204600F0D3FA019858B17949019808406F
:1049E000216808650198800F38600199204600F021
:1049F000DBFA30050BD4E843000508D421684FF4F6
:104A000000600865C7F80090204600F0F8FAB0058D
:104A100010D4E84380050DD42068D0F8D820D0F811
:104A2000E01011404FF400720265C7F80090204674
:104A300000F0E3FA30030BD4E843000308D4216804
:104A40004FF400200865C7F80090204600F094FA63
:104A5000F0030BD4E843C00308D421684FF480303E
:104A60000865C7F80090204600F0C5FA70030BD423
:104A7000E843400308D421684FF480200865C7F854
:104A80000090204600F0B6FAB0030ED4E84380034D
:104A90000BD421684FF400300865C7F80090D4F8B3
:104AA0009C0040F08000C4F89C00009858B1444934
:104AB00000980840216808650098800F38600099C8
:104AC0002046FFF733FEB8F1000F0DD021683C48B7
:104AD00008EA000008654FEA98703860D4F89C0036
:104AE00040EA0800C4F89C003649206888425BD13F
:104AF00060688168890757D0016A01F00F02416A36
:104B00001140026A02F03002476A1740026A02F45A
:104B1000C072D0F8248008EA0208026A02F4FC425B
:104B2000456A1540026A02F4F022466A1640D0F83F
:104B30002490D0F820A019B10162204600F057FA65
:104B40002FB1606807623946204600F052FA6FEADA
:104B5000090040060ED46FEA0A0040060AD46068D5
:104B6000C16B090CC26B02F03F0240230362204676
:104B700000F03EFAB8F1000F06D06068C0F820805F
:104B80004146204600F032FA35B160680562D4F83B
:104B90009C002843C4F89C0036B160680662D4F8D3
:104BA0009C003043C4F89C00D4F89C00002802D03C
:104BB0002046FFF7BAFDBDE8FE8F000010A80040B8
:104BC000FFFFCF3F00A000402DE9F04393B0044623
:104BD0004C2295496846FBF74DFC6CB1934F206819
:104BE000B84202D100F5807060604FF4407994F8CB
:104BF0009800002620B108E0012013B0BDE8F08342
:104C000084F89960204600F013F92068816921F04A
:104C10001001816100F006FB05464FF003080DE02E
:104C200000F000FB401B0A2808D954F89C0F40F004
:104C30000100206004F8048C0120DEE72068806910
:104C40000007EDD42068816941F00101816100F025
:104C5000E9FA05460DE000F0E5FA401B0A2808D9FC
:104C600054F89C0F40F00100206004F8048C0120EF
:104C7000C3E720688069C007EDD02068816941F0F2
:104C800002018161207C012839D02068816941F0CE
:104C900040018161607C012837D02068816921F45E
:104CA00080418161A07C012835D02068816941F470
:104CB0008051816120688169A26821F440711143AB
:104CC00081612068816921F0A40181612068016906
:104CD00021F010010161E068012822D030B30228E0
:104CE0002BD02068816941F08001816120680169D1
:104CF00041F010010161E068032818D022E020682B
:104D0000816921F040018161C4E72068816941F433
:104D100080418161C6E72068816921F48051816109
:104D2000C8E72068816941F0040181610AE02068D8
:104D3000816941F02001816104E02068816941F0CE
:104D400020018161207E401E4106E069401E41EA4B
:104D50000020216A491E0843A18A491E40EA0140F9
:104D60002168C861A06848450FD1E16AA06A491E60
:104D7000401E40EA0121206B401E41EA0011A08C38
:104D8000401E41EA00402168C860206E28B12068BA
:104D900050F8C01F626E11430160D4E91701C84288
:104DA000694609D0206850F8C82FA36E22F0070288
:104DB00051F823301A430260206C48B1206850F843
:104DC000BC2F636C22F0070251F823301A430260B3
:104DD000A06C50B1206850F8BC2FE36C22F0700238
:104DE00051F8233042EA03120260206D50B120686E
:104DF00050F8BC2F636D22F4E06251F8231042EAB0
:104E0000012101602068B84204D16068816821F006
:104E10000301816044F8946FA66001202071943CE6
:104E20002046FDF749FCE8E61C2C010800A00040E4
:104E30002DE9F04186B00446142101A8FBF733FBAD
:104E4000474B002522680227464C4FF0090CDFF83B
:104E50000C8119680C3C434E4348491C424527D1FC
:104E60001960012907D1316841F4807131603168DE
:104E700001F480710091216841F0080121602168EE
:104E800001F0080100910321019102970395049517
:104E9000CDF814C001A900F0B3F8002205211320B9
:104EA00000F064FA132000F053FA06B0BDE8F08178
:104EB000DFF8B880424526D11960012907D1306852
:104EC00040F480703060306800F48070009020689A
:104ED00040F002002060206800F002000090602096
:104EE0000190029703950495CDF814C001A92048BC
:104EF00000F086F800220521142000F037FA142073
:104F000000F026FAD1E7DFF86CC06245CDD1196018
:104F1000012907D1316841F480713160316801F4B1
:104F200080710091216841F008012160216801F041
:104F3000080100914FF440510191029703950495A7
:104F40000521059101A900F05BF8002205219F20B1
:104F500000F00CFA9F2000F0FBF9A6E700A000404B
:104F600018000024EC440258000C025800A4004031
:104F70000004025800D400407047000010B50446F9
:104F8000C8070BD00648844201D10CF0A9FB0548A4
:104F9000844203D1BDE810400CF00CBC10BD0000F1
:104FA000480E0024880F0024C90604D5024988420F
:104FB00001D10CF0D3BB7047E80E002490F8981094
:104FC000012906D050F89C1F41F004010160012026
:104FD0007047022180F8981001688A6922F0010266
:104FE0008A610021C0F89C1000207047704770470C
:104FF00070477047704770477047704770477047F9
:105000002DE9F84F0022784D03264FF001080F27B5
:105010004FF0B04CE1E008FA02F31C409A46002C35
:105020007ED00B7903F00303012B01D0022B1BD19F
:10503000D0F80890530006FA03FB29EA0B09D1F8CF
:105040000CB00BFA03FB4BEA090BC0F808B043683D
:1050500023EA0A0391F80490C9F3001909FA02F946
:1050600049EA0309C0F804900B79DB439B070ED093
:10507000D0F80C90530006FA03FA29EA0A09D1F88D
:1050800008A00AFA03FA4AEA090AC0F80CA00B7948
:1050900003F00303022B14D1D30800EB8303D3F8EE
:1050A00020A04FEA42794FEAD96907FA09FB2AEAB8
:1050B0000B0AD1F810B00BFA09FB4BEA0A0BC3F844
:1050C00020B0D0F80090530006FA03FA29EA0A0942
:1050D00091F804A00AF0030A0AFA03FA4AEA090A54
:1050E000C0F800A04B6813F4403F75D03F4BD3F895
:1050F000009049F00209C3F800901B6803F0020316
:10510000009322F0030909F1B049D9F808B49307D4
:105110004FEA137A07FA0AF32BEA030B344B00E049
:105120005AE0984201D1002328E0324B984201D145
:10513000012323E0304B984201D102231EE02F4B84
:10514000984201D1032319E02D4B984201D1042349
:1051500014E02C4B984201D105230FE02A4B9842D2
:1051600001D106230AE0294B984201D1072305E02B
:10517000274B984201D1092300E00A2303FA0AF3DE
:1051800043EA0B03C9F80834DCF80030A343D1F834
:1051900004905FEAC92900D52343CCF80030DCF83D
:1051A0000430A343D1F804905FEA892900D5234352
:1051B000CCF804306B68A343D1F804905FEA8939D6
:1051C00000D523436B602B68A343D1F804905FEABA
:1051D000C93900D523432B60521C0C6834FA02F302
:1051E0007FF419AFBDE8F88F80000058F4440258EE
:1051F000000002580004025800080258000C02582F
:10520000001002580014025800180258001C0258DE
:1052100000240258002A01D081617047090481618D
:10522000704700000148806870470000200000249B
:105230000248816802781144816070472000002490
:1052400010B5032000F0B2F801F03CF90F490A68EC
:10525000C2F303230E4AD35C03F01F03D84009684E
:1052600001F00F01515C0B4A01F01F0120FA01F11E
:105270001160094908600F2000F010F808B1012002
:1052800010BD00F053F8002010BD00001844025873
:10529000902C0108300000242C00002410B58AB0A6
:1052A0000446102C30D2002221461C2000F05EF86B
:1052B0001C2000F04DF8194804601948016841F0BD
:1052C00001010160006800F00100009001A902A83E
:1052D00001F082F80798C8B101F0D0F840001149F8
:1052E000B0FBF1F1491E10484FF08042026040F2DD
:1052F000E732C260416000210161816002F056F92D
:1053000038B101200AB010BD0120FBE701F0B6F86A
:10531000E5E7054802F072F9F4E7000024000024F4
:10532000E844025840420F00EC18002482B00748BD
:10533000016841F002010160006800F00200019084
:1053400000220F21901E02B000F010B8F444025861
:10535000002809DB012100F01F0291404009800074
:1053600000F1E020C0F8001170470000F0B40D46D5
:105370000D4B1B68C3F30223C3F10704042C00D9AF
:105380000424191D072901D2002300E0DB1E012699
:1053900006FA04F1491E294099409E40761E1640A7
:1053A0003143F0BC08F041BA0CED00E000F0070119
:1053B000054A10684FF6FF03184040EA01200349F0
:1053C00008431060704700000CED00E00000FA0593
:1053D00070B514490A68D243520708D5096801F02C
:1053E0000701814201D0012070BD002070BD0A6814
:1053F00022F0070202430A60FFF714FF0446094D3A
:105400004FF47A76083D06E0FFF70CFF001BB04230
:1054100001D9012070BD2868C0438004F4D4002065
:1054200070BD00000C48025810B501F005F80549A0
:105430000968054AC1F30211515C01F01F01C8401F
:1054400010BD000020440258902C010810B5694995
:105450000A6802F003020968C1F30531654B1B1DA0
:105460001B68C3F30013634C14342468C4F3CC04E6
:1054700014FB03F300EE103AB8EE400A002971D095
:105480009FED5D1A5B4BF7EE000A1033F2B39FED10
:105490005B2A012A7FD0022A7CD001EE901A19687B
:1054A000F8EE611AC2EE212AC1F3080101EE901A4A
:1054B000F8EE611A40EE011A31EEA00A22EE800ADF
:1054C0001968C1F3462101EE101AB8EE411A31EE07
:1054D000201AC0EE011ABCEEE11A80ED001A19681C
:1054E000C1F3064101EE101AB8EE411A31EE201A4E
:1054F000C0EE011ABCEEE11A80ED011A1968C1F381
:10550000066101EE101AB8EE411A00E008E071EEF3
:10551000200A80EE201ABCEEC10A80ED020A10BDFE
:10552000344A283A1468A4061ED51268C2F3C1048E
:10553000334AE24001EE902AF8EE612A01EE901A19
:105540001968F8EE611A82EEA12AC1F3080101EE92
:10555000901AF8EE611A40EE011A31EEA00A22EE1E
:10556000000AADE741E016E001EE901ADFED252AD2
:105570001968F8EE611A82EEA12AC1F3080101EE62
:10558000901AF8EE611A40EE011A31EEA00A22EEEE
:10559000000A95E713E001EE901A1968F8EE611A17
:1055A000C2EE212AC1F3080101EE901AF8EE611A49
:1055B00040EE011A31EEA00A22EE800A80E701EEE9
:1055C000901ADFED112A1968F8EE611A82EEA12A0D
:1055D000C1F3080101EE901AF8EE611A40EE011ACB
:1055E00031EEA00A22EE000A6AE700210160416064
:1055F000816010BD28440258000000390024744A1C
:105600000090D0030024744C001BB74B10B56949BF
:105610000A6802F003020968C1F30551654B1B1DBE
:105620001B68C3F30023634C1C342468C4F3CC040C
:1056300014FB03F300EE103AB8EE400A002971D0D3
:105640009FED5D1A5B4BF7EE000A1833F2B39FED46
:105650005B2A012A7FD0022A7CD001EE901A1968B9
:10566000F8EE611AC2EE212AC1F3080101EE901A88
:10567000F8EE611A40EE011A31EEA00A22EE800A1D
:105680001968C1F3462101EE101AB8EE411A31EE45
:10569000201AC0EE011ABCEEE11A80ED001A19685A
:1056A000C1F3064101EE101AB8EE411A31EE201A8C
:1056B000C0EE011ABCEEE11A80ED011A1968C1F3BF
:1056C000066101EE101AB8EE411A00E008E071EE32
:1056D000200A80EE201ABCEEC10A80ED020A10BD3D
:1056E000344A283A1468A4061ED51268C2F3C104CD
:1056F000334AE24001EE902AF8EE612A01EE901A58
:105700001968F8EE611A82EEA12AC1F3080101EED0
:10571000901AF8EE611A40EE011A31EEA00A22EE5C
:10572000000AADE741E016E001EE901ADFED252A10
:105730001968F8EE611A82EEA12AC1F3080101EEA0
:10574000901AF8EE611A40EE011A31EEA00A22EE2C
:10575000000A95E713E001EE901A1968F8EE611A55
:10576000C2EE212AC1F3080101EE901AF8EE611A87
:1057700040EE011A31EEA00A22EE800A80E701EE27
:10578000901ADFED112A1968F8EE611A82EEA12A4B
:10579000C1F3080101EE901AF8EE611A40EE011A09
:1057A00031EEA00A22EE000A6AE7002101604160A2
:1057B000816010BD28440258000000390024744A5A
:1057C0000090D0030024744C001BB74B2DE9FC5F04
:1057D000044600250026F94F2068DFF8E493C04313
:1057E000010104F10800019004F1280000900DD49B
:1057F000606EB8B1B0F5801F19D0B0F5001F1CD095
:10580000B0F5401F00D00125EDB12E462088C043E1
:10581000C00535D4A06D05282FD2DFE800F01D2289
:10582000282F2F00386840F400303860ECE70198EA
:10583000022105F0B3FE0546E6E70098022105F0D7
:105840003FFF0546E0E7D9F80000616E20F4401004
:105850000843C9F80000D9E7386840F400303860E0
:105860000CE00198002105F099FE054606E000983D
:10587000002105F025FF054600E00125A5B12E46D3
:105880002088DFF84083C04340051FD4D4F8A4002B
:10589000B0F5C00F18D010DC50B3B0F5001F2CD0FD
:1058A000B0F5800F0FD12EE0D9F80000A16D20F0E7
:1058B00007000843C9F80000E2E7B0F5000F03D085
:1058C000B0F5200F00D001251DB32E462088C0431F
:1058D000000531D4D4F8A800B0F1407F2AD022DCF2
:1058E000F0B3B0F1807F4BD0B0F1007F21D14DE01B
:1058F000386840F400303860E6E70198002105F090
:105900004DFE0546E0E70098002105F0D9FE05466A
:10591000DAE7D8F80000D4F8A41020F460000843B7
:10592000C8F80000D2E7B0F1806F03D0B0F1A06FEB
:1059300000D0012585B32E462068C04380010AD4DB
:10594000E06C30B1102832D0202836D0302800D07A
:1059500001258DB32E462088C043C00446D400E004
:1059600009E0E06DB0F5005F5CD036DCA0B3B0F5C7
:10597000805F38D150E0386840F400303860D9E7B3
:105980000198002105F00AFE0546D3E700980021A2
:1059900005F096FE0546CDE7FFE7D8F80000D4F8FD
:1059A000A81020F0E0600843C8F80000C4E7386899
:1059B00040F400303860CCE705E00198022105F0A2
:1059C000EDFD0546C5E77E48001F0168E26C21F049
:1059D000300111430160BEE719E0B0F5405F03D02C
:1059E000B0F5804F00D0012515B32E462088C04366
:1059F00080042FD4206EB0F5403F29D021DC38B38D
:105A0000B0F5803F38D0B0F5003F20D13AE038689B
:105A100040F400303860E7E70198002105F0BEFD52
:105A20000546E1E70098002105F04AFE0546DBE760
:105A3000D9F80000E16D20F4E0400843C9F8000007
:105A4000D4E7B0F5802F03D0B0F5A02F00D001250A
:105A5000F5B12E462088C04340042BD4D4F8AC00C6
:105A6000B0F1405F24D01CDC10B3B0F1805F4FD0A8
:105A7000B0F1005F1BD152E00198012105F08EFDCD
:105A80000546E5E70098012105F01AFE0546DFE727
:105A9000D9F80000216E20F4E0200843C9F8000086
:105AA000D8E7B0F1804F03D0B0F1A04F00D001256E
:105AB000A5B32E462088C04300040AD4E06E30B15E
:105AC000B0F1805F3DD0B0F1005F3FD00125B5B3AC
:105AD0002E462068C043C0010AD4A06C30B1012812
