:020000040800F2
:10000000A0670024A503000889AE0008C983000882
:1000100061AD0008D90D0008B1D100080000000052
:10002000000000000000000000000000E5020008E1
:1000300081210008000000004103000879B6000893
:10004000C3030008C3030008C3030008C303000878
:10005000C3030008C3030008C3030008C303000868
:10006000C3030008C3030008C30300089D1C000865
:10007000A91C0008B51C0008C11C0008C303000827
:10008000C3030008C3030008C3030008C523000816
:100090002D240008C3030008C3030008C30300089D
:1000A000C3030008C3030008C3030008C303000818
:1000B00011B80008C3030008C3030008C303000805
:1000C000C3030008C3030008C3030008C3030008F8
:1000D000F1B20008B1CC0008C3030008C303000854
:1000E000C3030008C303000800000000C3030008A6
:1000F000C3030008C3030008C3030008C3030008C8
:10010000C3030008C3030008C3030008C3030008B7
:10011000C303000851BC0008C3030008C303000860
:10012000CD1C0008D91C0008C3030008C303000845
:10013000C3030008C3030008C3030008C303000887
:1001400000000000000000000000000000000000AF
:10015000C3030008E51C0008C3030008C30300082C
:10016000C3030008C3030008C3030008C303000857
:10017000C3030008C3030008C30300080000000015
:10018000C3030008C30300085DBC0008C3030008E4
:10019000C3030008C3030008C3030008C303000827
:1001A000C3030008C3030008C303000800000000E5
:1001B000C3030008C3030008C3030008C303000807
:1001C000C3030008C3030008000000000000000093
:1001D0000000000000000000C30300080000000051
:1001E000000000000000000000000000000000000F
:1001F0000000000000000000C3030008C303000863
:10020000C3030008C303000800000000C303000884
:10021000C3030008C3030008C3030008C3030008A6
:10022000C303000800000000C30300080000000032
:10023000C3030008C303000800000000C303000854
:10024000C3030008C3030008C3030008C303000876
:10025000C3030008C3030008C3030008C303000866
:10026000C3030008C3030008C3030008C303000856
:10027000C3030008C3030008C30300080000000014
:10028000C3030008C3030008C3030008C303000836
:1002900000000000C3030008C303000800000000C2
:1002A00000000000C3030008C3030008C3030008E4
:1002B0008DCC0008C3030008C30300089D24000878
:1002C000C3030008C3030008C3030008DFF810D00D
:1002D00000F0D2FA0048004749FF0008AFF3008061
:1002E000A06700242C4B19680868B0E8F04F80F331
:1002F0000988BFF36F8F4FF0000080F311887047BB
:100300000000000008480068006880F308884FF08B
:10031000000080F3148862B661B6BFF34F8FBFF35D
:100320006F8F00DF00BF00BF08ED00E0DFF80C00BA
:10033000016841F470010160704700BF88ED00E082
:10034000EFF30980BFF36F8F134B1A681EF0100F85
:1003500008BF20ED108A20E9F04F106009B44FF07B
:10036000500080F31188BFF34F8FBFF36F8F10F0F1
:100370004DFB4FF0000080F3118809BC1968086834
:10038000B0E8F04F1EF0100F08BFB0EC108A80F3F9
:100390000988BFF36F8F704730000024EFF30580AA
:1003A00070470000074880470748804707480047D4
:1003B000FEE7FEE7FEE7FEE7FEE7FEE7FEE7FEE715
:1003C000FEE7FEE74923000839B70008CD02000820
:1003D0002DE9F05F0546002092469B46884606467A
:1003E000814640241BE0284641464746224600F00D
:1003F0007BF853465A46C01A914110D3114618460D
:10040000224600F016F82D1A67EB01084F462246E7
:100410000120002100F00DF817EB00094E41201ECD
:10042000A4F10104DFDC484631462A464346BDE8D4
:10043000F09F202A04DB203A00FA02F100207047E6
:100440009140C2F1200320FA03F319439040704712
:10045000202A06DBCB17203A41FA02F043EAE07388
:1004600006E041FA02F3D040C2F120029140084375
:100470001946704740EA01039B0703D009E008C909
:10048000121F08C0042AFAD203E011F8013B00F859
:10049000013B521EF9D27047D2B201E000F8012BA5
:1004A000491EFBD270470022F6E710B513460A46F4
:1004B00004461946FFF7F0FF204610BD30B50B4645
:1004C000014600202022012409E021FA02F59D4284
:1004D00005D303FA02F5491B04FA02F52844151E58
:1004E000A2F10102F1DC30BD202A04DB203A21FA1E
:1004F00002F00021704721FA02F3D040C2F120023D
:1005000091400843194670472DE9FE4F804681EA25
:100510000300C00F0C46009021F0004123F000457D
:10052000B8EB0200A94105D24046214690461C4640
:100530000B46024623F00040104347D0270DC7F377
:100540000A00C3F30A510290401A019040286BDA66
:10055000C3F3130040F4801B0098924620B100239F
:10056000D2EB030A63EB0B0B01985946C0F1400232
:100570005046FFF75EFF06460D4650465946019A23
:10058000FFF766FF10EB08006141002487EA115273
:1005900084EAE7731A4340D0009A62B3019A012AB1
:1005A0004FEA075215DC001B61EB02014FF00042DD
:1005B00002EA0752CDE90042001C41F580113246A3
:1005C0002B4600F07AF903B0BDE8F08F4046214693
:1005D000F9E7001B61EB0201001C41F580130018D4
:1005E0005B412018A2F5001747EB030140EAD570E4
:1005F000B6196D4111E06D084FEA360645EAC0753F
:100600004FEA0752001B61EB0201001C41F580110B
:1006100049084FEA30000019514132462B4603B0D9
:10062000BDE8F04F00F03AB90098012240000023E5
:10063000D0EB020263EBE073009821464FEAE074CE
:10064000B8EB000061EB0401E9E783F000435BE7EE
:1006500081F0004158E72DE9FE4F81EA030404F0E0
:10066000004421F0004100944FF0000B23F00043C0
:1006700050EA01045ED052EA03045BD0C3F30A548B
:10068000C1F30A552C44A4F2F3340194A0FB0254A4
:10069000C1F3130141F48011C3F3130343F4801336
:1006A00001FB024400FB034E840A970A44EA81548A
:1006B00047EA8357A4FB076802958D0A05FB078567
:1006C0004FEA932C04FB0C542705029D4FEA065871
:1006D00047EA1637B5EB08056EEB070C870E920E4E
:1006E00047EA811742EA8312A7FB0201B6EB0B012E
:1006F00064EB00042B0D43EA0C335E1844EB1C50F2
:10070000DA465146E7FB0201C5F313044FEA0B3307
:1007100043EA14534FEA0432019C43EA0603A4F16E
:100720000C040294009CCDE900B400F0C6F803B0BC
:10073000BDE8F08F00200146F9E72DE9F04D81EA90
:10074000030404F0004B21F0004514464FF0000A6A
:1007500023F0004150EA050220D054EA01021DD0E6
:10076000C5F30A570246C5F31303C1F31300C1F3DF
:100770000A5640F4801543F48013A7EB0608101BBB
:10078000D64608F2FD3873EB050002D308F10108E4
:1007900001E092185B41B8F1000F03DA0020014636
:1007A000BDE8F08D00204FF48011064684460EE02F
:1007B000171B73EB050705D3121B63EB05030643F9
:1007C0004CEA010C49084FEA300092185B4150EAAC
:1007D0000107EDD152EA030012D082EA040083EA55
:1007E0000501084305D0101BAB4106D201220023AE
:1007F00006E000224FF0004302E06FF001025310C8
:100800001AEB06004CEB085110EB0A0041EB0B0110
:10081000BDE8F04D00F042B8C1F30A52C1F3130134
:1008200040F2FF3341F480119A4202DA002001467F
:10083000704740F233439A42A2F2334202DC524202
:10084000FFF752BEFFF7F5BD30B5041E71F100048D
:1008500004DB4FF00044404264EB0101141E73F1CD
:10086000000405DB1C464FF00043524263EB0403D7
:10087000994208BF904230BD064C074D06E0E06843
:1008800040F0010394E8070098471034AC42F6D3D7
:10089000FFF720FD601E0108801E010810B5141E20
:1008A00073F1000408DA401C41F1000192185B4129
:1008B0001A4301D120F0010010BD2DE9F04D924600
:1008C0009B4611B1B1FA81F202E0B0FA80F2203217
:1008D0009046FFF7AEFD04460F4640EA0A0041EAA3
:1008E0000B0153465A46084313D0114653EA010000
:1008F00019D0C8F140025046FFF7F6FD05460E46F6
:10090000504659464246FFF794FD084305D0012062
:1009100004E020463946BDE8F08D0020054346EA54
:10092000E0762C4337430A986305E40AA0EB0800FD
:100930000022FD0A44EA47540A3002D5002001464D
:10094000E9E7010510196941DDE908450019694128
:10095000BDE8F04DA2E770B58C1810F8015B15F0FA
:10096000070301D110F8013B2A1106D110F8012B21
:1009700003E010F8016B01F8016B5B1EF9D12B0746
:1009800005D40023521E0DD401F8013BFAE710F8FC
:10099000013BCB1A921C03E013F8015B01F8015BE9
:1009A000521EF9D5A142D8D3002070BD1E489FED3C
:1009B0001D1A80ED111A80ED231A80ED351A80ED95
:1009C000471A1A49B0EE000AF8EE000A0978012920
:1009D00003D180ED120AC0ED240A154A1278012ACB
:1009E00003D1C0ED360A80ED480A022903D1C0EDDB
:1009F000120AC0ED240A022A03D180ED360A80EDE6
:100A0000480A032903D1C0ED120A80ED240A032A03
:100A100003D180ED360AC0ED480A80ED591A80ED09
:100A20006B1A70470000000000010024F609002442
:100A3000F709002401220248114604F00BBA000015
:100A40000008025800220248012104F003BA000005
:100A5000000802587047000001220248082104F0F3
:100A6000F9B900000008025800220248082104F0E9
:100A7000F1B9000000080258704730B504464FF441
:100A80007A7502E0284600F004F8641EA4B2F9D298
:100A900030BD70B500214FF0E0256B69C0EB001050
:100AA0004401AA69A8699042FCD003D2A2EB0002DB
:100AB000114403E0A3EB0006324411440246A14274
:100AC000F0D370BD10B5FFF7C5FFFFF7D5FF0EF0EF
:100AD000F9FE04460EF07CFF204310BD2DE9FC41D9
:100AE00004460D461646002000900190FFF7AAFF2D
:100AF000922000F0BFF806226946122000F09CF810
:100B0000FFF798FF9DF801009DF80010000200B269
:100B10000843484F00EE100AD7ED000AB8EEC00AAD
:100B200020EE200A85ED000A9DF803009DF80210D2
:100B3000000200B2084300EE100AF8EEC00A97ED7A
:100B4000000A60EE800AC5ED010A9DF805009DF8D7
:100B50000410000200B2084300EE900AF8EEE00A2A
:100B600020EE800A85ED020AFFF77EFF0822694623
:100B7000002000F061F8FFF76FFF9DF800000F28DC
:100B800030D19DF803009DF80210000200B2084326
:100B900000EE100AD7ED010AB8EEC00A20EE200AD6
:100BA00084ED000A9DF805009DF80410000200B2D3
:100BB000084300EE100AF8EEC00A97ED010A60EE55
:100BC000800AC4ED010A9DF807009DF80610000296
:100BD00000B2084300EE900AF8EEE00A20EE800A28
:100BE00084ED020AFFF72EFFA22000F043F8022254
:100BF0006946222000F020F8FFF71CFF9DF8000056
:100C00009DF80110C00040EA5110B0F5806F02DB82
:100C1000A0F5006000B200EE100AB4EE001AF8EE83
:100C2000C00AB3EE070A00EE810A86ED000ABDE8AD
:100C3000FC810000C40A002470B50D46144640F043
:100C4000800000F017F806E0552000F013F805F8D2
:100C5000010B641EE4B2002CF6D170BD10B50C4639
:100C600040F0800000F006F8552000F003F82070F6
:100C700010BD000001B582B04FF47A7001230090DE
:100C800001AA034802A906F06DF89DF804000EBD04
:100C9000880F002410B50C46FFF7ECFF2046BDE896
:100CA0001040FFF7E7BF000010B52DED028B424C5E
:100CB00094EDC20AD4EDE00A30EE200ADFED3F0ADF
:100CC00020EE200AF6EE000A20EE208A84ED988AB3
:100CD00094ED9A0A04F50B6009F0F4F8384881683D
:100CE00081ED000A416894ED960A81ED000A4068A2
:100CF00080ED018A324808F07BFD84ED998A94EDFD
:100D00009A0A84ED9B0A94ED930A9FED2E1BB7EE91
:100D1000C00AB0EEC00BB4EEC10BF1EE10FA10D267
:100D2000D4F8BC089FED291A00EE100AB8EE400A6C
:100D300068EE000A94ED960A00EE810A84ED960AA8
:100D400003E09FED230A84ED960A00219FED210A1E
:100D5000C1EB011094EDA21A04EBC00201EB4100BB
:100D6000D2EDAD0A04EBC00070EE600A70EEC10A6D
:100D7000C0EDEA0AD2EDAE0A94EDA31AF1EE600AD4
:100D800070EEC10AC0EDEB0AD4ED960AC0EDEC0A94
:100D9000D4ED990AC0EDED0AD4EDA20AC0EDEE0A39
:100DA000D4EDA30AC0EDEF0A491CC9B20229CFD382
:100DB000BDEC028B10BD0000000100248FC2753D08
:100DC0001856002400000040E17A843F6F12833AF5
:100DD00000000000DB0FC93FFEE700004A780978F9
:100DE000DFED060A42EA012109B200EE101AB8EE60
:100DF000C00A80EE201A80ED001A704700007A4485
:100E000010B504462DED108BB0EE40EAB0EE60FA5E
:100E100082B0B7EECF0AB0EE40AB0DF05DF89FEDBB
:100E20008F8B20EE080BF7EEC0CBB7EECE0AB0EEFC
:100E3000409B0DF051F820EE080BF7EEC0EBB0EE42
:100E40004A0B0CF049FF20EE080BB7EEC0BBB0EE2A
:100E5000490B0CF041FF20EE080BF7EEC0BB7CEE17
:100E6000EEAA3BEE6BAA2AEE0A0A0AEEAA0AB7EE2F
:100E7000C00A0DF053F9B7EEC00BF6EE000A2AEEE9
:100E800020CA2AEEA0AADFED770AB0EE601A00EEC3
:100E9000001A71EE60AA2CEE0C0A0AEE0A0A0AEE9B
:100EA000EA0AB7EEC00A0DF039F9B7EECA1A30EE09
:100EB000010B3CEE2A1AB7EEC11A0CF0CDFCB0EED5
:100EC000001B20EE010BB7EEC0CBB7EECC0AB0EEA4
:100ED00040AB0CF001FF3BEECB1AB5EE00BBB7EE1A
:100EE000C1DA00EE0BDBB0EE4A0B0CF0F5FFB0EE12
:100EF000401B3EEEEC0AB7EEC00A01EE0B0BB0EE63
:100F00004D1B0CF0A9FCF7EEC0CBB0EE490B0CF07A
:100F1000E3FE20EE08DBB0EE4A0B0CF0DDFE00EE47
:100F20000BDBB7EECDDBB0EE490B0CF0D5FF20EEBE
:100F3000089BB0EE4A0B0CF0CFFF00EE0B9BB7EE18
:100F4000C99B2DEE0D0A09EE090AB7EEC00A0DF095
:100F5000E5F8B7EEC01B8DED011AB7EECD1AB7EE6E
:100F6000C90A0CF079FCF7EEC0EB3EEEEC0AB7EEE6
:100F7000C0AAB0EE4A0B0CF0AFFF20EE089B3EEE8D
:100F80004C0AB7EEC0BAB0EE4B0B0CF0A5FF29EE41
:100F900000DB3CEECC0AB7EEC09AB0EE490B0CF089
:100FA0009BFF8DEE001BF7EEC1FB3EEECC0AB7EEC9
:100FB000C0DAB0EE4D0B0CF08FFF20EE08EB3CEEEC
:100FC000CF0AB7EEC0CAB0EE4C0B0CF085FF2EEE88
:100FD00000EBB0EE490B0CF07FFF8EEE001BB7EE7E
:100FE000C1EBB0EE4A0B0CF077FE20EE08ABB0EE92
:100FF0004B0B0CF071FF2AEE00BBB0EE490B0CF06E
:101000006BFF9DED011AB7EEC1AA20EE0A0B8BEE25
:10101000001BB7EEC1BBB0EE4D0B0CF05DFE20EE39
:10102000088BB0EE4C0B0CF057FF28EE008BB0EEA7
:10103000490B0CF051FF20EE0A0B88EE001BB7EEB7
:10104000C10BC4ED00FA84ED01EA84ED02BA84ED2F
:10105000030A02B0BDEC108B10BD0000000000A020
:1010600047E1CA3F0000803D90ED000AD1ED000A43
:10107000524B20EE200A83ED300A90ED010AD1EDAB
:10108000010A20EE200A83ED310A90ED020AD1ED2B
:10109000020A20EE200A83ED320A90ED030AD1ED18
:1010A000030A20EE200A83ED330A90ED040A83ED53
:1010B000340A90ED050AD1ED050A20EE200A83EDF1
:1010C000350A90ED060AD1ED000A20EE200A83EDE4
:1010D000360A90ED070AD1ED010A20EE200A83EDD1
:1010E000370A90ED080AD1ED020A20EE200A83EDBE
:1010F000380A90ED090AD1ED030A20EE200A83EDAB
:10110000390A90ED0A0AD1ED040A20EE200A83ED97
:101110003A0A90ED0B0AD1ED050A20EE200A83ED84
:101120003B0A90ED000AD1ED000A91ED011A20EE84
:10113000200AD0ED010A00EE810AD0ED020A91EDFD
:10114000021A00EE810AD0ED030A91ED031A00EEB7
:10115000810AD0ED040A91ED041A00EE810AD0ED67
:10116000050A91ED051A00EE810A82ED000A90ED64
:10117000060AD1ED000A91ED011A20EE200AD0ED09
:10118000070A00EE810AD0ED080A91ED021A00EE7E
:10119000810AD0ED090A91ED031A00EE810AD0ED23
:1011A0000A0A91ED041A00EE810AD0ED0B0A91EDC6
:1011B000051A00EE810A82ED010A70470009002439
:1011C00090ED001AD0ED022A90ED012AD0ED031A1D
:1011D00021EE001A02EEA01A22EE000A01EEA00A89
:1011E00081ED001A81ED010A70470000F0B4DDE9DD
:1011F00004560C4C44F8100C44F80C1C170A2776C3
:1012000062761A0AA276E3762A0A22776577320A8C
:10121000A277E67704F11802F0BC89B208230EF039
:1012200045BC00002C0B00240A48007A0A280ED284
:10123000DFE800F00D0D0705090D0D0D0D0B00F099
:10124000A7BC00F0A5BC00F08BBCFFF7AFBB00F063
:10125000EFBC00000001002410B5214C94F83800C8
:10126000002808D094F8800028B194F8C80010B184
:1012700094F81001C0B91A480C3000F09BFF01200F
:101280000EF0BEFE1648543000F094FF01200EF020
:10129000B7FE13489C3000F08DFF01200EF0B0FE29
:1012A0000F48E43000F086FF207A032802D1617AEB
:1012B000032907D10B49897B21B902280CD1607A17
:1012C000022809D008484FF4C871FFF7ECF8002055
:1012D00084F8280384F8A003207A607210BD00000F
:1012E00000010024B2550024580300242DE9F04FDA
:1012F0002DED048BB1B00EF0CDFCD44D2860002450
:10130000671E012305F10C001A46B7EE000ACDE96D
:1013100000741946804609F09BFD012305F1540035
:101320001A4602218146B7EE000ACDE9007409F0A1
:101330008FFD012605F19C00334603213246B7EEAE
:10134000000ACDE90064824609F082FD012305F11F
:10135000E4001A4604218346B7EE000ACDE9006492
:1013600009F076FD9FEDBA8A002302220121B0EE3A
:10137000480ACDE9007405F5967009F069FD02226E
:1013800000231146B0EE480ACDE9006405F5BA70B5
:1013900009F05EFD404600F00DFF01200EF030FE2A
:1013A000484600F007FF01200EF02AFE504600F0EC
:1013B00001FF01200EF024FE584600F0FBFEA54878
:1013C00004700221417003218170C4704FF4C87110
:1013D00005F51670FFF767F89C2105F5DE70FFF73D
:1013E00062F885F8284385F8A0432E722EAB9A4CFC
:1013F000D4E90312A06807C30021F6EE000AB2EE9A
:10140000040A2EAA05F5856009F0FAFDD4E9061252
:101410002BAB606907C30021F7EE000AB1EE000AAA
:101420002BAA05F26C7009F0EBFDD4E90902216AE0
:10143000CDE929022891DFED898A0021B2EE040A64
:10144000F0EE680A28AA05F5F76009F0D9FDD4E99D
:101450000C1225ABE06A07C30021F0EE680AB2EE79
:10146000040A25AA05F6040009F0CAFDD4E90F1202
:1014700022ABA06B07C3F0EE680A9FED799A0021BA
:1014800022AAB0EE490A05F5986009F0B9FD9FED72
:10149000758A05F5806585ED348A0021F0EE680ACD
:1014A000B0EE490A22AA05F5867009F0A9FD85ED7E
:1014B000478AD4E912121FAB606C07C3F0EE680ACA
:1014C0009FED690A00211FAA05F5227009F098FD19
:1014D000D4E915121CAB206D07C3F0EE680A9FED2E
:1014E000630A00211CAA05F1740009F089FDD4E902
:1014F000181219ABE06D07C30021F0EE680AB1EED7
:10150000040A19AA05F5F87009F07AFD9FED588ACA
:1015100005F58A60B0EE480A08F0E8FCB0EE480A2B
:1015200005F58B6008F0E2FCB0EE680A05F58C600A
:1015300008F0DCFCB0EE680A05F58D6008F0D6FC1A
:10154000B0EE680A05F58E6008F0D0FCB0EE680ACF
:1015500005F58F6008F0CAFC9FED468A05F590609E
:10156000B0EE480A08F0C2FCB0EE480A05F59160FA
:1015700008F0BCFCB0EE680A05F5926008F0B6FC15
:10158000DFED3D8A05F59360B0EE680A08F0AEFC29
:10159000B0EE680A05F5946008F0A8FCB0EE480AC1
:1015A00005F5956008F0A2FC9FED340A05F59660FC
:1015B00008F09CFC2748022301221946183007F046
:1015C00035FE04F1680015AD0FC80FC5D4E9000160
:1015D000CDE91301D4E92013D4E91E2010AC0BC4CB
:1015E0000F920BAD1C48803000F108011EC91EC5CA
:1015F00000F1180107AD1EC91EC5D0E90B2303ACCD
:10160000816A406B0EC4069015AA1D493CCA8868C1
:101610003CC00869DDE913230CC007AA08683CCA6E
:101620003CC00FAAC8693CCA3CC00BAA086A3CCAA5
:101630003CC0DDE905244869DDE90313C0E9022463
:101640000AC031B0BDEC048BBDE8F08F000100246E
:101650003C3C7C4100560024F00E010800000000D4
:1016600000007A43CDCC4C3E00008743000070421E
:101670009A99193F6666663FCDCC4C3F3333733F32
:101680001057002410B50FF0CBFA0E4CD4F8B81850
:10169000401AC4F8BC080FF0C3FAC4F8B808D4F86C
:1016A0002404401CC4F824040BF00AFD0BF006FBD4
:1016B0000BF0C8FB0BF022FDFFF7F6FABDE8104077
:1016C0000BF0B6BB000100242DE9F0472DED068B91
:1016D000002700260020DFEDD79AD74D2968B1F901
:1016E000022002F11403292B00D31746B1F9082078
:1016F00002F11403292B00D31646B1F9041001F1AD
:101700001402292A00D30846404200EE100AB8EE1F
:10171000C00A9FEDCA9A20EE09AA0021B0EE698A9C
:10172000DFF81C93C44C483C99F81700012801D1FC
:10173000012222702278DFEDC38ADFF80C83EAB33E
:1017400000EB4000800000EE100AF8EE400AB0EE18
:10175000480A30EE800AB848D4ED060A483890EDC1
:10176000071A4830B4EEE00AF1EE10FAD0F8BC08DF
:1017700011DD01EE900AF8EE611A21EE811A41EEB8
:10178000280AC4ED060AF4EEC00AF1EE10FA14DDE0
:1017900084ED060A11E010D201EE900AF8EE611A0B
:1017A00021EE811A41EE680AC4ED060AF4EEC00A81
:1017B000F1EE10FA01D284ED060A00E010E094ED9B
:1017C000060A88ED020AB7EEC00AB7EE001BB0EEBB
:1017D000C00BB4EEC10BF1EE10FA2ED221702CE04A
:1017E000D5EDF90A9FED990A0DF0B4FC9FED981A1A
:1017F000DFED980A0EF03EFAF0EE400A95EDF90A98
:1018000070EE200A944809F041FBB1EE400AB7EEB1
:10181000CA1AB1EE022BB9F90000B7EEC00A01EE08
:10182000020B01EE100AB8EEC11B9FED8C2B01EEEE
:10183000020BB7EEC00B88ED020A2078D8B384ED16
:10184000058A287A03287CD009287BD085ED938AE5
:1018500085ED948A85ED958A002101EB410005EB29
:10186000C00080ED838A80ED848A80ED858A95EDC5
:10187000930A80ED860A80ED878A80ED888A491C6C
:10188000C9B20229E9D3287A9FED761ADFED760AEC
:1018900003287DD009287BD0C4ED030A94ED030A08
:1018A0000EF0E8F984ED030A85ED8F0A85ED900AC4
:1018B00029EE890A00E00DE0DFED6C0A20EE200A37
:1018C0009FED6B1A0EF0D6F985ED7F0ABDEC068B05
:1018D000BDE8F08700EE107AF1EE060AB8EEC00A15
:1018E00020EE090A20EE200A88ED000A99F8160079
:1018F000D8B9B7EEC01A99F8081000EE101AB8EE71
:10190000402BB7EE080B02EE001BB7EEC11B99F897
:10191000091002EE101AB8EE422BB7EEC11A02EE11
:10192000401BB7EEC10B88ED000A012818D199F8C9
:101930000800D8ED000A400000EE100AB8EE400A98
:1019400001E046E050E030EE800A99F809004000DE
:1019500000EE900AF8EE600A30EE600A88ED000AA8
:1019600098ED000AD4ED050AB4EEE00AF1EE10FAA3
:1019700018DDD5F8BC08D4ED041A01EE100AB8EE53
:10198000411A21EE211A41EE280AC4ED050A00E0B1
:1019900031E0B4EEE00AF1EE10FABFF452AF84ED9C
:1019A000050A4EE7FDD2D5F8BC08D4ED041A01EEC5
:1019B000100AB8EE411A21EE211A41EE680AC4ED70
:1019C000050AB4EEE00AF1EE10FAEADD84ED050A4C
:1019D00037E794ED050A85ED930A85ED948A98ED35
:1019E000020A85ED950A37E785ED938A85ED948A9D
:1019F00085ED958A30E700EE106AB8EEC00A60EE19
:101A0000091A94ED030A01EEE80A84ED030A95F938
:101A10002004012807D0022808D003287FF43EAF15
:101A2000C4ED030A3AE7C4ED030A37E784ED031A6D
:101A300034E7000000000000000100240C98C63AC2
:101A4000B25500246F12833A0C560024DBF3004099
:101A50003A46713F3A4671BFF00600247B14AE4708
:101A6000E17A843F3333B33E295C0F3E9A9999BEA5
:101A70009A99993E10B509F0EDFCBDE8104009F0C7
:101A8000A3BD000070B52C4B01251868818902297F
:101A900002D14289022A02D0032902D004E01D7239
:101AA00021E04289022A07D0244A927B012A03D0EE
:101AB0000322012903D005E00221197213E04489B1
:101AC000022C02D0012902D004E01A720BE04489F2
:101AD000012C02D0022902D004E01A7203E04189ED
:101AE00003290BD01D720024B0F9060010F5257FE4
:101AF00007D083F8284383F8A04370BD09211972E9
:101B0000F1E70021C1EB011003EBC00090F828239E
:101B100032B1D0F82463322E02D980F8284306E08F
:101B20002AB9D0F82023322A01D980F82853491C39
:101B3000C9B20229E6D370BD00010024B2550024C9
:101B400005480068016841F01001016003494FF445
:101B5000C872014806F03EBB381400246A580024BD
:101B60000948B8EE000A80ED120AF0EE000AC0ED56
:101B7000240AC0ED360A80ED480A9FED040A80ED84
:101B8000590A80ED6B0A7047000100240000000034
:101B90002DE9F04108F0ECF807F0BEFF234E96ED7A
:101BA000FC0AB1EE400A86ED110A96EDFD0AB1EE8F
:101BB000400A86ED230A06F5806797ED030A86ED55
:101BC000350A97ED040A86ED470A0024307A022888
:101BD0001DD004EBC400B3EE041A06EBC005FBEE07
:101BE000040A95ED110A0EF045F885ED110A641C02
:101BF000E4B2042CEAD397ED000AB1EE400A86ED78
:101C0000590A97ED070A86ED6B0ABDE8F08104EBEF
:101C1000C400B3EE0E1A06EBC005FBEE0E0A95EDFE
:101C2000110A0EF027F885ED110AE0E70001002403
:101C300010B52DED028B184C9FED168A84ED118A9C
:101C400084ED238A84ED358A84ED478A84ED128AF7
:101C500084ED248A84ED368A84ED488A84ED5A8A9C
:101C600084ED6C8A94ED500AF0EE480A04F2D460D8
:101C700009F00CF984ED5C0A94ED620AF0EE480A72
:101C800004F5E46009F002F984ED6E0ABDEC028B04
:101C900010BD00000000000000010024014801F018
:101CA0004DBB000010100024014801F047BB0000AC
:101CB000E4160024014801F041BB00008810002414
:101CC000014801F03BBB0000D4170024014801F09B
:101CD00035BB00005C170024014801F02FBB000059
:101CE000F4150024014801F029BB00006C16002403
:101CF00010B52C4A016891423AD02A4A18329142D2
:101D000036D0284A3032914232D0264A4832914267
:101D10002ED0244A603291422AD0224A783291420F
:101D200026D0204A9032914222D01E4AA8329142B7
:101D30001ED01D4A91421BD01B4A1832914217D027
:101D4000194A3032914213D0174A483291420FD08B
:101D5000154A603291420BD0134A7832914207D033
:101D6000114A9032914203D00F4AA832914214D1C5
:101D7000CAB2103A1823B2FBF3F20C4C02F007037C
:101D8000E35CC365032A04D96FF30901091D81656A
:101D900006E06FF30901816502E021F0FF01816532
:101DA000806D10BD1000024010040240540E010866
:101DB00010B501680123224CCAB2A1421BD0204CAD
:101DC0001434A14217D01E4C2834A14213D01C4C0D
:101DD0003C34A1420FD01A4C5034A1420BD0184CC5
:101DE0006434A14207D0164C7834A14203D0144C7D
:101DF0008C34A1420FD1083A1421B2FBF1F1114AFF
:101E000002EB810202660F4A8032426601F01F0136
:101E10008B40836610BD103A1824B2FBF4F20A4CD2
:101E20002144A82900D80832084901EB8201016643
:101E300006498031416602F01F018B40836610BD68
:101E40000854025800580258F0FBFDBF0008024039
:101E50000279521E072A31D8194B016899421BD0CA
:101E6000174B1433994217D0154B2833994213D08E
:101E7000134B3C3399420FD0114B503399420BD046
:101E80000F4B6433994207D00D4B7833994203D0FE
:101E90000B4B8C33994207D10A4901EB8201C16691
:101EA00008494031016706E0074901EB8201C1663C
:101EB00005494031016701219140416770470000A9
:101EC000085402580059025800090240014610B552
:101ED00000208B694FF0C0748A6A002B0ED0B3F5D6
:101EE000005F1AD062B3012A2AD0022A28D0032A1E
:101EF00003D1C96AC90100D5012010BD1AB1012A58
:101F000006D0022AF9D1C96AC901F6D5012010BD4F
:101F1000C96AA142FBD1012010BD52B1012A0AD0E9
:101F2000022A06D0032AF7D1C96AA142F4D10120BE
:101F300010BD012010BDC96AC901FBD5012010BD2B
:101F4000012010BD2DE9F04F856D8A4E894FDFF8D5
:101F500024C2A836DFF81C82DFF818920CF1180CA6
:101F6000DFF810A208F13008DFF808B209F14809DB
:101F700004680AF1600A0BF1780BBC426DD064452D
:101F80006BD0444569D04C4567D0544565D05C451D
:101F900063D0DFF8E0E10EF1900E74455DD0B442FD
:101FA0005BD0DFF8D4E1744557D0DFF8CCE10EF117
:101FB000180E744551D0DFF8C0E10EF1300E7445B3
:101FC0004BD0DFF8B4E10EF1480E744545D0DFF890
:101FD000A8E10EF1600E74453FD0DFF89CE10EF1F0
:101FE000780E744539D0DFF890E10EF1900E74450B
:101FF00033D0DFF884E10EF1A80E74452DD0DFF860
:102000007CE1744529D0DFF874E10EF1140E7445BB
:1020100023D0DFF868E10EF1280E74451DD0DFF8FB
:102020005CE10EF13C0E744517D0DFF850E10EF183
:10203000500E744511D0DFF844E10EF1640E744582
:102040000BD0DFF838E10EF1780E744505D0DFF8DB
:102050002CE10EF18C0E744509D1D0E919E4CEF8CB
:102060000440C46E1CB1D0E91CE4CEF804400468FE
:10207000BC422ED064452CD044452AD04C4528D0B3
:10208000544526D05C4524D03A4F9037BC4220D0EE
:10209000B4421ED0384EB4421BD0374E1836B4422C
:1020A00017D0354E3036B44213D0334E4836B44292
:1020B0000FD0314E6036B4420BD02F4E7836B4423A
:1020C00007D02D4E9036B44203D02B4EA836B442E2
:1020D0001BD190F85C4004F01F063F24B440AC6074
:1020E0000468256825F4802525600468636083689A
:1020F000402B05D0036899600068C260BDE8F08F8E
:1021000003689A600068C160F8E71C4EB4421BD0B7
:102110001A4E1436B44217D0184E2836B44213D093
:10212000164E3C36B4420FD0144E5036B4420BD04B
:10213000124E6436B44207D0104E7836B44203D003
:102140000E4E8C36B442D9D190F85C4004F01F0694
:102150000124B4406C60046863608368402B04D041
:10216000036899600068C260C8E703689A60006805
:10217000C160C3E710000240100402400854025836
:10218000704710B50446208820810A78487840EAD4
:10219000022020808A78C87840EA022060800A798C
:1021A000487940EA0220A0808879A07102F05AFEA6
:1021B000E06010BD10B50446204600F0F9FA002892
:1021C00005D062892178BDE8104000F0A3B810BDA9
:1021D00070B504460D46287800F00F00206028787E
:1021E000000960606978A87840EA0120A060E97879
:1021F0002A79090141EA1211E1602A79697902F02C
:102200000F0241EA022121611021DFED170A9FED43
:10221000170A0EF0A7FA84ED070AE0680C21DFED3B
:10222000140A9FED140A0EF09DFA84ED080A206945
:102230000C21DFED110A9FED110A0EF093FA84EDE7
:10224000090AA87900EE100AB8EE400A84ED0C0ADB
:10225000E87900EE100AB8EE400A84ED0D0A02F0AB
:1022600001FEA06370BD0000DA0F4941DA0F49C1D9
:1022700000003442000034C200005842000058C23E
:1022800010B50446204600F093FA00280ED02178BD
:102290009FED070A94ED0E2ABDE81040F0EE401ABB
:1022A000B0EE401AF0EE400A08F05CBD10BD000030
:1022B0000000000010B504462DED028BB0EE408A00
:1022C000204600F075FA002810D02178D4ED0F0ACE
:1022D0009FED080AF0EE481ABDEC028BB0EE402AE2
:1022E000B0EE401ABDE8104008F03CBDBDEC028BDA
:1022F00010BD00000000000010B50446204600F0AC
:1023000057FA002805D062892178BDE8104009F00D
:1023100089B810BD0A4B43F8100C0A4443F80C2C42
:10232000FF21197659769976D97619775977997761
:10233000FC21D97791B2024A082318320DF0B6BBBE
:102340002C0B002472B6FEE70548016841F002013B
:1023500001600348083801688904FCD57047000013
:102360000C48025810B58AB000240294039402204D
:102370000490012005900694079402A9104801F0EA
:1023800098FF08B1FFF7DEFF02220D480023114637
:10239000009401F0D2FF08B1FFF7D4FF08480022F3
:1023A000012101F00DFF08B1FFF7CCFF044802F056
:1023B00025FC002801D0FFF7C5FF0AB010BD0000C2
:1023C000A80D0024014802F0A9B80000A80D0024BF
:1023D00010B58AB000240294039402200490059062
:1023E0000694079402A9104801F063FF08B1FFF7B3
:1023F000A9FF02220C4800231146009401F09DFF22
:1024000008B1FFF79FFF08480022102101F0D8FE15
:1024100008B1FFF797FF044802F0F0FB002801D055
:10242000FFF790FF0AB010BD480E0024014802F0EB
:1024300075B80000480E002410B58AB0002402943C
:1024400003940494012005908002069040F2FF70EE
:102450000790114802A901F02CFF08B1FFF772FFA5
:1024600002220D4800231146009401F066FF08B1D6
:10247000FFF768FF08480022012101F0A1FE08B122
:10248000FFF760FF044802F0B9FB002801D0FFF716
:1024900059FF0AB010BD0000E80E0024014802F008
:1024A0003DB80000E80E002430B5426B036853F8D5
:1024B000844F4FF6FC718C4344EA82041C6003682D
:1024C00053F8844F058F24F47F0444EA05441C60CC
:1024D000836B1A44036853F8884F8C4344EA8204A0
:1024E0001C60036853F8884F858F24F4FE0444EA87
:1024F00005441C60C36B02EB4302036853F8A04F12
:102500008C4344EA82041C60036853F8A04FB0F87F
:10251000405024F4FE0444EA05441C60D0E9103421
:1025200003FB0422036853F8B04F8C4344EA82044F
:102530001C60036853F8B04FB0F8485024F4FE0410
:1025400044EA05441C60D0E9123403FB042203680A
:1025500053F8AC4F8C4344EA82041C60D0E9143435
:1025600003FB0422036853F8F04F8C4344EA8204CF
:102570001C60036853F8F04FB0F8585024F47C14F2
:1025800044EA05441C60836D02EB4303026852F881
:10259000C04F8C4344EA83011160016851F8C02F99
:1025A000B0F85C3022F47C1242EA03420A6001680F
:1025B00051F8C02F90F8603022F07C5242EA03625A
:1025C0000A60416B224A02EB8101C166826B01EB1A
:1025D00082020267C36B02EBC3024267D0E9103488
:1025E000634302EB83028267D0E91234634302EB58
:1025F0008302C267D0E91434634302EB8302C0F85C
:102600008020836D02EBC302C0F88420C46D836E0A
:102610005C4302EB8402C0F88820046E5C4302EB4A
:102620008402C0F890200B4B9A4208D99830416838
:1026300041F02001416003210170012030BD0022E2
:1026400000E004C1D0F890308B42FAD8002030BDB1
:1026500000AC0040FCD30040F0B5D1E901650C6945
:102660002C430D68002E1AD045F080452C4391F87C
:102670002070D1E9066535434E6946EA0766354361
:102680008E8945EA0645D0F88460806E584306EB93
:1026900080031C605D60083300200B4E0FE044EAAD
:1026A0008544E4E71418155CE77845EA0765A778E0
:1026B00064783F0447EA0424254320C3001DCC6806
:1026C000345D8442EED8F0BD5C0E010870B504465E
:1026D0000D46DFED1C0AB5F9020000EE100AB8EE57
:1026E000C00A20EE200A84ED050A28889FED171AFB
:1026F000400000EE100AF8EE400A9FED130A60EE6B
:10270000800A10EE810A84ED070AA87900EE100A0B
:10271000B8EE400A84ED080AB5F9040000EE100A8C
:10272000B8EEC00A84ED090A2888608502F09AFB99
:10273000E968401A0A2802D90120207370BD0020E0
:10274000207370BD5077D63DDB0F49400000003943
:102750000C2901D2022801D00348704702481038E2
:1027600000EB011070470000605F002470B5044664
:102770000D4695ED070A84ED070A95ED080A84EDEC
:10278000050A95ED090A84ED060A95ED0C0A84ED1B
:10279000080A287984F82C0002F064FBA96B401A1F
:1027A0000A2802D90120207370BD0020207370BD5B
:1027B0004178012901D0002070478078012803D09A
:1027C000022803D000207047014870470148704735
:1027D000A80D0024480E002460EE000A20EE801AA6
:1027E000DFED7A1A61EE211A9FED792A40EE821A06
:1027F0009FED782A40EE021A9FED772A71EE821A39
:10280000C0ED001ADFED751A61EE211A9FED742AF2
:1028100040EE821A9FED732A40EE021A9FED722A53
:1028200071EE821AC0ED011ADFED701A61EE211A05
:102830009FED6F2A40EE821A9FED6E2A40EE021A3B
:102840009FED6D2A71EE821AC0ED021ADFED6B1A50
:1028500061EE211A9FED6A2A40EE821A9FED692AE5
:1028600040EE021A9FED682A71EE821AC0ED031A3B
:10287000DFED661A61EE211A9FED652A40EE821A9D
:102880009FED642A40EE021A9FED632A71EE821AD0
:10289000C0ED041ADFED611A61EE211A9FED602A86
:1028A00040EE821A9FED5F2A40EE021A9FED5E2AEB
:1028B00071EE821AC0ED051ADFED5C1A61EE211A85
:1028C0009FED5B2A40EE821A9FED5A2A40EE021AD3
:1028D0009FED592A71EE821AC0ED061ADFED571AE4
:1028E00061EE211A9FED562A40EE821A9FED552A7D
:1028F00040EE021A9FED542A71EE821AC0ED071ABB
:10290000DFED521A61EE211A9FED512A40EE821A34
:102910009FED502A40EE021A9FED4F2A71EE821A67
:10292000C0ED081ADFED4D1A61EE211A9FED4C2A19
:1029300040EE821A9FED4B2A40EE021A9FED4A2A82
:1029400071EE821AC0ED091ADFED481A61EE211A04
:102950009FED472A40EE821A9FED462A40EE021A6A
:102960009FED452A71EE821AC0ED0A1ADFED431A77
:1029700021EE211ADFED421A00EEA11ADFED410A25
:1029800000EE201A9FED400A31EE000A80ED0B0A9E
:10299000002919D03D49097A022915D09FED3C0A3A
:1029A00080ED000A80ED010A80ED020A80ED030A45
:1029B00080ED040A80ED050A80ED080A80ED090A21
:1029C00080ED0A0A80ED0B0A70470000690FEBC228
:1029D0008E1641437DBFEFC280483FBD3480214108
:1029E000A54ED8C0014D90C00681953D5452D7BF29
:1029F000B762B740F7068BC0197357BD2EFF91BF62
:102A00003CBD1041575BF9C0B762BFBE8C7A17431B
:102A10001717C6C2099B87C1FF32C341287E8CBDF0
:102A2000865AA540AAF1E8C0D0B37140BCB558445D
:102A3000EAF43BC4ACEBEF42CF376F42648C6142A7
:102A4000730883C2D191BD418D97A63F227D294253
:102A5000B595EDC10091E6BF8941A8408A0ED641E7
:102A6000E0BEDE3F44FAD2C1DE935C41CAC81344E3
:102A7000D71375C478C20D4463EEB0C17AE58B42BA
:102A8000B012E1C2499D82427E8C93C000010024B5
:102A90000000000010B504462DED0A8BB0EE408A10
:102AA000B7EEE00AB0EE40AB0BF016FA9FED479B95
:102AB00020EE090BB7EEC0BBB7EEC80AB0EE408BF4
:102AC0000BF00AFA20EE090BF7EEC0BBB0EE4A0B92
:102AD0000BF002F920EE090BB7EEC0ABB0EE480BDD
:102AE0000BF0FAF820EE090BB7EEC00B7BEE6BAAE9
:102AF0003AEE40AA2AEE0A0A0AEEAA0AB7EEC00A7D
:102B00000BF00CFBB7EEC00BF6EE000A2AEE20BA73
:102B10006AEEA0AA9FED2F1AF0EE410A40EE000ADD
:102B200030EEC1AA2BEE0B0A0AEEAA0A0AEE4A0AF6
:102B3000B7EEC00A0BF0F2FAB7EEEA1A30EE010B6C
:102B40003BEE0A1AB7EEC11A0AF086FEB0EE001B81
:102B500020EE010BB7EEC0ABB0EE480B0BF0BCF8AB
:102B600020EE09BBB7EECA0AB0EE40AB0BF0B4F8EA
:102B7000B5EE00CB00EE0CBBB7EECBBBB0EE480B16
:102B80000BF0AAF920EE098BB0EE4A0B0BF0A4F97A
:102B900000EE0C8BB7EEC88B2BEE0B0A08EE080A82
:102BA000B7EEC00A0BF0BAFAF7EEC08BB7EECB1A4D
:102BB000B7EEC80A0AF050FEB7EEC00BC4ED008AAB
:102BC00084ED010ABDEC0A8B10BD0000000000A0DE
:102BD00047E1CA3F0000803DD0ED001A90ED032A86
:102BE000D0ED012A90ED023A21EE821A02EEC31ACC
:102BF000C2EE013AB1EE622AC2EE012AB1EE433AC8
:102C000083EE012A81EE813A23EE801A02EE201A29
:102C100022EE800A03EE200A81ED001A81ED010AFE
:102C200070470000024610B55078002810D00128E7
:102C30001AD19078012817D110780C49401EBDE8B0
:102C40001040C0EB001001EB80011046FFF78EBD75
:102C50001078401EC1B29078FFF77AFD0146104609
:102C6000BDE81040FFF732BD10BD0000605E0024DB
:102C70000346104610B5002B01D0084C0AE04FF671
:102C8000FF7010BD13F8012B4240D2B234F812206D
:102C900082EA1020491E4A1CF4D110BDC811010857
:102CA00010B5054C03E010F8013B5340E25C491EAF
:102CB0004B1CF8D1104610BDC8100108014890ED1A
:102CC000690A7047085B0024014890ED680A704764
:102CD000085B0024014890ED6A0A7047085B0024F5
:102CE00090ED001AD0ED011A21EE001A01EEA01AA3
:102CF000D0ED021A21EE800AD0ED031A01EEA00AEF
:102D000081ED001A81ED010A704700002DE9F84FAE
:102D1000044602F0A7F800905CB194F83500022850
:102D200009D080206065002084F834000120BDE8CF
:102D3000F88F0120FBE7D14ED04FD0491836DFF88D
:102D40003C833037DFF83493DFF830A308F14808CC
:102D5000DFF828B309F1600920680AF1780A0BF15D
:102D6000900B88422ED0B0422CD0B8422AD0404599
:102D700028D0484526D0504524D0584522D0BF4AB7
:102D8000A83290421ED0BE4A90421BD0BC4A183294
:102D9000904217D0BA4A3032904213D0B84A4832E3
:102DA00090420FD0B64A603290420BD0B44A78328B
:102DB000904207D0B24A9032904203D0B04AA83233
:102DC00090420AD1026822F01E0202602068426925
:102DD00022F080024261256804E0026822F00E02BF
:102DE00002602568206888424DD0B0424BD0B8427E
:102DF00049D0404547D0484545D0504543D0584537
:102E000041D09E4AA83290423DD09D4A90423AD04D
:102E10009B4A1832904236D0994A3032904232D092
:102E2000974A483290422ED0954A603290422AD03A
:102E3000934A7832904226D0914A9032904222D0E2
:102E40008F4AA83290421ED08E4A90421BD08D4AA3
:102E50001432904217D08B4A2832904213D0894ABC
:102E60003C3290420FD0874A503290420BD0854A74
:102E70006432904207D0834A7832904203D0814A2C
:102E80008C32904204D1206E026822F4807202607B
:102E90007A49206888422ED0B0422CD0B8422AD03D
:102EA000404528D0484526D0504524D0584522D00A
:102EB0007249A83188421ED0714988421BD070499E
:102EC0001831884217D06E493031884213D06C498E
:102ED000483188420FD06A49603188420BD0684936
:102EE0007831884207D066499031884203D06449DE
:102EF000A831884204D1016821F00101016013E08A
:102F0000016821F0010101600EE001F0ABFF0099C2
:102F1000401A052808D9202034342062032060702C
:102F200000202070012002E72868C007EDD1534A35
:102F30000121206890422ED0B0422CD0B8422AD035
:102F4000404528D0484526D0504524D0584522D069
:102F50004A4BA83398421ED0494B98421BD0484B4D
:102F60001833984217D0464B3033984213D0444B15
:102F7000483398420FD0424B603398420BD0404BBD
:102F80007833984207D03E4B9033984203D03C4B65
:102F9000A833984208D1A06D94F85C3003F01F0567
:102FA0003F23AB40836007E0A06D94F85C3003F0F2
:102FB0001F0301FA03F34360206890424DD0B042F2
:102FC0004BD0B84249D0404547D0484545D0504500
:102FD00043D0584541D0294AA83290423DD0284A92
:102FE00090423AD0264A1832904236D0244A3032A3
:102FF000904232D0224A483290422ED0204A60324B
:1030000090422AD01E4A7832904226D01C4A9032F2
:10301000904222D01A4AA83290421ED0194A9042B9
:103020001BD0184A1432904217D0164A28329042C8
:1030300013D0144A3C3290420FD0124A5032904280
:103040000BD0104A6432904207D00E4A7832904238
:1030500003D00C4A8C3290420BD1D4E91920506035
:10306000E06E30B1026822F480720260D4E91C2064
:103070005060343461700020207058E61000024027
:1030800010040240085402582DE9F05F002808D0CF
:1030900090F83510022906D0802141650120BDE855
:1030A000F09F0120FBE7A14AA04BA04C18329F4D96
:1030B00030339E4E4834DFF874B26035DFF870C2AA
:1030C0007836DFF86C82DFF868920CF1300CDFF8AC
:1030D00060A208F16008016809F17809944F0AF1CB
:1030E000900A594531D091422FD099422DD0A1421A
:1030F0002BD0A94229D0B14227D0DFF830E20EF11F
:10310000900E714521D0DFF824E20EF1A80E714532
:103110001BD0DFF81CE2AEF1180E714515D0B94294
:1031200013D0DFF80CE20EF1180E71450DD0614599
:103130000BD0DFF8FCE10EF1480E714505D041459A
:1031400003D0494501D0514537D14FF0040E80F8E6
:1031500035E0594527D0914225D0994223D0A1424C
:1031600021D0A9421FD0B1421DD070489030814279
:1031700019D06E48A830814215D06D481838814268
:1031800011D0B9420FD06A48183081420BD0614546
:1031900009D067484830814205D0414503D04945B0
:1031A00001D0514504D1086820F001000860BAE060
:1031B000086820F001000860B5E0D1F800E02EF0CA
:1031C0000E0EC1F800E00168DE46594531D091424B
:1031D0002FD099422DD0A1422BD0A94229D0B14263
:1031E00027D0DFF848B10BF1900B594521D0DFF81B
:1031F0003CB10BF1A80B59451BD0DFF834B1ABF152
:10320000180B594515D0B94213D0DFF824B10BF192
:10321000180B59450DD061450BD0DFF814B10BF1F7
:10322000480B594505D0414503D0494501D051458A
:1032300006D1D1F800B02BF0010BC1F800B005E0C9
:10324000D1F800B02BF0010BC1F800B001684FF0CD
:10325000010B714546D0914244D0994242D0A142DF
:1032600040D0A9423ED0B1423CD0304A9032914247
:1032700038D02E4AA832914234D02D4A183A914281
:1032800030D0B9422ED02A4A183291422AD0614514
:1032900028D0274A4832914224D0414522D049457E
:1032A00020D051451ED0234A91421BD0214A1432CE
:1032B000914217D01F4A2832914213D01D4A3C3206
:1032C00091420FD01B4A503291420BD0194A6432BE
:1032D000914207D0174A7832914203D0154A8C3276
:1032E000914218D1016E0A6822F480720A60816DE1
:1032F00090F85C2002F01F020BFA02F24A60D0E95B
:1033000019215160C16E31B10A6822F480720A60DD
:10331000D0E91C21516080F835B0002180F83410CC
:10332000016D01B188470020B9E60000100002409D
:103330002804024008540258406D70472DE9FF5F91
:103340000446002001904FF41651FD480068B0FB80
:10335000F1F00090A56D2E682968FA4FDFF8E4B30C
:10336000DFF8E083DFF8DC930BF1180BDFF8D4A370
:1033700008F13008206809F148090AF1600AB842EA
:103380003BD05A46904238D0404536D0484534D09C
:10339000504532D0EB4A783290422ED0E94A9032F2
:1033A00090422AD0E74AA832904226D0E64A90427C
:1033B00023D0E54A183290421FD0E34B3033984275
:1033C0001BD0E14B4833984217D0DFF87CC30CF197
:1033D000600C604511D0DFF870C30CF1780C6045CB
:1033E0000BD0DFF864C30CF1900C604505D0DFF81A
:1033F00058E30EF1A80E70457ED194F85C100823B6
:1034000001F01F0103FA01F232424BD0B84232D030
:10341000584530D040452ED048452CD050452AD074
:10342000C8497831884226D0C6499031884222D096
:10343000C449A83188421ED0C34988421BD0C24922
:103440001831884217D0C0493031884213D0BE4964
:10345000483188420FD0BC49603188420BD0BA490C
:103460007831884207D0B8499031884203D0B649B4
:10347000A831884203D1016801F0040102E001682B
:1034800001F0080171B1016821F00401016094F8B4
:103490005C0000F01F0003FA00F2AA60606D40F0CB
:1034A0000100606594F85C00012100F01F0081407C
:1034B000314240D02068B84234D0584532D04045DF
:1034C00030D048452ED050452CD09E4A783290427C
:1034D00028D09C4A9032904224D09A4AA8329042F6
:1034E00020D0994A90421DD0974A1832904219D064
:1034F000954A3032904200E0D2E113D0924A4832ED
:1035000090420FD0904A603290420BD08E4A78326F
:10351000904207D08C4A9032904203D08A4AA83217
:1035200090427DD1406910F0800F04D0A960606D99
:1035300040F00200606594F85C00042100F01F0078
:10354000814031423ED02068B84232D0584530D018
:1035500040452ED048452CD050452AD0794A783263
:10356000904226D0774A9032904222D0754AA832B3
:1035700090421ED0744A90421BD0734A1832904237
:1035800017D0714A3032904213D06F4A483290427D
:103590000FD06D4A603290420BD06B4A7832904225
:1035A00007D0694A9032904203D0674AA8329042CD
:1035B0004ED1006810F0020F04D0A960606D40F099
:1035C0000400606594F85C00102100F01F00814049
:1035D000314260D02068B84234D0584532D040459E
:1035E00030D048452ED050452CD0564A78329042A3
:1035F00028D0544A9032904224D0524AA832904265
:1036000020D0514A90421DD04F4A1832904219D0D2
:103610004D4A3032904215D04B4A4832904200E039
:1036200014E00FD0484A603290420BD0464A7832BC
:10363000904207D0444A9032904203D0424AA83286
:10364000904207D1006800F0080006E0006872E7C9
:103650000068B7E7006800F0040058B1A96020686E
:10366000016849030CD50068000304D4216C09B13A
:10367000204688470FE0A16C69B1204688470AE0E0
:103680000168C90503D4016821F008010160216CBB
:1036900009B12046884794F85C00202100F01F0003
:1036A000814031427BD02068B84232D0584530D07A
:1036B00040452ED048452CD050452AD0214A78325A
:1036C000904226D01F4A9032904222D01D4AA83202
:1036D00090421ED01C4A90421BD01B4A1832904286
:1036E00017D0194A3032904213D0174A48329042CC
:1036F0000FD0154A603290420BD0134A7832904274
:1037000007D0114A9032904203D00F4AA83290421B
:1037100003D1006800F0100002E0006800F0020031
:10372000E8B3A96094F83500042812D02068016835
:1037300049033DD50068000335D4616C79B305E0D9
:103740002800002410000240100402402046884750
:103750003FE02068016821F016010160206841699E
:1037600021F080014161206C08B9A06C20B1206873
:10377000016821F00801016094F85C0000F01F016D
:103780003F208840A860012084F83500002084F89C
:103790003400216D002974D004B0204600E018E008
:1037A000BDE8F05F0847E16B99B12046884710E01B
:1037B0000168C90509D4016821F0100101600120E8
:1037C00084F83500002084F83400E16B09B120460C
:1037D0008847606D002854D0606DC00758D0042021
:1037E00084F835002068B84231D058452FD0404584
:1037F0002DD048452BD0504529D0B749884226D0F6
:10380000B5491831884222D0B349303188421ED0A0
:10381000B24988421BD0B1491831884217D0AF490C
:103820003031884213D0AD49483188420FD0AB497E
:10383000603188420BD0A9497831884207D0A74926
:103840009031884203D0A549A831884204D101684B
:1038500021F00101016003E0016821F00101016034
:1038600021680198009A401C0190904202D8086893
:10387000C007F6D10868C00704D0032084F83500DB
:1038800003E087E0012084F83500002084F834004C
:10389000E16C00297ED004B02046BDE8F05F084707
:1038A0008F4EB0421BD08E4E1436B04217D08C4E85
:1038B0002836B04213D08A4E3C36B0420FD0884EE4
:1038C0005036B0420BD0864E6436B04207D0844E9C
:1038D0007836B04203D0824E8C36B0425AD1066858
:1038E0004FF0040E94F85CB00BF01F0B0EFA0BFEB9
:1038F0001EEA010FCDF80CE05ED05FEA467E5BD594
:1039000003986860300411D5F00307D4A16C002936
:1039100040D004B02046BDE8F05F0847216C002984
:1039200038D004B02046BDE8F05F0847B0063BD46D
:103930002068B8422DD068496039884229D0404576
:1039400027D0484525D0504523D06349884220D010
:103950006149183188421CD05F493031884218D003
:103960005E49884215D0904213D05C49303188427C
:103970000FD098420DD059496031884209D057493B
:103980007831884205D0604503D05449A831884237
:1039900006D100E07CE0016821F00801016003E04D
:1039A000016821F004010160216C002970D004B08D
:1039B0002046BDE8F05F08474FF0020E0EFA0BFEFE
:1039C0001EEA010FCDF808E063D05FEA867E60D57D
:1039D00002986860300411D5F00307D4616C0029A7
:1039E00078D004B02046BDE8F05F0847E16B0029BD
:1039F00070D004B02046BDE8F05F0847B0063FD461
:103A00002068B8422DD034496039884229D04045D9
:103A100027D0484525D0504523D02F49884220D073
:103A20002D49183188421CD02B493031884218D09A
:103A30002A49884215D0904213D028493031884213
:103A40000FD098420DD025496031884209D02349D2
:103A50007831884205D0604503D02049A83188429A
:103A600004D1016821F01401016003E0016821F034
:103A70000A010160012084F83500002084F8340038
:103A8000E16B002926D004B02046BDE8F05F08476E
:103A900020E0082202FA0BF20A421BD0310719D5A6
:103AA000016821F00E01016094F85C0000F01F0134
:103AB000012000FA01F16960606584F8350000209A
:103AC00084F83400E16C002904D004B02046BDE83D
:103AD000F05F0847BDE8FF9F8800024010040240E5
:103AE000085402582DE9F05F044601F0BBF9064680
:103AF000002C7DD0F24F0222DFF8C4830025DFF8CE
:103B0000C093DFF8BCA308F13008DFF8B4B309F1C3
:103B1000480920680AF1600A0BF1780BB84232D0EC
:103B2000E749183188422ED040452CD048452AD04C
:103B3000504528D0584526D0E1499031884222D0BE
:103B4000DF49A83188421ED0DE4988421BD0DD49BA
:103B50001831884217D0DB493031884213D0D94917
:103B6000483188420FD0D749603188420BD0D549BF
:103B70007831884207D0D3499031884203D0D14967
:103B8000A83188427ED184F8352084F83450B84278
:103B900034D0CB491831884230D040452ED04845EA
:103BA0002CD050452AD0584528D0C549903188425C
:103BB00024D0C349A831884220D0C24988421DD0B0
:103BC000C0491831884219D0BE493031884215D0D9
:103BD000BC494831884211D0BA49603188420DD081
:103BE000B8497831884209D0B6499031884200E01E
:103BF00009E003D0B349A831884207D1016821F018
:103C00000101016013E00120BDE8F09F016821F08F
:103C1000010101600BE001F025F9801B052806D9A0
:103C200020206065032084F835000120ECE720683F
:103C30000068C007EFD122681168A3480140D4E9A9
:103C400002031843D4E9043633431843A3691843E5
:103C5000E3691843236A18430843616A042903D1BE
:103C6000D4E90B13194308436168A1F12903052B1B
:103C70000DD9163B032B0AD9083B012B07D9083B6A
:103C8000032B00E02AE002D97439032901D840F45B
:103C9000801010602068406920F00701606A40EAE7
:103CA000010604280DD1A06A0643E06A48B1204607
:103CB000FEF70CF928B140206065012084F835003A
:103CC000A2E7206846612046FEF712F894F85C10DF
:103CD00001F01F023F219140816066E07B498842EC
:103CE0001BD07A4B1433984217D0784B2833984224
:103CF00013D0764B3C3398420FD0744B50339842DC
:103D00000BD0724B6433984207D0704B7833984293
:103D100003D06E4B8C3398427ED1884211D06B49D0
:103D2000143188420DD069492831884209D0674949
:103D30003C31884205D065495031884201D0634901
:103D4000643184F8352084F83450026860490A40B0
:103D5000A16840297ED080297DD00021E36841EA16
:103D6000D301236941EAD301636941EAD301A3691D
:103D700041EAD301E36941EAD301236A41EA13111D
:103D80001143016051492068494208441421B0FBA5
:103D9000F1F08000E0652046FDF7AAFF94F85C1082
:103DA00001F01F020121914041602068B84256D0C5
:103DB00043491831884252D0404550D048454ED0F2
:103DC00050454CD058454AD03D499031884246D064
:103DD0003B49A831884242D03A4988423FD03949CC
:103DE000183188423BD037493031884237D0354985
:103DF0004831884233D03349603188422FD031492D
:103E0000783188422BD02F499031884227D02D49D4
:103E1000A831884223D000E02DE02C4988421ED0F2
:103E20002A49143188421AD028492831884216D0AC
:103E300026493C31884212D02449503188420ED064
:103E40002249643188420AD020497831884206D01C
:103E50001E4901E00AE00BE08C31884229D120465E
:103E6000FDF7A6FFA06880280CD00CE0102175E7B4
:103E70004FF4804172E740206065032084F83500EC
:103E80000120C1E66560216E20790860D4E919102F
:103E900048606068401E072808D82046FDF7D8FF14
:103EA000E06E0560D4E91C10486002E0E566256715
:103EB00065676565012084F835000020A4E60000F0
:103EC00010000240100402403F8010FE08540258C7
:103ED0000F00FEFF2DE9F84F044600200090002C53
:103EE00015D094F83400012813D0012084F8340050
:103EF00094F835500020012D0DD04FF4006161651C
:103F000084F83400012000900098BDE8F88F01206B
:103F1000FBE70220F9E7022584F835506065A54DDE
:103F2000A44EA44F1835DFF88CC23036DFF88482F7
:103F30004837DFF88092DFF87CA208F16008DFF8EC
:103F400074B209F1780920680AF1900A0BF1A80B04
:103F500060453BD0A84239D0B04237D0B84235D0C6
:103F6000404533D0484531D050452FD058452DD00D
:103F7000DFF844C2604529D0DFF83CC20CF1180CD0
:103F8000604523D0DFF830C20CF1300C60451DD005
:103F9000DFF824C20CF1480C604517D0DFF818C2D6
:103FA0000CF1600C604511D0DFF80CC20CF1780CFC
:103FB00060450BD0DFF800C20CF1900C604505D0D5
:103FC000DFF8F4C10CF1A80C604506D1D0F800C0B0
:103FD0002CF0010CC0F800C005E0D0F800C02CF0B7
:103FE000010CC0F800C02046FDF7ACFF7149206805
:103FF00088422CD0A8422AD0B04228D0B84226D03D
:10400000404524D0484522D0504520D058451ED0A8
:10401000694A90421BD0684A1832904217D0664ACB
:104020003032904213D0644A483290420FD0624AF4
:10403000603290420BD0604A7832904207D05E4A9C
:104040009032904203D05C4AA83290420DD102686F
:1040500022F01E0242F016020260206C90B120682D
:10406000026842F0080202600CE0026822F00E02D0
:1040700042F00A020260206C20B12068026842F01F
:1040800004020260206888424BD0A84249D0B04266
:1040900047D0B84245D0404543D0484541D050452F
:1040A0003FD058453DD0444A90423AD0424A183217
:1040B000904236D0404A3032904232D03E4A483266
:1040C00090422ED03C4A603290422AD03A4A78320E
:1040D000904226D0384A9032904222D0364AA832B6
:1040E00090421ED0354A90421BD0344A143290423E
:1040F00017D0324A2832904213D0304A3C32904294
:104100000FD02E4A503290420BD02C4A643290424B
:1041100007D02A4A7832904203D0284A8C32904203
:104120000DD1206E0268D20303D5026842F480727A
:104130000260E06E18B1026842F48072026020688A
:1041400088422CD0A8422AD0B04228D0B84226D0EB
:10415000404524D0484522D0504520D058451ED057
:10416000154988421BD014491831884217D012498A
:104170003031884213D01049483188420FD00E495F
:10418000603188420BD00C497831884207D00A4907
:104190009031884203D00849A831884204D101688F
:1041A00041F001010160AFE6016841F001010160E9
:1041B000AAE6000010000240100402400854025811
:1041C00010B590F89830012B08D0022B06D050F88B
:1041D0009C1F41F002010160012010BD03689C6D2D
:1041E0000C4204D1DC6D44F00104DC6505E09C6DFB
:1041F00031EA04041CD00324DC658B0504D5036874
:1042000053F8E04F14431C604B0504D5036853F882
:10421000E44F14431C600068426D084B0B401A4386
:1042200042650748026842EA91710160002010BDB2
:10423000DC6D44F00204DC65DFE70000FFFFCF3FE8
:1042400014A8004070B5044694F89800022806D0DF
:1042500054F89C0F40F008002060012070BD2068D9
:10426000D0F8C03013F07C5F0AD0D0F8C4309B0285
:104270000DD554F89C0F40F400702060012070BDF3
:1042800054F89C0F40F020002060012070BDD0F851
:10429000C400C0F3044520462B46FEF7DDF9216833
:1042A0000120A840C1F8D000C4F89400002070BDDF
:1042B000704710B590F89820012A08D0022A06D03D
:1042C00050F89C1F41F002010160012010BDCA6836
:1042D0000B688BB1072A0B6943EA42732BD00C7A27
:1042E0004A6942EA84724968006F00EBC1000360CA
:1042F00042604FF0000010BD072A10D00C7A4FEA40
:10430000C2624B6943EA84730C8A42EA044243EA7C
:1043100002034968C06E00EB81000360E9E70B8A85
:104320004FF060548A6942EA0343CA6944EA0222B0
:1043300043EA0203EDE78A69D5E730B5039C90F8BC
:104340009850012D06D050F89C1F41F004010160E7
:10435000012030BD0068090141EA820141EA4301C0
:104360002143C0F88010002030BD70477047000026
:10437000F0B5002490F89850022D06D050F89C1FFC
:1043800041F0080101600120F0BD40290BD0412916
:1043900036D0056D8D4260D850F89C1F41F0200149
:1043A00001600120F0BD0568D5F8A06016F4FE0F8D
:1043B00018D0D5F8A46076061BD0D5F8A460F60115
:1043C00005D5D5F8A06016F0004F00D50124D5F82A
:1043D000A450C5F305252C44456C466F654306EB98
:1043E00085063FE050F89C1F41F02001016001204C
:1043F000F0BD50F89C1F41F4807101600120F0BDB8
:104400000568D5F8B06016F4FE0F18D0D5F8B46082
:1044100076061BD0D5F8B460F60105D5D5F8B060A6
:1044200016F0004F00D50124D5F8B450C5F305258A
:104430002C44C56C866F654306EB850612E050F888
:104440009C1F41F0200101600120F0BD50F89C1F2D
:1044500041F4807101600120F0BD456DC66F4D4390
:1044600006EB8506356805F0804555602DB3356847
:1044700025F060451560356805F000559560356894
:1044800005F000451561B588ADB2D5617568C5F315
:104490000345D560756805F480155561756805F4A8
:1044A000001595617568C5F306651562756808366F
:1044B000ED0F55620025174F09E03568C5F38A45B1
:1044C0001560D8E716F805C003F805C06D1CD2F8D2
:1044D0000CC017F80CC0AC45F4D8402909D04129CC
:1044E0000BD0012220290CD200688A40C0F8982005
:1044F0000DE00068C0F8A84009E00068C0F8B840C6
:1045000005E0006801F01F018A40C0F89C200020EF
:10451000F0BD00005C0E0108704700002DE9FE4F61
:104520000446B64F38688007391D096800EA817073
:1045300002902068016D01F47041D0F854A00AEA9D
:10454000010A016D01F00F01D0F854B00BEA010B24
:10455000016D01F0F001426D0A400192016D01F020
:104560007151D0F8548008EA0108016D01F06071C2
:10457000426D0A400092416D056D4FF00009CE4337
:10458000F10509D4E943C90506D4B9150165C7F891
:1045900000902046FFF7C0FF700510D4E8434005A7
:1045A0000DD42068D0F8DC20D0F8E41011404FF48E
:1045B00080620265C7F80090204600F03DFB02983B
:1045C00058B18F4902980840216808650298800F09
:1045D000386002992046FFF76BFEBAF1000F0BD04E
:1045E000216887480AEA000008654FEA9A70386037
:1045F0005146204600F022FBBBF1000F0BD0216892
:104600007F480BEA000008654FEA9B703860594606
:10461000204600F0D3FA019858B179490198084032
:10462000216808650198800F38600199204600F0E4
:10463000DBFA30050BD4E843000508D421684FF4B9
:1046400000600865C7F80090204600F0F8FAB00551
:1046500010D4E84380050DD42068D0F8D820D0F8D5
:10466000E01011404FF400720265C7F80090204638
:1046700000F0E3FA30030BD4E843000308D42168C8
:104680004FF400200865C7F80090204600F094FA27
:10469000F0030BD4E843C00308D421684FF4803002
:1046A0000865C7F80090204600F0C5FA70030BD4E7
:1046B000E843400308D421684FF480200865C7F818
:1046C0000090204600F0B6FAB0030ED4E843800311
:1046D0000BD421684FF400300865C7F80090D4F877
:1046E0009C0040F08000C4F89C00009858B14449F8
:1046F00000980840216808650098800F386000998C
:104700002046FFF733FEB8F1000F0DD021683C487A
:1047100008EA000008654FEA98703860D4F89C00F9
:1047200040EA0800C4F89C003649206888425BD102
:1047300060688168890757D0016A01F00F02416AF9
:104740001140026A02F03002476A1740026A02F41E
:10475000C072D0F8248008EA0208026A02F4FC421F
:10476000456A1540026A02F4F022466A1640D0F803
:104770002490D0F820A019B10162204600F057FA29
:104780002FB1606807623946204600F052FA6FEA9E
:10479000090040060ED46FEA0A0040060AD4606899
:1047A000C16B090CC26B02F03F024023036220463A
:1047B00000F03EFAB8F1000F06D06068C0F8208023
:1047C0004146204600F032FA35B160680562D4F8FF
:1047D0009C002843C4F89C0036B160680662D4F897
:1047E0009C003043C4F89C00D4F89C00002802D000
:1047F0002046FFF7BAFDBDE8FE8F000010A800407C
:10480000FFFFCF3F00A000402DE9F04393B00446E6
:104810004C2295496846FBF72DFE6CB1934F2068FA
:10482000B84202D100F5807060604FF4407994F88E
:104830009800002620B108E0012013B0BDE8F08305
:1048400084F89960204600F013F92068816921F00E
:104850001001816100F006FB05464FF003080DE0F2
:1048600000F000FB401B0A2808D954F89C0F40F0C8
:104870000100206004F8048C0120DEE720688069D4
:104880000007EDD42068816941F00101816100F0E9
:10489000E9FA05460DE000F0E5FA401B0A2808D9C0
:1048A00054F89C0F40F00100206004F8048C0120B3
:1048B000C3E720688069C007EDD02068816941F0B6
:1048C00002018161207C012839D02068816941F092
:1048D00040018161607C012837D02068816921F422
:1048E00080418161A07C012835D02068816941F434
:1048F0008051816120688169A26821F4407111436F
:1049000081612068816921F0A401816120680169C9
:1049100021F010010161E068012822D030B30228A3
:104920002BD02068816941F0800181612068016994
:1049300041F010010161E068032818D022E02068EE
:10494000816921F040018161C4E72068816941F4F7
:1049500080418161C6E72068816921F480518161CD
:10496000C8E72068816941F0040181610AE020689C
:10497000816941F02001816104E02068816941F092
:1049800020018161207E401E4106E069401E41EA0F
:104990000020216A491E0843A18A491E40EA0140BD
:1049A0002168C861A06848450FD1E16AA06A491E24
:1049B000401E40EA0121206B401E41EA0011A08CFC
:1049C000401E41EA00402168C860206E28B120687E
:1049D00050F8C01F626E11430160D4E91701C8424C
:1049E000694609D0206850F8C82FA36E22F007024C
:1049F00051F823301A430260206C48B1206850F807
:104A0000BC2F636C22F0070251F823301A43026076
:104A1000A06C50B1206850F8BC2FE36C22F07002FB
:104A200051F8233042EA03120260206D50B1206831
:104A300050F8BC2F636D22F4E06251F8231042EA73
:104A4000012101602068B84204D16068816821F0CA
:104A50000301816044F8946FA66001202071943CAA
:104A60002046FDF721FDE8E66C0E010800A000409D
:104A70002DE9F04186B00446142101A8FBF713FD8F
:104A8000474B002522680227464C4FF0090CDFF8FF
:104A90000C8119680C3C434E4348491C424527D1C0
:104AA0001960012907D1316841F4807131603168A2
:104AB00001F480710091216841F0080121602168B2
:104AC00001F00801009103210191029703950495DB
:104AD000CDF814C001A900F0B3F80022052113207D
:104AE00000F064FA132000F053FA06B0BDE8F0813C
:104AF000DFF8B880424526D11960012907D1306816
:104B000040F480703060306800F48070009020685D
:104B100040F002002060206800F002000090602059
:104B20000190029703950495CDF814C001A920487F
:104B300000F086F800220521142000F037FA142036
:104B400000F026FAD1E7DFF86CC06245CDD11960DC
:104B5000012907D1316841F480713160316801F475
:104B600080710091216841F008012160216801F005
:104B7000080100914FF4405101910297039504956B
:104B80000521059101A900F05BF8002205219F2075
:104B900000F00CFA9F2000F0FBF9A6E700A000400F
:104BA00014000024EC440258000C025800A40040F9
:104BB0000004025800D400407047000010B50446BD
:104BC000C8070BD00648844201D10AF0B3FF05485C
:104BD000844203D1BDE810400BF016B810BD0000B0
:104BE000A80D0024E80E0024C90604D50249884215
:104BF00001D10AF0DDBF7047480E002490F89810EC
:104C0000012906D050F89C1F41F0040101600120E9
:104C10007047022180F8981001688A6922F0010229
:104C20008A610021C0F89C100020704770477047CF
:104C300070477047704770477047704770477047BC
:104C40002DE9F84F0022784D03264FF001080F2779
:104C50004FF0B04CE1E008FA02F31C409A46002CF9
:104C60007ED00B7903F00303012B01D0022B1BD163
:104C7000D0F80890530006FA03FB29EA0B09D1F893
:104C80000CB00BFA03FB4BEA090BC0F808B0436801
:104C900023EA0A0391F80490C9F3001909FA02F90A
:104CA00049EA0309C0F804900B79DB439B070ED057
:104CB000D0F80C90530006FA03FA29EA0A09D1F851
:104CC00008A00AFA03FA4AEA090AC0F80CA00B790C
:104CD00003F00303022B14D1D30800EB8303D3F8B2
:104CE00020A04FEA42794FEAD96907FA09FB2AEA7C
:104CF0000B0AD1F810B00BFA09FB4BEA0A0BC3F808
:104D000020B0D0F80090530006FA03FA29EA0A0905
:104D100091F804A00AF0030A0AFA03FA4AEA090A17
:104D2000C0F800A04B6813F4403F75D03F4BD3F858
:104D3000009049F00209C3F800901B6803F00203D9
:104D4000009322F0030909F1B049D9F808B4930798
:104D50004FEA137A07FA0AF32BEA030B344B00E00D
:104D60005AE0984201D1002328E0324B984201D109
:104D7000012323E0304B984201D102231EE02F4B48
:104D8000984201D1032319E02D4B984201D104230D
:104D900014E02C4B984201D105230FE02A4B984296
:104DA00001D106230AE0294B984201D1072305E0EF
:104DB000274B984201D1092300E00A2303FA0AF3A2
:104DC00043EA0B03C9F80834DCF80030A343D1F8F8
:104DD00004905FEAC92900D52343CCF80030DCF801
:104DE0000430A343D1F804905FEA892900D5234316
:104DF000CCF804306B68A343D1F804905FEA89399A
:104E000000D523436B602B68A343D1F804905FEA7D
:104E1000C93900D523432B60521C0C6834FA02F3C5
:104E20007FF419AFBDE8F88F80000058F4440258B1
:104E3000000002580004025800080258000C0258F2
:104E4000001002580014025800180258001C0258A2
:104E500000240258002A01D0816170470904816151
:104E60007047000001488068704700001C00002463
:104E70000248816802781144816070471C00002458
:104E800010B5032000F0B2F801F03CF90F490A68B0
:104E9000C2F303230E4AD35C03F01F03D840096812
:104EA00001F00F01515C0B4A01F01F0120FA01F1E2
:104EB0001160094908600F2000F010F808B10120C6
:104EC00010BD00F053F8002010BD00001844025837
:104ED000E00E01082C0000242800002410B58AB040
:104EE0000446102C30D2002221461C2000F05EF82F
:104EF0001C2000F04DF8194804601948016841F081
:104F000001010160006800F00100009001A902A801
:104F100001F082F80798C8B101F0D0F840001149BB
:104F2000B0FBF1F1491E10484FF08042026040F2A0
:104F3000E732C260416000210161816002F056F9F0
:104F400038B101200AB010BD0120FBE701F0B6F82E
:104F5000E5E7054802F072F9F4E7000020000024BC
:104F6000E844025840420F004C18002482B0074821
:104F7000016841F002010160006800F00200019048
:104F800000220F21901E02B000F010B8F444025825
:104F9000002809DB012100F01F0291404009800038
:104FA00000F1E020C0F8001170470000F0B40D4699
:104FB0000D4B1B68C3F30223C3F10704042C00D973
:104FC0000424191D072901D2002300E0DB1E01265D
:104FD00006FA04F1491E294099409E40761E16406B
:104FE0003143F0BC08F0F7B90CED00E000F0070128
:104FF000054A10684FF6FF03184040EA01200349B4
:1050000008431060704700000CED00E00000FA0556
:1050100070B514490A68D243520708D5096801F0EF
:105020000701814201D0012070BD002070BD0A68D7
:1050300022F0070202430A60FFF714FF0446094DFD
:105040004FF47A76083D06E0FFF70CFF001BB042F4
:1050500001D9012070BD2868C0438004F4D4002029
:1050600070BD00000C48025810B501F005F8054964
:105070000968054AC1F30211515C01F01F01C840E3
:1050800010BD000020440258E00E010810B5694927
:105090000A6802F003020968C1F30531654B1B1D64
:1050A0001B68C3F30013634C14342468C4F3CC04AA
:1050B00014FB03F300EE103AB8EE400A002971D059
:1050C0009FED5D1A5B4BF7EE000A1033F2B39FEDD4
:1050D0005B2A012A7FD0022A7CD001EE901A19683F
:1050E000F8EE611AC2EE212AC1F3080101EE901A0E
:1050F000F8EE611A40EE011A31EEA00A22EE800AA3
:105100001968C1F3462101EE101AB8EE411A31EECA
:10511000201AC0EE011ABCEEE11A80ED001A1968DF
:10512000C1F3064101EE101AB8EE411A31EE201A11
:10513000C0EE011ABCEEE11A80ED011A1968C1F344
:10514000066101EE101AB8EE411A00E008E071EEB7
:10515000200A80EE201ABCEEC10A80ED020A10BDC2
:10516000344A283A1468A4061ED51268C2F3C10452
:10517000334AE24001EE902AF8EE612A01EE901ADD
:105180001968F8EE611A82EEA12AC1F3080101EE56
:10519000901AF8EE611A40EE011A31EEA00A22EEE2
:1051A000000AADE741E016E001EE901ADFED252A96
:1051B0001968F8EE611A82EEA12AC1F3080101EE26
:1051C000901AF8EE611A40EE011A31EEA00A22EEB2
:1051D000000A95E713E001EE901A1968F8EE611ADB
:1051E000C2EE212AC1F3080101EE901AF8EE611A0D
:1051F00040EE011A31EEA00A22EE800A80E701EEAD
:10520000901ADFED112A1968F8EE611A82EEA12AD0
:10521000C1F3080101EE901AF8EE611A40EE011A8E
:1052200031EEA00A22EE000A6AE700210160416027
:10523000816010BD28440258000000390024744ADF
:105240000090D0030024744C001BB74B10B5694983
:105250000A6802F003020968C1F30551654B1B1D82
:105260001B68C3F30023634C1C342468C4F3CC04D0
:1052700014FB03F300EE103AB8EE400A002971D097
:105280009FED5D1A5B4BF7EE000A1833F2B39FED0A
:105290005B2A012A7FD0022A7CD001EE901A19687D
:1052A000F8EE611AC2EE212AC1F3080101EE901A4C
:1052B000F8EE611A40EE011A31EEA00A22EE800AE1
:1052C0001968C1F3462101EE101AB8EE411A31EE09
:1052D000201AC0EE011ABCEEE11A80ED001A19681E
:1052E000C1F3064101EE101AB8EE411A31EE201A50
:1052F000C0EE011ABCEEE11A80ED011A1968C1F383
:10530000066101EE101AB8EE411A00E008E071EEF5
:10531000200A80EE201ABCEEC10A80ED020A10BD00
:10532000344A283A1468A4061ED51268C2F3C10490
:10533000334AE24001EE902AF8EE612A01EE901A1B
:105340001968F8EE611A82EEA12AC1F3080101EE94
:10535000901AF8EE611A40EE011A31EEA00A22EE20
:10536000000AADE741E016E001EE901ADFED252AD4
:105370001968F8EE611A82EEA12AC1F3080101EE64
:10538000901AF8EE611A40EE011A31EEA00A22EEF0
:10539000000A95E713E001EE901A1968F8EE611A19
:1053A000C2EE212AC1F3080101EE901AF8EE611A4B
:1053B00040EE011A31EEA00A22EE800A80E701EEEB
:1053C000901ADFED112A1968F8EE611A82EEA12A0F
:1053D000C1F3080101EE901AF8EE611A40EE011ACD
:1053E00031EEA00A22EE000A6AE700210160416066
:1053F000816010BD28440258000000390024744A1E
:105400000090D0030024744C001BB74B2DE9FC5FC7
:10541000044600250026F94F2068DFF8E493C043D6
:10542000010104F10800019004F1280000900DD45E
:10543000606EB8B1B0F5801F19D0B0F5001F1CD058
:10544000B0F5401F00D00125EDB12E462088C043A5
:10545000C00535D4A06D05282FD2DFE800F01D224D
:10546000282F2F00386840F400303860ECE70198AE
:10547000022105F019FE0546E6E70098022105F035
:10548000A5FE0546E0E7D9F80000616E20F4401063
:105490000843C9F80000D9E7386840F400303860A4
:1054A0000CE00198002105F0FFFD054606E000989C
:1054B000002105F08BFE054600E00125A5B12E4632
:1054C0002088DFF84083C04340051FD4D4F8A400EF
:1054D000B0F5C00F18D010DC50B3B0F5001F2CD0C1
:1054E000B0F5800F0FD12EE0D9F80000A16D20F0AB
:1054F00007000843C9F80000E2E7B0F5000F03D049
:10550000B0F5200F00D001251DB32E462088C043E2
:10551000000531D4D4F8A800B0F1407F2AD022DCB5
:10552000F0B3B0F1807F4BD0B0F1007F21D14DE0DE
:10553000386840F400303860E6E70198002105F053
:10554000B3FD0546E0E70098002105F03FFE054663
:10555000DAE7D8F80000D4F8A41020F4600008437B
:10556000C8F80000D2E7B0F1806F03D0B0F1A06FAF
:1055700000D0012585B32E462068C04380010AD49F
:10558000E06C30B1102832D0202836D0302800D03E
:1055900001258DB32E462088C043C00446D400E0C8
:1055A00009E0E06DB0F5005F5CD036DCA0B3B0F58B
:1055B000805F38D150E0386840F400303860D9E777
:1055C0000198002105F070FD0546D3E70098002101
:1055D00005F0FCFD0546CDE7FFE7D8F80000D4F85C
:1055E000A81020F0E0600843C8F80000C4E738685D
:1055F00040F400303860CCE705E00198022105F066
:1056000053FD0546C5E77E48001F0168E26C21F0A6
:10561000300111430160BEE719E0B0F5405F03D0EF
:10562000B0F5804F00D0012515B32E462088C04329
:1056300080042FD4206EB0F5403F29D021DC38B350
:10564000B0F5803F38D0B0F5003F20D13AE038685F
:1056500040F400303860E7E70198002105F024FDB0
:105660000546E1E70098002105F0B0FD0546DBE7BF
:10567000D9F80000E16D20F4E0400843C9F80000CB
:10568000D4E7B0F5802F03D0B0F5A02F00D00125CE
:10569000F5B12E462088C04340042BD4D4F8AC008A
:1056A000B0F1405F24D01CDC10B3B0F1805F4FD06C
:1056B000B0F1005F1BD152E00198012105F0F4FC2C
:1056C0000546E5E70098012105F080FD0546DFE786
:1056D000D9F80000216E20F4E0200843C9F800004A
:1056E000D8E7B0F1804F03D0B0F1A04F00D0012532
:1056F000A5B32E462088C04300040AD4E06E30B122
:10570000B0F1805F3DD0B0F1005F3FD00125B5B36F
:105710002E462068C043C0010AD4A06C30B10128D5
:1057200043D0022846D0032800D0012545B32E4699
:105730002068C04340025AD4DFF8CCB0DBF8000048
:1057400040F48070CBF80000FFF78CFB824648E005
:105750000198012105F0A8FC0546C9E705E000987D
:10576000012105F033FD0546C2E7D8F80000D4F862
:10577000AC1020F0E0400843C8F80000BAE70BE0A6
:105780001EE0386840F400303860C0E7019801211D
:1057900005F08AFC0546BAE7D9F80000E16E20F072
:1057A00040500843C9F80000B3E7386840F40030BF
:1057B0003860BBE70198022105F076FC0546B5E7A5
:1057C0000F48001F0168A26C21F003011143016022
:1057D000AEE7FFF747FBA0EB0A00642801D90325D9
:1057E00003E0DBF80000C005F3D58DB12E4620782C
:1057F000DFF818A0C043C00763D073E02C44025800
:105800005044025858440258004802585444025820
:10581000DFF850B4DBF80000B4F8B01000F44070CA
:1058200001F44071884211D0DBF8000020F4407090
:10583000DBF8001041F48031CBF80010DBF80010E9
:1058400021F48031CBF80010CBF80000D4F8B00080
:10585000B0F5807F11D1FFF705FB824609E0FFF725
:1058600001FBA0EB0A0141F28830814201D90325F6
:1058700003E0DBF800008007F1D50DB12E46B6E756
:10588000D4F8B000C0F3012103290FD0F5486038E7
:10589000016821F47C510160DBF80000B4F8B0101D
:1058A000C1F30B010843CBF80000A0E7ED496039D4
:1058B0000A68ED4B22F47C52184042EA101008604E
:1058C000EAE7A06F18280BD005DC48B1082815D0EE
:1058D000102804D118E0202802D0282800D0012563
:1058E000C5B12E462078C04380072BD4606F0628B0
:1058F00025D2DFE800F025181E2525250198012175
:1059000005F0D2FB0546EBE70098012105F05EFCAF
:105910000546E5E7DAF80000A16F20F038000843FB
:10592000CAF80000DEE70198012105F0BDFB05463D
:1059300006E00098012105F049FC054600E001253C
:105940006DB12E462078C043400720D4D4F8900093
:10595000062819D2DFE800F0190C12191919DAF823
:105960000000616F20F007000843CAF80000E9E773
:105970000198012105F098FB054606E000980121F9
:1059800005F024FC054600E0012595B12E4620785F
:10599000C043800620D4D4F88C00B0F1405F19D009
:1059A00011DCB8B1B0F1805F28D0B0F1005F10D148
:1059B0002AE0D8F80000D4F8901020F0070008433F
:1059C000C8F80000E3E7B0F1804F03D0B0F1A04F7A
:1059D00000D00125F5B12E462078C04340062CD4D6
:1059E000D4F89800B0F5406F25D01DDC18B3B0F5A1
:1059F000806F34D0B0F5006F1CD136E001980021E3
:105A000005F052FB0546E5E70098022105F0DEFBB4
:105A10000546DFE7DAF80000D4F88C1020F0E0400B
:105A20000843CAF80000D7E7B0F5805F03D0B0F5AF
:105A3000A05F00D00125F5B12E462078C0430006B6
:105A40002CD4D4F89C00B0F5C04F25D01DDC18B381
:105A5000B0F5005F2CD0B0F5804F1CD12EE001983E
:105A6000002105F021FB0546E5E70098022105F03D
:105A7000ADFB0546DFE7D8F80000D4F8981020F415
:105A8000E0500843C8F80000D7E7B0F5004F03D056
:105A9000B0F5204F00D00125B5B12E462078C04387
:105AA00000072AD4D4F88000B0F5805F16D01BE040
:105AB0000198002105F0F8FA0546EDE7009802216B
:105AC00005F084FB0546E7E7D8F80000D4F89C1001
:105AD00020F460400843C8F80000DFE70098022186
