:020000040800F2
:10000000B8690024A50300085DC00008019300083A
:1000100019BF00080D140008E5E500080000000005
:10002000000000000000000000000000E5020008E1
:10003000C52D0008000000004103000801C90008A8
:10004000C3030008C3030008C3030008C303000878
:10005000C3030008C3030008C3030008C303000868
:10006000C3030008C3030008C3030008E128000815
:10007000ED280008F928000805290008C303000836
:10008000C3030008C3030008C3030008ED2F0008E2
:1000900055300008C3030008C3030008C303000869
:1000A000C3030008C3030008C3030008C303000818
:1000B000C3030008C303000899CA0008C30300086B
:1000C000C3030008C3030008C3030008C3030008F8
:1000D0005DC500083DE00008C3030008C303000835
:1000E000C3030008C303000800000000C3030008A6
:1000F000C3030008C3030008C3030008C3030008C8
:10010000C3030008C3030008C3030008C3030008B7
:10011000C3030008ADCF0008A5CA0008C303000848
:10012000112900081D290008C3030008C3030008A3
:10013000C3030008C3030008C3030008C303000887
:1001400000000000000000000000000000000000AF
:10015000C303000829290008C3030008C3030008DB
:10016000C3030008C3030008C3030008C303000857
:10017000C3030008C3030008C30300080000000015
:10018000C3030008C3030008B9CF0008C303000875
:10019000C3030008C3030008C3030008C303000827
:1001A000C3030008C3030008C303000800000000E5
:1001B000C3030008C3030008C3030008C303000807
:1001C000C3030008C3030008000000000000000093
:1001D0000000000000000000C30300080000000051
:1001E000000000000000000000000000000000000F
:1001F0000000000000000000C3030008C303000863
:10020000C3030008C303000800000000C303000884
:10021000C3030008C3030008C3030008C3030008A6
:10022000C303000800000000C30300080000000032
:10023000C3030008C303000800000000C303000854
:10024000C3030008C3030008C3030008C303000876
:10025000C3030008C3030008C3030008C303000866
:10026000C3030008C3030008C3030008C303000856
:10027000C3030008C3030008C30300080000000014
:10028000C3030008C3030008C3030008C303000836
:1002900000000000C3030008C303000800000000C2
:1002A00000000000C3030008C3030008C3030008E4
:1002B00019E00008C3030008C3030008C5300008A4
:1002C000C3030008C3030008C3030008DFF810D00D
:1002D00000F0DAFA00480047AD240108AFF30080CF
:1002E000B86900242C4B19680868B0E8F04F80F317
:1002F0000988BFF36F8F4FF0000080F311887047BB
:100300000000000008480068006880F308884FF08B
:10031000000080F3148862B661B6BFF34F8FBFF35D
:100320006F8F00DF00BF00BF08ED00E0DFF80C00BA
:10033000016841F470010160704700BF88ED00E082
:10034000EFF30980BFF36F8F134B1A681EF0100F85
:1003500008BF20ED108A20E9F04F106009B44FF07B
:10036000500080F31188BFF34F8FBFF36F8F12F0EF
:1003700067FF4FF0000080F3118809BC1968086816
:10038000B0E8F04F1EF0100F08BFB0EC108A80F3F9
:100390000988BFF36F8F704738000024EFF30580A2
:1003A00070470000074880470748804707480047D4
:1003B000FEE7FEE7FEE7FEE7FEE7FEE7FEE7FEE715
:1003C000FEE7FEE7712F0008C1C90008CD02000852
:1003D0002DE9F05F0546002092469B46884606467A
:1003E000814640241BE0284641464746224600F00D
:1003F00082F853465A46C01A914110D31146184606
:10040000224600F016F82D1A67EB01084F462246E7
:100410000120002100F00DF817EB00094E41201ECD
:10042000A4F10104DFDC484631462A464346BDE8D4
:10043000F09F202A04DB203A00FA02F100207047E6
:100440009140C2F1200320FA03F319439040704712
:10045000202A06DBCB17203A41FA02F043EAE07388
:1004600006E041FA02F3D040C2F120029140084375
:100470001946704740EA01039B0703D009E008C909
:10048000121F08C0042AFAD203E011F8013B00F859
:10049000013B521EF9D27047D2B201E000F8012BA5
:1004A000491EFBD270470022F6E710B513460A46F4
:1004B00004461946FFF7F0FF204610BD421C10F815
:1004C000011B0029FBD1801A704730B50B4601464D
:1004D00000202022012409E021FA02F59D4205D3E3
:1004E00003FA02F5491B04FA02F52844151EA2F18D
:1004F0000102F1DC30BD202A04DB203A21FA02F0AF
:100500000021704721FA02F3D040C2F1200291404D
:100510000843194670472DE9FE4F804681EA0300E3
:10052000C00F0C46009021F0004123F00045B8EBCD
:100530000200A94105D24046214690461C460B4682
:10054000024623F00040104347D0270DC7F30A00AE
:10055000C3F30A510290401A019040286BDAC3F3AA
:10056000130040F4801B0098924620B10023D2EB88
:10057000030A63EB0B0B01985946C0F14002504649
:10058000FFF757FF06460D4650465946019AFFF7BA
:100590005FFF10EB08006141002487EA115284EAF2
:1005A000E7731A4340D0009A62B3019A012A4FEAD6
:1005B000075215DC001B61EB02014FF0004202EA1A
:1005C0000752CDE90042001C41F5801132462B460E
:1005D00000F07BF903B0BDE8F08F40462146F9E713
:1005E000001B61EB0201001C41F5801300185B4108
:1005F0002018A2F5001747EB030140EAD570B619A1
:100600006D4111E06D084FEA360645EAC0754FEAC4
:100610000752001B61EB0201001C41F580114908E3
:100620004FEA30000019514132462B4603B0BDE875
:10063000F04F00F03BB90098012240000023D0EBBE
:10064000020263EBE073009821464FEAE074B8EBD6
:10065000000061EB0401E9E783F000435BE781F010
:10066000004158E72DE9FE4F81EA030404F00044FD
:1006700021F0004100944FF0000B23F0004350EABA
:1006800001045ED052EA03045BD0C3F30A54C1F301
:100690000A552C44A4F2F3340194A0FB0254C1F394
:1006A000130141F48011C3F3130343F4801301FBDE
:1006B000024400FB034E840A970A44EA815447EA45
:1006C0008357A4FB076802958D0A05FB07854FEA4F
:1006D000932C04FB0C542705029D4FEA065847EA69
:1006E0001637B5EB08056EEB070C870E920E47EA3E
:1006F000811742EA8312A7FB0201B6EB0B0164EB00
:1007000000042B0D43EA0C335E1844EB1C50DA4610
:100710005146E7FB0201C5F313044FEA0B3343EAEA
:1007200014534FEA0432019C43EA0603A4F10C047B
:100730000294009CCDE900B400F0C7F803B0BDE816
:10074000F08F00200146F9E72DE9F04D81EA03041E
:1007500004F0004B21F0004514464FF0000A23F04E
:10076000004150EA050220D054EA01021DD0C5F331
:100770000A570246C5F31303C1F31300C1F30A5627
:1007800040F4801543F48013A7EB0608101BD646EF
:1007900008F2FD3873EB050002D308F1010801E00F
:1007A00092185B41B8F1000F03DA00200146BDE862
:1007B000F08D00204FF48011064684460EE0171B92
:1007C00073EB050705D3121B63EB050306434CEAE5
:1007D000010C49084FEA300092185B4150EA0107CA
:1007E000EDD152EA030012D082EA040083EA050147
:1007F000084305D0101BAB4106D20122002306E0BE
:1008000000224FF0004302E06FF0010253101AEB98
:1008100006004CEB085110EB0A0041EB0B01BDE860
:10082000F04D00F043B8C1F30A52C1F3130140F296
:10083000FF3341F480119A4202DA002001467047EA
:1008400040F233439A42A2F2334202DC5242FFF7B3
:1008500052BEFFF7EEBD000030B5041E71F100047A
:1008600004DB4FF00044404264EB0101141E73F1BD
:10087000000405DB1C464FF00043524263EB0403C7
:10088000994208BF904230BD064C074D06E0E06833
:1008900040F0010394E8070098471034AC42F6D3C7
:1008A000FFF718FD405801086058010810B5141EE4
:1008B00073F1000408DA401C41F1000192185B4119
:1008C0001A4301D120F0010010BD2DE9F04D9246F0
:1008D0009B4611B1B1FA81F202E0B0FA80F2203207
:1008E0009046FFF7A6FD04460F4640EA0A0041EA9B
:1008F0000B0153465A46084313D0114653EA0100F0
:1009000019D0C8F140025046FFF7F5FD05460E46E6
:10091000504659464246FFF78CFD084305D001205A
:1009200004E020463946BDE8F08D0020054346EA44
:10093000E0762C4337430A986305E40AA0EB0800ED
:100940000022FD0A44EA47540A3002D5002001463D
:10095000E9E7010510196941DDE908450019694118
:10096000BDE8F04DA2E770B58C1810F8015B15F0EA
:10097000070301D110F8013B2A1106D110F8012B11
:1009800003E010F8016B01F8016B5B1EF9D12B0736
:1009900005D40023521E0DD401F8013BFAE710F8EC
:1009A000013BCB1A921C03E013F8015B01F8015BD9
:1009B000521EF9D5A142D8D3002070BD30B50546EE
:1009C0000C46002D0CD0022C0AD90648A11E028824
:1009D000284603F039F8291901F8020D000A487079
:1009E00030BD0000F80B002430B505460C46002D44
:1009F00009D0022C07D9FF222846611E03F03CF8DB
:100A0000291901F8010C30BD2DE9F05F2DED068BA1
:100A1000C24FD7F8800800EE100AB8EE400ADFEDAA
:100A2000C00A60EE200AA7F15C044FF0010A00231F
:100A300004F14409618804F14C0B002918D1A4F891
:100A400002A0A36304F1540197EDAD0A81ED000A01
:100A500097EDCB1A81ED011A89ED000A89ED011A93
:100A600097EDB00A8BED000A97EDCE0A8BED010AE7
:100A7000A16B4218A263B1EE040AB7EE001A20EE91
:100A8000200A61EE200ADFEDA72AC7ED592AC7ED3B
:100A90006B2A60884FF4FA659FEDA33A012808D0CD
:100AA0009FEDA28A022837D0032866D0042832D1CD
:100AB0000BE19FED9F1A0126002071EE401A09EB11
:100AC0008001D1ED000AF4EEE10AF1EE10FA05D250
:100AD00070EE800AC1ED000A00260EE031EE002A19
:100AE000F4EEC20AF1EE10FA05DD70EEC00AC1EDB7
:100AF000000A002601E081ED001A401CC0B2022865
:100B0000DDD30EB9AA4202D902206080A363C7EDEB
:100B1000592A87ED6B3A68E00126002038EE601A0A
:100B20000BEB800191ED000AB4EEC10AF1EE10FA70
:100B300005D230EE200A81ED000A00260EE078EEA4
:100B4000201AB4EEE10AF1EE10FA05DD30EE600A8B
:100B500081ED000A002601E081ED008A401CC0B250
:100B60000228DDD30EB9AA4202D903206080A36314
:100B7000C7ED592A87ED6B3A37E001260020DFEDFB
:100B80006D2A72EEC01AB0EE621A09EB8001D1ED47
:100B9000000AF4EEE10AF1EE10FA05D270EE800AD6
:100BA000C1ED000A00260EE031EE002AF4EEC20A82
:100BB000F1EE10FA05DD70EEC00AC1ED000A002664
:100BC00001E081ED001A401CC0B20228DBD39FED8A
:100BD0005A0A87ED590A9FED590A87ED6B0A0EB93B
:100BE000AA4202D904206080A3630024DFED548A66
:100BF0009FED549ADFED549A9FED54AA4FF0FF38C1
:100C00000BEB8400D0ED000AC4EB041007EBC00628
:100C100004EB440000EB041096EDB00A07EB8000F3
:100C200000F2C4400BF01CFAB0EE408A96EDB00A18
:100C300009F0BAFE38EE400A09EB840096EDAD1AD1
:100C4000D0ED000A70EEC10A96EDAE1AF1EE411A2F
:100C500068EEA00A49EE210AC4EBC40007EB800548
:100C600085EDFB0AC5EDFC0A05F57D7106F54370BF
:100C700000F028FE95EDFD0AB0EE691AF0EE4A0A82
:100C800010F088FA85EDFD0A95EDFE0AB0EE691ABE
:100C9000F0EE4A0A10F07EFA85EDFE0AD5EDFD0A67
:100CA000002C21D04FF0010000EE100A04EBC4002C
:100CB000B8EEC00A07EB001020EE800A80ED110AA2
:100CC000D5EDFE0A12D1404612E023706380204821
:100CD0000BF080FA1E484C300BF07CFA84ED048A4D
:100CE000BDEC068BBDE8F09F4046DDE74FF001000C
:100CF00000EE100A0AEB4400B8EEC00A00EBC00098
:100D000007EBC00020EE800A80ED110A04F1010417
:100D1000E4B2022CFFF474AFE2E700002C010024DF
:100D20006F12833A0000000000000080713D0A3E0F
:100D30009A99993EDB0FC93FCDCC4C3ECDCC4CBEF1
:100D4000000070423333934000002042000020C274
:100D5000F005002401220248114604F067BF00009C
:100D60000008025800220248012104F05FBF000081
:100D7000000802587047000001220248082104F0D0
:100D800055BF00000008025800220248082104F064
:100D90004DBF000000080258704730B504464FF4BC
:100DA0007A7502E0284600F004F8641EA4B2F9D275
:100DB00030BD70B500214FF0E0256B69C0EB00102D
:100DC0004401AA69A8699042FCD003D2A2EB0002B8
:100DD000114403E0A3EB0006324411440246A14251
:100DE000F0D370BD10B5FFF7C5FFFFF7D5FF0FF0CB
:100DF00077FF04460FF0FAFF204310BD2DE9FC41B8
:100E000004460D461646002000900190FFF7AAFF09
:100E1000922000F0BFF806226946122000F09CF8EC
:100E2000FFF798FF9DF801009DF80010000200B246
:100E30000843484F00EE100AD7ED000AB8EEC00A8A
:100E400020EE200A85ED000A9DF803009DF80210AF
:100E5000000200B2084300EE100AF8EEC00A97ED57
:100E6000000A60EE800AC5ED010A9DF805009DF8B4
:100E70000410000200B2084300EE900AF8EEE00A07
:100E800020EE800A85ED020AFFF77EFF0822694600
:100E9000002000F061F8FFF76FFF9DF800000F28B9
:100EA00030D19DF803009DF80210000200B2084303
:100EB00000EE100AD7ED010AB8EEC00A20EE200AB3
:100EC00084ED000A9DF805009DF80410000200B2B0
:100ED000084300EE100AF8EEC00A97ED010A60EE32
:100EE000800AC4ED010A9DF807009DF80610000273
:100EF00000B2084300EE900AF8EEE00A20EE800A05
:100F000084ED020AFFF72EFFA22000F043F8022230
:100F10006946222000F020F8FFF71CFF9DF8000032
:100F20009DF80110C00040EA5110B0F5806F02DB5F
:100F3000A0F5006000B200EE100AB4EE001AF8EE60
:100F4000C00AB3EE070A00EE810A86ED000ABDE88A
:100F5000FC8100001C0B002470B50D46144640F0C7
:100F6000800000F017F806E0552000F013F805F8AF
:100F7000010B641EE4B2002CF6D170BD10B50C4616
:100F800040F0800000F006F8552000F003F82070D3
:100F900010BD000001B582B04FF47A7001230090BB
:100FA00001AA034802A906F0C9FD9DF804000EBD80
:100FB0003410002410B50C46FFF7ECFF2046BDE8C6
:100FC0001040FFF7E7BF000010B5394C37482060EC
:100FD000042161609FED371AB5EEC00AF1EE10FAF8
:100FE00001D2B0EE410A10EE101A334A914201DDEF
:100FF0009FED320AF5EEC00AF1EE10FA01D2F0EEE2
:10100000410A10EE901AB7EE001AB1F17E5F01DDD1
:10101000F0EE410A84ED020AC4ED030A01680A6A8F
:1010200041F211131A4207D10A6A9B101A4203D1E6
:101030000A6822F001020A60026800215162B5EEDE
:10104000C00AF1EE10FA06D80368EF22DA62C26035
:10105000026891631BE09FED1A2AC2EE001A31EE7E
:10106000C10A30EE011A61EE200AB6EE001A60EEF7
:10107000810ABCEEC00A026810EE101AD16280ED3F
:10108000030ABCEEE00A026810EE101A9163012117
:1010900007F032F8D4E9000107F012FA206800687E
:1010A000016841F00101016010BD000044120024FC
:1010B000C00000240000000000409C4600409C4608
:1010C0000024744970B505460C4600F013F8284614
:1010D00011F03CFB9FED060AF0EE400A00F00AF822
:1010E000002C04D02046BDE8704011F02FBB70BD2D
:1010F0000000000070B59FED5A1AB5EEC00AF1EE7F
:1011000010FA01D2B0EE410A10EE100A5549884299
:1011100001DD9FED550AF5EEC00AF1EE10FA01D29D
:10112000F0EE410A10EE900AF7EE001AB0F17E5F81
:1011300001DDF0EE610A4D4C84ED020AC4ED030AB4
:10114000206801680A6A41F211131A4207D10A6A3B
:101150009B101A4203D10A6822F001020A6001685A
:1011600000224A624149B5EEC00AF1EE10FA496820
:1011700004D9F5EEC00AF1EE10FA1ED80568EF2387
:10118000EB62C36051B104290BD008290CD00C29A3
:101190000DD010290ED00168CA6533E001684A639A
:1011A00030E001688A632DE00168CA632AE00168C3
:1011B0000A6427E001688A6524E09FED2D2A82EE0B
:1011C000001A31EE611A31EE210A20EE200AF6EE05
:1011D000000A20EE200AFCEEC10A036810EE902AF5
:1011E000DA62C0ED030AB9B104291CD0082921D064
:1011F0000C2926D010292BD0BCEEC00A026810EEB4
:10120000101AD165012106F077FF20680068016897
:1012100041F00101016070BDBCEEC00A026810EE31
:10122000101A5163EEE7BCEEC00A026810EE101A05
:101230009163E7E7BCEEC00A026810EE101AD163B2
:10124000E0E7BCEEC00A026810EE101A1164D9E79C
:10125000BCEEC00A026810EE101A9165D2E70000D9
:101260000000000000409C4600409C46C000002456
:101270000024744970B52DED048B5D4C94EDB30AD8
:101280000FF08EFA94EDB01AD4EDB40A21EE201AC4
:1012900020EE018A94EDC20A30EE600AD4EDA30A72
:1012A00030EE200A9FED539A00EE098A94EDB30ABE
:1012B0000FF0CCFCD4EDB10A00EE808A94EDD10A97
:1012C0000FF06EFA94EDCE1AD4EDD20A21EE201A68
:1012D00060EE018A94EDE00A30EE600AD4EDA30AD4
:1012E00030EE200A40EE098A94EDD10A0FF0AEFCF0
:1012F000D4EDCF0A40EE808AF6EE000A38EE280AD6
:1013000020EE208A84ED988A94ED9A0A04F66C0007
:1013100009F03CFE384D686880ED008A04F50060F5
:1013200090ED1C0A686880ED010AD4F880089FEDF2
:10133000338A00EE100AD5F80001B8EE400A20EE1C
:10134000080A80ED010A284609F0EEF9D5F8E80010
:1013500090ED002A84ED992A90ED010A84ED9B0A14
:1013600094ED930A9FED261BB7EEC00AB0EEC00BBA
:10137000B4EEC10BF1EE10FA0ED2D4F8800800EEF4
:10138000100AB8EE400A62EE000A94ED960A00EEEA
:10139000880A84ED960A03E09FED1B0A84ED960A05
:1013A0000021C1EB011004EBC00201EB410092ED02
:1013B000B30A04EBC00080EDEA0A92EDB40A80EDB6
:1013C000EB0A94ED960A80EDEC0A94ED990A80ED13
:1013D000ED0A94EDA20A80EDEE0A94EDA30A80EDE9
:1013E000EF0A491CC9B20229DBD3BDEC048B70BDE6
:1013F0002C0100248FC2753D5C5700246F12833A84
:10140000000000E04D62503F00000000FEE70000D9
:101410002DE9F04105460E4617462DED028BF0EE04
:10142000408A002D2AD0002E28D000249FED158A56
:1014300022E000EE107A05EBC403B8EE400AD3EDCB
:10144000010A20EE800ABCEEC00A10EE100A93EDED
:10145000000AB5EEC00AF1EE10FA07D8B0EE480A5D
:101460000021F0EE400AFFF72DFE04E00021F0EE2F
:10147000680AFFF727FE641CB442DAD3BDEC028B86
:10148000BDE8F081000000000348C822B7EE000A62
:101490004FF4C471FFF7BCBF5C37010830B4029D44
:1014A0000B4C44F8100C44F80C1C227663761A0A94
:1014B000A276E5762A0A227700226277A277E2777F
:1014C00004F1180230BC89B208230FF0FDBC000003
:1014D000840B00240B784A78DFED090A42EA0322E4
:1014E00012B200EE102AB8EEC00A80EE201A80ED8B
:1014F000001A8A780273CA78427309798173704737
:1015000000007A4410B504462DED108BB0EE40EA91
:10151000B0EE60FA82B0B7EECF0AB0EE40AB0DF09D
:10152000EFFE9FED8F8B20EE080BF7EEC0CBB7EEF2
:10153000CE0AB0EE409B0DF0E3FE20EE080BF7EE76
:10154000C0EBB0EE4A0B0DF0DBFD20EE080BB7EE62
:10155000C0BBB0EE490B0DF0D3FD20EE080BF7EE4B
:10156000C0BB7CEEEEAA3BEE6BAA2AEE0A0A0AEE9C
:10157000AA0AB7EEC00A0DF0E5FFB7EEC00BF6EE13
:10158000000A2AEE20CA2AEEA0AADFED770AB0EE02
:10159000601A00EE001A71EE60AA2CEE0C0A0AEE38
:1015A0000A0A0AEEEA0AB7EEC00A0DF0CBFFB7EE60
:1015B000CA1A30EE010B3CEE2A1AB7EEC11A0DF032
:1015C0005FFBB0EE001B20EE010BB7EEC0CBB7EE19
:1015D000CC0AB0EE40AB0DF093FD3BEECB1AB5EE6E
:1015E00000BBB7EEC1DA00EE0BDBB0EE4A0B0DF03C
:1015F00087FEB0EE401B3EEEEC0AB7EEC00A01EEED
:101600000B0BB0EE4D1B0DF03BFBF7EEC0CBB0EE7D
:10161000490B0DF075FD20EE08DBB0EE4A0B0DF026
:101620006FFD00EE0BDBB7EECDDBB0EE490B0DF03E
:1016300067FE20EE089BB0EE4A0B0DF061FE00EE57
:101640000B9BB7EEC99B2DEE0D0A09EE090AB7EE0A
:10165000C00A0DF077FFB7EEC01B8DED011AB7EE93
:10166000CD1AB7EEC90A0DF00BFBF7EEC0EB3EEE5C
:10167000EC0AB7EEC0AAB0EE4A0B0DF041FE20EE28
:10168000089B3EEE4C0AB7EEC0BAB0EE4B0B0DF025
:1016900037FE29EE00DB3CEECC0AB7EEC09AB0EE86
:1016A000490B0DF02DFE8DEE001BF7EEC1FB3EEE5B
:1016B000CC0AB7EEC0DAB0EE4D0B0DF021FE20EEF5
:1016C00008EB3CEECF0AB7EEC0CAB0EE4C0B0DF003
:1016D00017FE2EEE00EBB0EE490B0DF011FE8EEE74
:1016E000001BB7EEC1EBB0EE4A0B0DF009FD20EE8A
:1016F00008ABB0EE4B0B0DF003FE2AEE00BBB0EED4
:10170000490B0DF0FDFD9DED011AB7EEC1AA20EECB
:101710000A0B8BEE001BB7EEC1BBB0EE4D0B0DF00C
:10172000EFFC20EE088BB0EE4C0B0DF0E9FD28EE3F
:10173000008BB0EE490B0DF0E3FD20EE0A0B88EEB6
:10174000001BB7EEC10BC4ED00FA84ED01EA84ED95
:1017500002BA84ED030A02B0BDEC108B10BD00008C
:10176000000000A047E1CA3F0000803D90ED000A64
:10177000D1ED000A524B20EE200A83ED210A90EDB4
:10178000010AD1ED010A20EE200A83ED220A90ED34
:10179000020AD1ED020A20EE200A83ED230A90ED21
:1017A000030AD1ED030A20EE200A83ED240A90ED0E
:1017B000040A83ED250A90ED050AD1ED050A20EE15
:1017C000200A83ED260A90ED060AD1ED000A20EEEC
:1017D000200A83ED270A90ED070AD1ED010A20EED9
:1017E000200A83ED280A90ED080AD1ED020A20EEC6
:1017F000200A83ED290A90ED090AD1ED030A20EEB3
:10180000200A83ED2A0A90ED0A0AD1ED040A20EE9F
:10181000200A83ED2B0A90ED0B0AD1ED050A20EE8C
:10182000200A83ED2C0A90ED000AD1ED000A91ED1B
:10183000011A20EE200AD0ED010A00EE810AD0ED57
:10184000020A91ED021A00EE810AD0ED030A91ED31
:10185000031A00EE810AD0ED040A91ED041A00EE9D
:10186000810AD0ED050A91ED051A00EE810A82ED9C
:10187000000A90ED060AD1ED000A91ED011A20EE62
:10188000200AD0ED070A00EE810AD0ED080A91ED9A
:10189000021A00EE810AD0ED090A91ED031A00EE5A
:1018A000810AD0ED0A0A91ED041A00EE810AD0ED0A
:1018B0000B0A91ED051A00EE810A82ED010A7047CC
:1018C0002C09002490ED001AD0ED022A90ED012A97
:1018D000D0ED031A21EE001A02EEA01A22EE000A41
:1018E00001EEA00A81ED001A81ED010A70470000A7
:1018F000F0B4DDE904560C4C44F8100C44F80C1C10
:10190000170A277662761A0AA276E3762A0A2277DF
:101910006577320AA277E67704F11802F0BC89B243
:1019200008230FF0D1BA0000840B00240848007A85
:1019300002280BD0032801D000F0B6BF04485C3861
:10194000007808B1FFF760B800F04EBF00F04CBF60
:101950002C01002470B5304C304D94F8380000282C
:101960000BD094F8800040B194F8C80028B194F8E6
:10197000100110B1287D01281BD127480C3001F03F
:101980003BFA012010F0E2FE2348543001F034FA13
:10199000012010F0DBFE20489C3001F02DFA0120E0
:1019A00010F0D4FE1C48E43001F026FA012010F0BB
:1019B000CDFE207A032802D1617A032906D1A97BC2
:1019C00021B9022812D1607A02280FD014484FF4AE
:1019D000CA71FEF768FD002084F8280384F8A0038C
:1019E0000D489FED100A5C3880ED040A0E480F4D3B
:1019F000407B48B10E48042106F062FD286811F0D2
:101A000035FB207A607270BD0948042106F0F6FDAE
:101A1000286811F0AFFBF4E72C010024F6560024EF
:101A200084030024713D0A3E4C5700241800002412
:101A3000441200242DE9F04F2DED048BAFB00FF0D0
:101A4000C7FBB74E30600024671E012306F10C006F
:101A50001A46B7EE000ACDE90074194680460AF02E
:101A6000D3FA012306F154001A4602218146B7EE4B
:101A7000000ACDE900740AF0C7FA012506F19C00BE
:101A80002B4603212A46B7EE000ACDE900548246D0
:101A90000AF0BAFA012306F1E4001A46042183464B
:101AA000B7EE000ACDE900540AF0AEFA9FED9D8A28
:101AB000002302220121B0EE480ACDE9007406F5A8
:101AC00096700AF0A1FA022200231146B0EE480AED
:101AD000CDE9005406F5BA700AF096FA404601F0D6
:101AE0008BF9012010F032FE484601F085F9012003
:101AF00010F02CFE504601F07FF9012010F026FE78
:101B0000584601F079F98848047002214170032198
:101B10008170C4704FF4CA7106F51670FEF7C3FCED
:101B20009C2106F5DE70FEF7BEFC86F8284386F899
:101B3000A04335722CAB7D4C94E8070007C3DFED62
:101B40007C8A0021B1EE040AF0EE680A2CAA06F2A3
:101B50002C400AF05FFBD4E9041229ABE06807C30C
:101B60000021F7EE000AB1EE000A29AA06F5EE60A0
:101B70000AF050FBD4E9071226ABA06907C3002185
:101B8000F0EE680AB2EE0E0A26AA06F2BC700AF05F
:101B900041FBD4E90A02616A2391CDE924020021C4
:101BA000F0EE680AB2EE0E0A23AA06F608000AF062
:101BB00031FBD4E90D1220AB206B07C3F0EE680AAD
:101BC0009FED5C9A002120AAB0EE490A06F2C440BB
:101BD0000AF020FB9FED588A06F5806686ED358A6F
:101BE0000021F0EE680AB0EE490A20AA06F58870D6
:101BF0000AF010FB86ED488AD4E91002E16B1D91D2
:101C0000CDE91E02F0EE680A9FED4C0A00211DAAE4
:101C100006F523700AF0FEFAD4E913121AABA06C91
:101C200007C3F0EE680A9FED460A00211AAA06F1E2
:101C300078000AF0EFFAD4E9161217AB606D07C30B
:101C40000021F0EE680AB2EE000A17AA06F5FA7053
:101C50000AF0E0FA9FED3B8A06F25440B0EE480AE3
:101C600009F0A8F9B0EE480A06F25C4009F0A2F9C2
:101C7000B0EE480A06F2644009F09CF9B0EE480A5A
:101C800006F26C4009F096F99FED2F0A06F27440B7
:101C900009F090F92448022300221946343008F054
:101CA00061FAD4E91A13D4E9182014AE0BC61392C2
:101CB00070340FCC0FAC0FC41C480BAE803090E8D2
:101CC0001E001EC600F1100107AE1EC91EC6D0E9D7
:101CD000092303AC016AC06A0EC4069013AA1B490B
:101CE0005CCA88685CC003AA08685CCA5CC00FAAAA
:101CF000C8695CCA5CC00BAA086A5CCA5CC0486957
:101D000007A91EC91EC00848183005703C218180F3
:101D10002D2141802FB0BDEC048BBDE8F08F000079
:101D20002C0100243C3C7C4128570024C448010875
:101D30000000000000002A43CDCC4C3E0000AF4321
:101D4000000034436666663FCDCCCC3E5458002438
:101D500010B511F07FFB0E4CD4F87C18401AC4F873
:101D6000800811F077FBC4F87C08D4F82804401CE4
:101D7000C4F828040CF06EFB0CF066F90CF022FAA3
:101D80000CF086FBFFF776FABDE810400CF00EBAB7
:101D90002C0100242DE9F0472DED088B4FF00008B1
:101DA000002500219FEDFE8AFE4F3868B0F9022021
:101DB00002F11403292B00D39046B0F9082002F158
:101DC0001403292B00D31546B0F9002002F11403A7
:101DD000292B00D31146494200EE101AB8EEC00A72
:101DE000DFEDF19A20EE29BAF04CF14AE17D0129AC
:101DF00003D0B0F90630934202D1012387F8E833CB
:101E000097F8E8339FEDEBAADFEDEBAA9FEDEB9A95
:101E1000E44EDFF8AC935C3E012B12D0D7EDF90A0B
:101E2000B0EE4A0A0EF0A4FBF0EE408AD7EDF90AB4
:101E3000B0EE6A0A0EF09CFBB0EE402AA07CC8B35C
:101E40006EE0B0F9060001EB410303EBC1019042E3
:101E500001D1012000E0002000EB400202EBC000B5
:101E60000844A17D00EB810000EE100AB8EE400AA4
:101E700086ED070ACB49D6ED080A5C39C94891EDD1
:101E8000091AB4EEE00AD0F88008F1EE10FA12DD7B
:101E900001EE900AF8EE611A21EE811A41EE090A6C
:101EA000C6ED080AF4EEC00AF1EE10FA15DD86ED73
:101EB000080A12E026E010D201EE900AF8EE611A4C
:101EC00021EE811A41EE490AC6ED080AF4EEC00A75
:101ED000F1EE10FA01D286ED080A96ED080A89EDB6
:101EE000020AB7EEC00AB0EEC00B9FEDB61BB4EE0F
:101EF000C10BF1EE10FA34D286ED0A8A002087F881
:101F0000E8032EE0B7EEC20AB7EEE81AB0EEC00B57
:101F1000B0EEC11BB4EEC10BF1EE10FA78FE828A6E
:101F200097EDF90A70EE280AA8480AF099F8B1EE80
:101F3000400AB7EECB1AB1EE062BB4F90000B7EEAB
:101F4000C00A01EE020B01EE100AB8EEC11B9FEDB4
:101F5000A02B01EE420BB7EEC00B86ED070A89ED10
:101F6000020A97F8E80300287DD1D7EDF90AB0EE10
:101F70004A0A0EF0FDFAF0EE408AD7EDF90AB0EE0B
:101F80006A0A0EF0F5FAB0EE401A0120A17C69B998
:101F9000B7EEE80AB7EEC11AB0EEC00BB0EEC11B47
:101FA000B4EEC10BF1EE10FA00D3801E00EE108AE1
:101FB000F1EE000AB8EEC00A20EE290A60EE200A0F
:101FC00000EE100AB8EEC00A20EE800A89ED000A81
:101FD000D7EDB00A97EDCE1AB6EE002B70EE810A5F
:101FE000B7EEE01A21EE021B9FED7B2BB4EEC21B75
:101FF000F1EE10FA26DDB7EEC01A217A00EE101AC3
:10200000B8EE402B9FED760B03EE100A22EE002B6C
:10201000B8EEC33B02EE031BB7EEC11B617A02EEC2
:10202000101AB8EE422BB7EEC11A22EE000B02EEE8
:10203000100AB8EEC22B00EE421BB7EEC10B89EDC1
:10204000000A2AE0A17D012946D0B7EEC01A217A04
:1020500000EE101AB8EE402B9FED630B03EE100A52
:1020600022EE002B00E036E0B8EEC33B02EE031B8D
:10207000B7EEC11B617A02EE101AB8EE422BB7EE32
:10208000C11A22EE000B02EE100AB8EEC22B00EECF
:10209000421BB7EEC10B89ED000A99ED000AD6ED9F
:1020A000060AB4EEE00AF1EE10FA3CDDD7F880083B
:1020B000D6ED051A01EE100AB8EE411A21EE211AEA
:1020C00041EE090AC6ED060AB4EEE00AF1EE10FA96
:1020D0003FD286ED060A3CE0B7EEC01A217A03EE45
:1020E000100A00EE101AB8EEC33BB8EE402BB0EE6B
:1020F000040B22EE002B02EE031BB7EEC11B617A2C
:1021000002EE101AB8EE422BB7EEC11A22EE000B07
:1021100002EE100AB8EEC22B00EE421BB7EEC10B66
:1021200089ED000AB9E714D2D7F88008D6ED051A70
:1021300001EE100AB8EE411A21EE211A41EE490AC9
:10214000C6ED060AB4EEE00AF1EE10FA01DD86ED06
:10215000060A96ED050AD6ED091A254AB068254902
:1021600090420DDA097821B1F6EE000A20EE200A3D
:102170000FE0DFED210A20EE200A61EEA01A08E050
:102180001E4B984205DA0978E1B3DFED1D0A20EE17
:10219000200A99ED001AF0EEC12AD6ED060A32E0C7
:1021A000000000002C0100240C98C63AF6560024CA
:1021B0006CFDFFFFCC772C4078C0E4BE6F12833AF1
:1021C00034570024000000403333D33F200700245D
:1021D00079E9263108AC9C3F7B14AE47E17AD43FC5
:1021E000CDCCCCCCCCCCEC3F666666666666FE3F5A
:1021F0009A99993E1C570024CDCCCC3DCDCC4C3F78
:102200006666663F0FE0B0EEE02AF4EEC22AF1EE19
:1022100010FA06D321EE202AB5EEC02AF1EE10FA0C
:1022200008D2012107E0DFED900A20EE200A61EEDE
:10223000A01AAEE70021B1B130EE802AB4EEC21A86
:10224000F1EE10FA02DD86ED062A3DE030EEC00A1E
:10225000B4EEC01AF1EE10FA02D286ED060A33E0AF
:1022600086ED061A30E0904218DAF4EEC00AF1EE7C
:1022700010FA04DD30EEC00A86ED060A24E0B1EE65
:10228000401AF4EEC10AF1EE10FA04D230EE800AE0
:1022900086ED060A18E086ED068A15E030EE802A03
:1022A000B4EEC21AF1EE10FA02DD86ED062A0BE05A
:1022B00030EEC00AB4EEC01AF1EE10FA02D286ED8A
:1022C000060A01E086ED061AD6ED080A99ED020A23
:1022D00030EEA11AB4EEC10AF1EE10FA02DD86ED7D
:1022E000081A0BE070EEE10AB4EEE00AF1EE10FA23
:1022F00002D2C6ED080A01E086ED080AD6ED060A0C
:1023000096ED080A89ED020A387A032835D087ED60
:10231000938A87ED948A87ED958A002101EB41002D
:1023200007EBC00080ED838A80ED848A80ED858A8A
:1023300097ED930A80ED860A80ED878A80ED888A82
:10234000491CC9B20229E9D3387ADFED480A9FED6A
:10235000481A032818D09FED470A86ED040A96ED27
:10236000040A0EF017FF86ED040A87ED8F0A87ED49
:10237000900ABDEC088BBDE8F087C7ED930A87EDA6
:10238000948A87ED950AC8E700EE105AB8EEC00AA5
:1023900060EE291A96ED040A01EEC90A86ED040AD8
:1023A000607B9FED352BA8B1DFED351A31EEC04AC9
:1023B000B7EEC43AB0EEC33BB4EEC23BF1EE10FA56
:1023C00006DDDFED301A04EE210A86ED040A01E095
:1023D000C6ED041A207BC8B1D6ED041A30EEE10A2E
:1023E0009FED294BB7EEC03AB0EEC33BB4EEC43B11
:1023F000F1EE10FA06DD9FED263A40EE031AC6ED27
:10240000041A03E0B0EE600A86ED040AE07BB8B17E
:102410009FED200A96ED044A70EE441AB7EEE13AB9
:10242000B0EEC33BB4EEC23BF1EE10FA06DD9FED19
:102430001A0A01EE804A86ED044A01E086ED040A9C
:1024400097F92404012808D0022809D0032886D14E
:102450009FED120A86ED040A81E7C6ED040A7EE7C5
:1024600086ED041A7BE700003333333F713D0A3EAB
:10247000B4C8B63E295C0F3E000000E04D62503FFC
:10248000AE47613E4260E53B000000402AA9433F61
:102490000AD7233C5C8FC23E0AD7A33BE27A143EA4
:1024A00010B50AF0F5F8BDE810400AF0ADB900002B
:1024B00030B52F4B012418688189022902D1428945
:1024C000022A02D0032902D004E01C7219E04289DA
:1024D000022A06D0274A927B012A02D0012903D082
:1024E00005E0022018720CE04289022A02D002297B
:1024F00003D005E00320187203E0408903281CD0B4
:102500001C720020C0EB001103EBC10191F82823DD
:10251000B2B1D1F824531E2D12D9002281F82823FC
:1025200000EB400101EB00119FED130A03EB810169
:1025300001F5806181ED360A15E004201872E0E7AC
:102540008AB9D1F820231E2A0DD981F8284300EB3F
:10255000400101EB00119FED090A03EB810101F538
:10256000806181ED360A401CC0B20228CAD330BD5A
:102570002C010024F656002400002A430000F042FB
:1025800070B505462DED088BB0EE40ABF0EE419AEC
:10259000B0EE61BA7F4C2078002805D084ED032A84
:1025A000C4ED042A00202070D4ED030A9FED7A0ABE
:1025B00020EE801ADFED790A02EE201A84ED031A6C
:1025C00094ED041A21EE000A02EEA00A84ED040A3A
:1025D0007349B1F84C0000EE100AB8EE400A84EDE1
:1025E000020A704A927A642A07D91E3000EE100A55
:1025F000B8EE400A84ED020A05E000EE100AB8EEDB
:10260000400A84ED020AB1F8570000EE100AF8EE15
:10261000408A94ED020ADFED640AB5EEC00AF1EEDD
:1026200010FA01D1C4ED020A9FED601A94ED020A7E
:102630000EF0B0FD84ED020AF7EE00BAB0EE6B9A30
:1026400018EE900A5A49884202DD9FED5A9A02E03C
:1026500018EE900A584960EE098AD4ED030AB0EEEC
:102660004A0A09F02BFE84ED050AD4ED040AB0EE07
:10267000690A09F023FE84ED060AD4ED050A30EE5E
:10268000800A84ED070A3AEE2A0AD4ED030A09F01B
:1026900015FE84ED080A39EE8B0AD4ED040A09F020
:1026A0000DFE84ED090AD4ED080A30EE802A84ED8F
:1026B0000A2AB0EE6B8ADFED410AB4EEE82AF1EEA9
:1026C00010FA1CD994ED070AB4EEC02AF1EE10FA04
:1026D00015D3B4EEE80AF1EE10FA02DBB0EE608A30
:1026E0000DE038EEC01A32EE400A354910EE100AFD
:1026F000884202DD81EE008A01E0B0EE608A18EEC9
:10270000100AB0F17E5F01DDB0EE6B8AB5EEC08AD3
:10271000F1EE10FA01D2B0EE608A94ED010AB4EE47
:10272000C08AF1EE10FA02D285ED008A0DE0DFEDED
:10273000250A30EE200AB4EEC80AF1EE10FA02D2F1
:1027400085ED000A01E085ED008AD5ED000AB0EEC6
:102750004A0A00EEAA0AD4ED030A09F0AFFD84ED9F
:102760000B0AD5ED000AB0EE690A00EE8B0AD4ED33
:10277000040A09F0A3FD84ED0C0AD4ED0B0A30EE37
:10278000800A84ED0D0A95ED000A84ED010ABDEC86
:10279000088B70BDE80900249A99593F9A99193E0F
:1027A000905800241C5700240000344200001643B7
:1027B0000000F0416666A63F0000204100000000D6
:1027C00017B7D1380AD7A33B05480068016841F024
:1027D0001001016003494FF4C872014806F096BC2D
:1027E0007C150024AE5900242DE9F0412DED028B1B
:1027F00008F0ACFA08F058F9284E96EDFD0AB1EE53
:10280000400A86ED110A96EDFE0AB1EE400A86ED09
:10281000230A06F5806797ED040A86ED350A97EDE1
:10282000050A86ED470A00249FED1D8ADFED1D8A0B
:10283000307A022802D003280FD01CE004EBC40039
:10284000B0EE481A06EBC005F0EE680A95ED110AE5
:102850000EF0A0FC85ED110A0DE004EBC400B0EE13
:10286000481A06EBC005F0EE680A95ED110A0EF065
:1028700091FC85ED110A641CE4B2042CD8D397EDC9
:10288000010AB1EE400A86ED590A97ED080A86ED75
:102890006B0ABDEC028BBDE8F08100002C01002426
:1028A00000002042000020C20C489FED0B0A80ED82
:1028B000110A80ED230A80ED350A80ED470A80ED8C
:1028C000120A80ED240A80ED360A80ED480A80ED78
:1028D0005A0A80ED6C0A7047000000002C010024A9
:1028E000014801F017BC0000BC100024014801F0B1
:1028F00011BC000028180024014801F00BBC0000A6
:1029000034110024014801F005BC0000181900240E
:10291000014801F0FFBB0000A0180024014801F0AD
:10292000F9BB000038170024014801F0F3BB000098
:10293000B017002410B52C4A016891423AD02A4AB7
:102940001832914236D0284A3032914232D0264A4B
:10295000483291422ED0244A603291422AD0224AF3
:102960007832914226D0204A9032914222D01E4A9B
:10297000A83291421ED01D4A91421BD01B4A1832E8
:10298000914217D0194A3032914213D0174A483237
:1029900091420FD0154A603291420BD0134A7832DF
:1029A000914207D0114A9032914203D00F4AA83287
:1029B000914214D1CAB2103A1823B2FBF3F20C4C74
:1029C00002F00703E35CC365032A04D96FF309012E
:1029D000091D816506E06FF30901816502E021F0C0
:1029E000FF018165806D10BD10000240100402409F
:1029F000C036010810B501680123224CCAB2A142B9
:102A00001BD0204C1434A14217D01E4C2834A142B4
:102A100013D01C4C3C34A1420FD01A4C5034A1426C
:102A20000BD0184C6434A14207D0164C7834A14224
:102A300003D0144C8C34A1420FD1083A1421B2FBBC
:102A4000F1F1114A02EB810202660F4A80324266BE
:102A500001F01F018B40836610BD103A1824B2FBB1
:102A6000F4F20A4C2144A82900D80832084901EBA5
:102A70008201016606498031416602F01F018B40E8
:102A8000836610BD0854025800580258F0FBFDBF81
:102A9000000802400279521E072A31D8194B0168FA
:102AA00099421BD0174B1433994217D0154B28333A
:102AB000994213D0134B3C3399420FD0114B5033F2
:102AC00099420BD00F4B6433994207D00D4B7833AA
:102AD000994203D00B4B8C33994207D10A4901EB41
:102AE0008201C16608494031016706E0074901EBF0
:102AF0008201C1660549403101670121914041676A
:102B0000704700000854025800590258000902405A
:102B1000014610B500208B694FF0C0748A6A002B03
:102B20000ED0B3F5005F1AD062B3012A2AD0022A70
:102B300028D0032A03D1C96AC90100D5012010BDDC
:102B40001AB1012A06D0022AF9D1C96AC901F6D5FB
:102B5000012010BDC96AA142FBD1012010BD52B1B4
:102B6000012A0AD0022A06D0032AF7D1C96AA14253
:102B7000F4D1012010BD012010BDC96AC901FBD5E7
:102B8000012010BD012010BD2DE9F04F856D8A4E4A
:102B9000894FDFF824C2A836DFF81C82DFF81892CC
:102BA0000CF1180CDFF810A208F13008DFF808B2B9
:102BB00009F1480904680AF1600A0BF1780BBC427C
:102BC0006DD064456BD0444569D04C4567D05445C1
:102BD00065D05C4563D0DFF8E0E10EF1900E7445FE
:102BE0005DD0B4425BD0DFF8D4E1744557D0DFF854
:102BF000CCE10EF1180E744551D0DFF8C0E10EF1B2
:102C0000300E74454BD0DFF8B4E10EF1480E744538
:102C100045D0DFF8A8E10EF1600E74453FD0DFF833
:102C20009CE10EF1780E744539D0DFF890E10EF199
:102C3000900E744533D0DFF884E10EF1A80E744590
:102C40002DD0DFF87CE1744529D0DFF874E10EF176
:102C5000140E744523D0DFF868E10EF1280E744598
:102C60001DD0DFF85CE10EF13C0E744517D0DFF8A3
:102C700050E10EF1500E744511D0DFF844E10EF131
:102C8000640E74450BD0DFF838E10EF1780E744510
:102C900005D0DFF82CE10EF18C0E744509D1D0E996
:102CA00019E4CEF80440C46E1CB1D0E91CE4CEF89F
:102CB00004400468BC422ED064452CD044452AD040
:102CC0004C4528D0544526D05C4524D03A4F903707
:102CD000BC4220D0B4421ED0384EB4421BD0374E36
:102CE0001836B44217D0354E3036B44213D0334E76
:102CF0004836B4420FD0314E6036B4420BD02F4E1E
:102D00007836B44207D02D4E9036B44203D02B4EC5
:102D1000A836B4421BD190F85C4004F01F063F2453
:102D2000B440AC600468256825F4802525600468FB
:102D300063608368402B05D0036899600068C260B7
:102D4000BDE8F08F03689A600068C160F8E71C4E28
:102D5000B4421BD01A4E1436B44217D0184E28363F
:102D6000B44213D0164E3C36B4420FD0144E5036F7
:102D7000B4420BD0124E6436B44207D0104E7836AF
:102D8000B44203D00E4E8C36B442D9D190F85C4098
:102D900004F01F060124B4406C600468636083681B
:102DA000402B04D0036899600068C260C8E70368DC
:102DB0009A600068C160C3E710000240100402403E
:102DC00008540258704710B50446208820810A78BC
:102DD000487840EA022020808A78C87840EA0220B9
:102DE00060800A79487940EA0220A0808879A07141
:102DF00002F024FFE06010BD10B50446204600F04C
:102E0000EBFA002805D062892178BDE8104000F077
:102E100095B810BD70B504460D46287800F00F0037
:102E200020602878000960606978A87840EA01206D
:102E3000A060E9782A79090141EA1211E1602A7952
:102E4000697902F00F0241EA022121611021DFEDD0
:102E5000170A9FED170A10F001F884ED070AE068E1
:102E60000C21DFED140A9FED140A0FF0F7FF84ED3B
:102E7000080A20690C21DFED110A9FED110A0FF0FD
:102E8000EDFF84ED090AA87900EE100AB8EE400AB9
:102E900084ED0C0AE87900EE100AB8EE400A84EDE1
:102EA0000D0A02F0CBFEA06370BD0000DA0F4941AD
:102EB000DA0F49C100003442000034C20000584219
:102EC000000058C210B50446204600F085FA0028DC
:102ED0000ED021789FED070A94ED0E2ABDE8104030
:102EE000F0EE401AB0EE401AF0EE400A09F016B8C3
:102EF00010BD00000000000010B504462DED028B4F
:102F0000B0EE408A204600F067FA002810D0217801
:102F1000D4ED0F0A9FED080AF0EE481ABDEC028BC3
:102F2000B0EE402AB0EE401ABDE8104008F0F6BFFF
:102F3000BDEC028B10BD0000000000000A4B43F8FE
:102F4000100C0A4443F80C2CFF2119765976997617
:102F5000D976197759779977FC21D97791B2024AB6
:102F6000082318320DF0B0BF840B002472B6FEE7C0
:102F70000548016841F00201016003480838016812
:102F80008904FCD5704700000C48025810B58AB07F
:102F900000240294039402200490012005900694DA
:102FA000079402A9104802F070F808B1FFF7DEFF9D
:102FB00002220D4800231146009402F0AAF808B13D
:102FC000FFF7D4FF08480022012101F0E5FF08B116
:102FD000FFF7CCFF044802F0FDFC002801D0FFF70A
:102FE000C5FF0AB010BD0000540E0024014802F0D5
:102FF00081B90000540E002410B58AB00024029458
:1030000003940220049005900694079402A91048A6
:1030100002F03BF808B1FFF7A9FF02220C48002399
:103020001146009402F075F808B1FFF79FFF0848B9
:103030000022102101F0B0FF08B1FFF797FF04480C
:1030400002F0C8FC002801D0FFF790FF0AB010BDC5
:10305000F40E0024014802F04DB90000F40E0024E3
:1030600010B58AB0002402940394049401200590C2
:103070008002069040F2FF700790114802A902F00A
:1030800004F808B1FFF772FF02220D480023114631
:10309000009402F03EF808B1FFF768FF08480022EC
:1030A000012101F079FF08B1FFF760FF044802F049
:1030B00091FC002801D0FFF759FF0AB010BD0000B5
:1030C000940F0024014802F015B90000940F002469
:1030D00030B5426B036853F8844F4FF6FC718C4354
:1030E00044EA82041C60036853F8844F058F24F47B
:1030F0007F0444EA05441C60836B1A44036853F858
:10310000884F8C4344EA82041C60036853F8884F5C
:10311000858F24F4FE0444EA05441C60C36B02EB73
:103120004302036853F8A04F8C4344EA82041C60B6
:10313000036853F8A04FB0F8405024F4FE0444EA6A
:1031400005441C60D0E9103403FB0422036853F8E3
:10315000B04F8C4344EA82041C60036853F8B04FBC
:10316000B0F8485024F4FE0444EA05441C60D0E959
:10317000123403FB0422036853F8AC4F8C4344EA37
:1031800082041C60D0E9143403FB0422036853F862
:10319000F04F8C4344EA82041C60036853F8F04FFC
:1031A000B0F8585024F47C1444EA05441C60836D44
:1031B00002EB4303026852F8C04F8C4344EA830198
:1031C0001160016851F8C02FB0F85C3022F47C1215
:1031D00042EA03420A60016851F8C02F90F860305B
:1031E00022F07C5242EA03620A60416B224A02EBFF
:1031F0008101C166826B01EB82020267C36B02EB45
:10320000C3024267D0E91034634302EB8302826752
:10321000D0E91234634302EB8302C267D0E914346D
:10322000634302EB8302C0F88020836D02EBC3028C
:10323000C0F88420C46D836E5C4302EB8402C0F846
:103240008820046E5C4302EB8402C0F890200B4B94
:103250009A4208D99830416841F020014160032129
:103260000170012030BD002200E004C1D0F8903090
:103270008B42FAD8002030BD00AC0040FCD30040A7
:10328000F0B5D1E901650C692C430D68002E1AD008
:1032900045F080452C4391F82070D1E9066535430F
:1032A0004E6946EA076635438E8945EA0645D0F8F9
:1032B0008460806E584306EB80031C605D600833B9
:1032C00000200B4E0FE044EA8544E4E71418155C37
:1032D000E77845EA0765A77864783F0447EA04245D
:1032E000254320C3001DCC68345D8442EED8F0BD78
:1032F000C836010870B504460D46DFED1C0AB5F965
:10330000020000EE100AB8EEC00A20EE200A84ED9A
:10331000050A28889FED171A400000EE100AF8EE03
:10332000400A9FED130A60EE800A10EE810A84EDD8
:10333000070AA87900EE100AB8EE400A84ED080AE0
:10334000B5F9040000EE100AB8EEC00A84ED090ACF
:103350002888608502F072FCE968401A0A2802D9C0
:103360000120207370BD0020207370BD5077D63DC2
:10337000DB0F4940000000390C2901D2022801D09E
:10338000034870470248103800EB011070470000F6
:10339000D060002470B504460D4695ED070A84ED13
:1033A000070A95ED080A84ED050A95ED090A84EDF2
:1033B000060A95ED0C0A84ED080A287984F82C0099
:1033C00002F03CFCA96B401A0A2802D901202073A4
:1033D00070BD0020207370BD4178012901D000200C
:1033E00070478078012803D0022803D0002070475E
:1033F0000148704701487047540E0024F40E002421
:1034000060EE000A20EE801AC64B1A7A022A02D019
:10341000032A7DD06AE1DFEDC41A61EE211A9FED27
:10342000C32A40EE821A9FEDC22A40EE021A9FED97
:10343000C12A71EE821AC0ED001ADFEDBF1A61EEEB
:10344000211A9FEDBE2A40EE821A9FEDBD2A40EE62
:10345000021A9FEDBC2A71EE821AC0ED011ADFED4F
:10346000BA1A61EE211A9FEDB92A40EE821A9FED39
:10347000B82A40EE021A9FEDB72A71EE821AC0ED0B
:10348000021ADFEDB51A61EE211A9FEDB42A40EE63
:10349000821A9FEDB32A40EE021A9FEDB22A71EE16
:1034A000821AC0ED031ADFEDB01A61EE211A9FED0A
:1034B000AF2A40EE821A9FEDAE2A40EE021A9FED2F
:1034C000AD2A71EE821AC0ED041ADFEDAB1A61EE7F
:1034D000211A9FEDAA2A40EE821A9FEDA92A40EEFA
:1034E000021A9FEDA82A71EE821AC0ED051ADFEDCF
:1034F000A61A61EE211A9FEDA52A40EE821A9FEDD1
:10350000A42A40EE021A9FEDA32A71EE821A00E06F
:1035100014E0C0ED061ADFEDA01A21EE211ADFED4E
:103520009F1A00EEA11ADFED9E0A00EE201A9FED11
:103530009D0A31EE000A80ED070AD7E0DFED9A1A06
:1035400061EE211A9FED992A40EE821A9FED982A8A
:1035500040EE021A9FED972A71EE821AC0ED001A12
:10356000DFED951A61EE211A9FED942A40EE821A42
:103570009FED932A40EE021A9FED922A71EE821A75
:10358000C0ED011ADFED901A61EE211A9FED8F2A2E
:1035900040EE821A9FED8E2A40EE021A9FED8D2A90
:1035A00071EE821AC0ED021ADFED8B1A61EE211A5C
:1035B0009FED8A2A40EE821A9FED892A40EE021A78
:1035C0009FED882A71EE821AC0ED031ADFED861A8C
:1035D00061EE211A9FED852A40EE821A9FED842A22
:1035E00040EE021A9FED832A71EE821AC0ED041A92
:1035F000DFED811A61EE211A9FED802A40EE821ADA
:103600009FED7F2A40EE021A9FED7E2A71EE821A0C
:10361000C0ED051ADFED7C1A61EE211A9FED7B2AC1
:1036200040EE821A9FED7A2A40EE021A9FED792A27
:1036300071EE821AC0ED061ADFED771A61EE211ADB
:103640009FED762A40EE821A9FED752A40EE021A0F
:103650009FED742A71EE821AC0ED071ADFED721A1F
:1036600061EE211A9FED712A40EE821A9FED702AB9
:1036700040EE021A9FED6F2A71EE821AC0ED081A11
:10368000DFED6D1A61EE211A9FED6C2A40EE821A71
:103690009FED6B2A40EE021A9FED6A2A71EE821AA4
:1036A000C0ED091ADFED681A61EE211A9FED672A55
:1036B00040EE821A9FED662A40EE021A9FED652ABF
:1036C00071EE821AC0ED0A1ADFED631A21EE211A9B
:1036D000DFED621A00EEA11ADFED610A00EE201A9A
:1036E0009FED600A31EE000A80ED0B0A002918D028
:1036F000197A032915D19FED5C0A80ED000A80ED4F
:10370000010A80ED020A80ED030A80ED040A80EDD3
:10371000050A80ED080A80ED090A80ED0A0A80EDAD
:103720000B0A70472C010024778D46C3C297704363
:10373000AFA5F5C28E06C2C06ABC943E1D5A143FA6
:10374000341107C1F931A6BEBE3095C111B6B741DB
:10375000FE4325C1E414ADBFB1BF42C15F878841BC
:10376000265314C13E792CC09FFC8BC2C482FC42FC
:103770001E56AFC2355EE34110FAA7C1E403E7412C
:103780007FFB82C180489F4081E50D432D0396C297
:10379000410204C246D41242F2D253410E4F4AC1F2
:1037A000BADA2A4072F927409FCD76C0E977BB424A
:1037B000FCE9C2C238F8B2BF7A368141BA4936C193
:1037C0003333A9C08FC2F5BC8CDB54401AC07B4098
:1037D00054E3BDC0355E3ABD54E3EF40E0BEB440B3
:1037E0000B4624C1CDCCCCBE955DB9438E5D98C34C
:1037F0001F855741EEBC224201DEE8C0D6563C414F
:10380000B7D116C1CC7F7C40811AD144ACC5B8C4B5
:10381000649D3443B0431143C4220643004F17C391
:10382000B81E2D4214AE12413C3D02436ACDD6C2B1
:1038300060E5B2400D715B41152CA642424FF1C1CB
:10384000413157C23E390B4217E964C3AD1C84C4F1
:103850008FF19244637F65C1A127B1426BAB0CC36A
:10386000A3A1A542E258C3C00000000010B5044661
:103870002DED0A8BB0EE408AB7EEE00AB0EE40AB19
:103880000BF03EFD9FED479B20EE090BB7EEC0BB52
:10389000B7EEC80AB0EE408B0BF032FD20EE090BFC
:1038A000F7EEC0BBB0EE4A0B0BF02AFC20EE090B82
:1038B000B7EEC0ABB0EE480B0BF022FC20EE090BCC
:1038C000B7EEC00B7BEE6BAA3AEE40AA2AEE0A0ACC
:1038D0000AEEAA0AB7EEC00A0BF034FEB7EEC00B30
:1038E000F6EE000A2AEE20BA6AEEA0AA9FED2F1A81
:1038F000F0EE410A40EE000A30EEC1AA2BEE0B0AB0
:103900000AEEAA0A0AEE4A0AB7EEC00A0BF01AFE3D
:10391000B7EEEA1A30EE010B3BEE0A1AB7EEC11A07
:103920000BF0AEF9B0EE001B20EE010BB7EEC0AB12
:10393000B0EE480B0BF0E4FB20EE09BBB7EECA0A71
:10394000B0EE40AB0BF0DCFBB5EE00CB00EE0CBBF9
:10395000B7EECBBBB0EE480B0BF0D2FC20EE098BE0
:10396000B0EE4A0B0BF0CCFC00EE0C8BB7EEC88B24
:103970002BEE0B0A08EE080AB7EEC00A0BF0E2FDC8
:10398000F7EEC08BB7EECB1AB7EEC80A0BF078F99A
:10399000B7EEC00BC4ED008A84ED010ABDEC0A8BC2
:1039A00010BD0000000000A047E1CA3F0000803DBC
:1039B000D0ED001A90ED032AD0ED012A90ED023AE5
:1039C00021EE821A02EEC31AC2EE013AB1EE622A69
:1039D000C2EE012AB1EE433A83EE012A81EE813A2A
:1039E00023EE801A02EE201A22EE800A03EE200A4D
:1039F00081ED001A81ED010A70470000024610B502
:103A00005078002810D001281AD19078012817D1B9
:103A100010780C49401EBDE81040C0EB001001EBCF
:103A200080011046FFF7B6BC1078401EC1B29078F6
:103A3000FFF7A2FC01461046BDE81040FFF75ABC54
:103A400010BD0000D05F00240346104610B5002BC7
:103A500001D0084C0AE04FF6FF7010BD13F8012B9F
:103A60004240D2B234F8122082EA1020491E4A1C89
:103A7000F4D110BD944B010810B5054C03E010F8CB
:103A8000013B5340E25C491E4B1CF8D1104610BD6F
:103A9000944A0108014890ED690A7047785C002457
:103AA000014890ED680A7047785C0024014890ED69
:103AB0006A0A7047785C002490ED001AD0ED011A74
:103AC00021EE001A01EEA01AD0ED021A21EE800AB2
:103AD000D0ED031A01EEA00A81ED001A81ED010A72
:103AE000704700002DE9F84F044602F0A7F8009057
:103AF0005CB194F83500022809D080206065002070
:103B000084F834000120BDE8F88F0120FBE7D14E96
:103B1000D04FD0491836DFF83C833037DFF8349384
:103B2000DFF830A308F14808DFF828B309F160098D
:103B300020680AF1780A0BF1900B88422ED0B0422F
:103B40002CD0B8422AD0404528D0484526D05045F0
:103B500024D0584522D0BF4AA83290421ED0BE4A37
:103B600090421BD0BC4A1832904217D0BA4A303229
:103B7000904213D0B84A483290420FD0B64A6032D1
:103B800090420BD0B44A7832904207D0B24A903279
:103B9000904203D0B04AA83290420AD1026822F083
:103BA0001E0202602068426922F08002426125689C
:103BB00004E0026822F00E02026025682068884254
:103BC0004DD0B0424BD0B84249D0404547D048458F
:103BD00045D0504543D0584541D09E4AA8329042E6
:103BE0003DD09D4A90423AD09B4A1832904236D0FE
:103BF000994A3032904232D0974A483290422ED081
:103C0000954A603290422AD0934A7832904226D028
:103C1000914A9032904222D08F4AA83290421ED0D0
:103C20008E4A90421BD08D4A1432904217D08B4A54
:103C30002832904213D0894A3C3290420FD0874AB2
:103C4000503290420BD0854A6432904207D0834A6A
:103C50007832904203D0814A8C32904204D1206E57
:103C6000026822F4807202607A49206888422ED06D
:103C7000B0422CD0B8422AD0404528D0484526D062
:103C8000504524D0584522D07249A83188421ED0D0
:103C9000714988421BD070491831884217D06E494B
:103CA0003031884213D06C49483188420FD06A497C
:103CB000603188420BD068497831884207D0664924
:103CC0009031884203D06449A831884204D1016808
:103CD00021F00101016013E0016821F001010160A0
:103CE0000EE001F0ABFF0099401A052808D920200A
:103CF000343420620320607000202070012002E72D
:103D00002868C007EDD1534A0121206890422ED087
:103D1000B0422CD0B8422AD0404528D0484526D0C1
:103D2000504524D0584522D04A4BA83398421ED043
:103D3000494B98421BD0484B1833984217D0464BFA
:103D40003033984213D0444B483398420FD0424B03
:103D5000603398420BD0404B7833984207D03E4BAB
:103D60009033984203D03C4BA833984208D1A06DC1
:103D700094F85C3003F01F053F23AB40836007E0FD
:103D8000A06D94F85C3003F01F0301FA03F3436065
:103D9000206890424DD0B0424BD0B84249D0404507
:103DA00047D0484545D0504543D0584541D0294A91
:103DB000A83290423DD0284A90423AD0264A183242
:103DC000904236D0244A3032904232D0224A483291
:103DD00090422ED0204A603290422AD01E4A783239
:103DE000904226D01C4A9032904222D01A4AA832E1
:103DF00090421ED0194A90421BD0184A1432904269
:103E000017D0164A2832904213D0144A3C329042BE
:103E10000FD0124A503290420BD0104A6432904276
:103E200007D00E4A7832904203D00C4A8C3290422E
:103E30000BD1D4E919205060E06E30B1026822F451
:103E400080720260D4E91C2050603434617000201C
:103E5000207058E610000240100402400854025836
:103E60002DE9F05F002808D090F83510022906D01F
:103E7000802141650120BDE8F09F0120FBE7A14AB8
:103E8000A04BA04C18329F4D30339E4E4834DFF883
:103E900074B26035DFF870C27836DFF86C82DFF814
:103EA00068920CF1300CDFF860A208F1600801683C
:103EB00009F17809944F0AF1900A594531D091429D
:103EC0002FD099422DD0A1422BD0A94229D0B14266
:103ED00027D0DFF830E20EF1900E714521D0DFF8E7
:103EE00024E20EF1A80E71451BD0DFF81CE2AEF102
:103EF000180E714515D0B94213D0DFF80CE20EF15F
:103F0000180E71450DD061450BD0DFF8FCE10EF1C4
:103F1000480E714505D0414503D0494501D0514572
:103F200037D14FF0040E80F835E0594527D0914243
:103F300025D0994223D0A14221D0A9421FD0B1421D
:103F40001DD070489030814219D06E48A83081420F
:103F500015D06D481838814211D0B9420FD06A4847
:103F6000183081420BD0614509D067484830814202
:103F700005D0414503D0494501D0514504D10868D9
:103F800020F001000860BAE0086820F00100086035
:103F9000B5E0D1F800E02EF00E0EC1F800E00168A7
:103FA000DE46594531D091422FD099422DD0A142C1
:103FB0002BD0A94229D0B14227D0DFF848B10BF16C
:103FC000900B594521D0DFF83CB10BF1A80B5945B6
:103FD0001BD0DFF834B1ABF1180B594515D0B942FD
:103FE00013D0DFF824B10BF1180B59450DD0614502
:103FF0000BD0DFF814B10BF1480B594505D0414502
:1040000003D0494501D0514506D1D1F800B02BF07D
:10401000010BC1F800B005E0D1F800B02BF0010BA6
:10402000C1F800B001684FF0010B714546D09142D4
:1040300044D0994242D0A14240D0A9423ED0B142A0
:104040003CD0304A9032914238D02E4AA832914228
:1040500034D02D4A183A914230D0B9422ED02A4A53
:10406000183291422AD0614528D0274A48329142DD
:1040700024D0414522D0494520D051451ED0234A65
:1040800091421BD0214A1432914217D01F4A283244
:10409000914213D01D4A3C3291420FD01B4A5032FC
:1040A00091420BD0194A6432914207D0174A7832B4
:1040B000914203D0154A8C32914218D1016E0A68A0
:1040C00022F480720A60816D90F85C2002F01F0279
:1040D0000BFA02F24A60D0E919215160C16E31B188
:1040E0000A6822F480720A60D0E91C21516080F8CD
:1040F00035B0002180F83410016D01B188470020EF
:10410000B9E600001000024028040240085402589A
:10411000406D70472DE9FF5F0446002001904FF489
:104120001651FD480068B0FBF1F00090A56D2E68B7
:104130002968FA4FDFF8E4B3DFF8E083DFF8DC93B7
:104140000BF1180BDFF8D4A308F13008206809F14F
:1041500048090AF1600AB8423BD05A46904238D02A
:10416000404536D0484534D0504532D0EB4A7832BD
:1041700090422ED0E94A903290422AD0E74AA832A3
:10418000904226D0E64A904223D0E54A1832904227
:104190001FD0E34B303398421BD0E14B4833984259
:1041A00017D0DFF87CC30CF1600C604511D0DFF84C
:1041B00070C30CF1780C60450BD0DFF864C30CF1D0
:1041C000900C604505D0DFF858E30EF1A80E70455D
:1041D0007ED194F85C10082301F01F0103FA01F26C
:1041E00032424BD0B84232D0584530D040452ED024
:1041F00048452CD050452AD0C8497831884226D02D
:10420000C6499031884222D0C449A83188421ED084
:10421000C34988421BD0C2491831884217D0C049CF
:104220003031884213D0BE49483188420FD0BC4952
:10423000603188420BD0BA497831884207D0B849FA
:104240009031884203D0B649A831884203D1016831
:1042500001F0040102E0016801F0080171B1016898
:1042600021F00401016094F85C0000F01F0003FAE3
:1042700000F2AA60606D40F00100606594F85C0097
:10428000012100F01F008140314240D02068B84237
:1042900034D0584532D0404530D048452ED05045D6
:1042A0002CD09E4A7832904228D09C4A903290423C
:1042B00024D09A4AA832904220D0994A90421DD0E8
:1042C000974A1832904219D0954A3032904200E015
:1042D000D2E113D0924A483290420FD0904A6032D5
:1042E00090420BD08E4A7832904207D08C4A90325E
:1042F000904203D08A4AA83290427DD1406910F0A2
:10430000800F04D0A960606D40F00200606594F8F1
:104310005C00042100F01F00814031423ED0206843
:10432000B84232D0584530D040452ED048452CD0E8
:1043300050452AD0794A7832904226D0774A903236
:10434000904222D0754AA83290421ED0744A9042C0
:104350001BD0734A1832904217D0714A30329042C3
:1043600013D06F4A483290420FD06D4A603290426B
:104370000BD06B4A7832904207D0694A9032904213
:1043800003D0674AA83290424ED1006810F0020F65
:1043900004D0A960606D40F00400606594F85C0092
:1043A000102100F01F008140314260D02068B842E7
:1043B00034D0584532D0404530D048452ED05045B5
:1043C0002CD0564A7832904228D0544A90329042AB
:1043D00024D0524AA832904220D0514A90421DD057
:1043E0004F4A1832904219D04D4A3032904215D07F
:1043F0004B4A4832904200E014E00FD0484A603205
:1044000090420BD0464A7832904207D0444A9032CC
:10441000904203D0424AA832904207D1006800F08F
:10442000080006E0006872E70068B7E7006800F07F
:10443000040058B1A9602068016849030CD50068E0
:10444000000304D4216C09B1204688470FE0A16C19
:1044500069B1204688470AE00168C90503D40168AC
:1044600021F008010160216C09B12046884794F8C9
:104470005C00202100F01F00814031427BD0206889
:10448000B84232D0584530D040452ED048452CD087
:1044900050452AD0214A7832904226D01F4A903285
:1044A000904222D01D4AA83290421ED01C4A90420F
:1044B0001BD01B4A1832904217D0194A3032904212
:1044C00013D0174A483290420FD0154A60329042BA
:1044D0000BD0134A7832904207D0114A9032904262
:1044E00003D00F4AA832904203D1006800F01000B8
:1044F00002E0006800F00200E8B3A96094F835001B
:10450000042812D02068016849033DD500680003E3
:1045100035D4616C79B305E030000024100002400E
:1045200010040240204688473FE02068016821F0DF
:10453000160101602068416921F080014161206C11
:1045400008B9A06C20B12068016821F00801016061
:1045500094F85C0000F01F013F208840A860012013
:1045600084F83500002084F83400216D002974D0CF
:1045700004B0204600E018E0BDE8F05F0847E16BBA
:1045800099B12046884710E00168C90509D401683F
:1045900021F010010160012084F83500002084F82A
:1045A0003400E16B09B120468847606D002854D083
:1045B000606DC00758D0042084F835002068B842E8
:1045C00031D058452FD040452DD048452BD05045AF
:1045D00029D0B749884226D0B5491831884222D01F
:1045E000B349303188421ED0B24988421BD0B1490C
:1045F0001831884217D0AF493031884213D0AD49C5
:10460000483188420FD0AB49603188420BD0A9496C
:104610007831884207D0A7499031884203D0A54914
:10462000A831884204D1016821F00101016003E052
:10463000016821F00101016021680198009A401C85
:104640000190904202D80868C007F6D10868C007F8
:1046500004D0032084F8350003E087E0012084F8CB
:104660003500002084F83400E16C00297ED004B0CD
:104670002046BDE8F05F08478F4EB0421BD08E4EFB
:104680001436B04217D08C4E2836B04213D08A4E22
:104690003C36B0420FD0884E5036B0420BD0864EDA
:1046A0006436B04207D0844E7836B04203D0824E92
:1046B0008C36B0425AD106684FF0040E94F85CB0C4
:1046C0000BF01F0B0EFA0BFE1EEA010FCDF80CE0EB
:1046D0005ED05FEA467E5BD503986860300411D5F2
:1046E000F00307D4A16C002940D004B02046BDE8F7
:1046F000F05F0847216C002938D004B02046BDE89F
:10470000F05F0847B0063BD42068B8422DD0684916
:104710006039884229D0404527D0484525D05045AA
:1047200023D06349884220D06149183188421CD087
:104730005F493031884218D05E49884215D0904296
:1047400013D05C49303188420FD098420DD059497E
:104750006031884209D057497831884205D0604598
:1047600003D05449A831884206D100E07CE00168BA
:1047700021F00801016003E0016821F004010160FB
:10478000216C002970D004B02046BDE8F05F0847D6
:104790004FF0020E0EFA0BFE1EEA010FCDF808E0F4
:1047A00063D05FEA867E60D502986860300411D5D8
:1047B000F00307D4616C002978D004B02046BDE82E
:1047C000F05F0847E16B002970D004B02046BDE8D7
:1047D000F05F0847B0063FD42068B8422DD0344976
:1047E0006039884229D0404527D0484525D05045DA
:1047F00023D02F49884220D02D49183188421CD01F
:104800002B493031884218D02A49884215D090422D
:1048100013D02849303188420FD098420DD0254915
:104820006031884209D023497831884205D06045FB
:1048300003D02049A831884204D1016821F0140135
:10484000016003E0016821F00A010160012084F8A1
:104850003500002084F83400E16B002926D004B034
:104860002046BDE8F05F084720E0082202FA0BF27C
:104870000A421BD0310719D5016821F00E010160F1
:1048800094F85C0000F01F01012000FA01F169605A
:10489000606584F83500002084F83400E16C00295C
:1048A00004D004B02046BDE8F05F0847BDE8FF9F94
:1048B0008800024010040240085402582DE9F05FBD
:1048C000044601F0BBF90646002C7DD0F24F0222CF
:1048D000DFF8C4830025DFF8C093DFF8BCA308F13C
:1048E0003008DFF8B4B309F1480920680AF1600A1A
:1048F0000BF1780BB84232D0E749183188422ED0FC
:1049000040452CD048452AD0504528D0584526D07F
:10491000E1499031884222D0DF49A83188421ED037
:10492000DE4988421BD0DD491831884217D0DB4967
:104930003031884213D0D949483188420FD0D74905
:10494000603188420BD0D5497831884207D0D349AD
:104950009031884203D0D149A83188427ED184F871
:10496000352084F83450B84234D0CB4918318842CD
:1049700030D040452ED048452CD050452AD05845FF
:1049800028D0C5499031884224D0C349A8318842F3
:1049900020D0C24988421DD0C0491831884219D060
:1049A000BE493031884215D0BC494831884211D0C7
:1049B000BA49603188420DD0B8497831884209D06F
:1049C000B6499031884200E009E003D0B349A831EC
:1049D000884207D1016821F00101016013E0012044
:1049E000BDE8F09F016821F0010101600BE001F0DA
:1049F00025F9801B052806D920206065032084F84E
:104A000035000120ECE720680068C007EFD122687C
:104A10001168A3480140D4E902031843D4E90436DD
:104A200033431843A3691843E3691843236A1843BF
:104A30000843616A042903D1D4E90B1319430843DD
:104A40006168A1F12903052B0DD9163B032B0AD967
:104A5000083B012B07D9083B032B00E02AE002D9D1
:104A60007439032901D840F480101060206840692F
:104A700020F00701606A40EA010604280DD1A06A0F
:104A80000643E06A48B12046FEF742F828B14020CC
:104A90006065012084F83500A2E720684661204661
:104AA000FDF748FF94F85C1001F01F023F21914090
:104AB000816066E07B4988421BD07A4B1433984270
:104AC00017D0784B2833984213D0764B3C3398421A
:104AD0000FD0744B503398420BD0724B64339842D2
:104AE00007D0704B7833984203D06E4B8C3398428A
:104AF0007ED1884211D06B49143188420DD069496A
:104B00002831884209D067493C31884205D065493F
:104B10005031884201D06349643184F8352084F8EB
:104B20003450026860490A40A16840297ED080293B
:104B30007DD00021E36841EAD301236941EAD30132
:104B4000636941EAD301A36941EAD301E36941EA18
:104B5000D301236A41EA13111143016051492068CE
:104B6000494208441421B0FBF1F08000E065204682
:104B7000FDF7E0FE94F85C1001F01F020121914066
:104B800041602068B84256D043491831884252D01B
:104B9000404550D048454ED050454CD058454AD05D
:104BA0003D499031884246D03B49A831884242D0A5
:104BB0003A4988423FD03949183188423BD0374979
:104BC0003031884237D035494831884233D0334973
:104BD000603188422FD03149783188422BD02F491B
:104BE0009031884227D02D49A831884223D000E057
:104BF0002DE02C4988421ED02A49143188421AD00F
:104C000028492831884216D026493C31884212D0A2
:104C10002449503188420ED02249643188420AD05A
:104C200020497831884206D01E4901E00AE00BE0B5
:104C30008C31884229D12046FDF7DCFEA06880280F
:104C40000CD00CE0102175E74FF4804172E7402052
:104C50006065032084F835000120C1E66560216E9F
:104C600020790860D4E9191048606068401E072860
:104C700008D82046FDF70EFFE06E0560D4E91C1051
:104C8000486002E0E566256765676565012084F890
:104C900035000020A4E6000010000240100402408D
:104CA0003F8010FE085402580F00FEFF2DE9F84F18
:104CB000044600200090002C15D094F83400012800
:104CC00013D0012084F8340094F835500020012DD1
:104CD0000DD04FF40061616584F83400012000902C
:104CE0000098BDE8F88F0120FBE70220F9E70225D4
:104CF00084F835506065A54DA44EA44F1835DFF8F3
:104D00008CC23036DFF884824837DFF88092DFF8D3
:104D10007CA208F16008DFF874B209F17809206814
:104D20000AF1900A0BF1A80B60453BD0A84239D09C
:104D3000B04237D0B84235D0404533D0484531D065
:104D400050452FD058452DD0DFF844C2604529D0BA
:104D5000DFF83CC20CF1180C604523D0DFF830C2FC
:104D60000CF1300C60451DD0DFF824C20CF1480C6A
:104D7000604517D0DFF818C20CF1600C604511D007
:104D8000DFF80CC20CF1780C60450BD0DFF800C2E4
:104D90000CF1900C604505D0DFF8F4C10CF1A80CC3
:104DA000604506D1D0F800C02CF0010CC0F800C05E
:104DB00005E0D0F800C02CF0010CC0F800C020467F
:104DC000FDF7E2FE7149206888422CD0A8422AD023
:104DD000B04228D0B84226D0404524D0484522D001
:104DE000504520D058451ED0694A90421BD0684A91
:104DF0001832904217D0664A3032904213D0644A3B
:104E0000483290420FD0624A603290420BD0604AE2
:104E10007832904207D05E4A9032904203D05C4A8A
:104E2000A83290420DD1026822F01E0242F0160212
:104E30000260206C90B12068026842F008020260B3
:104E40000CE0026822F00E0242F00A020260206CBE
:104E500020B12068026842F00402026020688842A3
:104E60004BD0A84249D0B04247D0B84245D0404587
:104E700043D0484541D050453FD058453DD0444AA5
:104E800090423AD0424A1832904236D0404A3032AC
:104E9000904232D03E4A483290422ED03C4A603254
:104EA00090422AD03A4A7832904226D0384A9032FC
:104EB000904222D0364AA83290421ED0354A9042C3
:104EC0001BD0344A1432904217D0324A28329042D2
:104ED00013D0304A3C3290420FD02E4A503290428A
:104EE0000BD02C4A6432904207D02A4A7832904242
:104EF00003D0284A8C3290420DD1206E0268D20332
:104F000003D5026842F480720260E06E18B1026854
:104F100042F480720260206888422CD0A8422AD0D5
:104F2000B04228D0B84226D0404524D0484522D0AF
:104F3000504520D058451ED0154988421BD01449F1
:104F40001831884217D012493031884213D01049A5
:104F5000483188420FD00E49603188420BD00C494D
:104F60007831884207D00A499031884203D00849F5
:104F7000A831884204D1016841F001010160AFE627
:104F8000016841F001010160AAE600001000024042
:104F9000100402400854025810B590F89830012BC4
:104FA00008D0022B06D050F89C1F41F0020101608E
:104FB000012010BD03689C6D0C4204D1DC6D44F0EF
:104FC0000104DC6505E09C6D31EA04041CD0032477
:104FD000DC658B0504D5036853F8E04F14431C606F
:104FE0004B0504D5036853F8E44F14431C60006874
:104FF000426D084B0B401A4342650748026842EA7B
:1050000091710160002010BDDC6D44F00204DC658C
:10501000DFE70000FFFFCF3F14A8004070B5044653
:1050200094F89800022806D054F89C0F40F008002D
:105030002060012070BD2068D0F8C03013F07C5F84
:105040000AD0D0F8C4309B020DD554F89C0F40F420
:1050500000702060012070BD54F89C0F40F02000CB
:105060002060012070BDD0F8C400C0F30445204684
:105070002B46FEF705F921680120A840C1F8D000B1
:10508000C4F89400002070BD704710B590F89820C7
:10509000012A08D0022A06D050F89C1F41F00201D4
:1050A0000160012010BDCA680B688BB1072A0B692B
:1050B00043EA42732BD00C7A4A6942EA8472496807
:1050C000006F00EBC100036042604FF0000010BDB4
:1050D000072A10D00C7A4FEAC2624B6943EA847304
:1050E0000C8A42EA044243EA02034968C06E00EBBC
:1050F00081000360E9E70B8A4FF060548A6942EA55
:105100000343CA6944EA022243EA0203EDE78A69DB
:10511000D5E730B5039C90F89850012D06D050F893
:105120009C1F41F004010160012030BD00680901AD
:1051300041EA820141EA43012143C0F88010002086
:1051400030BD704770470000F0B5002490F89850CB
:10515000022D06D050F89C1F41F00801016001208B
:10516000F0BD40290BD0412936D0056D8D4260D865
:1051700050F89C1F41F0200101600120F0BD05683E
:10518000D5F8A06016F4FE0F18D0D5F8A460760606
:105190001BD0D5F8A460F60105D5D5F8A06016F0AF
:1051A000004F00D50124D5F8A450C5F305252C44A3
:1051B000456C466F654306EB85063FE050F89C1F43
:1051C00041F0200101600120F0BD50F89C1F41F426
:1051D000807101600120F0BD0568D5F8B06016F45B
:1051E000FE0F18D0D5F8B46076061BD0D5F8B460A1
:1051F000F60105D5D5F8B06016F0004F00D50124B2
:10520000D5F8B450C5F305252C44C56C866F6543AD
:1052100006EB850612E050F89C1F41F0200101606A
:105220000120F0BD50F89C1F41F480710160012005
:10523000F0BD456DC66F4D4306EB8506356805F03C
:10524000804555602DB3356825F06045156035689B
:1052500005F000559560356805F000451561B58885
:10526000ADB2D5617568C5F30345D560756805F4C1
:1052700080155561756805F4001595617568C5F36D
:105280000665156275680836ED0F55620025174FE3
:1052900009E03568C5F38A451560D8E716F805C0FA
:1052A00003F805C06D1CD2F80CC017F80CC0AC4553
:1052B000F4D8402909D041290BD0012220290CD251
:1052C00000688A40C0F898200DE00068C0F8A84047
:1052D00009E00068C0F8B84005E0006801F01F016F
:1052E0008A40C0F89C200020F0BD0000C8360108AC
:1052F000704700002DE9FE4F0446B64F386880071E
:10530000391D096800EA817002902068016D01F47E
:105310007041D0F854A00AEA010A016D01F00F01B2
:10532000D0F854B00BEA010B016D01F0F001426DB1
:105330000A400192016D01F07151D0F8548008EAE1
:105340000108016D01F06071426D0A400092416DEB
:10535000056D4FF00009CE43F10509D4E943C905B5
:1053600006D4B9150165C7F800902046FFF7C0FFC5
:10537000700510D4E84340050DD42068D0F8DC2037
:10538000D0F8E41011404FF480620265C7F8009035
:10539000204600F03DFB029858B18F490298084022
:1053A000216808650298800F386002992046FFF74F
:1053B0006BFEBAF1000F0BD0216887480AEA0000A3
:1053C00008654FEA9A7038605146204600F022FB8B
:1053D000BBF1000F0BD021687F480BEA0000086585
:1053E0004FEA9B7038605946204600F0D3FA019886
:1053F00058B1794901980840216808650198800FE3
:1054000038600199204600F0DBFA30050BD4E84300
:10541000000508D421684FF400600865C7F80090C3
:10542000204600F0F8FAB00510D4E84380050DD40A
:105430002068D0F8D820D0F8E01011404FF4007266
:105440000265C7F80090204600F0E3FA30030BD461
:10545000E843000308D421684FF400200865C7F82A
:105460000090204600F094FAF0030BD4E843C00308
:1054700008D421684FF480300865C7F800902046B2
:1054800000F0C5FA70030BD4E843400308D4216848
:105490004FF480200865C7F80090204600F0B6FA67
:1054A000B0030ED4E84380030BD421684FF40030DE
:1054B0000865C7F80090D4F89C0040F08000C4F85C
:1054C0009C00009858B1444900980840216808653C
:1054D0000098800F386000992046FFF733FEB8F13E
:1054E000000F0DD021683C4808EA000008654FEA2B
:1054F00098703860D4F89C0040EA0800C4F89C001A
:105500003649206888425BD160688168890757D036
:10551000016A01F00F02416A1140026A02F0300292
:10552000476A1740026A02F4C072D0F8248008EA81
:105530000208026A02F4FC42456A1540026A02F45B
:10554000F022466A1640D0F82490D0F820A019B175
:105550000162204600F057FA2FB1606807623946B1
:10556000204600F052FA6FEA090040060ED46FEAB6
:105570000A0040060AD46068C16B090CC26B02F0D5
:105580003F0240230362204600F03EFAB8F1000FCC
:1055900006D06068C0F820804146204600F032FA0C
:1055A00035B160680562D4F89C002843C4F89C00BB
:1055B00036B160680662D4F89C003043C4F89C00A1
:1055C000D4F89C00002802D02046FFF7BAFDBDE8C1
:1055D000FE8F000010A80040FFFFCF3F00A000405A
:1055E0002DE9F04393B004464C2295496846FAF7FA
:1055F00041FF6CB1934F2068B84202D100F5807032
:1056000060604FF4407994F89800002620B108E0DB
:10561000012013B0BDE8F08384F89960204600F0C3
:1056200013F92068816921F01001816100F006FB07
:1056300005464FF003080DE000F000FB401B0A2870
:1056400008D954F89C0F40F00100206004F8048C45
:105650000120DEE7206880690007EDD420688169B9
:1056600041F00101816100F0E9FA05460DE000F02A
:10567000E5FA401B0A2808D954F89C0F40F00100B5
:10568000206004F8048C0120C3E720688069C0070B
:10569000EDD02068816941F002018161207C012800
:1056A00039D02068816941F040018161607C012826
:1056B00037D02068816921F480418161A07C012874
:1056C00035D02068816941F4805181612068816909
:1056D000A26821F44071114381612068816921F041
:1056E000A40181612068016921F010010161E06875
:1056F000012822D030B302282BD02068816941F0E4
:10570000800181612068016941F010010161E06858
:10571000032818D022E02068816921F040018161CE
:10572000C4E72068816941F480418161C6E720684F
:10573000816921F480518161C8E72068816941F065
:10574000040181610AE02068816941F020018161E2
:1057500004E02068816941F020018161207E401EC3
:105760004106E069401E41EA0020216A491E0843C3
:10577000A18A491E40EA01402168C861A0684845E5
:105780000FD1E16AA06A491E401E40EA0121206B48
:10579000401E41EA0011A08C401E41EA00402168F1
:1057A000C860206E28B1206850F8C01F626E114397
:1057B0000160D4E91701C842694609D0206850F851
:1057C000C82FA36E22F0070251F823301A4302605B
:1057D000206C48B1206850F8BC2F636C22F007029F
:1057E00051F823301A430260A06C50B1206850F881
:1057F000BC2FE36C22F0700251F8233042EA03120E
:105800000260206D50B1206850F8BC2F636D22F407
:10581000E06251F8231042EA012101602068B84299
:1058200004D16068816821F00301816044F8946FBD
:10583000A66001202071943C2046FDF749FCE8E673
:10584000D836010800A000402DE9F04186B004469A
:10585000142101A8FAF727FE474B002522680227EA
:10586000464C4FF0090CDFF80C8119680C3C434E94
:105870004348491C424527D11960012907D13168A5
:1058800041F480713160316801F4807100912168C8
:1058900041F008012160216801F008010091032115
:1058A0000191029703950495CDF814C001A900F069
:1058B000B3F800220521132000F064FA132000F051
:1058C00053FA06B0BDE8F081DFF8B880424526D132
:1058D0001960012907D1306840F480703060306869
:1058E00000F480700090206840F002002060206882
:1058F00000F002000090602001900297039504954B
:10590000CDF814C001A9204800F086F80022052136
:10591000142000F037FA142000F026FAD1E7DFF85F
:105920006CC06245CDD11960012907D1316841F4BD
:1059300080713160316801F480710091216841F01B
:1059400008012160216801F0080100914FF44051E5
:1059500001910297039504950521059101A900F095
:105960005BF8002205219F2000F00CFA9F2000F038
:10597000FBF9A6E700A000401C000024EC440258FC
:10598000000C025800A400400004025800D400405B
:105990007047000010B50446C8070BD00648844283
:1059A00001D10BF04DFB0548844203D1BDE8104006
:1059B0000BF0BABB10BD0000540E0024940F00245D
:1059C000C90604D50249884201D10BF077BB704764
:1059D000F40E002490F89810012906D050F89C1F6E
:1059E00041F00401016001207047022180F8981005
:1059F00001688A6922F001028A610021C0F89C10C6
:105A00000020704770477047704770477047704775
:105A100070477047704770472DE9F84F0022784D66
:105A200003264FF001080F274FF0B04CE1E008FAD1
:105A300002F31C409A46002C7ED00B7903F003033E
:105A4000012B01D0022B1BD1D0F80890530006FA8D
:105A500003FB29EA0B09D1F80CB00BFA03FB4BEA64
:105A6000090BC0F808B0436823EA0A0391F80490D0
:105A7000C9F3001909FA02F949EA0309C0F80490C8
:105A80000B79DB439B070ED0D0F80C90530006FA3D
:105A900003FA29EA0A09D1F808A00AFA03FA4AEA3D
:105AA000090AC0F80CA00B7903F00303022B14D1F0
:105AB000D30800EB8303D3F820A04FEA42794FEAE2
:105AC000D96907FA09FB2AEA0B0AD1F810B00BFAD8
:105AD00009FB4BEA0A0BC3F820B0D0F80090530042
