:020000040800F2
:10000000A0D5002061020008859A0008A9530008C5
:1000100089730008311600084DBE0008000000007A
:10002000000000000000000000000000A101000826
:100030000D1B000800000000FD01000829B50008A4
:100040007B0200087B0200087B0200087B0200089C
:100050007B0200087B020008771B00087B02000877
:100060007B0200087D1B0008831B00087B02000840
:100070007B0200087B0200087B0200087B0200086C
:100080007B0200087B0200087B0200087B0200085C
:100090007B020008351600087B020008891B000857
:1000A0007B0200087B0200087B0200087B0200083C
:1000B000F9B500087B0200087B0200087B020008FB
:1000C0007B0200087B0200087B0200087B0200081C
:1000D0007B020008F5BC00087B0200081DBD00087B
:1000E0007B0200087B0200087B02000805B60008BE
:1000F0007B0200087B0200087B0200083117000821
:100100007B0200087B0200087B0200087B020008DB
:100110007B0200087B0200087B0200087B020008CB
:100120007B02000889170008951700087B02000869
:100130007B0200087B0200087B0200087B020008AB
:10014000411600087B0200087B0200087B020008C1
:10015000511A00087B0200085D1A00087B020008A3
:100160007B0200087B0200087B0200087B0200087B
:100170007B0200087B0200087B02000800000000F0
:100180007B0200087B020008DFF810D000F0C0FFFF
:100190000048004725CF0008AFF30080A0D500201D
:1001A0002C4B19680868B0E8F04F80F30988BFF35A
:1001B0006F8F4FF0000080F311887047000000003F
:1001C00008480068006880F308884FF0000080F35A
:1001D000148862B661B6BFF34F8FBFF36F8F00DF35
:1001E00000BF00BF08ED00E0DFF80C00016841F43B
:1001F00070010160704700BF88ED00E0EFF30980F7
:10020000BFF36F8F134B1A681EF0100F08BF20ED5D
:10021000108A20E9F04F106009B44FF0500080F3CD
:100220001188BFF34F8FBFF36F8F0DF099FF4FF021
:10023000000080F3118809BC19680868B0E8F04F25
:100240001EF0100F08BFB0EC108A80F30988BFF3CE
:100250006F8F704730000020EFF30580704700007B
:100260000648804706480047FEE7FEE7FEE7FEE750
:10027000FEE7FEE7FEE7FEE7FEE7FEE7E9B500087A
:100280008901000870B405880E884468D1F804C05C
:100290005368B54208D140884988884201BF118817
:1002A0008D425188884203D070BC6FF002007047C5
:1002B00005FB00F1880827D094ED001ADCED000A58
:1002C00094ED010ADCED011A31EE201AD4ED020A98
:1002D00070EE211A9CED020A83ED001AC3ED011A9B
:1002E00094ED031ADCED031A30EE800A401E71EE25
:1002F000210A83ED020A04F11004C3ED030A03F19D
:1003000010030CF1100CD7D111F0030030D0B0F174
:10031000004F30D200282BDD211F1B1FACF104023F
:1003200010F0010F0AD091ED010AD2ED010A091D6A
:10033000121D30EE200A83ED010A1B1D400817D064
:1003400091ED010AD2ED010A401E30EE200A83ED44
:10035000010A91ED020AD2ED020A01F1080102F14F
:10036000080230EE200A83ED020A03F10803E7D108
:1003700070BC00207047B4EC010A401EFCEC010A7E
:1003800030EE200AA3EC010AF5D1F1E701804280AA
:10039000436070472DE9F34F84B0049840680090A3
:1003A000486801900498B0F800E04588DFEDFE0A47
:1003B00000200290B0EE600AAE4506D10888498858
:1003C000884204BF7146864504D06FF0020006B033
:1003D000BDE8F08F01985FEA010C18BFB7EE001A74
:1003E0003DD000BFBEEB0C0117D0B1F1004F80F043
:1003F0001F82002911DD021F11F0010F1CBFC2ED89
:10040000010A121D4B1006D0C2ED010AC2ED020A0C
:1004100008325B1EF8D100EB8100BCF10102A0ECB8
:10042000011A19D0B2F1004F80F00882002A13DDC2
:10043000031F12F0010F1CBFC3ED010A1B1D511059
:1004400008D000BFC3ED010AC3ED020A491E03F143
:100450000803F7D100EB8200BCF1010CC2D14FF0D0
:1004600000080395002D14BFB0EE602A002000F0B4
:10047000BF8100BF009908FB05F001EB800B0199DB
:10048000DBED002A01EB80000346F0EE421AC64580
:1004900052D9AEEB0802ABEB850112F0010F17D079
:1004A00001EB850191ED000AB5EEC00AF1EE10FAFC
:1004B00007DDB4EEE10AF1EE10FA09DDF0EE401AC4
:1004C00006E0B1EE400AF4EEC01AF1EE10FAF5D3F0
:1004D000521031D001EB850C9CED000AB5EEC00A3C
:1004E000F1EE10FA05DDB4EEE10AF1EE10FA09DDE5
:1004F00006E0B1EE400AF4EEC01AF1EE10FA01D2B5
:10050000F0EE401A01EBC50191ED000AB5EEC00A0C
:10051000F1EE10FA05DDB4EEE10AF1EE10FA09DDB4
:1005200006E0B1EE400AF4EEC01AF1EE10FA01D284
:10053000F0EE401A521ECDD1F5EEC01AF1EE10FACF
:1005400000F07381F5EEC02A0126F1EE10FA009951
:10055000D4BFB1EE620AB0EE620AB4EE610AF1EE07
:1005600010FA1CBFAEEB0802B2F1010C47D005FB3C
:1005700008F201EB820292ED001A00BFB0EE410AD0
:1005800005FB06F4B5EEC00A00EB8404F1EE10FAA8
:10059000CCBFF0EE400AF1EE400AF4EE610AF1EE53
:1005A00010FA28D1B5EB080C11D0BCF1004F7DD268
:1005B000BCF1000F0BDD00BF92ED000AD1ED000A87
:1005C000BCF1010CE2EC010AA1EC010AF4D1290012
:1005D0000ED0B1F1004F6AD2002909DD94ED000A76
:1005E000D0ED000A491EE4EC010AA0EC010AF5D1A5
:1005F000012002900BE0761CBCF1010CBED10298E8
:10060000012804D0F5EEC02AF1EE10FA7ED09BED61
:10061000000AB5EB08009A465946064622D0B0F1CA
:10062000004F74D200281DDD091F10F0010F06D005
:10063000F0EE400A80EEA01A81ED011A091D40106B
:1006400010D000BFD1ED010A401E80EE801A81ED6E
:10065000011A91ED021AC1EE000AC1ED020A01F180
:100660000801EFD1280026D0B0F1004F7ED200283B
:1006700021DDAAF1040110F0010F06D0D1ED010A2D
:1006800080EE801A81ED011A091D401013D000BFC1
:10069000D1ED010A401E80EE801A81ED011AD1EDE4
:1006A000020A80EE801A81ED021A01E0CBE0D6E06A
:1006B00001F10801ECD1DDE900124FF000095FEA19
:1006C0000E0773D0C14504BF01EB860102EB850222
:1006D00074D091ED000ADC465046330035D01C46FC
:1006E000B6F1004F7ED2002C2FDD0B1FABF1040CB6
:1006F00016F0010F0FD0F0EE400ADCED011AB0EE5B
:10070000601A00EEE11A83ED011A01E08DE0B1E01C
:100710001B1D0CF1040C741015D000BFD3ED010AA1
:100720009CED011A40EE410AC3ED010AD3ED020A25
:100730009CED021A0CF1080C40EE410AC3ED020ACE
:100740000833641EEAD101EB86012B0036D0B3F1E9
:10075000004F72D2002B31DDA2F1040CAAF104008B
:1007600013F0010F0CD0DCED010A00E08BE090EDFE
:10077000011A001D40EE410ACCED010A0CF1040CF7
:100780005C1019D0DCED010A90ED011A40EE410A2F
:10079000CCED010ADCED020A90ED021A083040EEC1
:1007A000410ACCED020A03E0000000000DE005E084
:1007B000641E0CF1080CE5D102EB830201EB880109
:1007C0007F1E09F101097FF47DAF009808F101084F
:1007D000001D00900398401E03907FF44BAE0299D9
:1007E000012900E058E004BF06B0BDE8F08F00BF6B
:1007F000B5EEC00AF1EE10FA7FF4E9AD04990EFBF4
:1008000005F3002B4A684FF000010BD902EB810C75
:100810009CED000AB5EEC00AF1EE10FA02D1491CB7
:100820008B42F3D88B427FF4D2AD6FF00400CEE55B
:10083000E0EC010A491EFBD1EFE538E0E0EC010AEB
:10084000521EFBD108E692ED000AD1ED000ABCF180
:10085000010CE2EC010AA1EC010AF4D1B7E694ED37
:10086000000AD0ED000A491EE4EC010AA0EC010ADE
:10087000F5D1BDE6D1ED000A401E80EE801AA1EC54
:10088000011AF7D1EEE6D3ED000A401E80EE801A81
:10089000A3EC011AF7D10EE7BCEC011AD1ED000A66
:1008A0005B1E40EE410AE1EC010AF5D14DE7B0ECE8
:1008B000011AD2ED000A5B1E40EE410AE2EC010A89
:1008C000F5D17BE72DE9F04F82B04668536801937C
:1008D000058847884B88002000900888874201BF20
:1008E000B2F800C06545528893421EBF6FF0020007
:1008F00002B0BDE8F08F9FED412A4FEA970EC7F393
:10090000400B00BFDDE9000202EB800A4A6898460E
:100910004FF00009B0EE420AB4465FEA0E0025D05F
:1009200092ED001ADCED001A02EB8302DCED010A05
:1009300001EE810A92ED001A02EB8302401ED2ED15
:10094000001A02EB830200EE810A9CED021ADCED34
:10095000030A00040CF1100C000C01EE210A92EDC8
:10096000001A02EB830200EE810AD9D117F00300CE
:1009700026D0ACF10404A2EB830210F0010F08D0E2
:1009800002EB8302D4ED010A92ED001A241D00EE61
:10099000810A5FEA0B0013D002EB830CD4ED010A4D
:1009A0009CED001A02EBC302401E00EE810AD4ED5A
:1009B000020A92ED001A04F1080400EE810AEBD15C
:1009C00009F10100AAEC010A1FFA80F9486800EB5E
:1009D0008902A8F101001FFA80F8B8F1000F99D13F
:1009E000009806EB8706184480B20090681E050444
:1009F0002D0C87D102B00020BDE8F08F0000000070
:100A000070B405880E884468D1F804C05368B542B4
:100A100008D140884988884201BF11888D42518899
:100A2000884203D070BC6FF00200704705FB00F1F4
:100A3000880827D094ED001ADCED000A94ED010A35
:100A4000DCED011A31EE601AD4ED020A70EE611A83
:100A50009CED020A83ED001AC3ED011A94ED031A0E
:100A6000DCED031A30EEC00A401E71EE610A83ED20
:100A7000020A04F11004C3ED030A03F110030CF1A0
:100A8000100CD7D111F0030030D0B0F1004F30D2AC
:100A900000282BDD211F1B1FACF1040210F0010FF9
:100AA0000AD091ED010AD2ED010A091D121D30EEA6
:100AB000600A83ED010A1B1D400817D091ED010A61
:100AC000D2ED010A401E30EE600A83ED010A91ED7D
:100AD000020AD2ED020A01F1080102F1080230EE29
:100AE000600A83ED020A03F10803E7D170BC00201D
:100AF0007047B4EC010A401EFCEC010A30EE600ABB
:100B0000A3EC010AF5D1F1E72DE9F04F028847681F
:100B1000B0F802804888D1F8049082B04FF0000A03
:100B20001646824207BF098888456FF0020002B06E
:100B300018BFBDE8F08F4FEA980B02EB420001901E
:100B4000C8F34000CDF8000009EB8A01BBF1000FAB
:100B500033D0019801EB820C01EB80043B46E64662
:100B600001EBC2054FEA0B0093ED000A401E81ED38
:100B7000000A93ED010A01EB02118CED000A93EDDE
:100B8000020A0CEB021C85ED000A93ED030A05EB4B
:100B9000021584ED000A04EB021403F11003E3D103
:100BA0000EEB820000EB820000EB8201ABF1010052
:100BB000504307EB0B1701EB001118F0030C21D089
:100BC0003B1FA1EB82011CF0010F06D093ED010A3F
:100BD00001EB82011B1D81ED000A009880B100BF6E
:100BE00093ED010A01EB820401EBC20184ED000ADE
:100BF00093ED020A401E81ED000A03F10803EFD1D4
:100C000007EB8C070AF101001FFA80FA701E060438
:100C1000360C99D102B00020BDE8F08F2DE9F05FCD
:100C20000546002092469B4688460646814640245B
:100C30001BE0284641464746224600F0B3F953469A
:100C40005A46C01A914110D311461846224600F068
:100C50009AF92D1A67EB01084F4622460120002120
:100C600000F091F917EB00094E41201EA4F1010498
:100C7000DFDC484631462A464346BDE8F09F40EA5D
:100C800001039B0703D009E008C9121F08C0042A0A
:100C9000FAD203E011F8013B00F8013B521EF9D2F1
:100CA0007047D2B201E000F8012B491EFBD2704719
:100CB0000022F6E710B513460A4604461946FFF728
:100CC000F0FF204610BD421C10F8011B0029FBD18B
:100CD000801A70472DE9FE4F804681EA0300C00F5D
:100CE0000C46009021F0004123F00045B8EB0200D3
:100CF000A94105D24046214690461C460B46024675
:100D000023F00040104347D0270DC7F30A00C3F378
:100D10000A510290401A019040286BDAC3F3130085
:100D200040F4801B0098924620B10023D2EB030AC6
:100D300063EB0B0B01985946C0F14002504600F09E
:100D400022F906460D4650465946019A00F03AF9F6
:100D500010EB08006141002487EA115284EAE7732E
:100D60001A4340D0009A62B3019A012A4FEA07520F
:100D700015DC001B61EB02014FF0004202EA075252
:100D8000CDE90042001C41F5801132462B4600F0AF
:100D900071F903B0BDE8F08F40462146F9E7001B2A
:100DA00061EB0201001C41F5801300185B41201823
:100DB000A2F5001747EB030140EAD570B6196D4163
:100DC00011E06D084FEA360645EAC0754FEA075252
:100DD000001B61EB0201001C41F5801149084FEA3C
:100DE00030000019514132462B4603B0BDE8F04FA8
:100DF00000F031B90098012240000023D0EB02023C
:100E000063EBE073009821464FEAE074B8EB000012
:100E100061EB0401E9E783F000435BE781F0004107
:100E200058E72DE9FE4F81EA030404F0004421F065
:100E3000004100944FF0000B23F0004350EA0104FE
:100E40005ED052EA03045BD0C3F30A54C1F30A55DF
:100E50002C44A4F2F3340194A0FB0254C1F3130117
:100E600041F48011C3F3130343F4801301FB0244E4
:100E700000FB034E840A970A44EA815447EA8357E9
:100E8000A4FB076802958D0A05FB07854FEA932CA2
:100E900004FB0C542705029D4FEA065847EA163713
:100EA000B5EB08056EEB070C870E920E47EA81172B
:100EB00042EA8312A7FB0201B6EB0B0164EB0004CC
:100EC0002B0D43EA0C335E1844EB1C50DA465146B6
:100ED000E7FB0201C5F313044FEA0B3343EA145353
:100EE0004FEA0432019C43EA0603A4F10C04029485
:100EF000009CCDE900B400F0BDF803B0BDE8F08F70
:100F000000200146F9E70EB5C10F80EAE070084401
:100F1000CA07002140F233438DE80E000A460B4613
:100F200000F0A8F803B000BD00F0004230F000402F
:100F30000AD0C10D01F56071C0F3160042EA0151FB
:100F4000C20840071143704700200146704701F076
:100F5000004330B421F0004150EA010206D00A0DEE
:100F6000A2F56072C1F31301002A02DC30BC00203C
:100F70007047440F44EAC104C100E01830BC00EBE4
:100F8000C25000F031B8202A04DB203A00FA02F106
:100F9000002070479140C2F1200320FA03F3194367
:100FA00090407047202A04DB203A21FA02F0002109
:100FB000704721FA02F3D040C2F120029140084369
:100FC00019467047202A06DBCB17203A41FA02F077
:100FD00043EAE07306E041FA02F3D040C2F1200296
:100FE00091400843194670470029A8BF7047401C2C
:100FF000490008BF20F00100704710B4B0FA80FC2F
:1010000000FA0CF050EA010404BF10BC704749B16B
:10101000CCF1200421FA04F411FA0CF118BF0121DB
:1010200021430843A3EB0C01CB1D4FEA00614FEABB
:10103000102042BF002010BC704700EBC35010448A
:101040000029A4BF10BC7047401C490008BF20F015
:10105000010010BC704710B5141E73F1000408DACB
:10106000401C41F1000192185B411A4301D120F06C
:10107000010010BD2DE9F04D92469B4611B1B1FA29
:1010800081F202E0B0FA80F220329046FFF77BFF57
:1010900004460F4640EA0A0041EA0B0153465A460D
:1010A000084313D0114653EA010019D0C8F1400299
:1010B0005046FFF777FF05460E46504659464246D2
:1010C000FFF761FF084305D0012004E020463946C0
:1010D000BDE8F08D0020054346EAE0762C43374317
:1010E0000A986305E40AA0EB08000022FD0A44EA1E
:1010F00047540A3002D500200146E9E701051019DE
:101100006941DDE9084500196941BDE8F04DA2E7F4
:10111000064C074D06E0E06840F0010394E8070044
:1011200098471034AC42F6D3FFF732F8F4ED0008DC
:1011300014EE000870B58C1810F8015B15F0070369
:1011400001D110F8013B2A1106D110F8012B03E060
:1011500010F8016B01F8016B5B1EF9D12B0705D468
:101160000023521E0DD401F8013BFAE710F8013BB1
:10117000CB1A921C03E013F8015B01F8015B521ECD
:10118000F9D5A142D8D3002070BD0000464910B562
:101190004A6822F440324A604A6843681A434A6007
:1011A00001684A6822F480724A6001684A680369EB
:1011B00042EA03224A6001684A6822F040724A60AB
:1011C00001684A6883681A434A6001688A6822F4A1
:1011D00000628A6001688A68C3681A438A60816A0B
:1011E0006FF07062D14201688A6822F070628A6092
:1011F00001688A680CD0836A1A438A6001688A6829
:1012000022F040528A6001688A68C36A1A4301E08A
:1012100022F040528A6001688A6822F002028A60E5
:1012200001688A68037E42EA43028A6090F82010CF
:10123000002901684A680FD042F400624A600168E0
:101240004A6822F460424A6001684A68174C436A5F
:1012500004EB43331A4301E022F400624A60016860
:10126000CA6A22F47002CA620168CA6A838B104C8F
:1012700004EB03531A43CA6201688A6822F40072BD
:101280008A6001688A6890F8303042EA43228A60B6
:1012900001688A6822F480628A6001688A6840690D
:1012A00042EA8020886010BD0023014000E0FFFF7B
:1012B0000000F0FF05480068C16841F01001C160FE
:1012C00080220349014803F0A1BF00002C14002034
:1012D0001C83002001221021014801F0B1BF000051
:1012E0000000024000221021014801F0A9BF0000C7
:1012F000000002407047000001221146014801F041
:101300009FBF00000004024000220121014801F0BB
:1013100097BF00000004024030B5437804781B02F8
:101320001BB2234300EE103A1B4CB8EEC00AD4EDBA
:10133000000A20EE200A81ED000AC37885781B029E
:101340001BB22B4300EE103AF8EEC00A94ED000AEF
:1013500060EE800AC1ED010A437904791B021BB2D9
:10136000234300EE903AF8EEE00A20EE800ADFED2B
:101370000B0A81ED020A017AC3790904807941EAF6
:101380000321014300EE101AB8EE400A20EE200AB5
:1013900082ED000A30BD0000B800002000401C4271
:1013A00070470BF07BBE0BF02DBB000010B54278F0
:1013B0000378120212B21A4300EE102A124BB8EE52
:1013C000C00AD3ED010A20EE200A81ED000AC2789E
:1013D0008478120212B2224300EE102AF8EEC00AFC
:1013E00093ED010A60EE800AC1ED010A42790079AD
:1013F000120212B2024300EE902AF8EEE00A20EE4A
:10140000800A81ED020A10BDB800002010B5FFF778
:1014100071FFFFF7C5FF0BF035F808B1802402E03B
:101420000AF09CFF04460BF0F9F910B144F04000BB
:1014300010BD0BF085F9204310BD00002DE9FC41E3
:101440000546002016460C4600900190FFF74AFF23
:10145000922000F0BDF806226946122000F09AF8AA
:10146000FFF738FF9DF801009DF80010000200B260
:10147000084300EE100A464FB8EEC00AD7ED000A46
:1014800020EE200A84ED000A9DF803009DF802106A
:10149000000200B2084300EE100AF8EEC00A97ED11
:1014A000000A60EE800AC4ED010A9DF805009DF86F
:1014B0000410000200B2084300EE900AF8EEE00AC1
:1014C00020EE800A84ED020AFFF71EFF082269461B
:1014D000002000F05FF8FFF70FFF9DF800000F28D5
:1014E00030D19DF803009DF80210000200B20843BD
:1014F00000EE100AD7ED010AB8EEC00A20EE200A6D
:1015000085ED000A9DF805009DF80410000200B268
:10151000084300EE100AF8EEC00A97ED010A60EEEB
:10152000800AC5ED010A9DF807009DF8061000022B
:1015300000B2084300EE900AF8EEE00A20EE800ABE
:1015400085ED020AFFF7CEFEA22000F041F802224C
:101550006946222000F01EF8FFF7BCFE9DF800004F
:101560009DF80110C00040EA5110B0F5806F01DB1A
:10157000A0F5006000EE100AB4EE001AF8EEC00A02
:10158000B3EE070A00EE810A86ED000ABDE8FC8191
:10159000B800002070B514460D4640F0800000F001
:1015A00017F806E0552000F013F8641E05F8010B4B
:1015B000E4B2002CF6D170BD10B50C4640F08000AE
:1015C00000F006F8552000F003F8207010BD000070
:1015D00001B582B04FF47A700090012301AA02A9EC
:1015E000024802F0C5FE9DF804000EBD6411002003
:1015F00002784078D20042EA5010B0F5806F01DBEB
:10160000A0F5006000EE100AB4EE001AF8EEC00A71
:10161000B3EE070A00EE810A81ED000A704710B5AB
:101620000C46FFF7D5FF2046BDE81040FFF7D0BFBE
:10163000FEE70000014801F09CB80000980F002070
:10164000014801F096B80000C00F002038B50546EB
:101650001424286801F077F8032802D2641EE4B24B
:10166000F7D26B4605F11C02291D286800F002FF25
:1016700038BD0000012814D0022814D10A4B002BD9
:1016800011D00A48E0E80131110A017642760021C2
:101690008176C176017741778177C1770348FFF77B
:1016A000D5BF034BEBE77047C00F0020FC000020C4
:1016B000980F00200848DFED090A40F2666190EDBE
:1016C000090A20EE200ABDEEC00A10EE100A02B28E
:1016D0000120FFF7CFBF00008479002000007A448A
:1016E000F0B40128DDE9046517D0022817D10D4CAC
:1016F000002C14D00C48E0E80141110A0176427632
:10170000190A8176C376310A01774677290A8177EB
:10171000C577F0BC0448FFF799BF044CE8E7F0BC7C
:1017200070470000C00F0020FC000020980F002030
:10173000124A10B5506800011ED5114B114C4FF0E4
:101740000061586B0068A04202D90E484C3805E091
:101750000A4CB834A04203D90A485038016006E068
:10176000064C5834A04201D9D16000E0916018685D
:10177000016841F40071016010BD0000006002408A
:101780003C10002058640240014801F0B7BA000044
:10179000241600202DE9F05FA548A64AA54DC06C8F
:1017A000A54EA44F0068DFF890C2DFF88882DFF80A
:1017B0008892DFF880A2DFF880B2DFF878E29E4CF2
:1017C000483D60361837D1140CF1180CA8F13008D8
:1017D00009F178090AF1300A0BF1300BAEF1180E5D
:1017E00090421ED9934A543A21E0B8422ED1202289
:1017F00008E0504531D10A4604E04FF4001201E000
:101800004FF00062134276D08A4A90424ED9A042ED
:1018100005D0A84203D0B04201D0B8422AD120213D
:1018200041E0854AA832904203D9824A583A136867
:1018300005E0814A48329042804AF8D95368A04274
:10184000D5D0A842D3D0B042D1D0CEE76045D2D0D7
:101850004045D0D04845CED0CBE75845CDD0704597
:10186000CBD0754A90329042C7D0724A48329042EB
:10187000C6D1C2E7604516D0404514D0484512D0C5
:10188000504510D0584509D0704507D06A4990316D
:10189000884203D067494831884202D14FF4001191
:1018A00001E04FF0006163484C3829E0624AA832F9
:1018B000904227D9A04205D0A84203D0B04201D01F
:1018C000B84201D1202119E0604517D0404515D01C
:1018D000484513D0504511D0584509D0704507D020
:1018E00055499031884203D052494831884203D14A
:1018F0004FF4001102E098E04FF000614D4850387D
:1019000001604EE04C4A4832904225D9A04205D0B1
:10191000A84203D0B04201D0B84201D1202118E042
:10192000604516D0404514D0484512D0504510D0DF
:10193000584509D0704507D03F499031884203D0BF
:101940003C494831884202D14FF4001101E04FF088
:1019500000613A48C16024E0A04205D0A84203D00B
:10196000B04201D0B84201D1202118E0604516D024
:10197000404514D0484512D0504510D0584509D0A4
:10198000704507D02C499031884203D0294948310D
:10199000884202D14FF4001101E04FF00061274866
:1019A0008160274C207880070CD5207820F0020039
:1019B0002070207840F00400207001221146214858
:1019C00001F03EFC6078204D80070CD5607820F057
:1019D00002006070607840F0040060700122102105
:1019E000284601F02DFCA07880070CD5A07820F0C7
:1019F0000200A070A07840F00400A0700122102125
:101A0000284601F01DFC0BF0DBF8207840070CD5D0
:101A1000207820F004002070207840F0080020702A
:101A20000A48016841F001010160BDE8F09F000033
:101A300064110020586402401060024000600240BF
:101A4000000500200004024000000240103C01405C
:101A5000014801F053B9000064150020014801F06D
:101A60004DB900000415002001681823CAB2103ACD
:101A7000B2FBF3F2054B6FF30901032A9B5CC365CC
:101A800000D9091D8165084670470000ECEC00088C
:101A900010B5014600208B698A6A4FF0C07453B1BB
:101AA000B3F5005F15D072B1012A0CD0022A0AD01A
:101AB000032A09D104E01AB1012A06D0022A03D16F
:101AC000C96AC90100D5012010BDC96AA142FAD076
:101AD00010BD002AF7D0012AF2D0022AF3D0032A3F
:101AE000F3D010BD30B50468256825F48025256045
:101AF000046863608368402B036803D099600068C2
:101B0000C26030BD9A600068C16030BD704700009F
:101B10000B68A3F201230A2B11D80949DBB20B7021
:101B20000849884201D1084804E00849884206D1A2
:101B30000548B03000EB0310114600F009B87047BB
:101B4000F0000020980F0020F47C0020C00F00203F
:101B500010B5044600882081088840BA2080488853
:101B600040BA6080888840BAA0808879A07101F06E
:101B70006DFBE06010BD012001F06EBA082001F09D
:101B80006BBA102001F068BA202001F065BA72B675
:101B9000FEE7000070B50446B1F90200DFED1B0A54
:101BA00000EE100A9FED1B1A0D46B8EEC00A20EE9B
:101BB000200A84ED050A0888400000EE100AF8EEBD
:101BC000400A9FED130A60EE800A10EE810A84ED50
:101BD000070AA87900EE100AB8EE400A84ED080A58
:101BE000B5F9040000EE100AB8EEC00A84ED090A47
:101BF0002888608501F02AFBE968401A0A2801D983
:101C0000012000E00020207370BD00005077D63D19
:101C1000DB0F4940000000390C2903D2012803D012
:101C2000022804D0044870470348103801E00248F5
:101C3000A03000EB01107047047D0020024901EB49
:101C4000800090ED000A7047D4810020024901EB2A
:101C5000800090ED030A7047D481002010B5024641
:101C6000407878B101280DD002280ED11078C01C20
:101C7000C1B29078FFF7D0FF0146BDE81040104692
:101C8000FFF788BF1078401EF2E710BD2DE9F04144
:101C9000BE4C2DED048B20799FEDBD0A88B1214605
:101CA00004F5047505F19006D1ED329A91ED2F9A65
:101CB000D835032808D001F54C78012861D00228D6
:101CC0007ED084ED200A56E084ED260AB0EE491A53
:101CD000F0EE690A0AF0BBFE84ED260ADFEDAD0ADC
:101CE000C4ED270A94F9580094ED291A00EE900AE1
:101CF0003046F8EEE00A20EE811AF0EE400AB0EE2F
:101D0000410A07F0C1FE84ED230A94F9580094EDCE
:101D10002C1A00EE900A2846F8EEE00A20EE811A0E
:101D2000F0EE400AB0EE410A07F0AEFE84ED200A64
:101D3000D4ED090A94ED270A0AF00CFBF0EE400AF4
:101D400094ED2A0A944870EE200A07F09DFE84ED77
:101D5000110A94ED2D1A9048F0EE400AB0EE410AB7
:101D6000483007F091FE94F9100000EE900AF8EE6A
:101D7000E00A20EE200A84ED0E0ABDEC048BBDE8DB
:101D8000F081864FB7F90200FFF7BDF89FED841B85
:101D900053EC112BFFF745F841EC180BD4F89800E1
:101DA0003C34FFF7C1F853EC182BFFF734F8FFF77A
:101DB000CEF800EE100AB0EE491A84ED170A00E0E2
:101DC00078E0F0EE690A0AF042FE84ED170A54F852
:101DD0003C0CB0F90400FFF796F89FED731B53EC31
:101DE000112BFFF71EF841EC180B206EFFF79CF843
:101DF00053EC182BFFF70FF8FFF7A9F82066B7F997
:101E00000000FFF780F89FED6A1B53EC112BFFF7E2
:101E100008F8FFF79CF800EE100A674804F050FD40
:101E2000654F97ED010A9FED651ADFED650A0AF02F
:101E30000EFE87ED010AD4ED180A30EEC00A84EDDB
:101E4000180AD4ED1B0A0AF085FAF0EE400A94ED68
:101E50001B0A47465B4870EE200AC8ED060AD4ED1F
:101E60001E0A07F059FF97ED0E0A04ED010A94F9D6
:101E70001C00D4ED1A0A00EE100A3046B8EEC00A73
:101E800020EE200AD4ED170A07F0FEFD84ED140AB7
:101E900094F91C00F0EE400A00EE100A94ED1D1AB1
:101EA0002846B8EEC00A20EE010A07F0EDFD84EDE9
:101EB000110A62E7444991F8800040B191ED240A8B
:101EC000B1EE400A84ED260A91ED210A08E091F86E
:101ED00081203AB194ED290A84ED260A94ED2A0A6C
:101EE00084ED270A81F8810094ED260AB0EE491AA4
:101EF000F0EE690A3C340AF0AAFD84ED170A94ED6D
:101F0000180AB0EE081AF8EE080A0AF0A0FD84EDEF
:101F1000180A94F91C00D4ED1A0A00EE100A304693
:101F2000B8EEC00A20EE200AD4ED170A07F0ACFD87
:101F300084ED140A94F91C0094ED1D1A00EE900A29
:101F40002846F8EEE00A20EE811AF0EE400AB0EEE4
:101F5000410A07F099FD84ED110AD4ED1B0A94EDB6
:101F6000180A0AF0F7F9F0EE400A94ED1B0A45460C
:101F7000144870EE200AC8ED060AD4ED1E0A07F0D8
:101F8000CBFE95ED0E0A04ED010AF6E684790020F9
:101F900000000000DBF30040947B0020547E002012
:101FA000F168E388B5F8F43E691D554D1075FF3EA4
:101FB000691D554D10750F3FE80000200AD7233DDD
:101FC0000AD723BDB47C00208082002070B52DED9F
:101FD000028B82B00AF0DAFD3B4C9FED3C0AF0EE3A
:101FE000080A206084ED260A84ED270A84ED290A78
:101FF00084ED2A0A84ED2C0A84ED2D0A9FED340A23
:10200000354A84ED2F0A9FED330A002184ED320A10
:10201000B2EE0E0A04F5047007F0CAFD9FED308A97
:102020002D4ADFED2E0AB0EE480A0C32002104F5ED
:10203000167007F0BDFD284AF1EE040AB3EE040A5B
:102040001832002104F5287007F0B2FD224ADFEDB6
:10205000250AB0EE480A2432002104F53A7007F050
:10206000A7FD9FED210A214804F03EFCF0EE482A2E
:102070009FED1F2ADFED1F1A9FED1F1AF2EE040AD3
:102080009FED1E0A04F54C7007F028FE012600257E
:10209000CDE90065B7EE000A02233246314604F16D
:1020A000080005F073F90223CDE90065B7EE000AD8
:1020B0001A46194604F1500005F068F9257165715A
:1020C00002B0BDEC028B70BD8479002000000000DE
:1020D0009A99993E9A9999BE2CED000800409C452A
:1020E0000000804600C0DA456666663FE8000020D2
:1020F000CDCC4C3F0020CB4517B7D1380000A042D3
:1021000010B51448FFF7AAFD12484830FFF7A6FDA6
:102110000020FFF793FD0F4C0220083C84ED290AB4
:1021200004F5C874FFF78AFD04ED3A0A0020FFF7B2
:102130008DFD04ED380A0220FFF788FD04ED370A13
:102140000CF0CAFBA16F401AE0670CF0C5FBA0675A
:1021500010BD00008C7900200F4A13461179587980
:1021600093ED2A0A012906D0D3ED290A022907D0C6
:10217000032908D00DE001280BD0DFED080A04E0A8
:10218000022802D105E0032803D0C2ED260A82ED21
:10219000270A517170470000847900200000000078
:1021A0007CB50024114D0094019495ED0E0A4FF476
:1021B000FF762346BDEEC00A314610EE100A02B289
:1021C0000120FFF78DFA0094019495ED200A00227A
:1021D0003146BDEEC00A10EE100A03B20220FFF72E
:1021E0007FFABDE87C40FFF765BA000084790020E3
:1021F0000F4A00231068C17A022906D0012907D0AE
:1022000003290FD0012906D000E0807A13717047AE
:10221000817A022904D0807A0128F7D1022005E0D2
:10222000012003E0807A0228F0D10320107170476A
:102230008479002078B50024009490F83C20012A8D
:1022400019D0012280F83C200A6807250368092A72
:1022500013D9DE680A3A02EB42029540AE43DE60D3
:102260000A788B680A3A02EB420293400268D5680A
:102270002B43D36010E0022078BD1E6902EB4202BE
:102280009540AE431E610A788B6802EB4202934090
:10229000026815692B4313614A681F25072A13D268
:1022A00003685E6B521E02EB82029540AE435E6392
:1022B0000A8893B20A79521E02EB820293400268A6
:1022C000556B2B43536327E003680D2A12D21E6B14
:1022D000D21F02EB82029540AE431E630A8893B27E
:1022E0000A79D21F02EB820293400268156B2B43DE
:1022F000136311E0DE6A0D3A02EB82029540AE43B1
:10230000DE620A8893B20A790D3A02EB82029340A8
:102310000268D56A2B43D362164B0568144A9D4266
:1023200006D10D68122D03D1556845F4800555601E
:1023300005689D4218D10B68102B01D0112B13D1C9
:10234000536843F400035360096810290CD10A490B
:102350000A4A0968B1FBF2F101EB8101490000E092
:10236000491E00910029FBD180F83C40002078BD37
:1023700000230140002001402C00002040420F00BB
:1023800070B504004FF0000603D0206C002510B19A
:1023900007E0012070BD204600F01CF8656484F859
:1023A0003C50206CC00610D4206C20F4885040F0C3
:1023B000020020642046FEF7E9FE6564206C20F0F0
:1023C000020040F00100206400E0012684F83C5047
:1023D000304670BD10B586B0044614216846FEF73D
:1023E00067FC174B206800221649984209D10868FB
:1023F00040F480700860086800F48070059006B0B2
:1024000010BD114B9842FAD1086840F48060086012
:10241000086800F4806005900A481438016841F0AB
:10242000200101600068694600F020000590181541
:1024300000900320CDE90102044800F019FEDEE718
:1024400000200140443802400022014000140240B4
:1024500090F82020012A07D0022A05D0416A41F4D1
:102460008021416201207047006842690A4342614D
:1024700000207047F0B590F820500468A468012D42
:1024800005D0022D03D0416A41F4802157E014F0B9
:10249000406F01D1E5004FD5C4F301640125A5408B
:1024A0001D608B684FF4C0759BB1CE6833434E6896
:1024B00043EAC603066805EB0417F3514FF4C273F1
:1024C000076803EB04130E69FE50097D012905D04E
:1024D00009E00E88CB6843EA4653EBE70168CE5823
:1024E00046F48076CE501179D379567941EA03616A
:1024F00093791B0443EA062319434FF4C676036815
:1025000006EB041699511178D37841EA0361937868
:1025100052781B0443EA022211434FF4C473026849
:1025200003EB0413D150006805EB0411425842F04C
:10253000010242500020F0BD416A41F400114162A5
:102540000120F0BD10B590F82020012A07D0022A02
:1025500005D0416A41F480214162012010BD3B4811
:10256000D0F8002242F00102C0F80022D0F8002288
:1025700022F47C52C0F80022D0F800224B6A42EAD2
:102580000322C0F800220A7D02F01F0301229A40B4
:10259000D0F81C329343C0F81C32CB69B3B9D0F8E1
:1025A0000C329343C0F80C328C894B6864F31F43A0
:1025B0004C6900EBC404C4F840320C890B6864F326
:1025C0001F434C6900EBC404C4F84432CB69012BAF
:1025D00016D1D0F80C321343C0F80C320C884B687B
:1025E00064F31F434C6900EBC404C4F840320C8907
:1025F000CB6864F31F434C6900EBC404C4F8443255
:102600008B69002BD0F804320ED01343C0F804328B
:102610000B69002BD0F8143208D01343C0F81432E1
:10262000096A012904D008E09343EFE79343F5E7F3
:10263000D0F81C121143C0F81C12D0F8001221F07F
:102640000101C0F80012002010BD0000006400402D
:10265000704770B590F82040012C05D0022C03D0B3
:10266000416A41F4802128E0046809B32469A40781
:1026700020D04FF4D874056804EB01142D5915F0DF
:102680000405956005682D591AD0ED085560056858
:102690002C5904F00204D4604FF4DA74056804EB9A
:1026A00001142E5906F00F06082E0CD308250DE054
:1026B000E468DCE7416A41F400114162012070BD29
:1026C0006D0D1560E3E72D5905F00F0515610568DF
:1026D0002D59C5F30725956105682C59240C5461C3
:1026E0004FF4DC72046802EB0112A4581C700468F9
:1026F000A458240A5C700468A458240C9C700468D4
:10270000A258120EDA704FF4DE72046802EB011266
:10271000A4581C710468A458240A5C710468A45865
:10272000240C9C710468A258120EDA71006829B159
:10273000016941F020010161002070BDC16841F0D4
:102740002001C160F8E70246002092F8201001291C
:1027500001D002290CD111688A68520100D50120EC
:102760008A68120100D5401C8968C90000D5401C48
:1027700070472DE9F05F0546006800244669D0F8EF
:1027800004908768D0F80CB0D0F810A0D0F818806A
:10279000F10748D0F90714D001218160B80703D5AB
:1027A000284600F04AFA0CE0780702D54FF400649E
:1027B00007E0380702D54FF4805402E0284600F0C5
:1027C0003BFAF80516D529684FF480708860B80583
:1027D00003D5284600F033FA0CE0780502D544F41E
:1027E000005407E0380502D544F4804402E028464E
:1027F00000F024FAF80316D529684FF48030886079
:10280000B80303D5284600F01CFA0CE0780302D583
:1028100044F4004407E0380302D544F4803402E075
:10282000284600F00DFA300707D55FEACB6004D5E3
:102830002968102044F40074C86070074FF008073E
:1028400007D55FEA0B7004D52868C760284600F0FA
:1028500097F9B00706D52868C068800702D02846D7
:1028600000F08FF9700607D55FEACA6004D52968C1
:10287000102044F480640861B00607D55FEA0A704E
:1028800004D528680761284600F08DF9F00606D5C2
:1028900028680069800702D0284600F085F9B00357
:1028A00008D55FEAC96005D5296810204860284628
:1028B00000F096F9F00307D55FEA097004D528689F
:1028C0004760284600F0BEF9300446D55FEA4970FB
:1028D00040D5F00504D55FEAC87001D044F001048A
:1028E000B00504D55FEA887001D544F00204700594
:1028F00004D55FEA487001D544F00404300529D5B9
:1029000018F0700F26D008F07000402815D006DCB3
:10291000102809D020280AD0302816D10AE05028E3
:102920000ED0602811D10EE044F008040DE044F010
:1029300010040AE044F0200407E044F0400404E0FE
:1029400044F0800401E044F480742868816921F037
:1029500070018161296804204860002C05D0686AF4
:10296000204368622846FFF773FEBDE8F09F70B50C
:10297000040003D094F8200010B104E0012070BDE1
:10298000204600F081F82068016841F001010160F3
:1029900000F05CFC0546052604E000F057FC401BF7
:1029A0000A2811D820684068C007F6D0206801685E
:1029B00021F00201016000F049FC05460BE000F047
:1029C00045FC401B0A2806D9606A40F4003060626A
:1029D00084F82060D2E7206840688007EFD4207E2A
:1029E0000128206801683DD021F080010160607EEF
:1029F00001282068016838D021F040010160A07EE4
:102A000001282068016833D021F020010160E07EB8
:102A10000128206801682ED041F010010160207F5C
:102A200001282068016829D021F008010160607F39
:102A300001282068016824D021F004010160D4E954
:102A400002010843D4E90412114308436168491E96
:102A500008432168C86100206062012084F82000DA
:102A6000002070BD41F08001C0E741F04001C5E7A2
:102A700041F02001CAE721F01001CFE741F0080141
:102A8000D4E741F00401D9E7F0B587B0044614213A
:102A90006846FEF70DF93549354ADFF8CCE008689D
:102AA000D4F800C0324B0324022509261032002737
:102AB000401CF44521D10860012807D1106840F07E
:102AC00000701060106800F000700590186840F009
:102AD0000800186018688DE8B00000F00800CDE923
:102AE000046069460394234800F0C2FA00220521DD
:102AF000152000F053FF152031E0DFF87CE0F445AD
:102B00002FD1D2F800C04CF0806CC2F800C0D2F8CF
:102B100000C001280CF0806CCDF814C0086007D10B
:102B2000106840F000701060106800F000700590B0
:102B3000186840F0020018601868694600F002004A
:102B4000059060208DE8A100CDE903460B4800F018
:102B50008FFA00220621402000F020FF402000F0E4
:102B60000FFF07B0F0BD0000006400401C00002013
:102B700030380240000C024000680040000402406F
:102B8000704710B58AB0044607AB6A460021FFF7CC
:102B900060FD0299002904D107AA69462046FEF784
:102BA000B7FF0AB010BD704710B58AB0044607AB36
:102BB0006A460121FFF74DFD029921B907AA69462E
:102BC0002046FEF7A5FF0098A0F5A061553903D176
:102BD00007A9024804F0B0FB0AB010BDF4000020C1
:102BE000704770B5044690F82000012804D0606A50
:102BF00040F40020606217E0022084F82000206882
:102C0000016821F00101016000F020FB05460DE0A4
:102C100000F01CFB401B0A2808D9606A40F4003011
:102C20006062052084F82000012070BD20684068A3
:102C3000C007EDD1606270BD704770477047704744
:102C40007047704770472DE9F0410446876D00F0EA
:102C5000FDFA054694F835000026022806D08020AB
:102C6000606584F834600120BDE8F0812068016867
:102C700021F0160101602068416921F08001416165
:102C8000206C08B9A06C20B12068016821F008010F
:102C900001602068016821F0010101600CE000F092
:102CA000D5FA401B052807D920206065032084F849
:102CB000350084F83460D7E720680068C007EED19B
:102CC00094F85C103F208840B860012084F83500FB
:102CD00084F834600020C7E790F83510022903D04B
:102CE0008021416501207047052180F8351000687A
:102CF000016821F001010160002070472DE9F843CF
:102D000004464FF00009CDF8009063484FF4165187
:102D1000A56D0068B0FBF1F72E6894F85C200821DF
:102D200001FA02F030420FD02068026852070BD53A
:102D3000026822F00402026094F85C008140A960FD
:102D4000606D40F00100606594F85C104FF0010880
:102D500008FA01F0304208D021684969090604D513
:102D6000A860606D40F00200606594F85C1004207B
:102D70008840304208D021680968890704D5A860D6
:102D8000606D40F00400606594F85C10102088408D
:102D9000304218D021680968090714D5A860206856
:102DA0000168490304D50068000308D5A16C07E059
:102DB0000168C90503D4016821F008010160216C94
:102DC00009B12046884794F85C10202088403042A2
:102DD00031D021680968C9062DD5A86094F835005E
:102DE00005282068016806D0490347D5006800031C
:102DF0001DD4616C1CE021F016010160206841695E
:102E000021F080014161206C08B9A06C20B12068DC
:102E1000016821F00801016094F85C103F208840AF
:102E2000A86084F8358084F83490216D1FE0E16B50
:102E300009B120468847606D00282BD0606DC0071F
:102E400014D0052084F835002068016821F00101C4
:102E500001600098401C0090B84203D820680068C8
:102E6000C007F6D184F8358084F83490E16C0029ED
:102E700010D001B02046BDE8F04308470168C905FD
:102E8000D5D4016821F01001016084F8358084F800
:102E90003490CCE7BDE8F8832C0000202DE9F04108
:102EA000044600F0D3F905465CB1022084F83500F1
:102EB000002684F834602068016821F00101016077
:102EC0000DE00120BDE8F08100F0C0F9401B0528AD
:102ED00005D920206065032084F83500F2E72068DA
:102EE0000068C007F0D121680A6820480240D4E990
:102EF00001031843D4E903352B431843636918438E
:102F0000A3691843E3691843236A18431043626AAC
:102F1000042A03D1D4E90B231A4310430860206824
:102F20004069656A20F0070128460D4301270428FF
:102F30000CD1A06A0543E06A40B12046FEF7A8FD27
:102F400020B14020606584F83570BAE7206845619B
:102F50002046FEF789FD94F85C203F219140816076
:102F6000666584F835700020ACE700003F8010F003
:102F70002DE9F0410446866D90F8340000250128C3
:102F80000DD0012084F8340094F835700020012F12
:102F900007D084F8340002252846BDE8F0810220DD
:102FA000FBE7022784F8357060652046FEF79AFD3E
:102FB00094F85C103F208840B0602068016841F0C0
:102FC00016010160206C20B12068016841F0080101
:102FD00001602068016841F001010160DCE7000048
:102FE00010B51B4C10281AD0202821D008282AD030
:102FF000012813D10BF062FC01280FD004F10C0161
:1030000020690AF0D5FFE068002807D011494FF089
:1030100080500860BFF34F8FBFF36F8F10BD607893
:1030200040F001006070A07840F00100A07003E063
:10303000207840F00100207020790028EED0BDE813
:10304000104009F0BDBDE07840F00100E07010BD17
:103050000005002004ED00E0044910B50A680242B2
:1030600002D00860FFF7BCFF10BD0000143C014017
:103070002DE9F84FDFF89C910022A9F1040B0327FA
:103080004FF00F0C09F1040AABF1040E01250B6897
:1030900095402B40AB426ED10C7904F00304012C17
:1030A00001D0022C15D18668540007FA04F826EAEC
:1030B0000806D1F80C8008FA04F848EA0608C0F8B7
:1030C00008804468AC430D79C5F30015954025434D
:1030D00045600C79E443A40708D0C568540007FA9A
:1030E00004F6B5438E68A6402E43C6600C7904F002
:1030F0000304022C11D1D40800EB8406356A54076E
:10310000E40E0CFA04F825EA0805D1F8108008FA54
:1031100004F848EA0508C6F820800568540007FA54
:1031200004F6B5430E7906F00306A6402E4306606A
:103130004C6814F4403F66D0374C256845F4804510
:103140002560246822F0030504F480440094334C85
:1031500005EB0408D8F808589407260F0CFA06F473
:10316000A5432F4CA04201D1002424E02D4CA042C5
:1031700002D101241FE046E02B4CA04201D10224E1
:1031800019E02A4CA04201D1032414E0284CA042AB
:1031900001D104240FE0274CA04201D105240AE00C
:1031A000254CA04201D1062405E0244CA04201D1C7
:1031B000072400E00824B4402C43C8F80848D9F894
:1031C00000404D464E689C43F60200D51C432C60DF
:1031D000DAF8004055464E689C43B60200D51C43C1
:1031E0002C60DBF800405D464E689C43B60300D57A
:1031F0001C432C60DEF8004075464E689C43F60385
:1032000000D51C432C60521C102AFFF43FAFBDE8D0
:10321000F88F0000083C0140443802400030014073
:10322000000002400004024000080240000C02407E
:10323000001002400014024000180240001C02402E
:103240000AB1816170470904FBE70000014880680A
:10325000704700002000002070B5040025D094F8CD
:103260003D00002520B984F83C50204600F052FA79
:10327000242084F83D002068016821F001010160EC
:103280002068016841F4004101602068016821F470
:103290000041016000F00CFD4D4B6168994201D87E
:1032A0004C4900E04C49884201D2012070BD4B4995
:1032B0002268B0FBF1F1566826F03F060E435660D7
:1032C00062689A4206D94FF4967251434FF47A726B
:1032D000B1FBF2F12268491C166A26F03F06314321
:1032E00011626168994210D84900401EB0FBF1F2AA
:1032F000521CC2F30B02042A01D2042022E0B0FBCC
:10330000F1F0401CC0F30B001CE0A268F2B301EB2B
:10331000C10303EB0116431EB3FBF6F35B1C43F43E
:1033200080431B0549D092B301EBC10202EB0111AE
:10333000401EB0FBF1F0401CC0F30B0040F4804095
:1033400040F400402168CA694CF6FF739A43104369
:10335000C861D4E9071001432068026822F0C00266
:1033600011430160D4E9030101432068826848F2F7
:10337000FF339A4311438160D4E90510014320686B
:10338000C26822F0FF021143C16001E00EE016E0C6
:103390002068016841F0010101602564202084F863
:1033A0003D00256384F83E50002070BD01EB4106CE
:1033B000431EB3FBF6F35B1CB3E70120C2E701EB4E
:1033C0004101401EB0FBF1F0401CC0F30B00B7E719
:1033D000A086010080841E0000093D0040420F00CD
:1033E0002DE9FF4F83B09A46DDE9118793460446E5
:1033F000DDF84090FFF72AFF054694F83D002028AD
:1034000070D11923012274492046009502F0E1F899
:103410000028F5D194F83C00012863D0012084F8FD
:103420003C0020680168C90703D1016841F001012F
:1034300001602068016821F400610160222084F8A5
:103440003D00402084F83E0000262664C4F8249005
:10345000A4F82A80608D20856048E062CDE900757F
:1034600053465A462046049901F0B6FF002879D108
:10347000208DD0B1012821D00228206824D04169B4
:1034800080690090208D032866D801282BD05449EC
:1034900002283B464FF00002009557D08846204650
:1034A00002F097F800285DD13AE02068416981690F
:1034B0000091016841F4007101607DE020680168BD
:1034C00021F480610160F0E7016821F4806101600E
:1034D0002068016841F400610160206841698069E9
:1034E000009069E075E02A463946204602F012F95C
:1034F00088BB54E02068016841F4007101602068D5
:103500000069616A0870606A401C6062218D491E12
:103510002185618D491E618521680969017042E03C
:103520002068016821F48061016020680069616A97
:103530000870606A401C6062208D401E2085608D8E
:10354000401E60853B46002241460095204602F021
:1035500040F800B9CEE705E02A463946204602F099
:10356000D9F818B1012007B0BDE8F08F20680069D4
:10357000616A0870606A401C6062208D401E81B2E2
:103580002185608D401E608520684269D2435207C4
:1035900012D4032903D1016821F4806101602068FD
:1035A0000069616A0870606A401C6062208D401E7C
:1035B0002085608D401E6085208D00287FF462AFDD
:1035C000202084F83D0084F83E6084F83C600020B0
:1035D000C9E70220C7E70000020010000000FFFF5B
:1035E000040001002DE9FF4F83B09A46DDE91197F1
:1035F00093460446DDF84080FFF728FE054694F820
:103600003D0020287FD11923012240492046009502
:1036100001F0DFFF002876D194F83C00012872D039
:10362000012084F83C0020680168C90703D10168C3
:1036300041F0010101602068016821F4006101602E
:10364000212084F83D00402084F83E0000262664B6
:10365000C4F82480A4F82A90608D20852C48E0626C
:10366000CDE9007553465A462046049901F032FFD1
:1036700070B930E02A463946204602F085F858B144
:10368000206C042804D12068016841F400710160B5
:10369000012007B0BDE8F08F606A216800780861FA
:1036A000626A521C6262208D401E80B22085618D4C
:1036B000491E618521684B69DB435B070BD468B108
:1036C00010780861606A401C6062208D401E208571
:1036D000608D401E6085208D0028CBD12A4639465A
:1036E000204601F04BFF0028CAD154F83D0B016879
:1036F00041F400710160202004F81E09E677667726
:103700000020C6E7FFE70220C3E700000200100028
:103710000000FFFF2DE9F04387B0054614216846FD
:10372000FDF7C6FA484E474A296800244648032751
:1037300010364FF012084FF00409914219D1016878
:1037400041F002010160006802AA00F00200059049
:103750003802CDE9000882E8900269463B48FFF74D
:1037600087FC306840F400103060306800F40010CE
:1037700066E0374A914234D1016841F0200101608E
:103780000068CDE9007800F02000CDE90490CDE993
:10379000024769462F48FFF76BFC306840F4800011
:1037A000306030682D4E00F4800005902A4830606B
:1037B0004FF0606070604020C6E902040001C6E975
:1037C0000404C001B461C6E9074030467462FFF7E3
:1037D00065FB08B1FEF7DBF96E63B56307B0BDE8C2
:1037E000F0831F4A9142F9D1016841F00401016060
:1037F000016801F004010591016841F001010160D7
:103800000068012400F0010005905015CDE9000882
:1038100002AA694682E890021248FFF729FC2002BA
:10382000CDE9000802AA694682E890020E48FFF737
:103830001FFC306840F400003060306800F4000085
:103840000590CBE7005400403038024000040240AD
:103850000058004000140240B8600240E41000200C
:10386000005C0040000802400000024002488168FD
:103870000278114481607047200000200B4810B589
:10388000016841F400710160016841F480610160E8
:10389000016841F480710160032000F09FF80F205F
:1038A00000F006F800F050F8002010BD003C024087
:1038B00030B50546204887B00024016841F0010179
:1038C0000160006806A900F001000590684600F05C
:1038D000CFF90398B0B100F0EBF9400017494FF071
:1038E0008042B0FBF1F11648491E026040F2E73217
:1038F000C0E90324C0E90114846100F0A1FE0400C2
:1039000003D015E000F0D4F9E8E70D4800F026FFF9
:1039100004000DD11C2000F033F8102D07D2002236
:1039200029461C2000F03AF80648056000E0012412
:1039300007B0204630BD00004038024040420F0032
:1039400084160020240000200C4882B0016841F455
:1039500080410160006800F4804000900748001F2B
:10396000016841F0805101600068002200F0805041
:1039700000900F21901E02B000F010B844380240B1
:10398000002809DB00F01F0201219140400980005E
:1039900000F1E020C0F8001170470000F0B40E4BB9
:1039A0001B68C3F30223C3F10704042C00D90424C9
:1039B0001D1D072D01D2002300E0DB1E012606FAA3
:1039C00004F56D1E0D409D409E40761E164045EA52
:1039D0000601F0BC08F095BA0CED00E0064A00F0D4
:1039E000070110684FF6FF03184040EA0120034921
:1039F00008431060704700000CED00E00000FA057D
:103A00002DE9F843044600684FF00109C1074FF063
:103A1000000501D1400726D5DFF80C81C8F86850B1
:103A2000FFF714FC0646414F04E0FFF70FFC801B34
:103A3000022857D838680001F7D46068217A8001DD
:103A400040EA0170394984310860C8F86890FFF78E
:103A5000FDFB064604E0FFF7F9FB801B022841D876
:103A600038680001F7D52078800752D52F484030BC
:103A7000016841F08051016000682D4F00F08050D6
:103A80000090386840F480703860FFF7DFFB06462E
:103A900004E0FFF7DBFB801B022823D83868C00551
:103AA000F7D5224E7036306810F4407020D0A189CE
:103AB00001F4407181421BD030681E4920F44070EF
:103AC000C1F800900D6030603068C00710D0FFF77B
:103AD000BDFB054641F2883707E0FFF7B7FB401B07
:103AE000B84202D90320BDE8F88330688007F4D5D6
:103AF000E0680E49C0F301220831032A0BD00868A0
:103B000020F4F81008603068A189C1F30B01084364
:103B100030600020E7E70A68074B22F4F8121840EB
:103B200002430A60EFE7000000004742003802400D
:103B300000700040400E4742FFFCFF0F2DE9F047A8
:103B40000D46040065D0DFF81491D9F80000EFB2FB
:103B500000F00700A84207D289F80070D9F80000E9
:103B600000F00700A84254D120683D4E810712D5CD
:103B7000400703D5306840F4E050306020780007FB
:103B800003D5306840F4604030603068A16820F0B0
:103B9000F000084330602078C0072DD030496068BD
:103BA0000839012812D0022813D0032811D009683F
:103BB000890700292DDA316821F0030101433160C2
:103BC000FFF744FB804641F2883A0EE0096889031A
:103BD000EFE709688901ECE7FFF738FBA0EB080184
:103BE000514502D90320BDE8F0873068616800F0D4
:103BF0000C00B0EB810FEFD1D9F80010484601F06E
:103C00000701A94207D90770006800F00700A84221
:103C100001D00120E7E72078400705D53068E1684A
:103C200020F4E050084330602078000706D5306863
:103C3000216920F4604040EAC100306000F058F88B
:103C40003168084AC1F30311515CC8400649086055
:103C500006480068FFF72CFE0020C4E7003C024045
:103C600008380240F4EC00082C000020240000205A
:103C70000F2202600C4A136803F0030343601368C9
:103C800003F0F0038360136803F4E053C360126829
:103C90004FF4E05303EAD20202610448006800F0E6
:103CA000070008607047000008380240003C0240EE
:103CB0000448054900680968044AC1F38221515C3F
:103CC000C84070472C0000200838024004ED00086E
:103CD0000448054900680968044AC1F34231515C4F
:103CE000C84070472C0000200838024004ED00084E
:103CF000154810B5006810F00C01144813D0144B8F
:103D000004290FD008290ED10F4C241F216801F07F
:103D10003F022168490207D52068C0F38810A0FB44
:103D2000030106E0184610BD2168C1F38811A1FB0C
:103D300000010023FCF772FF2168C1F30141491C17
:103D40004900B0FBF1F010BD083802400024F40037
:103D5000001BB7002DE9F84F040075D02078DFF87C
:103D600038A3C007AAF1040548D00AF1040001688D
:103D7000C1F38101012908D00068C0F38100022845
:103D80000AD1DAF80000400206D52868800335D54C
:103D900060680028E1D031E06068B0F5803F10D065
:103DA000B0F5A02F286810D020F480302860286853
:103DB00020F4802028606068A0B1FFF747FA06462B
:103DC0000CE0286840F48030F4E740F4802028605C
:103DD000F7E7FFF73BFA801B642871D82868800357
:103DE000F7D50BE0FFF732FA064604E0FFF72EFAAC
:103DF000801B6428F1D828688003F7D42078DFF886
:103E00009C9280074FF0000B3DD5A348001D016830
:103E100011F00C0F08D00068C0F3810002280AD10D
:103E2000DAF80000400206D42868800715D5E0685B
:103E3000012809D111E0E068B8B10120C9F80000FB
:103E4000FFF704FA064605E022E1FFF7FFF9801BC1
:103E50000228C2D828688007F7D52868216920F091
:103E6000F80040EAC10028600DE0C9F800B0FFF793
:103E7000EDF9064604E0FFF7E9F9801B02281FD898
:103E800028688007F7D42078000722D5824F84481D
:103E90006169703771B101210160FFF7D7F90646FA
:103EA00004E0FFF7D3F9801B022809D8386880079F
:103EB000F7D50EE0C0F800B0FFF7C8F9064605E0F8
:103EC00082E0FFF7C3F9801B02287DD8386880079D
:103ED000F7D42078400765D56F484FF000083C3094
:103EE0000068C0000BD46C483C30016841F0805140
:103EF000016000684FF0010800F080500090694FA9
:103F00003868C0050FD4386840F480703860FFF717
:103F10009DF9064604E0FFF799F9801B022853D863
:103F20003868C005F7D55C4FA0686C3701280FD002
:103F30000528386810D020F001003860386820F07B
:103F400004003860A068B0B1FFF780F906460EE0C3
:103F5000386840F00100F4E740F004003860F7E70B
:103F6000FFF774F9811B41F28830814263D83868C9
:103F70008007F5D50DE0FFF769F9064606E0FFF783
:103F800065F9811B41F28830814254D83868800736
:103F9000F5D4B8F1000F05D03F483C30016821F05E
:103FA00080510160A069B8B33B49091D0968C1F39C
:103FB0008101022946D00228584606D0C9F860007F
:103FC000FFF744F9044639E035E04F46C9F8600090
:103FD000FFF73CF9064604E0FFF738F9801B02289A
:103FE00029D828688001F7D4D4E907010843A16AD9
:103FF0002D4A490802EB0141626A41EA82110843F5
:1040000094F82C1040EA0161CAF8001001203866CB
:10401000FFF71CF9044605E03CE0FFF717F9001B29
:10402000022808D828688001F7D533E0FFF70EF999
:10403000001B022802D90320BDE8F88F2868800100
:10404000F4D427E00128F7D0DAF80000E26900F4A0
:10405000800191421CD1226A00F03F01914217D1A8
:1040600047F6C071626A0140B1EB821F10D1A26AAB
:104070004FF0FF3300F4403103EB5202B1EB024F3B
:1040800006D194F82C1000F07060B0EB016F01D0F5
:104090000120D1E70020CFE704380240000047426A
:1040A000800E4742007000400000FFFF10B5040082
:1040B00002D0607F10B106E0012010BD0020207703
:1040C000204600F041F8022060772068C168C943AB
:1040D000C90632D5CA214162216853204862204670
:1040E00005F0C4FD20BB20688168164A114081603C
:1040F0002068816862681143D4E904231A4311439C
:1041000081602168E068086120680169228941EACC
:1041100002410161204605F0CCFD48B921680A6CD6
:1041200022F480220A6421680A6CA3691A430A6493
:104130002268FF21516208B110BD00200121617782
:1041400010BD0000BFFF8FFF1FB50021009101913E
:10415000029103910068084988420CD10220009026
:10416000064803906846FFF74BFC08B1FDF70FFDCA
:104170000349012008601FBD0028004000031E0005
:104180003C0E474270B505460A482968C860FFF7EB
:104190005DF804464FF47A7606E0FFF757F8001B07
:1041A000B04201D9032070BD2868C0688006F4D5EC
:1041B000002070BD5F7F010070B5040009D0606A07
:1041C000002540B125616561A56294F8510040B1B8
:1041D0000CE0012070BD6068B0F5827FF4D0E5612D
:1041E000F2E784F85050204600F044F8022084F8AA
:1041F00051002068016821F040010160A0882189F8
:1042000000F4827001F404410843A18901F40061C3
:104210000843217C01F002010843217D01F00101E6
:104220000843218B01F400710843217F01F038011C
:10423000084394F8201001F080010843218D01F417
:104240000051084321680860A069042101EA104078
:1042500094F8241001F01001084321684860206898
:10426000C16921F40061C1616565012084F85100D4
:10427000002070BD2DE9F04387B004461421684644
:10428000FCF716FD34492068884261D13348002587
:10429000016841F480510160006800F4805005908D
:1042A0002E481438016841F002010160016801F0F4
:1042B00002010591016841F00101016000680226D8
:1042C00000F001000590182001274FF003084FF07F
:1042D00005098DE8C10369462148FEF7C9FE802023
:1042E0008DE8C10369461F48FEF7C2FE1F4E1E48F7
:1042F0004FF0C0673060C6E901754FF48068C6E9C9
:10430000035875617812B561C6E907503046756289
:10431000FEF7C4FD08B1FDF73AFCE664B463134E42
:10432000114860361830E6E802074020A6E821016F
:10433000C00246F81459B561C6E907500B487562CA
:104340006030FEF7ABFD08B1FDF721FCA664B46355
:1043500007B0BDE8F083000000300140443802405F
:10436000000402400000024040640240BC110020F2
:104370002DE9FF4F81B01F469346044601250E9E4E
:10438000FEF764FF804694F851006168012806D06A
:10439000B1F5827F3CD1A168C9BB042838D102980D
:1043A000002870D0BBF1000FFBD0002FF9D094F89B
:1043B000500001282CD04FF0010A84F850A094F846
:1043C0005100042802D0052084F851004FF0000964
:1043D000C4F85490C4F838B0E787A78702992163DE
:1043E000E786A786C4F84090C4F844902068016826
:1043F000490603D4016841F040010160E068B0F56E
:10440000006F606808D0E8B3012F47D07DE0FFE778
:10441000022005B0BDE8F08F08B1012F37D1206B25
:1044200021680088C860206B801C2063E08E401EDD
:10443000E0862CE02068816889070DD5E18E59B1AE
:10444000012D09D1216B0988C160206B801C20637C
:10445000E08E401EE086002520688168C9070BD0E9
:10446000E18F49B1C068A16B0880A06B801CA0637C
:10447000E08F401EE0870125FEF7E8FEA0EB080074
:10448000B04201E00AE064E001D3701C4ED1E08E3E
:104490000028CFD1E08F0028CCD13CE0206B2168F0
:1044A00000780873206B401C2063E08E401EE0867D
:1044B0002BE02068816889070DD5E18E59B1012D67
:1044C00009D1216B09780173206B401C2063E08EB9
:1044D000401EE086002520688168C9070BD0E18F67
:1044E00049B1C068A16B0870A06B401CA063E08F4D
:1044F000401EE0870125FEF7A9FEA0EB0800B042B0
:1045000002D3701C01D011E086B1E08E0028D0D11A
:10451000E08F0028CDD142463146204606F01EFEEF
:1045200050B12020606584F8509012E084F851A0CA
:1045300084F8509003206CE7A06818B92068C1681F
:104540008068009084F851A084F85090606D002835
:10455000F1D001205DE77047704710B590F83C201E
:10456000012A22D0012280F83C20CA688C6822F4FB
:10457000407222434C6822F4806222430C6822F489
:10458000006222430C6922F4805222434C6922F4D7
:1045900000522243C969002322F480420A43016881
:1045A0004A6480F83C30002010BD022010BD00009D
:1045B00070B590F83C20012A32D0012580F83C509B
:1045C000022280F83D2002685368946823F0700648
:1045D0000B6833435360134B02689A4214D0B2F114
:1045E000804F11D0104B9A420ED0104B9A420BD0F4
:1045F0000F4B9A4208D00F4B9A4205D00E4B9A426D
:1046000002D00E4B9A4204D1496824F0800319432A
:10461000916080F83D50002180F83C10084670BD44
:10462000022070BD0000014000040040000800406E
:10463000000C004000040140004001400018004010
:1046400010B5040003D094F83D0010B107E001203C
:1046500010BD002084F83C00204600F01FF8022026
:1046600084F83D00211D206806F0D2FF012084F867
:10467000460084F83E0084F83F0084F8400084F847
:10468000410084F8420084F8430084F8440084F830
:10469000450084F83D00002010BD000008B500680A
:1046A0002749284A884207D1106840F0010010606D
:1046B000106800F001000BE02249234B091F9842CB
:1046C00008D1086840F002000860086800F00200A5
:1046D000009008BD1D4B984207D1086840F00400C7
:1046E0000860086800F00400F2E7194B984207D10F
:1046F000086840F008000860086800F00800E7E774
:104700001449884211D1106840F00200106010680E
:10471000002200F00200009005212B20FFF73EF957
:10472000BDE808402B20FFF72BB90B498842D0D1B8
:10473000106840F400301060106800F40030C7E7E3
:1047400000000140443802400004004000080040DE
:10475000000C0040000401400044014090F83D106E
:10476000012901D001207047022180F83D10016825
:10477000CA6842F00102CA6000681149884214D038
:10478000B0F1804F11D00F4988420ED00E498842B7
:104790000BD00E49884208D00D49884205D00D49FA
:1047A000884202D00C49884204D1816801F0070197
:1047B000062903D0016841F0010101600020704723
:1047C000000001400004004000080040000C0040D0
:1047D00000040140004001400018004070B504464C
:1047E00090F83C000025012817D0012684F83C6091
:1047F000022084F83D002068826822F0770222F4CB
:104800007F4282600868502838D00DDC20284FD0C5
:1048100005DC90B3102811D14AE0022070BD302889
:1048200046D040280AD13BE060282FD070280DD018
:10483000B0F5805F03D0B0F5005F12D0012584F899
:104840003D60002084F83C00284670BDCB68D1E96B
:104850000121206806F044FF2068816841F077015B
:1048600009E0CB68D1E90121206806F039FF206812
:10487000816841F480418160E1E719E0CA684968D4
:10488000206807F001F85021206806E0CA684968EE
:10489000206807F00AF86021206806F02BFFCEE7B9
:1048A000CA684968206806F0EFFF40212068F4E7F5
:1048B000226801461046F0E770472DE9F0410446B2
:1048C0000068C66805694FF00007A90713D5B1074E
:1048D00011D5F91E016101202077206880698007C9
:1048E000204602D0FFF7E8FF04E000F031F920464F
:1048F00000F0C3F92777680716D5700714D521682B
:104900006FF004000861022020772068806910F4AD
:10491000407F204602D0FFF7CFFF04E000F018F9F7
:10492000204600F0AAF92777280715D5300713D5B8
:1049300021686FF008000861042020772068C069B2
:104940008007204602D0FFF7B7FF04E000F000F92F
:10495000204600F092F92777E80616D5F00614D520
:1049600021686FF010000861082020772068C06976
:1049700010F4407F204602D0FFF79EFF04E000F0D5
:10498000E7F8204600F079F92777E80708D0F00724
:1049900006D021686FF001000861204600F06EF932
:1049A000280608D5300606D521686FF0800008611A
:1049B0002046FFF7D0FD680608D5700606D52168A9
:1049C0006FF040000861204600F05FF9A8060AD5A4
:1049D000B00608D521686FF0200008612046BDE8C8
:1049E000F041FFF7B9BDBDE8F08100002DE9F041CD
:1049F00086B0044614216846FCF75AF9474A2068F5
:104A0000474902240125904210D1086840F0100067
:104A100008600868694600F0100005904FF4D44023
:104A20008DE831003F48CDE9034513E03E4ADFF809
:104A3000FC80904213D1086840F0040008600868C8
:104A4000694600F00400059090158DE8310003944C
:104A500040460494FEF70CFB06B0BDE8F081344AF2
:104A6000032690420ED1086840F0080008600868EC
:104A7000694600F00800059010148DE871002D487B
:104A80000494E7E72C4A904210D1086840F0800077
:104A900008600868694600F0800005904FF4E05017
:104AA0008DE83100039425480494D3E7244A402735
:104AB000904220D1086840F480700860086800F4D3
:104AC00080700590086840F004000860086800974E
:104AD000CDE9014500F00400CDE904606946039486
:104AE0001848FEF7C5FA0097CDE90145CDE9034620
:104AF00069464046AEE7144A9042ADD1086840F09E
:104B00002000086008680097CDE9014500F020000A
:104B1000CDE90460694603940C489BE7000001401E
:104B200030380240001002400004004000080240FB
:104B300000080040000C0240000C0040001C024035
:104B400000040140002002400044014000140240E3
:104B5000704770B5044690F83C0000260D460128C9
:104B60000FD0012084F83C006AB1042A1DD0082A25
:104B70002FD00C2A3FD00126002084F83C0030467C
:104B800070BD022070BD206806F0BCFD2068816900
:104B900041F0080181612068816921F0040181618F
:104BA000206881692A69114311E0206806F0DAFD66
:104BB0002068816941F4006181612068816921F484
:104BC00080618161206881692A6941EA02218161ED
:104BD000D2E7206806F0FCFD2068C16941F00801B9
:104BE000C1612068C16921F00401C1612068C16907
:104BF0002A69114311E0206806F01EFE2068C16991
:104C000041F40061C1612068C16921F48061C16122
:104C10002068C1692A6941EA0221C161ACE710B587
:104C2000040003D094F83D0010B107E0012010BD4E
:104C3000002084F83C00204600F01EF8022084F892
:104C40003D00211D206806F0E3FC012084F84600A9
:104C500084F83E0084F83F0084F8400084F8410066
:104C600084F8420084F8430084F8440084F8450046
:104C700084F83D00002010BD704770470068B0F117
:104C8000804F01D1FEF7F2BD70477047704710B5F5
:104C900004460068406994F84110C0F3C01021290F
:104CA00011D180B12068143050E8001F21F080013C
:104CB00040E80012002AF5D1A06B08B1FDF7C3FF50
:104CC000204606F0CFFE2068406994F84210C0F3F9
:104CD0008010222911D180B12068143050E8001FC3
:104CE00021F0400140E80012002AF5D1E06B08B144
:104CF000FDF7A9FF204606F08EFE002010BD70478C
:104D0000F8B5016804460868CA684B6910F00F0FCF
:104D10004FF0000559D003F0010602F490773743B5
:104D200065D0C10705D0D10503D5616C41F0010103
:104D30006164410705D5D90703D0616C41F00201D8
:104D40006164810705D5D90703D0616C41F0040186
:104D50006164010707D502F02001314303D0616C83
:104D600041F008016164616C00293AD0800604D5E5
:104D7000900602D5204606F083FE20684069616CEB
:104D8000C0F38010090700D460B3204606F043FE4C
:104D900020684069400621D52068143050E8001F83
:104DA00021F0400140E80012002AF5D1E06BA8B1E3
:104DB00072490165E06BFDF78FFF002811D0E06BB1
:104DC000016D01B0BDE8F040084783060FD593069A
:104DD0000DD52046BDE8F84006F052BE2046FFF74C
:104DE0008EFFF8BD2046FFF78AFF6564F8BD266B8D
:104DF0002023012E7ED1C6067CD5D6067AD508683A
:104E00004868009048694FF0020640064DD5E26BB5
:104E1000106840684FF480770004000C3AD0A18DF0
:104E2000814237D9E085D069B8422DD020680C3056
:104E300050E8001F21F4807140E80012002AF5D1EB
:104E40002068143050E8001F21F0010140E80012F2
:104E5000002AF5D12068143050E8001F21F04001ED
:104E600040E80012002AF5D184F84230256320681A
:104E70000C3050E8001F21F0100140E80012002A19
:104E8000F5D1E06BFDF7DFFE6663A08DE18D401A82
:104E900081B206E0A18D8142A8D1D069B842A5D1E6
:104EA00066632046FFF7F2FEF8BDA08DE18D401A43
:104EB00081B2E08D0028F7D00029F5D020680C30B1
:104EC00050E8002F22F4907240E80027002FF5D11F
:104ED0002068143050E8002F22F0010240E800273B
:104EE000002FF5D184F84230256320680C3050E85B
:104EF000002F00E006E022F0100240E80023002B23
:104F0000F3D1CDE705062BD5150629D594F8410038
:104F10002128C9D1A068B0F5805F01D12069B0B166
:104F2000206A411C2162216800784860E08C401EA4
:104F30000004000CE084B7D12068C16821F0800132
:104F4000C1602068C16841F04001C160F8BD206ABD
:104F50000088C0F308004860206A801C2062E5E7F2
:104F60004006F3D55006F1D5CA68204622F040022B
:104F7000CA6084F8413000F09DF9F8BDCFB8000850
:104F800070B5040004D094F84100002510B106E08B
:104F9000012070BD84F84050204600F023F8242002
:104FA00084F841002068C16821F40051C1602046A6
:104FB00006F0C8FD2068016921F490410161206874
:104FC000416921F02A0141612068C16841F4005122
:104FD000C1606564202084F8410084F84200656364
:104FE000002070BD2DE9F04786B0044614216846C4
:104FF000FBF75EFE7A48DFF8E4811438D4F800C08D
:10500000774B022703210722002506154FF0006A7F
:10501000C44562D1D3F800C04CF0100CC3F800C0F6
:105020001B6803F010030593036843F00203036059
:10503000036803F002030593036843F00103036070
:105040000068894600F0010005908020CDE9000746
:10505000CDE902599046694604926248FEF708F885
:105060007010CDE90007CDE902596946CDF81080EE
:105070005D48FDF7FDFF5E4F5C48D046E7E8020A59
:10508000402061C75A4847F81459BD61FD613D622F
:105090007D62FDF703FF08B1FCF779FDA763BC63F0
:1050A000534F5248603730383860C7E90185C7E947
:1050B00003567D61BD61FD613D6238467D62FDF74D
:1050C000EDFE08B1FCF763FDE76300220521252012
:1050D000BC63FEF763FC25203FE0DFF81881C44580
:1050E00040D13F4B1B1FD3F800C04CF4802CC3F8B9
:1050F00000C01B6803F480230593036843F0040396
:1051000003600068029500F004000590CDE90312E9
:105110004FF44060CDE9000769463748FDF7A8FF26
:10512000334F3648C0373860C7E901A5C7E9035691
:105130007D614FF40030BD61C7E9075038467D629C
:10514000FDF7ACFE08B1FCF722FDE7630022042165
:105150002720BC63FEF722FC2720FEF711FC06B0D7
:10516000BDE8F087264A9445F9D11A6842F020023A
:105170001A601A6802F020020592026842F04002AA
:1051800002600068029500F0400005904FF48440F2
:10519000CDE900070820CDE9031069461948FDF75D
:1051A00067FF1248184F903838608005C7E901053D
:1051B000C7E903567D61BD61FD613D6238467D6290
:1051C000FDF76CFE08B1FCF7E2FCE7630022052165
:1051D0004720BC63FEF7E2FB4720BEE7001001401A
:1051E000443802400004024000000240B86402401B
:1051F00004150020004800400008024028600240DA
:1052000000140140001802402416002090F842309B
:10521000202B01D00220704721B11AB10023036373
:1052200006F016BD012070477047704737B5044639
:1052300090F84100202801D002203EBD019901B321
:10524000FAB12162A284E28400206064212384F800
:105250004130A56B144BEB63A56B144B2B64A56B12
:10526000134BEB64A36B186520681346A56B021DF6
:105270002846FDF77DFE30B110206064202084F8C0
:10528000410001203EBD21686FF0400008602068A9
:10529000143050E8001F41F0800140E80012002A5D
:1052A000F5D100203EBD0000CBB900080DBA0008C2
:1052B000DDB8000800680349884202D10249012094
:1052C0000870704700100140000000207047000087
:1052D00070B504460020334D2074A27B2888616895
:1052E0004243D4F8F400FBF7CAFCA17B2888414371
:1052F0006068FBF7DDFC00202BE0D4F8F41001EB34
:10530000800292ED000AB5EEC00AF1EE10FA1ED04E
:10531000227C01EB820181ED000A227C616A8854C3
:10532000A169227B01EB8001237C91ED000A616978
:10533000095C12FB03116FF0030202EB8101D4F848
:105340000C21114481ED000A217C491C2174401C70
:10535000C0B2A17B8142D0D8002010E0636AE2692C
:105360001B5C02EB830292ED000A10FB0101D4F8F2
:105370001821401C02EB8101C0B281ED000A217CA2
:105380008142EBD8C8B224F8780F14F86C0C608016
:1053900020816181218361832084618424F8301C11
:1053A00070BD0000B4000020FEE701684A69D243E6
:1053B00052050FD46FF480624A61002140F8301F1B
:1053C000202242738173026942F004020261017378
:1053D00001207047002070472DE9F84F044600680F
:1053E00089460B9E01689846174641F4806101602A
:1053F0002068016841F48071016000964FF0011B44
:105400000022594620460A9B00F0E3F84FF4007A48
:1054100040B120680068C00501D5C4F840A0032051
:10542000BDE8F88F216809F0FE000861334628497D
:1054300020460A9A00F011F9F0BB206841698069A2
:105440000090324620460A9900F09EF940B1206C47
:1054500004283AD12068016841F40071016034E009
:10546000FDB2B8F1010F09D02168380A086132464F
:1054700020460A9900F088F90028E8D120680561E3
:10548000324620460A9900F07FF90028DFD12068D3
:10549000016841F48071016000960022594620465F
:1054A0000A9B00F096F80028B3D1216809F0FF00AC
:1054B00040F00100086100E007E03346044920465F
:1054C0000A9A00F0CAF80028AAD00120A8E7000034
:1054D000020001002DE9F843044600680D46DDE9AD
:1054E000089701689846164641F4807101604B4662
:1054F00000224FF001112046009700F06AF848B1F1
:1055000020680068C00502D54FF4007020640320B5
:10551000BDE8F883216805F0FE0008613B464A4675
:105520001549204600F099F888B9206841698069DA
:1055300000903A464946204600F026F948B1206CD2
:10554000042804D12068016841F400710160012041
:10555000DEE7F5B2B8F1010F09D02168300A086121
:105560003A464946204600F00FF90028E7D1206866
:1055700005610020CCE700000200010070B516466E
:105580000D4604461EE02046FFF70FFF08B101203C
:1055900070BD681C16D0FDF759FE801BA84200D8CC
:1055A00085B920684069C04340070BD5002044F806
:1055B000300F20216173A073216941F02001216126
:1055C0002073E4E720684069C0434007DBD4002033
:1055D00070BD2DE9F0471E4690460D460446C1F3C6
:1055E0000747DDF8209026E0701C24D0FDF72EFE42
:1055F000A0EB0900B04200D8EEB92068012F16D008
:10560000806925EA00000004000C12D0002040450B
:1056100011D1002044F8300F20216173A07321695B
:1056200041F02001216120730120BDE8F08740692D
:10563000E7E70120EBE72068012F0AD0806925EA1F
:1056400000000004000C06D000204045CCD0002013
:10565000EBE74069F3E70120F7E72DE9F0479846CB
:1056600016460D4604464FF000094FF0200AC1F3DC
:10567000074723E020684069C043400515D42068EF
:10568000016841F40071016021686FF48060486135
:10569000C4F8309084F83DA084F83E90216C41F02D
:1056A0000401216484F83C9020E0701C06D0FDF7D2
:1056B000CDFDA0EB0800B04203D816B1012F1ED0DB
:1056C00020E02068012F14D0806925EA0000000442
:1056D000000C17D044F8309F84F80DA084F80E9089
:1056E000216941F02001216184F80C900120BDE87E
:1056F000F087406925EA00000004000CEAD1206828
:10570000406901E02068806925EA00000004000C7F
:10571000B0D1ECE72DE9F04116460D4604460027CE
:105720004FF0200829E04069C043C0060DD454F86A
:10573000301B6FF01000486144F80D7B04F81D89A0
:10574000A777206A2062277714E0FDF77FFD801B92
:10575000A84200D88DB920684069C04340060CD5E6
:1057600044F8307F84F80D80A773206940F0200052
:10577000206127730120BDE8F08120684169C94399
:105780004906D0D40020F6E770B516460D4604460B
:105790001EE02046FFF709FE08B1012070BD681C1D
:1057A00016D0FDF753FD801BA84200D885B92068AC
:1057B0004069C04300060BD5002044F8300F20217B
:1057C0006173A073216941F0200121612073E4E736
:1057D00020684069C0430006DBD4002070BD000093
:1057E00010B52A4C2DED028B04F5B070B7EE008A8F
:1057F00080EC030A00209FED260A84ED5D0A84F800
:10580000340111EE900AB0F17E5F01DDF0EE481A2E
:10581000C4ED5E1A0323002206211C489C3400F0CC
:105820008BFCE06C9FED1B0A902280ED008AE06CFF
:105830001D4980ED010AE06C80ED020AE06C80ED0C
:10584000030A15482063154860631548A06315488E
:10585000E063012004F8720C04F8710C606EFBF731
:105860000EFA114990229031E06DFBF708FA902270
:105870000E49A06FFBF703FAE06F0C492422BDEC40
:10588000028B9031BDE81040FBF7F9B9D87E0020BB
:105890000AD7233C00000000B1580008115C000842
:1058A000E5580008155D00087C0100209C020020DE
:1058B00010B50446902254F8F81F0848FBF7DFF9AA
:1058C00090220748616AFBF7DAF90548616990227E
:1058D000BDE810409030FBF7D2B900000C02002068
:1058E0005003002070B50446B0EE000A54F8EC0FE7
:1058F0002B4DD0ED000A60EE800AC5ED050AD0ED13
:10590000010A60EE800AC5ED060AD0ED020A60EEDB
:10591000800AC5ED070AD0ED030A20EE800A85ED66
:10592000080A14F8DE0C14F8E01C10FB01F11D4805
:1059300000884143206AFBF7BBF9D5ED071A206ABE
:10594000B1EE612A80ED002A206A95ED081A80EDFB
:10595000011A95ED050A206AF1EE400AC0ED020A2F
:10596000206AD5ED060AC0ED030A206AC0ED060ADA
:10597000206A80ED070A206A80ED081A206AC0EDCF
:10598000091A206A80ED0C0A206AB1EE600A80EDE7
:105990000D0A206A80ED0E2A206A80ED0F1A70BD74
:1059A0002C010020B400002070B5964C964D90223A
:1059B0002DED048BB0EE619AB0EE628A84ED5B3A15
:1059C000D4ED521AF0EE428A05F1500170EE611AE0
:1059D000B6EE000A61EE801A61EE831AC5ED101A68
:1059E000D4ED531A70EEE10A60EE800A60EE830A8D
:1059F000C5ED110AD4ED540A71EE600A20EE800A5A
:105A000020EE030A85ED120AD4F800019C34FBF75E
:105A100036F995ED101A606EF1EE412AC0ED012ABB
:105A2000D5ED110A606EB1EE603A80ED023A95ED67
:105A3000120A606EB1EE402A80ED032A606E80ED9E
:105A4000061A606E80ED080A606E80ED093A606E9D
:105A5000C0ED0C0A606E80ED0D2A606E80ED0F1AAD
:105A6000606E80ED120A29EE090A606E08EEA80A3F
:105A7000C0ED130A606EC0ED142A08EE080A07F0A4
:105A8000C5F985ED130A69EE000A54F8980CC0EDCB
:105A9000000A68EE800A54F8980C28EE000AC0ED5F
:105AA000010A54F8980C80ED020A94ED310AD4ED05
:105AB000340AA06F20EE200A80ED000A94ED310A2E
:105AC000D4ED340AA06F20EE200A80ED070A94ED91
:105AD000310AD4ED340AA06F20EE200A80ED0E0AC0
