:020000040800F2
:1000000028D80020610200085DEA0008196F000886
:1000100079990008D5160008812901080000000020
:10002000000000000000000000000000A101000826
:100030007F22000800000000FD0100088D1C01085F
:100040007B0200087B0200087B0200087B0200089C
:100050007B0200087B020008D12400087B02000814
:100060007B020008DB240008E52400087B0200086E
:100070007B0200087B0200087B0200087B0200086C
:100080007B0200087B0200087B0200087B0200085C
:100090007B020008D91600087B020008EF24000844
:1000A0007B0200087B0200087B0200087B0200083C
:1000B000891D01087B0200087B0200087B02000802
:1000C0007B0200087B0200087B0200087B0200081C
:1000D0007B020008692701087B020008A1270108AC
:1000E0007B0200087B0200087B020008991D0108C2
:1000F0007B0200087B0200087B0200083118000820
:100100007B0200087B0200087B0200087B020008DB
:100110007B0200087B0200087B0200087B020008CB
:100120007B020008AD180008BD1800087B0200081B
:100130007B0200087B0200087B0200087B020008AB
:10014000E91600087B0200087B0200087B02000819
:10015000552100087B020008652100087B02000889
:100160007B0200087B0200087B0200087B0200087B
:100170007B0200087B0200087B02000800000000F0
:100180007B0200087B020008DFF810D000F0C0FFFF
:1001900000480047793D0108AFF3008028D80020CF
:1001A0002C4B19680868B0E8F04F80F30988BFF35A
:1001B0006F8F4FF0000080F311887047000000003F
:1001C00008480068006880F308884FF0000080F35A
:1001D000148862B661B6BFF34F8FBFF36F8F00DF35
:1001E00000BF00BF08ED00E0DFF80C00016841F43B
:1001F00070010160704700BF88ED00E0EFF30980F7
:10020000BFF36F8F134B1A681EF0100F08BF20ED5D
:10021000108A20E9F04F106009B44FF0500080F3CD
:100220001188BFF34F8FBFF36F8F15F071F94FF047
:10023000000080F3118809BC19680868B0E8F04F25
:100240001EF0100F08BFB0EC108A80F30988BFF3CE
:100250006F8F704730000020EFF30580704700007B
:100260000648804706480047FEE7FEE7FEE7FEE750
:10027000FEE7FEE7FEE7FEE7FEE7FEE7751D010885
:100280008901000870B405880E884468D1F804C05C
:100290005368B54208D140884988884201BF118817
:1002A0008D425188884203D070BC6FF002007047C5
:1002B00005FB00F1880827D094ED001ADCED000A58
:1002C00094ED010ADCED011A31EE201AD4ED020A98
:1002D00070EE211A9CED020A83ED001AC3ED011A9B
:1002E00094ED031ADCED031A30EE800A401E71EE25
:1002F000210A83ED020A04F11004C3ED030A03F19D
:1003000010030CF1100CD7D111F0030030D0B0F174
:10031000004F30D200282BDD211F1B1FACF104023F
:1003200010F0010F0AD091ED010AD2ED010A091D6A
:10033000121D30EE200A83ED010A1B1D400817D064
:1003400091ED010AD2ED010A401E30EE200A83ED44
:10035000010A91ED020AD2ED020A01F1080102F14F
:10036000080230EE200A83ED020A03F10803E7D108
:1003700070BC00207047B4EC010A401EFCEC010A7E
:1003800030EE200AA3EC010AF5D1F1E701804280AA
:10039000436070472DE9F34F84B0049840680090A3
:1003A000486801900498B0F800E04588DFEDFE0A47
:1003B00000200290B0EE600AAE4506D10888498858
:1003C000884204BF7146864504D06FF0020006B033
:1003D000BDE8F08F01985FEA010C18BFB7EE001A74
:1003E0003DD000BFBEEB0C0117D0B1F1004F80F043
:1003F0001F82002911DD021F11F0010F1CBFC2ED89
:10040000010A121D4B1006D0C2ED010AC2ED020A0C
:1004100008325B1EF8D100EB8100BCF10102A0ECB8
:10042000011A19D0B2F1004F80F00882002A13DDC2
:10043000031F12F0010F1CBFC3ED010A1B1D511059
:1004400008D000BFC3ED010AC3ED020A491E03F143
:100450000803F7D100EB8200BCF1010CC2D14FF0D0
:1004600000080395002D14BFB0EE602A002000F0B4
:10047000BF8100BF009908FB05F001EB800B0199DB
:10048000DBED002A01EB80000346F0EE421AC64580
:1004900052D9AEEB0802ABEB850112F0010F17D079
:1004A00001EB850191ED000AB5EEC00AF1EE10FAFC
:1004B00007DDB4EEE10AF1EE10FA09DDF0EE401AC4
:1004C00006E0B1EE400AF4EEC01AF1EE10FAF5D3F0
:1004D000521031D001EB850C9CED000AB5EEC00A3C
:1004E000F1EE10FA05DDB4EEE10AF1EE10FA09DDE5
:1004F00006E0B1EE400AF4EEC01AF1EE10FA01D2B5
:10050000F0EE401A01EBC50191ED000AB5EEC00A0C
:10051000F1EE10FA05DDB4EEE10AF1EE10FA09DDB4
:1005200006E0B1EE400AF4EEC01AF1EE10FA01D284
:10053000F0EE401A521ECDD1F5EEC01AF1EE10FACF
:1005400000F07381F5EEC02A0126F1EE10FA009951
:10055000D4BFB1EE620AB0EE620AB4EE610AF1EE07
:1005600010FA1CBFAEEB0802B2F1010C47D005FB3C
:1005700008F201EB820292ED001A00BFB0EE410AD0
:1005800005FB06F4B5EEC00A00EB8404F1EE10FAA8
:10059000CCBFF0EE400AF1EE400AF4EE610AF1EE53
:1005A00010FA28D1B5EB080C11D0BCF1004F7DD268
:1005B000BCF1000F0BDD00BF92ED000AD1ED000A87
:1005C000BCF1010CE2EC010AA1EC010AF4D1290012
:1005D0000ED0B1F1004F6AD2002909DD94ED000A76
:1005E000D0ED000A491EE4EC010AA0EC010AF5D1A5
:1005F000012002900BE0761CBCF1010CBED10298E8
:10060000012804D0F5EEC02AF1EE10FA7ED09BED61
:10061000000AB5EB08009A465946064622D0B0F1CA
:10062000004F74D200281DDD091F10F0010F06D005
:10063000F0EE400A80EEA01A81ED011A091D40106B
:1006400010D000BFD1ED010A401E80EE801A81ED6E
:10065000011A91ED021AC1EE000AC1ED020A01F180
:100660000801EFD1280026D0B0F1004F7ED200283B
:1006700021DDAAF1040110F0010F06D0D1ED010A2D
:1006800080EE801A81ED011A091D401013D000BFC1
:10069000D1ED010A401E80EE801A81ED011AD1EDE4
:1006A000020A80EE801A81ED021A01E0CBE0D6E06A
:1006B00001F10801ECD1DDE900124FF000095FEA19
:1006C0000E0773D0C14504BF01EB860102EB850222
:1006D00074D091ED000ADC465046330035D01C46FC
:1006E000B6F1004F7ED2002C2FDD0B1FABF1040CB6
:1006F00016F0010F0FD0F0EE400ADCED011AB0EE5B
:10070000601A00EEE11A83ED011A01E08DE0B1E01C
:100710001B1D0CF1040C741015D000BFD3ED010AA1
:100720009CED011A40EE410AC3ED010AD3ED020A25
:100730009CED021A0CF1080C40EE410AC3ED020ACE
:100740000833641EEAD101EB86012B0036D0B3F1E9
:10075000004F72D2002B31DDA2F1040CAAF104008B
:1007600013F0010F0CD0DCED010A00E08BE090EDFE
:10077000011A001D40EE410ACCED010A0CF1040CF7
:100780005C1019D0DCED010A90ED011A40EE410A2F
:10079000CCED010ADCED020A90ED021A083040EEC1
:1007A000410ACCED020A03E0000000000DE005E084
:1007B000641E0CF1080CE5D102EB830201EB880109
:1007C0007F1E09F101097FF47DAF009808F101084F
:1007D000001D00900398401E03907FF44BAE0299D9
:1007E000012900E058E004BF06B0BDE8F08F00BF6B
:1007F000B5EEC00AF1EE10FA7FF4E9AD04990EFBF4
:1008000005F3002B4A684FF000010BD902EB810C75
:100810009CED000AB5EEC00AF1EE10FA02D1491CB7
:100820008B42F3D88B427FF4D2AD6FF00400CEE55B
:10083000E0EC010A491EFBD1EFE538E0E0EC010AEB
:10084000521EFBD108E692ED000AD1ED000ABCF180
:10085000010CE2EC010AA1EC010AF4D1B7E694ED37
:10086000000AD0ED000A491EE4EC010AA0EC010ADE
:10087000F5D1BDE6D1ED000A401E80EE801AA1EC54
:10088000011AF7D1EEE6D3ED000A401E80EE801A81
:10089000A3EC011AF7D10EE7BCEC011AD1ED000A66
:1008A0005B1E40EE410AE1EC010AF5D14DE7B0ECE8
:1008B000011AD2ED000A5B1E40EE410AE2EC010A89
:1008C000F5D17BE72DE9F04F82B04668536801937C
:1008D000058847884B88002000900888874201BF20
:1008E000B2F800C06545528893421EBF6FF0020007
:1008F00002B0BDE8F08F9FED412A4FEA970EC7F393
:10090000400B00BFDDE9000202EB800A4A6898460E
:100910004FF00009B0EE420AB4465FEA0E0025D05F
:1009200092ED001ADCED001A02EB8302DCED010A05
:1009300001EE810A92ED001A02EB8302401ED2ED15
:10094000001A02EB830200EE810A9CED021ADCED34
:10095000030A00040CF1100C000C01EE210A92EDC8
:10096000001A02EB830200EE810AD9D117F00300CE
:1009700026D0ACF10404A2EB830210F0010F08D0E2
:1009800002EB8302D4ED010A92ED001A241D00EE61
:10099000810A5FEA0B0013D002EB830CD4ED010A4D
:1009A0009CED001A02EBC302401E00EE810AD4ED5A
:1009B000020A92ED001A04F1080400EE810AEBD15C
:1009C00009F10100AAEC010A1FFA80F9486800EB5E
:1009D0008902A8F101001FFA80F8B8F1000F99D13F
:1009E000009806EB8706184480B20090681E050444
:1009F0002D0C87D102B00020BDE8F08F0000000070
:100A000070B405880E884468D1F804C05368B542B4
:100A100008D140884988884201BF11888D42518899
:100A2000884203D070BC6FF00200704705FB00F1F4
:100A3000880827D094ED001ADCED000A94ED010A35
:100A4000DCED011A31EE601AD4ED020A70EE611A83
:100A50009CED020A83ED001AC3ED011A94ED031A0E
:100A6000DCED031A30EEC00A401E71EE610A83ED20
:100A7000020A04F11004C3ED030A03F110030CF1A0
:100A8000100CD7D111F0030030D0B0F1004F30D2AC
:100A900000282BDD211F1B1FACF1040210F0010FF9
:100AA0000AD091ED010AD2ED010A091D121D30EEA6
:100AB000600A83ED010A1B1D400817D091ED010A61
:100AC000D2ED010A401E30EE600A83ED010A91ED7D
:100AD000020AD2ED020A01F1080102F1080230EE29
:100AE000600A83ED020A03F10803E7D170BC00201D
:100AF0007047B4EC010A401EFCEC010A30EE600ABB
:100B0000A3EC010AF5D1F1E72DE9F04F028847681F
:100B1000B0F802804888D1F8049082B04FF0000A03
:100B20001646824207BF098888456FF0020002B06E
:100B300018BFBDE8F08F4FEA980B02EB420001901E
:100B4000C8F34000CDF8000009EB8A01BBF1000FAB
:100B500033D0019801EB820C01EB80043B46E64662
:100B600001EBC2054FEA0B0093ED000A401E81ED38
:100B7000000A93ED010A01EB02118CED000A93EDDE
:100B8000020A0CEB021C85ED000A93ED030A05EB4B
:100B9000021584ED000A04EB021403F11003E3D103
:100BA0000EEB820000EB820000EB8201ABF1010052
:100BB000504307EB0B1701EB001118F0030C21D089
:100BC0003B1FA1EB82011CF0010F06D093ED010A3F
:100BD00001EB82011B1D81ED000A009880B100BF6E
:100BE00093ED010A01EB820401EBC20184ED000ADE
:100BF00093ED020A401E81ED000A03F10803EFD1D4
:100C000007EB8C070AF101001FFA80FA701E060438
:100C1000360C99D102B00020BDE8F08F2DE9F05FCD
:100C20000546002092469B4688460646814640245B
:100C30001BE0284641464746224600F0B3F953469A
:100C40005A46C01A914110D311461846224600F068
:100C50009AF92D1A67EB01084F4622460120002120
:100C600000F091F917EB00094E41201EA4F1010498
:100C7000DFDC484631462A464346BDE8F09F40EA5D
:100C800001039B0703D009E008C9121F08C0042A0A
:100C9000FAD203E011F8013B00F8013B521EF9D2F1
:100CA0007047D2B201E000F8012B491EFBD2704719
:100CB0000022F6E710B513460A4604461946FFF728
:100CC000F0FF204610BD421C10F8011B0029FBD18B
:100CD000801A70472DE9FE4F804681EA0300C00F5D
:100CE0000C46009021F0004123F00045B8EB0200D3
:100CF000A94105D24046214690461C460B46024675
:100D000023F00040104347D0270DC7F30A00C3F378
:100D10000A510290401A019040286BDAC3F3130085
:100D200040F4801B0098924620B10023D2EB030AC6
:100D300063EB0B0B01985946C0F14002504600F09E
:100D400022F906460D4650465946019A00F03AF9F6
:100D500010EB08006141002487EA115284EAE7732E
:100D60001A4340D0009A62B3019A012A4FEA07520F
:100D700015DC001B61EB02014FF0004202EA075252
:100D8000CDE90042001C41F5801132462B4600F0AF
:100D900071F903B0BDE8F08F40462146F9E7001B2A
:100DA00061EB0201001C41F5801300185B41201823
:100DB000A2F5001747EB030140EAD570B6196D4163
:100DC00011E06D084FEA360645EAC0754FEA075252
:100DD000001B61EB0201001C41F5801149084FEA3C
:100DE00030000019514132462B4603B0BDE8F04FA8
:100DF00000F031B90098012240000023D0EB02023C
:100E000063EBE073009821464FEAE074B8EB000012
:100E100061EB0401E9E783F000435BE781F0004107
:100E200058E72DE9FE4F81EA030404F0004421F065
:100E3000004100944FF0000B23F0004350EA0104FE
:100E40005ED052EA03045BD0C3F30A54C1F30A55DF
:100E50002C44A4F2F3340194A0FB0254C1F3130117
:100E600041F48011C3F3130343F4801301FB0244E4
:100E700000FB034E840A970A44EA815447EA8357E9
:100E8000A4FB076802958D0A05FB07854FEA932CA2
:100E900004FB0C542705029D4FEA065847EA163713
:100EA000B5EB08056EEB070C870E920E47EA81172B
:100EB00042EA8312A7FB0201B6EB0B0164EB0004CC
:100EC0002B0D43EA0C335E1844EB1C50DA465146B6
:100ED000E7FB0201C5F313044FEA0B3343EA145353
:100EE0004FEA0432019C43EA0603A4F10C04029485
:100EF000009CCDE900B400F0BDF803B0BDE8F08F70
:100F000000200146F9E70EB5C10F80EAE070084401
:100F1000CA07002140F233438DE80E000A460B4613
:100F200000F0A8F803B000BD00F0004230F000402F
:100F30000AD0C10D01F56071C0F3160042EA0151FB
:100F4000C20840071143704700200146704701F076
:100F5000004330B421F0004150EA010206D00A0DEE
:100F6000A2F56072C1F31301002A02DC30BC00203C
:100F70007047440F44EAC104C100E01830BC00EBE4
:100F8000C25000F031B8202A04DB203A00FA02F106
:100F9000002070479140C2F1200320FA03F3194367
:100FA00090407047202A04DB203A21FA02F0002109
:100FB000704721FA02F3D040C2F120029140084369
:100FC00019467047202A06DBCB17203A41FA02F077
:100FD00043EAE07306E041FA02F3D040C2F1200296
:100FE00091400843194670470029A8BF7047401C2C
:100FF000490008BF20F00100704710B4B0FA80FC2F
:1010000000FA0CF050EA010404BF10BC704749B16B
:10101000CCF1200421FA04F411FA0CF118BF0121DB
:1010200021430843A3EB0C01CB1D4FEA00614FEABB
:10103000102042BF002010BC704700EBC35010448A
:101040000029A4BF10BC7047401C490008BF20F015
:10105000010010BC704710B5141E73F1000408DACB
:10106000401C41F1000192185B411A4301D120F06C
:10107000010010BD2DE9F04D92469B4611B1B1FA29
:1010800081F202E0B0FA80F220329046FFF77BFF57
:1010900004460F4640EA0A0041EA0B0153465A460D
:1010A000084313D0114653EA010019D0C8F1400299
:1010B0005046FFF777FF05460E46504659464246D2
:1010C000FFF761FF084305D0012004E020463946C0
:1010D000BDE8F08D0020054346EAE0762C43374317
:1010E0000A986305E40AA0EB08000022FD0A44EA1E
:1010F00047540A3002D500200146E9E701051019DE
:101100006941DDE9084500196941BDE8F04DA2E7F4
:10111000064C074D06E0E06840F0010394E8070044
:1011200098471034AC42F6D3FFF732F87C650108DB
:101130009C65010870B58C1810F8015B15F0070369
:1011400001D110F8013B2A1106D110F8012B03E060
:1011500010F8016B01F8016B5B1EF9D12B0705D468
:101160000023521E0DD401F8013BFAE710F8013BB1
:10117000CB1A921C03E013F8015B01F8015B521ECD
:10118000F9D5A142D8D3002070BD000055494A6866
:1011900022F440324A604A6843681A434A6002684F
:1011A000526822F4807203685A60026853680269C8
:1011B00043EA022203685A600268526822F04072D1
:1011C00003685A600268526883681A4303685A6069
:1011D0000268926822F4006203689A60026892686A
:1011E000C3681A4303689A603F4B826A9A4218D0D8
:1011F0000268926822F0706203689A6002689268DE
:10120000836A1A4303689A600268926822F0405227
:1012100003689A6002689268C36A1A4303689A6016
:101220000BE00268926822F0706203689A600268BC
:10123000926822F0405203689A600268926822F035
:10124000020203689A6002689368027E43EA4202DF
:1012500003689A602022125CA2B10268526842F4CC
:10126000006203685A600268526822F460420368B0
:101270005A6002685368426A521E43EA4232036867
:101280005A6005E00268526822F4006203685A60FE
:101290000268D26A22F470020368DA620268D36AD2
:1012A000828B521E43EA02520368DA620268926835
:1012B00022F4007203689A600268936890F8302004
:1012C00043EA422203689A600268926822F48062CC
:1012D00003689A6002689368426943EA822203685D
:1012E0009A607047002301400100000F10B50748C5
:1012F0000068C06840F0100004490968C860802296
:101300000349024805F012FD10BD00003C14002006
:10131000A485002010B501221021024803F03CF8FA
:1013200010BD00000000024010B50022102102484C
:1013300003F032F810BD00000000024070470000CA
:1013400010B501221146024803F026F810BD000036
:101350000004024010B500220121024803F01CF8ED
:1013600010BD00000004024010B543781B021BB200
:101370000478234300EE103AB8EEC01A1C4BD3EDAC
:10138000001A21EE211A81ED001AC3781B021BB24C
:101390008478234300EE103AB8EEC01A144BD3ED14
:1013A000001A21EE211A81ED011A43791B021BB2AA
:1013B0000479234300EE103AB8EEC01A0C4BD3ED7B
:1013C000001A21EE211A81ED021A037A1B04C47956
:1013D00043EA04238479234300EE903AB8EE601A7E
:1013E000DFED041A21EE211A82ED001A10BD000073
:1013F000B800002000401C42704710B5044620464B
:1014000012F064FD10BD10B50446204612F010F92C
:1014100010BD00004278120212B203781A4300EEA7
:10142000102AF8EEC00A144A92ED001A60EE810A02
:10143000C1ED000AC278120212B283781A4300EE9C
:10144000102AF8EEC00A0C4A92ED001A60EE810AEA
:10145000C1ED010A4279120212B203791A4300EE79
:10146000102AF8EEC00A044A92ED001A60EE810AD2
:10147000C1ED020A70470000BC00002010B5002436
:10148000FFF75CFFFFF7B8FF11F0BCFD10B144F0AF
:10149000800402E011F01CFD044311F0ABFF10B119
:1014A00044F0400402E011F02BFF0443204610BD3D
:1014B0002DE9FC4105460E4617460020009001909C
:1014C000FFF732FF922000F0D1F806226946122081
:1014D00000F0ACF8FFF71EFF9DF80100000200B21B
:1014E0009DF8001040EA010400EE104AB8EEC00A70
:1014F0004C48D0ED000A20EE200A86ED000A9DF847
:101500000300000200B29DF8021040EA010400EE60
:10151000104AB8EEC00A4348D0ED000A20EE200A77
:1015200086ED010A9DF80500000200B29DF8041046
:1015300040EA010400EE104AB8EEC00A3948D0ED86
:10154000000A20EE200A86ED020AFFF703FF0822B8
:101550006946002000F06AF8FFF7F2FE9DF80000EF
:101560000F2838D19DF80300000200B29DF8021048
:1015700040EA010400EE104AB8EEC00A2A48D0ED55
:10158000000A20EE200A85ED000A9DF80500000201
:1015900000B29DF8041040EA010400EE104AB8EED3
:1015A000C00A2148D0ED000A20EE200A85ED010A8C
:1015B0009DF80700000200B29DF8061040EA010401
:1015C00000EE104AB8EEC00A1748D0ED000A20EE2F
:1015D000200A85ED020AFFF7A7FEA22000F046F8D8
:1015E00002226946222000F021F8FFF793FE9DF8C1
:1015F0000000C0009DF8011040EA6114B4F5806F4E
:1016000002DBA4F5006004B200EE104AF8EEC00A56
:10161000B4EE001AB3EE070A00EE810A87ED000A65
:10162000BDE8FC81B8000020BC00002070B5064673
:101630000C46154646F0800000F018F806E05520EC
:1016400000F014F82070641C681EC5B2002DF6D19D
:1016500070BD70B504460D4644F0800000F006F8F9
:10166000552000F003F8287070BD000001B582B06D
:101670004FF47A70012301AA02A90090024804F0F5
:10168000E9F99DF804000EBD7411002010B5024662
:101690001378DB00547843EA6410B0F5806F02DB06
:1016A000A0F5006318B200EE100AF8EEC00AB4EE1E
:1016B000001AB3EE070A00EE810A81ED000A10BDA0
:1016C00070B505460C462846FFF7D0FF2046FFF7C9
:1016D000CDFF70BD00BFFEE710B5024801F094FFDA
:1016E00010BD0000A80F002010B5024801F08CFFCB
:1016F00010BD0000D00F0020F8B504461425206866
:1017000001F067FF064603E0206801F062FF06462D
:10171000032E04D2281EA5F10101CDB2F4D16B46EF
:1017200004F11C02211D206801F053FDF8BD0000EA
:101730002DE9F04104460E4615460027012C01D143
:101740000F4F02E0022C00D10E4F0FB9BDE8F0811F
:101750000D4807604660280A0B4908770846457718
:1017600000218177C17780F8201080F8211080F85F
:10177000221080F82310FFF7BFFF00BFE6E700004C
:10178000A80F0020D00F0020F400002010B5094859
:1017900090ED090ADFED080A20EE200ABDEEC00A2E
:1017A00010EE100A04B2224640F266610120FFF7F3
:1017B000BFFF10BD9479002000007A442DE9F04766
:1017C00004460F4615461E46DDE908894FF0000A1B
:1017D000012C02D1DFF84CA003E0022C01D1DFF88C
:1017E00048A0BAF1000F01D1BDE8F0870F48C0F85A
:1017F00000A04760280A0D49087708464577310A56
:101800008177C6774FEA182180F8201080F8218070
:101810004FEA192180F8221080F82390FFF76CFF1F
:1018200000BFE1E7A80F0020D00F0020F400002047
:101830001B48406800F0006080B31A48406B0068A5
:101840001949884205D94FF0006017494C390860A2
:101850001CE01448406B00681149B831884205D932
:101860004FF000601049503908600FE00D48406BA0
:1018700000680B495831884204D94FF0006008498C
:10188000C86003E04FF000600549886005480068C3
:10189000006840F400700349096808607047000060
:1018A000006002404C1000205864024010B502480D
:1018B00002F036FA10BD00003416002010B5FE48C4
:1018C000C06C0068FD49884276D9FC4854380068ED
:1018D000F949C96C0968FA4A914201D1202169E0AD
:1018E000F549C96C0968F54A483A914201D120216D
:1018F00060E0F149C96C0968F14A6032914201D156
:10190000202157E0EC49C96C0968EC4A1832914231
:1019100001D120214EE0E849C96C0968E84A183233
:10192000914201D1C91445E0E349C96C0968E34A11
:10193000303A914201D1C9143CE0DF49C96C0968D1
:10194000DF4A7832914201D1C91433E0DA49C96CD7
:101950000968DA4A3032914201D1C9142AE0D649E5
:10196000C96C0968D64A3032914202D14FF4001155
:1019700020E0D149C96C0968D04A183A914202D195
:101980004FF4001116E0CC49C96C0968CC4A90327A
:10199000914202D14FF400110CE0C749C96C0968AB
:1019A000C64A4832914203D14FF4001102E003E0ED
:1019B0004FF00061084070E1BF48C06C0068C0494A
:1019C000A831884276D9BD4858380068BA49C96CF0
:1019D0000968BB4A914201D1202169E0B649C96C2E
:1019E0000968B64A483A914201D1202160E0B249E3
:1019F000C96C0968B24A6032914201D1202157E096
:101A0000AD49C96C0968AD4A1832914201D1202113
:101A10004EE0A949C96C0968A94A1832914201D11E
:101A2000C91445E0A449C96C0968A44A303A9142F6
:101A300001D1C9143CE0A049C96C0968A04A7832B8
:101A4000914201D1C91433E09B49C96C09689B4A92
:101A50003032914201D1C9142AE09749C96C096812
:101A6000974A3032914202D14FF4001120E092495E
:101A7000C96C0968914A183A914202D14FF4001199
:101A800016E08D49C96C09688D4A9032914202D1A5
:101A90004FF400110CE08849C96C0968874A483244
:101AA000914203D14FF4001102E003E04FF00061D6
:101AB0000840F2E08048C06C0068814948318842A3
:101AC00076D97F48103840687B49C96C09687C4AE0
:101AD000914201D1202169E07749C96C0968774AB0
:101AE000483A914201D1202160E07349C96C0968EC
:101AF000734A6032914201D1202157E06E49C96C8E
:101B000009686E4A1832914201D120214EE06A499B
:101B1000C96C09686A4A1832914201D1C91445E07A
:101B20006549C96C0968654A303A914201D1C914C6
:101B30003CE06149C96C0968614A7832914201D13F
:101B4000C91433E05C49C96C09685C4A303291427F
:101B500001D1C9142AE05849C96C0968584A303281
:101B6000914202D14FF4001120E05349C96C096839
:101B7000524A183A914202D14FF4001116E04E49F0
:101B8000C96C09684E4A9032914202D14FF400115B
:101B90000CE04949C96C0968484A4832914203D16E
:101BA0004FF4001102E003E04FF00061084074E0E0
:101BB0004348103800684049C96C0968404A91425E
:101BC00001D1202168E03C49C96C09683B4A483A88
:101BD000914201D120215FE03749C96C0968384A38
:101BE0006032914201D1202156E03349C96C096825
:101BF000324A1832914201D120214DE02E49C96C60
:101C000009682F4A1832914201D1C91444E02A4987
:101C1000C96C0968294A303A914201D1C9143BE0A4
:101C20002549C96C0968264A7832914201D1C91404
:101C300032E02149C96C0968204A3032914201D111
:101C4000C91429E01C49C96C09681D4A3032914207
:101C500002D14FF400111FE01749C96C0968174AF7
:101C6000183A914202D14FF4001115E01249C96CA3
:101C70000968134A9032914202D14FF400110BE0EF
:101C80000D49C96C09680D4A4832914202D14FF49E
:101C9000001101E04FF00061084000286FD00648B5
:101CA000C06C0068054988427BD90348C06C006855
:101CB0000349884208D105E07411002058640240AD
:101CC00010600240202068E0FE48C06C0068FE49B9
:101CD000884201D1202060E0FA48C06C0068FB49CE
:101CE000884201D1202058E0F648C06C0068F649CF
:101CF0006031884201D120204FE0F248C06C00687A
:101D0000F2494839884201D1C01446E0ED48C06C20
:101D10000068ED491831884201D1C0143DE0E9481E
:101D2000C06C0068E9491831884201D1C01434E020
:101D3000E448C06C0068E4497831884201D1C0149D
:101D40002BE0E048C06C0068E0493039884202D19D
:101D50004FF4001021E0DB48C06C0068DA493031F4
:101D6000884202D14FF4001017E0D648C06C0068DA
:101D7000D6493031884204D14FF400100DE0DFE144
:101D80000FE0D048C06C0068CF499031884202D142
:101D90004FF4001001E04FF00060CB49091F0860CC
:101DA0006AE1C848C06C0068C8494831884274D9A3
:101DB000C448C06C0068C5496039884201D1202000
:101DC00066E0C048C06C0068BF49884201D120204D
:101DD0005EE0BC48C06C0068BC49884201D120204C
:101DE00056E0B848C06C0068B7496031884201D1FC
:101DF00020204DE0B348C06C0068B449483988429F
:101E000001D1C01444E0AF48C06C0068AE4918313D
:101E1000884201D1C0143BE0AA48C06C0068AB49BD
:101E20001831884201D1C01432E0A648C06C006865
:101E3000A5497831884201D1C01429E0A148C06C7D
:101E40000068A2493039884202D14FF400101FE0E7
:101E50009C48C06C00689C493031884202D14FF4E4
:101E6000001015E09748C06C0068984930318842EE
:101E700002D14FF400100BE09248C06C0068924908
:101E80009031884202D14FF4001001E04FF0006021
:101E90008D4908390860EFE0FFE78A48C06C0068A8
:101EA0008A491839884274D98648C06C00688749C5
:101EB0006039884201D1202066E08248C06C006809
:101EC0008149884201D120205EE07E48C06C0068D4
:101ED0007E49884201D1202056E07A48C06C0068D3
:101EE00079496031884201D120204DE07548C06CAD
:101EF000006876494839884201D1C01444E07148ED
:101F0000C06C006870491831884201D1C0143BE0B0
:101F10006C48C06C00686D491831884201D1C0140A
:101F200032E06848C06C006867497831884201D166
:101F3000C01429E06348C06C0068644930398842A5
:101F400002D14FF400101FE05E48C06C00685E498B
:101F50003031884202D14FF4001015E05948C06C6E
:101F600000685A493031884202D14FF400100BE02A
:101F70005448C06C006854499031884202D14FF4F3
:101F8000001001E04FF0006050497039C86073E004
:101F9000FFE74C48C06C00684C496039884201D169
:101FA000202066E04748C06C00684749884201D15C
:101FB00020205EE04348C06C00684449884201D15B
:101FC000202056E03F48C06C00683F49603188429D
:101FD00001D120204DE03B48C06C00683B494839A6
:101FE000884201D1C01444E03648C06C00683649CC
:101FF0001831884201D1C0143BE03248C06C0068FF
:1020000032491831884201D1C01432E02D48C06CE9
:1020100000682D497831884201D1C01429E029484F
:10202000C06C006829493039884202D14FF4001051
:102030001FE02448C06C006823493031884202D137
:102040004FF4001015E01F48C06C00681F49303184
:10205000884202D14FF400100BE01A48C06C0068AF
:1020600019499031884202D14FF4001001E04FF03D
:1020700000601649703988601548007800F0020049
:1020800078B11348007820F0020011490870084622
:10209000007840F004000870012211460D4802F05B
:1020A0007BF90D48007800F00200E0B10A480078A2
:1020B00020F00200084908700846007840F004004B
:1020C00008700BE074110020106402407060024040
:1020D00021050020000402402205002001221021D9
:1020E000184802F059F91848007800F0020078B159
:1020F0001548007820F0020013490870084600785F
:1021000040F004000870012210210E4802F044F94A
:1021100011F0DEFB0D48007800F0040080B10B48A0
:10212000007820F00400094908700846007840F063
:10213000080008700648006840F001000449086083
:1021400010BD0000000002402305002021050020F2
:10215000103C014010B5024801F0E2FD10BD000046
:102160007415002010B5024801F0DAFD10BD000022
:10217000141500200146087810381823B0FBF3F23C
:102180000848805CC865032A05D908686FF3090010
:10219000001D886503E008686FF309008865886D95
:1021A0007047000074640108014600208A6A8B6948
:1021B000CBB932B1012A0DD0022A03D0032A10D1A3
:1021C0000EE000BFCB6A03F08073B3F1807F00D1D3
:1021D000012007E0CB6AB3F1C07F00D1012001E00C
:1021E00000E000BF34E08B69B3F5005F1AD132B173
:1021F000012A07D0022A03D0032A11D10AE000BF26
:1022000001200EE0CB6A03F08073B3F1807F00D130
:10221000012006E0CB6AB3F1C07F00D1012000E0CD
:1022200000BF15E032B1012A05D0022A04D0032AEA
:102230000CD103E000BF00BF012008E0CB6A03F02F
:102240008073B3F1807F00D1012000E000BF00BFA8
:10225000704730B50468246824F4802405682C6035
:10226000046863608468402C04D10468A260046838
:10227000E16003E00468A1600468E26030BD70477B
:1022800070B504460D46164640F203222868811AAE
:1022900090421FD013DC552844D008DC51283DD093
:1022A00052283CD053283BD054285BD139E05628E3
:1022B00039D0A0F2012058B1012853D109E00929F1
:1022C00050D2DFE801F04F08090A0B0C0D0E0F0089
:1022D00000BF00BF00BF00BF00BF00BF00BF00BF06
:1022E00000BF00BF2878401E204908702048844263
:1022F00008D120491D4A127801EB0210314600F046
:1023000045F80AE01C48844207D11C49174A127854
:1023100001EB0210314600F039F870BD00BF00BF7C
:1023200000BF00BF00BF2878513815490870104819
:10233000844209D10978C1EB0111124A02EB8100F4
:10234000314600F04FF80CE00B48844209D10C49AB
:102350000978C1EB01110C4A02EB8100314600F013
:1023600041F8DAE700BF00BF00BFD6E71801002040
:10237000A80F0020047D0020D00F0020B47D002095
:1023800019010020647E0020547F002070B50446AF
:102390000D46208800B220816878297840EA012023
:1023A0002080E878A97840EA012000B2608068794E
:1023B000297940EA012000B2A080A879A07101F03B
:1023C000F1FFE06070BD70B50446204600F038F9BA
:1023D000054605B970BD62892178284600F08CF861
:1023E00000BFF7E770B504460D46287800F00F00EF
:1023F0002060287800116060A878697840EA0120A0
:10240000A060E8780001297940EA2110E06068794D
:10241000297901F00F0140EA012020611021DFED50
:10242000170A9FED170AA06812F02AFD84ED070A2B
:102430000C21F3EE0E0ABBEE0E0AE06812F020FD4E
:1024400084ED080A0C21F2EE040ABAEE040A2069AF
:1024500012F016FD84ED090AA87900EE100AB8EE14
:10246000400A84ED0C0AE87900EE100AB8EE400A42
:1024700084ED0D0A01F096FFA06370BDD00F4940B6
:10248000D00F49C070B52DED028B0446B0EE408AE6
:10249000F0EE608A204600F0D3F8054615B9BDEC91
:1024A000028B70BD94ED0E1AB0EE412A94ED0F1A16
:1024B000F0EE410A94ED101AB0EE410A2178F0EEE8
:1024C000681AB0EE481A284607F058FA00BFE6E747
:1024D00010B5012001F058FE10BD10B5082001F024
:1024E00053FE10BD10B5102001F04EFE10BD10B50A
:1024F000202001F049FE10BD70B504460E46154679
:102500000B48046070190A494860FF200877FF21D2
:10251000074841778177C17780F8201080F8211033
:1025200080F82210FC2180F82310FFF7E5F870BD39
:10253000F400002072B600BFFEE7000070B504464C
:102540000D46B5F9020000EE100AB8EEC00ADFED44
:102550001C0A20EE200A84ED050A2888400000EEBF
:10256000100AB8EEC00ADFED170A20EE200A9FED30
:10257000161AC0EE010A9FED130A30EEC00A84ED70
:10258000070AA87900EE100AB8EE400A84ED080A9E
:10259000B5F9040000EE100AB8EEC00A84ED090A8D
:1025A0002988618501F0FEFE0646E868301A0A288F
:1025B00002D90120207301E00020207370BD0000CB
:1025C0005077D63DDB0F49400000004602460C29FB
:1025D0000BDA012A03D1064800EB01107047022AEA
:1025E00003D1044800EB0110F8E701481030F5E78B
:1025F000047D0020B47D002070B504460D4695EDA5
:10260000070A84ED070A95ED080A84ED050A95EDA1
:10261000090A84ED060A95ED0C0A84ED080A297969
:102620002C20015501F0BEFE0646A86B301A0A2880
:1026300002D90120207301E00020207370BD00004A
:1026400001464878032801D0002070478878012887
:1026500001D10448F9E78878022801D10248F4E75B
:102660000020F2E7A80F0020D00F0020024901EB64
:10267000800191ED000A7047E4840020024901EBDB
:10268000800191ED000A7047F084002070B5044687
:10269000607830B1012805D002280FD0032832D14C
:1026A00018E000BF2278521ED1B2A078FFF78EFF4B
:1026B000054629462046FFF741FF25E02278D21C37
:1026C000D1B2A078FFF782FF054629462046FFF7E2
:1026D00035FF19E0A07801280AD12078401EC0EB10
:1026E00000100A4A02EB80012046FFF785FF09E04F
:1026F0002078401EC0EB0010054A02EB8001204606
:10270000FFF77AFF00E000BF00BF70BD647E0020CD
:10271000547F002010B52DED0A8BFE48007901286A
:1027200009D19FEDFD0AFB4880ED220A9FEDFA0AD0
:1027300080ED100A95E2F7480079022871D19FEDEB
:10274000F60AF44880ED260AD0ED2F1AB0EE611A91
:10275000D0ED321AF0EE610AD0ED261AB0EE610A21
:1027600010F0B2FFEB4880ED260A90F9580001EE18
:10277000100AB8EEC11AE748D0ED291A21EE211A45
:10278000B0EE410A90ED261AF0EE410AE3480CF053
:1027900067F9E04880ED230A90F9580001EE100A2D
:1027A000B8EEC11ADB48D0ED2C1A21EE211AB0EE9A
:1027B000410A90ED231AF0EE410AD84848300CF057
:1027C0004FF9D44880ED220A9FEDD50A80ED270A03
:1027D00090ED271AF0EE410A90ED091AB0EE410A89
:1027E000CE4890380CF03CF9CA4880ED110A90EDC3
:1027F000111AF0EE410A90ED2D1AB0EE410AC748C9
:1028000048380CF02DF9C34890F9100000EE900AFA
:10281000F8EEE00A20EE200ABE4880ED100A20E221
:10282000FFE7BC48007903287ED1BE48007D01281F
:102830007AD0BC48007F012877D1BB48007838B9EE
:10284000B44890ED2A0A80ED270A0120B6490870A5
:10285000B449B1F90C00FEF756FB41EC1C0B9FED9F
:10286000B30B53EC102BFEF7DCFA41EC1A0BA94822
:1028700090ED270A10EE101A0846FEF755FB41ECC2
:102880001B0B53EC1A2BFEF7C6FA41EC190BFEF7A3
:102890005EFBA049C1F89C00A249B1F90800FEF70F
:1028A00032FB41EC1C0B9FEDA30B53EC102BFEF7FE
:1028B000B8FA41EC1A0B974890ED270A10EE101A5F
:1028C0000846FEF731FB41EC1B0B53EC1A2BFEF7CD
:1028D000A2FA41EC190BFEF73AFB8E49C1F89C00B5
:1028E000084690ED2A1AF0EE410A90ED271AB0EE54
:1028F000410A10F0DFFAB0EE408A864890ED2A0ACD
:1029000070EE088AD0ED2A0AB0EE600AF0EE680A8E
:10291000824890380CF0A4F87E4880ED110A90EDC2
:10292000111AF0EE410A01E0C0E014E090ED2D1A1A
:10293000B0EE410A794848380CF092F8754890F9A1
:10294000100000EE900AF8EEE00A20EE200A71482E
:1029500080ED100A44E00020734908707149B1F914
:102960000800FEF7D0FA41EC1B0B9FED740B53EC03
:10297000102BFEF756FA41EC190B6A49B1F90C100D
:102980004842FEF7C0FA41EC1B0B9FED6E0B53EC77
:10299000102BFEF746FA41EC1A0B53EC192BFEF7FD
:1029A0003AFA41EC180BFEF7D2FA01465948416455
:1029B00090ED111AF0EE410A90ED2D1AB0EE410A99
:1029C000564848380CF04CF8524890F9100000EE88
:1029D000900AF8EEE00A20EE200A4E4880ED100A38
:1029E0005049B1F90A00FEF78EFA41EC1B0B9FED3E
:1029F000570B53EC102BFEF714FA41EC190B45481A
:102A000090ED260A10EE101A0846FEF78DFA41ECFA
:102A10001A0B53EC192BFEF75DF941EC180BFEF77E
:102A200096FA3C49C1F898000846D0ED2F1AB0EE4E
:102A3000611AD0ED321AF0EE610AD0ED261AB0EE2E
:102A4000610A10F041FE334880ED260A90F95800E3
:102A500001EE100AB8EEC11A2E48D0ED291A21EE67
:102A6000211AB0EE410A90ED261AF0EE410A2B48E9
:102A70000BF0F6FF274880ED230A90F9580001EE8D
:102A8000100AB8EEC11A2348D0ED2C1A21EE211AF3
:102A9000B0EE410A90ED231AF0EE410A1F4848308B
:102AA0000BF0DEFF1B4880ED220ADAE019480079BE
:102AB00003287DD11B48007D012879D1254890F855
:102AC000800001280DDB234890ED240AB1EE400A76
:102AD000104880ED260A1F4890ED210A0D4880ED30
:102AE000270A1C4890F8800060B91A4890F88100C5
:102AF00040B1084890ED290A80ED260A90ED2A0A97
:102B000080ED270A134890F88000124981F881006F
:102B1000004821E09479002000000000347C00206F
:102B20006CF6D43F44800020F000002005A2276509
:102B30005243EB3E2D431CEBE2360A3F9A9999999A
:102B40009999A93F5A643BDF4F8D973F691D554DB9
:102B50001075FF3E08850020D0ED2F1AB0EE611AE7
:102B6000D0ED321AF0EE610AD0ED261AB0EE610A0D
:102B700010F0AAFD3C4880ED260AD0ED270AB0EE01
:102B8000600AB0EE081AF8EE080A10F09DFD36480B
:102B900080ED270A90F9580001EE100AB8EEC11A2C
:102BA0003148D0ED291A21EE211AB0EE410A00E099
:102BB0004EE090ED261AF0EE410A2C480BF050FF43
:102BC000294880ED230A90F9580001EE100AB8EE6A
:102BD000C11A2548D0ED2C1A21EE211AB0EE410A77
:102BE00090ED231AF0EE410A204848300BF038FFF0
:102BF0001D4880ED200A90ED2A1AF0EE410A90ED72
:102C0000271AB0EE410A10F055F9B0EE408A164886
:102C100090ED2A0A70EE088A1548C0ED068A12481F
:102C200090ED2D1A1348D0ED061A31EE211AF0EE70
:102C3000410A0D4890ED2A1AB0EE410A0C480CF0FA
:102C4000F9F80B4890ED0E0A074880ED0E0A08E0EF
:102C50001FED4F0A044880ED220A1FED510A80ED56
:102C6000100ABDEC0A8B10BD94790020347C002042
:102C7000C47C0020448000201CB510F00DFE4249A9
:102C800008609FED420A084680ED260A9FED3F0A44
:102C900080ED270A9FED3D0A80ED290A9FED3B0A52
:102CA00080ED2A0A9FED390A80ED2C0A9FED370A44
:102CB00080ED2D0A9FED360A80ED2F0A9FED350A33
:102CC00080ED320ADFED340AB1EE040A334A002106
:102CD00033480BF0BDFFDFED2D0AB1EE040A314A97
:102CE00000212F4848300BF0B3FFF0EE000AB1EEA0
:102CF000040A2D4A00212A4890300BF0A9FFDFED8D
:102D0000230AB1EE0C0A294A00212548D8300BF0DD
:102D10009FFF9FED270A274806F018F8F2EE042AD5
:102D20009FED1D2AF2EE041A9FED231AF6EE000A1B
:102D3000B1EE040A21480CF045F800200121B7EE5D
:102D4000000A03230A46CDE900100F48083006F0B8
:102D50008BFE0020411EB7EE000A03230222CDE9BC
:102D6000001019460848503006F07EFE064808302C
:102D7000FFF729FB04485030FFF725FB01200249EB
:102D8000087148711CBD000094790020000000000B
:102D90009A99993ECDCCCCBECDCC4C3FB4640108C1
:102DA000A47B0020C0640108CC640108D864010839
:102DB0006666663FE80000200AD7A33BC47C00207B
:102DC00010B52C48FFF762FC2A484830FFF75EFC3C
:102DD0000020FFF74BFC2748083880ED290A022025
:102DE000FFF744FC2348083880ED2A0A0020FFF74B
:102DF00045FC2048083880ED2C0A0220FFF73EFCF5
:102E00001C48083880ED2D0A13F086F81949083956
:102E1000D1F80812401A17490839C1F80C0213F00A
:102E20007BF814490839C1F808020846007D0128DA
:102E300004D0084690F85C00012819D10D48FFF72E
:102E4000C2FA012011F042F80A484830FFF7BBFAF5
:102E5000012011F03BF80748FFF7B5FA012011F007
:102E600035F804484830FFF7AEFA012011F02EF88B
:102E700010BD00009C790020134908791349897C12
:102E8000114A1171114648710979527991421AD04B
:102E90000D490979032909D10B4991ED290A81EDE1
:102EA000260A91ED2A0A81ED270A0CE006490979E4
:102EB000022908D19FED060A034981ED260A91ED0A
:102EC0002A0A81ED270A7047947900204480002067
:102ED0000000000010B5DFED090A9FED080A084860
:102EE000FFF7D0FADFED050A9FED040A04484830E9
:102EF000FFF7C8FAFEF74AFC10BD00000000000012
:102F00009C7900207047000038B5024600200090F0
:102F100000BF92F83C00012801D1022038BD0120F9
:102F200082F83C0000BF0868092816D91068C068FC
:102F30000C780A3C04EB44050724AC40A043146819
:102F4000E0600C780A3C04EB44048868A0401468F4
:102F5000E46820431468E06013E0106800690C78AE
:102F600004EB44050724AC40A043146820610C78AE
:102F700004EB44048868A040146824692043146862
:102F800020614868072817D21068406B0C79641ECE
:102F900004EB84051F24AC40A043146860630888D8
:102FA00080B20C79641E04EB8404A0401468646B46
:102FB00020431468606331E048680D2817D2106818
:102FC000006B0C79E41F04EB84051F24AC40A04384
:102FD00014682063088880B20C79E41F04EB840431
:102FE000A0401468246B20431468206316E0106826
:102FF000C06A0C790D3C04EB84051F24AC40A0434F
:103000001468E062088880B20C790D3C04EB8404FB
:10301000A0401468E46A20431468E062194B1A4C1B
:103020001068A04206D10868122803D1586840F4FD
:1030300080005860144C1068A0421CD10868102809
:1030400002D00868112816D1586840F40000586072
:10305000086810280FD10D4800680D4CB0FBF4F043
:1030600000EB80004000009002E00098401E0090BD
:1030700000980028F9D100BF002082F83C0000BF72
:1030800000BF4BE700230140002001402C0000203E
:1030900040420F0070B5044600250CB9012070BDF8
:1030A0001549A06A884200D000BF206C30B9204684
:1030B00000F024F80020606484F83C00206C00F0EC
:1030C000100088B9206C20F4885040F00200206481
:1030D0002046FEF75BF800206064206C20F00200C0
:1030E00040F00100206400E0012500BF002084F8CA
:1030F0003C0000BF2846D2E70100000F10B586B0A3
:103100000446142101A8FDF7D3FD23492068884215
:103110000FD100BF002000902048006840F480706C
:103120001E4908600846006800F48070009000BFE7
:103130002FE01B49206888422BD100BF002000905F
:103140001648006840F4806014490860084600682A
:1031500000F48060009000BF00BF00BF002000901E
:103160000E481438006840F020000C4914390860FB
:103170000846006800F02000009000BF00BF08155E
:103180000190032002900020039001A9054801F05E
:1031900009F806B010BD000000200140443802408C
:1031A000002201400014024010B5024692F820307F
:1031B000012B01D0022B06D1106840690843146826
:1031C0006061002010BD506A40F4802050620120F0
:1031D000F8E7F0B504460D461E4694F820702068C6
:1031E0008368A86800B900E000BF012F01D0022F5A
:1031F0007DD103F0806030B903F0006018B903F0AE
:10320000805000287ED0C3F30161012088403060E7
:10321000A86860B9B5F800C0E86840EA4C5C20686E
:1032200000F5C07000EB0110C0F800C00FE0D5E958
:1032300001C040EACC00D5F80CC040EA0C00D4F83C
:1032400000C00CF5C07C0CEB011CCCF80000D5F8DC
:1032500010C0206800F5C07000EB0110C0F804C079
:10326000287D01280ED1206800F5C07000EB011008
:10327000406840F4807C206800F5C07000EB0110CD
:10328000C0F804C0D079000692F806C040EA0C40AD
:1032900092F805C040EA0C2092F804C040EA0C0005
:1032A000D4F800C00CF5C07C0CEB011CCCF80C0071
:1032B000D078000692F802C040EA0C4092F801C0B3
:1032C00040EA0C2092F800C040EA0C00D4F800C09C
:1032D0000CF5C07C0CEB011CCCF80800206800F554
:1032E000C07000EB0110006840F0010C01E00FE03D
:1032F00008E0206800F5C07000EB0110C0F800C0C5
:103300000020F0BD606A40F4001060620120F8E720
:10331000606A40F4802060620120F2E7F0B5044664
:103320000A4694F82050012D01D0022D7ED1424949
:1033300001F50071086840F001000860086820F499
:103340007C5008600868566A40EA06200860107DD4
:1033500000F01F06012000FA06F3C8699843C8610F
:10336000A1F50071D069C8B9D1F80C029843C1F831
:103370000C02908880B2968940EA064601F51070EA
:10338000576940F83760108880B2168940EA0646CF
:1033900001F51070576900EBC7004660D06901283D
:1033A00019D1D1F80C021843C1F80C02908880B2F0
:1033B000168840EA064601F51070576940F83760F4
:1033C000908980B2168940EA064601F51070576967
:1033D00000EBC7004660906928B9D1F80402984311
:1033E000C1F8040204E0D1F804021843C1F8040251
:1033F000106928B9D1F814029843C1F8140204E006
:10340000D1F814021843C1F81402106A012804D13B
:10341000D1F81C021843C1F81C02D1F8000220F0B8
:103420000100C1F800020020F0BDFFE7606A40F42F
:10343000802060620120F7E700640040704770B5AB
:10344000044694F82050012D01D0022D7DD151B9B0
:103450002068C06800F0030080B9606A40F4001082
:103460006062012070BD2068006900F0030028B987
:10347000606A40F4001060620120F3E7206800F504
:10348000D87000EB0110006800F0040090609068B4
:1034900040B9206800F5D87000EB01100068400DBD
:1034A000106007E0206800F5D87000EB011000689C
:1034B000C0085060206800F5D87000EB011000686B
:1034C00000F00200D060206800F5D87000EB011019
:1034D000406800F00F00082802D30820106108E0BF
:1034E000206800F5D87000EB0110406800F00F0074
:1034F0001061206800F5D87000EB0110406800F4FE
:103500007F40000A9061206800F5D87000EB011040
:103510004068000C5061206800F5D87000EB011085
:1035200080681870206800F5D87000EB0110806882
:1035300000F47F40000A5870206800F5D87000EB56
:103540000110806800F47F0000E03CE0000C9870FF
:10355000206800F5D87000EB01108068000ED8706C
:10356000206800F5D87000EB0110C0681871206861
:1035700000F5D87000EB0110C06800F47F40000A2D
:103580005871206800F5D87000EB0110C06800F495
:103590007F00000C9871206800F5D87000EB0110D6
:1035A000C068000ED87131B92068C06840F02000B2
:1035B0002668F06005E02068006940F02000266879
:1035C000306100204EE7606A40F480206062012094
:1035D00048E70146002091F82020012A01D0022A64
:1035E00011D10B689B6803F0806303B1401C0B682A
:1035F0009B6803F0006303B1401C0B689B6803F0F9
:10360000805303B1401C70472DE9F05F044600254C
:10361000206846692068D0F8049020688768206890
:10362000D0F80CA02068D0F810B02068D0F818802E
:1036300006F00100002855D007F00100C0B10120BC
:103640002168886007F0020018B1204600F0F7FA00
:103650000EE007F0040010B145F4006508E007F043
:10366000080010B145F4805502E0204600F0E6FA6B
:1036700007F48070C8B14FF480702168886007F447
:10368000007018B1204600F0DCFA0EE007F480600C
:1036900010B145F4005508E007F4006010B145F49E
:1036A000804502E0204600F0CBFA07F48030C8B134
:1036B0004FF480302168886007F4003018B120464C
:1036C00000F0C1FA0EE007F4802010B145F4004587
:1036D00008E007F4002010B145F4803502E02046F0
:1036E00000F0B0FA06F0080038B10AF0100020B17E
:1036F00045F4007510202168C86006F0040040B150
:103700000AF0080028B108202168C860204600F0AF
:103710000DFA06F0020038B12068C06800F003001E
:1037200010B1204600F004FA06F0400038B10BF06A
:10373000100020B145F4806510202168086106F072
:10374000200040B10BF0080028B108202168086172
:10375000204600F009FA06F0100038B12068006930
:1037600000F0030010B1204600F000FA06F400302B
:1037700040B109F0100028B11020216848602046AF
:1037800000F02CFA06F4803040B109F0080028B1AE
:10379000082021684860204600F056FA06F40040F0
:1037A00088B309F0040078B306F4807020B108F003
:1037B000010008B145F0010506F4007020B108F0E1
:1037C000020008B145F0020506F4806020B108F05F
:1037D000040008B145F0040506F40060A0B108F04B
:1037E000700088B108F07000402817D006DC10285F
:1037F0000BD020280CD0302819D10CE0502810D044
:10380000602814D110E01DE019E045F008050FE034
:1038100045F010050CE045F0200509E045F04005B5
:1038200006E045F0800503E045F4807500E000BF48
:1038300000BF2068806920F0700021688861042042
:10384000216848602DB1606A284360622046FFF716
:10385000F5FDBDE8F09F70B504460CB9012070BDC0
:1038600094F8200010B9204600F0B0F820680068F5
:1038700040F001002168086000F094FD05460DE06D
:1038800000F090FD401B0A2808D9606A40F400301F
:103890006062052084F820000120E0E7206840688D
:1038A00000F001000028EBD02068006820F0020042
:1038B0002168086000F076FD05460DE000F072FD1D
:1038C000401B0A2808D9606A40F400306062052075
:1038D00084F820000120C2E72068406800F0020060
:1038E0000028EBD1207E012806D12068006840F036
:1038F00080002168086005E02068006820F08000F2
:1039000021680860607E012806D12068006840F0C8
:1039100040002168086005E02068006820F0400051
:1039200021680860A07E012806D12068006840F068
:1039300020002168086005E02068006820F0200071
:1039400021680860E07E012806D12068006820F028
:1039500010002168086005E02068006840F0100051
:1039600021680860207F012806D12068006840F0A7
:1039700008002168086005E02068006820F0080061
:1039800021680860607F012806D12068006840F047
:1039900004002168086005E02068006820F0040049
:1039A00021680860D4E9020108432169084361697C
:1039B00008436168491E08432168C86100206062AD
:1039C000012084F82000002049E7000010B586B0EF
:1039D0000446142101A8FDF76BF94E49206888427E
:1039E00041D14D480068401C4B49086008460068BA
:1039F00001280FD100BF002000904848006840F027
:103A00000070464908600846006800F000700090A9
:103A100000BF00BF00BF0020009040481038006881
:103A200040F008003D49103908600846006800F081
:103A30000800009000BF00BF032001900220029008
:103A400000200390032004900920059001A9344828
:103A500000F0A8FB00220521152001F083F91520B4
:103A600001F06CF954E02F492068884250D100BF22
:103A7000002000902948006840F0806027490860D5
:103A80000846006800F08060009000BF00BF224838
:103A90000068401C204908600846006801280FD1D2
:103AA00000BF002000901D48006840F000701B49D6
:103AB00008600846006800F00070009000BF00BF7A
:103AC00000BF0020009015481038006840F0020048
:103AD0001249103908600846006800F002000090A2
:103AE00000BF00BF602001900220029000200390E0
:103AF000032004900920059001A90B4800F052FB17
:103B000000220621402001F02DF9402001F016F995
:103B100006B010BD006400401C0000204038024088
:103B2000000C0240006800400004024070470000A2
:103B300010B58AB0044601AB03AA00212046FFF766
:103B40007EFC059820B901AA03A92046FEF798FB40
:103B50000398042803D101A90248FEF743FC0AB0E8
:103B600010BD0000CC7F00207047000010B58AB067
:103B7000044601AB03AA01212046FFF760FC05982B
:103B800020B901AA03A92046FEF77AFB40F255515D
:103B90000398884203D101A90E4805F085FE40F242
:103BA00056510398884203D101A90A4805F0B4FE92
:103BB00040F257510398884203D101A9054805F006
:103BC000C5FE0398022803D101A90348FEF70AFCA9
:103BD0000AB010BD44800020647E0020704770B59C
:103BE000044694F82000012822D1022084F8200005
:103BF0002068006820F001002168086000F0D2FB16
:103C000005460DE000F0CEFB401B0A2808D9606A8B
:103C100040F400306062052084F82000012070BD6F
:103C20002068406800F001000028EBD16062F6E7F0
:103C3000606A40F4002060620120F0E7704770473E
:103C40007047704770477047704770B50446A56D60
:103C500000F0A8FB064694F83500022808D0802022
:103C6000606500BF002084F8340000BF012070BDF3
:103C70002068006820F0160021680860206840690C
:103C800020F0800021684861206C08B9A06C28B140
:103C90002068006820F0080021680860206800683B
:103CA00020F001002168086010E000F07BFB801B21
:103CB00005280BD920206065032084F8350000BF5B
:103CC000002084F8340000BF0320D0E7206800689B
:103CD00000F001000028E8D194F85C103F208840F3
:103CE000A860012084F8350000BF002084F834006B
:103CF00000BF00BFBBE7014691F83500022803D0A2
:103D00008020486501207047052081F8350008684B
:103D1000006820F001000A6810600020F3E700004E
:103D2000F8B50446002000908C4800684FF4165106
:103D3000B0FBF1F7A56D2E6894F85C100820884060
:103D4000304098B12068006800F0040070B120682D
:103D5000006820F004002168086094F85C100820D6
:103D60008840A860606D40F00100606594F85C10C8
:103D700001208840304068B12068406900F0800030
:103D800040B194F85C1001208840A860606D40F05C
:103D90000200606594F85C1004208840304068B1EF
:103DA0002068006800F0020040B194F85C10042024
:103DB0008840A860606D40F00400606594F85C1075
:103DC00010208840304078B32068006800F0080078
:103DD00050B394F85C1010208840A86020680068F8
:103DE00000F4802080B12068006800F4002028B929
:103DF000206CC8B12046216C884715E0A06C98B1B2
:103E00002046A16C88470FE02068006800F48070AD
:103E100028B92068006820F0080021680860206C3C
:103E200010B12046216C884794F85C10202088400F
:103E30003040002865D02068006800F0100000289D
:103E40005FD094F85C1020208840A86094F835007A
:103E5000052828D12068006820F016002168086035
:103E60002068406920F0800021684861206C08B912
:103E7000A06C28B12068006820F008002168086064
:103E800094F85C103F208840A860012084F8350039
:103E900000BF002084F8340000BF206D10B1204620
:103EA000216D8847F8BD2068006800F4802080B14B
:103EB0002068006800F4002028B9606C10B120462A
:103EC000616C88471DE0E06BD8B12046E16B884704
:103ED00017E02068006800F4807068B92068006806
:103EE00020F0100021680860012084F8350000BF30
:103EF000002084F8340000BFE06B10B12046E16B75
:103F00008847606D38B3606D00F00100F0B10520A6
:103F100084F835002068006820F0010021680860FE
:103F200000BF0098401C0090B84200D905E020680E
:103F3000006800F001000028F3D100BF012084F8E0
:103F4000350000BF002084F8340000BFE06C10B1E1
:103F50002046E16C884700BFA4E700002C00002049
:103F60002DE9F0410446002500F01CFA074614B97B
:103F70000120BDE8F081606A00B100BF022084F832
:103F8000350000BF002084F8340000BF20680068BE
:103F900020F00100216808600AE000F003FAC01B6D
:103FA000052805D920206065032084F83500E0E766
:103FB0002068006800F001000028EED12068056844
:103FC00021480540D4E901010843E168084321691B
:103FD000084361690843A1690843E1690843216A0C
:103FE00008430543606A042803D1D4E90B01084360
:103FF0000543206805602068456925F00705606A6B
:104000000543606A04280DD1A06A0543E06A48B1FF
:104010002046FEF7C9F828B140206065012084F8E9
:104020003500A6E7206845612046FEF7A3F806465E
:1040300094F85C103F208840B0600020606501204B
:1040400084F83500002094E73F8010F02DE9F04718
:1040500004460D4616461F464FF00008D4F8589007
:1040600000BF94F83400012802D10220BDE8F08797
:10407000012084F8340000BF94F83500012825D1D0
:10408000022084F83500002060653B463246294610
:104090002046FEF7DEF894F85C103F208840C9F80F
:1040A00008002068006840F0160021680860206C55
:1040B00028B12068006840F0080021680860206886
:1040C000006840F001002168086006E000BF0020A1
:1040D00084F8340000BF4FF002084046C6E70000F5
:1040E00010B50446102C11D11F48007840F0010093
:1040F0001D4908701D48007840F001001B490870F8
:104100001B48007870B30FF0E3FB2BE0202C0BD1A1
:104110001848007840F001001649087014480078EB
:1041200000B30FF0D5FB1DE0082C06D11248007833
:1041300040F001001049087014E0012C12D111F078
:10414000DBFE01280ED00D490D48006811F0C8F8BB
:104150000A48006830B120070A490860BFF34F8F52
:10416000BFF36F8F10BD0000220500202305002043
:10417000250500202105002024050020C005002081
:10418000FC04002004ED00E010B50446044800687B
:10419000204020B1024804602046FFF7A1FF10BD77
:1041A000143C0140F8B502460B46002500240020CF
:1041B0000021D6E0012606FA01F51E6806EA05048C
:1041C000AC4274D11E7906F00306012E04D01E798C
:1041D00006F00306022E13D190684F000326BE405E
:1041E000B0434F00DE68BE40304390605068012607
:1041F0008E40B0431E79C6F300168E4030435060A7
:104200001E7906F00306032E09D0D0684F0003265E
:10421000BE40B0434F009E68BE403043D0601E7920
:1042200006F00306022E13D1CF0802F1200656F83D
:1042300027004E07F70E0F26BE40B0434F07FF0E74
:104240001E69BE403043CF0802F1200646F8270021
:1042500010684F000326BE40B0431E7906F00306E7
:104260004F00BE40304310605E6806F44036002EBA
:1042700076D000BF002600963C4E366846F4804655
:104280003A4F3E603E46366806F48046009600BFD0
:1042900000BF374E8F0856F827008E07370F0F26BE
:1042A000BE40B043334EB24202D1002624E057E074
:1042B000314EB24201D101261EE0304EB24201D150
:1042C000022619E02E4EB24201D1032614E02D4EF3
:1042D000B24201D104260FE02B4EB24201D1052695
:1042E0000AE02A4EB24201D1062605E0284EB2422B
:1042F00001D1072600E008268F073F0FBE4030435C
:104300001B4E8F0846F82700224E3068A0435E6897
:1043100006F4801606B120431E4E3060361D30680C
:10432000A0435E6806F4001606B12043194E361D00
:104330003060184E361F3068A0435E6806F40036C1
:1043400006B12043134E361F3060361F3068A0433D
:104350005E6806F4803606B120430E4E083E30609B
:10436000491C1029FFF426AFF8BD00004438024074
:1043700008380140000002400004024000080240EA
:10438000000C0240001002400014024000180240DD
:10439000001C0240083C01400AB1816101E00B04AD
:1043A00083617047014800687047000020000020CA
:1043B00070B504460CB9012070BD94F83D0028B9D1
:1043C000002084F83C00204600F010FB242084F8F4
:1043D0003D002068006820F0010021680860206826
:1043E000006840F40040216808602068006820F4FC
:1043F00000402168086000F0C1FE05465C49606825
:10440000884206D85B48854201D2012007E000209F
:1044100005E05948854201D2012000E00020012832
:1044200000D1C9E75548B5FBF0F62068406820F098
:104430003F003043216848604D496068884201D898
:10444000701C07E04FF4967070434FF47A71B0FB24
:10445000F1F0401C2168096A21F03F0108432168FE
:10446000086243496068884214D8681E6168490040
:10447000B0FBF1F0401CC0F30B00042801D2042073
:104480003DE0681E61684900B0FBF1F0401CC0F3DC
:104490000B0034E0A06838B9681E616801EB410187
:1044A000B0FBF1F0401C0AE0681E616801EBC1023C
:1044B00002EB0111B0FBF1F0401C40F48040C0F36E
:1044C0000B0008B901201AE0A06848B9681E6168AD
:1044D00001EB4101B0FBF1F0401CC0F30B000CE01C
:1044E000681E616801EBC10202EB0111B0FBF1F043
:1044F000401CC0F30B0040F4804040F400402168B1
:10450000C9694CF6FF72914308432168C861D4E938
:10451000070108432168096821F0C00108432168A8
:104520000860D4E9031008432168896848F2FF3223
:104530009143084321688860D4E905010843216854
:10454000C96821F0FF0108432168C860206800683D
:1045500040F001002168086000202064202084F8D9
:104560003D000020206384F83E0000BF24E70000E7
:10457000A086010080841E0000093D0040420F001B
:104580002DE9FC5F04460F4690469946DDE90CABE9
:104590000E9EFFF707FF054694F83D00202870D1D6
:1045A00019230122B5492046009502F02AFE10B1D8
:1045B0000220BDE8FC9F00BF94F83C00012801D117
:1045C0000220F6E7012084F83C0000BF2068006864
:1045D00000F0010028B92068006840F0010021685F
:1045E00008602068006820F40060216808602220CC
:1045F00084F83D00402084F83E0000202064C4F888
:1046000024A0A4F82AB0608D20859D48E0624B4626
:10461000424639462046CDE9006502F09FFC08B1CC
:104620000120C6E7208D88B900BF002001902068D6
:104630004069019020688069019000BF00BF206838
:10464000006840F400702168086040E0208D012877
:1046500018D12068006820F480602168086000BFDD
:1046600000200190206840690190206880690190D5
:1046700000BF00BF2068006840F400702168086037
:1046800025E0F8E0208D022816D12068006820F48B
:104690008060216808602068006840F4006021683C
:1046A000086000BF002001902068406901902068E8
:1046B0008069019000BF0AE000BF002001902068DF
:1046C0004069019020688069019000BF00BFC3E08D
:1046D000208D03287ED8208D012815D12A46314609
:1046E000204602F06AFE08B1012062E720680069F6
:1046F000616A0870606A401C6062208D401E2085DF
:10470000608D401E6085A7E0208D02282AD13346A7
:1047100000225C492046009502F073FD08B101209B
:1047200047E72068006840F400702168086020684E
:104730000069616A0870606A401C6062208D401EDA
:104740002085608D401E608520680069616A087060
:10475000606A401C6062208D401E2085608D401E76
:10476000608579E03346002246492046009502F0F4
:1047700048FD08B101201CE72068006820F4806033
:104780002168086020680069616A0870606A401CDE
:104790006062208D401E2085608D401E60853346FE
:1047A000002238492046009502F02BFD08B1012077
:1047B000FFE62068006840F4007021680860206807
:1047C0000069616A0870606A401C6062208D401E4A
:1047D000208500E010E0608D401E60852068006943
:1047E000616A0870606A401C6062208D401E2085EE
:1047F000608D401E60852FE02A463146204602F03B
:10480000DCFD08B10120D4E620680069616A087007
:10481000606A401C6062208D401E2085608D401EB5
:10482000608520684069C0F38000A8B1208D03280E
:1048300005D12068006820F4806021680860206845
:104840000069616A0870606A401C6062208D401EC9
:104850002085608D401E6085208D00287FF438AF54
:10486000202084F83D00002084F83E0000BF84F83A
:104870003C0000BF9DE602209BE600000200100005
:104880000000FFFF040001002DE9FC5F04460F4615
:1048900090469946DDE90CAB0E9EFFF783FD054679
:1048A00094F83D0020287DD1192301224D4920464E
:1048B000009502F0A6FC10B10220BDE8FC9F00BFED
:1048C00094F83C00012801D10220F6E7012084F889
:1048D0003C0000BF2068006800F0010028B9206893
:1048E000006840F00100216808602068006820F43A
:1048F000006021680860212084F83D00402084F891
:104900003E0000202064C4F824A0A4F82AB0608DE2
:1049100020853548E0624B46424639462046CDE97F
:10492000006502F0CBFB08B10120C6E731E02A4662
:104930003146204602F086FD50B1206C042805D196
:104940002068006840F40070216808600120B4E726
:10495000606A007821680861606A401C6062208D8E
:10496000401E2085608D401E608520684069C0F330
:10497000800070B1208D60B1606A007821680861A4
:10498000606A401C6062208D401E2085608D401E44
:104990006085208D0028CAD12A463146204602F083
:1049A000FDFB00E01CE050B1206C042805D120681C
:1049B000006840F400702168086001207DE72068ED
:1049C000006840F4007021680860202084F83D00F1
:1049D000002084F83E0000BF84F83C0000BF6CE774
:1049E00002206AE7020010000000FFFF10B586B049
:1049F0000446142101A8FCF75BF96F49206888423E
:104A000030D100BF002000906C48006840F00200E8
:104A10006A4908600846006800F00200009000BF84
:104A200000BF4FF4407001901220029000200390CC
:104A3000032004900420059001A96148FFF7B2FB10
:104A400000BF002000905D481030006840F4001066
:104A50005A49103108600846006800F400100090C0
:104A600000BFA6E057492068884250D100BF00200F
:104A700000905248006840F0200050490860084605
:104A8000006800F02000009000BF00BF03200190EC
:104A9000122002900020039003200490042005902F
:104AA00001A94948FFF77EFB00BF00200090434862
:104AB0001030006840F4800040491031086008461A
:104AC000006800F48000009000BF00BF3F484049EC
:104AD00008604FF06060486040213D4881600021DF
:104AE000C1604FF480610161002141618161C16158
:104AF0004FF40031016200214162FFF731FA08B141
:104B0000FDF718FD00BF32486063846351E031490E
:104B1000206888424DD100BF0020009027480068DF
:104B200040F00400254908600846006800F00400D1
:104B3000009000BF00BF00BF002000900846006842
:104B400040F0010008600846006800F00100009095
:104B500000BF00BF48150190122002900120039071
:104B6000032004900420059001A91B48FFF71AFBBD
:104B70004FF48070019012200290012003900320D6
:104B800004900420059001A91448FFF70BFB00BF17
:104B90000020009009481030006840F400000749E8
:104BA000103108600846006800F40000009000BF63
:104BB00000BF06B010BD0000005400403038024075
:104BC000000402400058004000140240B860024057
:104BD000F4100020005C0040000802400000024089
:104BE0000348006803490978084401490860704790
:104BF000200000202800002010B50D48006840F477
:104C000000700B4908600846006840F48060086046
:104C10000846006840F480700860032000F0E0F867
:104C20000F2000F007F800F05FF8002010BD000032
:104C3000003C02402DE9F04188B004460027B84608
:104C400000BF002001902448006840F00100224984
:104C500008600846006800F00100019000BF00BF36
:104C600002A903A800F062FA069F1FB900F086FAB5
:104C7000054602E000F082FA45001848B5FBF0F066
:104C8000A0F101084FF080401549086040F2E7317B
:104C90001348C160C0F80480002101618160816116
:104CA00001F092F8064696B90D4801F059F906460A
:104CB0006EB91C2000F042F8102C07D200222146C9
:104CC0001C2000F04FF80748046000E00126304641
:104CD00008B0BDE8F08100004038024040420F00BB
:104CE000941600202400002008B500BF002000908A
:104CF0001148006840F480400F4908600846006889
:104D000000F48040009000BF00BF00BF0020009072
:104D1000081F006840F08050091F086008460068BE
:104D200000F08050009000BF00BF00220F21901EB5
:104D300000F018F808BD000044380240014608465B
:104D400000280DDB00BF00BF00F01F0301229A40C6
:104D500043099B0003F1E023C3F8002100BF00BF1B
:104D600000BF70472DE9F05F80460D4616460027CC
:104D70000DF06CFE074639462A46334601F007001F
:104D8000C0F1070ABAF1040F02D94FF0040A01E09A
:104D9000C0F1070AD14600F1040ABAF1070F02D2A6
:104DA0004FF0000A01E0A0F1030AD4464FF0010AD7
:104DB0000AFA09FAAAF1010A0AEA020A0AFA0CFA3C
:104DC0004FF0010B0BFA0CFBABF1010B0BEA030BE1
:104DD0004AEA0B04214640460DF040FEBDE8F09F34
:104DE00000BF00F00702064B19684FF6FF03194099
:104DF000044B0B4343EA0221014B196000BF70478B
:104E00000CED00E00000FA05F8B504460025002688
:104E1000207800F0010020B9207800F00400042878
:104E20002FD100205B498866FFF7BCFA054606E0F3
:104E3000FFF7B8FA401B022801D90320F8BD5648F5
:104E40000068C0F3C0600028F2D160688101207A58
:104E500041EA007050498431086001204D4988665C
:104E6000FFF7A0FA054606E0FFF79CFA401B022870
:104E700001D90320E2E748480068C0F3C060002879
:104E8000F2D0207800F0020002287DD100BF00207F
:104E9000009041484030006840F080503E49403129
:104EA00008600846006800F08050009000BF00BF16
:104EB0003A48006840F4807038490860FFF772FA99
:104EC000054606E0FFF76EFA401B022801D90320D1
:104ED000B4E73248006800F480700028F2D02E4811
:104EE0007030006800F440764EB3A08900F4407042
:104EF000B04224D028487030006820F44076012069
:104F00002749086000200860234870300660006868
:104F100000F0010098B1FFF745FA054608E0FFF7F9
:104F200041FA401B41F28831884201D9032085E7CC
:104F3000194870300068C0F340000028EFD000BF6F
:104F4000A08900F44070B0F5407F0CD112480830C1
:104F5000006820F4F810134AE168114008430E4934
:104F60000831086007E00C480830006820F4F810A9
:104F7000094908310860084870300068A189C1F308
:104F80000B010843044900E002E07031086000BFF3
:104F9000002053E700004742003802400070004004
:104FA000400E4742FFFCFF0F70B504460D460CB99A
:104FB000012070BD5848006800F00700A84209D2DF
:104FC00055490D700846006800F00700A84201D05E
:104FD0000120EEE7207800F0020002281DD12078A1
:104FE00000F00400042805D14C48006840F4E0506B
:104FF0004A490860207800F00800082805D1474891
:10500000006840F46040454908604448006820F06A
:10501000F000A168084341490860207800F00100D1
:10502000A8B36068012807D13C4808380068C0F37D
:105030004040B8B90120BCE76068022802D060682F
:10504000032807D1354808380068C0F3406048B9E4
:105050000120AEE7314808380068C0F3400008B9C5
:105060000120A6E72D48006820F00300616808438E
:105070002A490860FFF796F9064609E0FFF792F91A
:10508000801B41F28831884202D9032091E707E072
:105090002248006800F00C006168B0EB810FEDD190
:1050A0001D48006800F00700A84209D91A490D7090
:1050B0000846006800F00700A84201D0012078E708
:1050C000207800F00400042807D11448006820F478
:1050D000E050E168084311490860207800F00800BA
:1050E000082808D10D48006820F46040216940EA92
:1050F000C1000A49086000F061F808490968C1F375
:105100000311074A515CC840064908600648006818
:10511000FFF790FD00204CE7003C024008380240B9
:105120007C6401082C000020240000200F22026073
:105130000D4A126802F0030242600B4A126802F044
:10514000F0028260084A126802F4E052C260064A25
:10515000126802F46042D2080261044A126802F046
:1051600007020A607047000008380240003C024015
:1051700001480068704700002C00002000B5FFF7D0
:10518000F7FF04490968C1F38221034A515CC84012
:1051900000BD0000083802408C64010800B5FFF72C
:1051A000E7FF04490968C1F34231034A515CC84032
:1051B00000BD0000083802408C6401082DE9F0476A
:1051C000002400250026A1462548006800F00C00B8
:1051D00020B1042805D008283AD105E0DFF88490F2
:1051E00039E0DFF8849036E01D48001F006800F0C9
:1051F0003F041B48001F006800F4800078B11A4883
:105200001749091F0968C1F38811A0FB0170014605
:10521000224600233846FBF701FD05460EE0114803
:105220000F49091F0968C1F38811A0FB01700146ED
:10523000224600233846FBF7F1FC05460848001FCC
:105240000068C0F30140401C4600B5FBF6F902E0DF
:10525000DFF8109000BF00BF4846BDE8F0870000AF
:10526000083802400024F400001BB700F8B50446DB
:105270000CB90120F8BD207800F00100002874D09E
:10528000F948006800F00C0004280DD0F6480068CA
:1052900000F00C00082813D1F348001F006800F448
:1052A0008000B0F5800F0BD1EF4808380068C0F3DC
:1052B0004040002859D06068002856D10120D9E725
:1052C00000BF6068B0F5803F08D1E7480838006843
:1052D00040F48030E449083908601EE06068B0F5A9
:1052E000A02F0DD1E0480838006840F48020DE4946
:1052F000083908600846006840F4803008600CE017
:10530000D9480838006820F48030D7490839086047
:105310000846006820F48020086000BF606890B1F3
:10532000FFF740F8054606E0FFF73CF8401B64280D
:1053300001D903209EE7CC4808380068C0F34040FC
:105340000028F1D011E0FFF72DF8054606E0FFF741
:1053500029F8401B642801D903208BE7C24808388C
:105360000068C0F340400028F1D1207800F002002E
:1053700002285FD1BC48006800F00C0058B1BA4860
:10538000006800F00C0008281CD1B748001F006816
:1053900000F48000B0B9B44808380068C0F3400099
:1053A00020B1E068012801D0012063E7AE48083849
:1053B000006820F0F800216940EAC100AA490839D4
:1053C000086037E0E06800B30120A8490860FEF7F4
:1053D000E9FF054606E0FEF7E5FF401B022801D97C
:1053E000032047E7A04808380068C0F340000028C1
:1053F000F1D09D480838006820F0F800216940EAA3
:10540000C10099490839086014E0002097490860F4
:10541000FEF7C8FF054606E0FEF7C4FF401B022862
:1054200001D9032026E7904808380068C0F34000FF
:105430000028F1D1207800F0080008282CD16069FC
:10544000A8B101208A490860FEF7ACFF054606E0D6
:10545000FEF7A8FF401B022801D903200AE7824873
:105460006C300068C0F340000028F1D014E0002048
:105470007F490860FEF796FF054606E0FEF792FFBB
:10548000401B022801D90320F4E677486C300068FD
:10549000C0F340000028F1D1207800F00400042877
:1054A00070D1002770483830006800F0805090B903
:1054B00000BF002000906C483830006840F08050F9
:1054C0006949383108600846006800F08050009053
:1054D00000BF00BF01276748006800F48070B0B9C2
:1054E0006448006840F4807062490860FEF75AFF23
:1054F000054606E0FEF756FF401B022801D90320AF
:10550000B8E65C48006800F480700028F2D000BF64
:10551000A068012808D154486830006840F00100B4
:105520005149683108601DE0A06805280DD14E483A
:105530006830006840F004004B4968310860084654
:10554000006840F0010008600CE0474868300068DF
:1055500020F001004449683108600846006820F0E6
:105560000400086000BFA068A8B1FEF71BFF054655
:1055700009E0FEF717FF401B41F28831884202D94B
:10558000032077E626E0384868300068C0F3400022
:105590000028EED013E0FEF705FF054608E0FEF711
:1055A00001FF401B41F28831884201D9032061E6A6
:1055B0002D4868300068C0F340000028EFD1012F6B
:1055C00007D129483830006820F08050264938310A
:1055D000086000BFA069002845D02348006800F09B
:1055E0000C0008285DD0A069022845D100201F4981
:1055F0000866FEF7D7FE054606E0FEF7D3FE401B21
:10560000022801D9032035E6174808380068C0F39E
:1056100040600028F1D1D4E907010843616A40EAFB
:1056200081110122A06AC2EB500041EA00412C2006
:10563000005D41EA00600C49091F086001200B4928
:105640000866FEF7AFFE054606E0FEF7ABFE401B20
:10565000022801D903200DE6034808380068C0F38A
:1056600040600028F1D049E008380240000047427D
:10567000800E474200700040002021490866FEF776
:1056800091FE054606E0FEF78DFE401B022801D97B
:105690000320EFE51B480068C0F340600028F2D10A
:1056A0002CE0A069012800D1E4E51648001D066839
:1056B000A069012820D006F48001E06981421BD155
:1056C00006F03F01206A814216D147F6C070304093
:1056D000616AB0EB811F0FD106F440310122A06A4C
:1056E000C2EB5000B1EB004F06D106F070612C20E8
:1056F000005DB1EB006F01D00120BBE50020B9E5F2
:10570000000047420038024070B504460CB9012041
:1057100070BD607F20B900202077204600F04EF851
:10572000022060772068C068C0F3001000283CD1D8
:1057300000BFCA202168486253202168486200BF28
:10574000204609F003FB0546EDB9206880681A4938
:1057500008402168886021696068084361690843DE
:10576000216889680843216888602168E0680861C9
:1057700020680169208941EA0040216808612046CB
:1057800009F009FB05465DB92068006C20F4802013
:10579000216808642068006CA169084321680864D6
:1057A00000BFFF202168486200E000250DB90120FC
:1057B00060772846ACE70000BFFF8FFF1FB50446A7
:1057C00000200090019002900390094920688842CF
:1057D0000CD102200090074803906846FFF714FBA5
:1057E00008B1FCF7A7FE0120034908601FBD0000B7
:1057F0000028004000031E003C0E474270B50446DE
:1058000000250B482168C860FEF7CCFD054607E07F
:10581000FEF7C8FD401BB0F57A7F01D9032070BDAB
:105820002068C06800F020000028F1D00020F6E7D2
:105830005F7F010010B504460CB9012010BD606AFD
:1058400038B96068B0F5827F00D105E00021E161E0
:1058500002E00021216161610021A16294F8510000
:1058600028B9002084F85000204600F047F80220B4
:1058700084F851002068006820F04000216808602A
:10588000A08800F48270218901F404410843A189B1
:1058900001F400610843217C01F002010843217DED
:1058A00001F001010843218B01F400710843217FBD
:1058B00001F0380108432021095D01F0800108430F
:1058C000218D01F400510843216808600421A0697A
:1058D00001EA104094F8241001F0100108432168F7
:1058E00048602068C06920F400602168C861002019
:1058F0006065012084F8510000209FE710B586B054
:105900000446142101A8FBF7D3F94B4920688842CB
:105910007ED100BF002000904848006840F48050CD
:10592000464908600846006800F48050009000BFB7
:1059300000BF00BF0020009040481438006840F0CD
:1059400002003E49143908600846006800F0020071
:10595000009000BF00BF00BF002000900846006814
:1059600040F0010008600846006800F00100009067
:1059700000BF00BF18200190022002900120039078
:10598000032004900520059001A92D48FEF70AFC8C
:1059900080200190022002900120039003200490B7
:1059A0000520059001A92748FEF7FCFB264827495A
:1059B00008604FF0C0604860002124488160C160E9
:1059C0004FF480610161002141618161C1614FF447
:1059D0004031016200214162FEF7C2FA08B1FCF7D2
:1059E000A9FD00BF1948E064846300BF1648183061
:1059F000174908604FF0C06048604021144881603A
:105A00000021C1604FF4806101610021416100E02B
:105A100010E08161C1614FF40031016200214162F7
:105A2000FEF79EFA08B1FCF785FD00BF0848A064A8
:105A3000846300BF06B010BD00300140443802400E
:105A4000000402400000024040640240CC110020EB
:105A50002C1200202DE9FE4F04460F4690461D46AD
:105A60000C9E01200190FEF79DFC814694F851B0F8
:105A700060680290AA46BBF1010F0BD00298B0F506
:105A8000827F04D1A06810B9BBF1040F02D00220BC
:105A9000BDE8FE8F1FB1B8F1000F00D00DB9012095
:105AA000F6E700BF94F85000012801D10220EFE78B
:105AB000012084F8500000BF94F85100042802D05F
:105AC000052084F8510000206065C4F83880E5871F
:105AD000A5872763E586A586206460642068006842
